{
	"data": {
		"bytecode": {
			"linkReferences": {},
			"object": "60806040526000601e553480156200001657600080fd5b5060405162004eb438038062004eb4833981810160405260808110156200003c57600080fd5b508051602082015160408301516060909301519192909160006200005f620004c4565b600080546001600160a01b0319166001600160a01b0383169081178255604051929350917f8be0079c531659141344cd1fd0a4f28419497f9722a3daafe3b4186f6b6457e0908290a3506001600255600380546001600160a01b038087166001600160a01b03199283161790925560058054928616928216831790556006805482168317905560078054821683179055600880549091169091179055670de0b6b3a7640000600955601381905560006011819055601255620001206200058a565b604051806104800160405280610100815260200160808152602001606081526020016040815260200160388152602001603081526020016028815260200160208152602001601c8152602001601881526020016014815260200160108152602001600f8152602001600e8152602001600d8152602001600c8152602001600b8152602001600a815260200160098152602001600881526020016008815260200160088152602001600881526020016008815260200160088152602001600881526020016008815260200160088152602001600881526020016008815260200160088152602001600881526020016008815260200160088152602001600881526020016004815250905080600a9060246200023c929190620005a9565b5062000247620005f9565b50604080516101008101825260008152600160208201526106eb9181019190915261a8c160608201526201fa41608082015262034bc160a082015262093a8160c08201526212750160e0820152620002a3600c826008620005a9565b50620002ae62000618565b506040805160c0810182526106ea815261a8c060208201526201fa409181019190915262034bc0606082015262093a8060808201526212750060a0820152620002fb600d826006620005a9565b5062000306620005f9565b506040805161010081018252604b8152605c60208201526060918101829052606291810191909152606360808201526103e360a08201526126f760c082015261270f60e08201526200035c600e826008620005a9565b5062000367620005f9565b506040805161010081018252604b8152605c60208201526060918101829052606291810191909152606360808201526103e360a08201526126f760c082015261270f60e0820152620003bd600f826008620005a9565b5060005b600a5460001901811015620004515760006200040e6001620003fa8a620003fa866001018e620004c860201b62003e7a1790919060201c565b6200052f60201b62003eda1790919060201c565b600b8054600181810183556000929092527f0175b7a638427703f0dbe7bb9bbf987a2551717b34e79f33b5b1008d1fa01db90191909155919091019050620003c1565b506200047986620003fa6001600a80549050038a620004c860201b62003e7a1790919060201c565b6010555050600b80546001810182556000919091526000197f0175b7a638427703f0dbe7bb9bbf987a2551717b34e79f33b5b1008d1fa01db990910155506200064d95505050505050565b3390565b600082620004d95750600062000529565b82820282848281620004e757fe5b0414620005265760405162461bcd60e51b815260040180806020018281038252602181526020018062004e936021913960400191505060405180910390fd5b90505b92915050565b60008282018381101562000526576040805162461bcd60e51b815260206004820152601b60248201527f536166654d6174683a206164646974696f6e206f766572666c6f770000000000604482015290519081900360640190fd5b6040518061048001604052806024906020820280368337509192915050565b828054828255906000526020600020908101928215620005e7579160200282015b82811115620005e7578251825591602001919060010190620005ca565b50620005f592915062000636565b5090565b6040518061010001604052806008906020820280368337509192915050565b6040518060c001604052806006906020820280368337509192915050565b5b80821115620005f5576000815560010162000637565b614836806200065d6000396000f3fe608060405234801561001057600080fd5b50600436106104755760003560e01c8063847bdaa411610257578063c749d61411610146578063dd77b9fd116100c3578063eda6704811610087578063eda670481461119a578063f2fde38b146111c0578063f2ffc22c146111e6578063f930e77014611203578063fb0754331461122657610475565b8063dd77b9fd14611113578063de98852414611141578063eb986b6c1461115e578063ec12173d1461118a578063ed9bdeda1461119257610475565b8063ce2529c91161010a578063ce2529c91461105e578063cf1c316a14611084578063d007db29146110aa578063d49e77cd146110c7578063d9608d8a146110cf57610475565b8063c749d61414610f99578063c8a4271f14610fbf578063c8ed768014610fc7578063cb0b8ca11461101b578063cbd258b51461103857610475565b806398969e82116101d4578063b918161111610198578063b918161114610f15578063beff2a5314610f4f578063c56a10ff14610f6c578063c663baa614610f74578063c6929e5314610f9157610475565b806398969e8214610e8a578063a02306f914610eb6578063a82859c514610ebe578063ae169a5014610edb578063b606696214610ef857610475565b80638dbdbe6d1161021b5780638dbdbe6d14610dbe578063929c697114610df057806393f1a40b14610e16578063975532dc14610e7a578063980c2a9814610e8257610475565b8063847bdaa414610c2b5780638cc883ce14610ccc5780638d88a90e14610d6d5780638da5cb5b14610d935780638dbb1e3a14610d9b57610475565b80633c9d9267116103735780635c5e490b116102f057806364482f79116102b457806364482f7914610ba1578063715018a614610bcc5780637c39c9c914610bd457806382386d5814610bf157806382796e9814610c2357610475565b80635c5e490b14610a835780635eac623914610aa95780636066debd14610b4a5780636245f08414610b7c578063630b5ba114610b9957610475565b80634af0e3e1116103375780634af0e3e1146109565780634dbf85ca146109f75780634f2552c814610a1d57806351eb05a614610a495780635312ea8e14610a6657610475565b80633c9d92671461084d5780633d479cd5146108555780634179b4fb14610872578063466640641461088f578063485d7d941461093057610475565b806322a376b0116104015780632fda7735116103c55780632fda77351461073b57806330fb8e0e14610758578063354affb71461077e57806336ebcde61461081f57806339b3e8261461084557610475565b806322a376b0146105b7578063245b211d146105bf57806324b95c3e146105dc57806327e68928146105f95780632a7b01071461069a57610475565b80630ad58d2f116104485780630ad58d2f146104dd5780631526fe271461051157806317caf6f11461055e5780631d465c82146105665780631eaaa0451461058357610475565b806305268cff1461047a578063081e3eda1461049e57806309ae4d2c146104b85780630a67d518146104d5575b600080fd5b610482611243565b604080516001600160a01b039092168252519081900360200190f35b6104a6611252565b60408051918252519081900360200190f35b6104a6600480360360208110156104ce57600080fd5b5035611258565b6104a6611296565b61050f600480360360608110156104f357600080fd5b50803590602081013590604001356001600160a01b031661129c565b005b61052e6004803603602081101561052757600080fd5b503561190e565b604080516001600160a01b0390951685526020850193909352838301919091526060830152519081900360800190f35b6104a661194f565b6104a66004803603602081101561057c57600080fd5b5035611955565b61050f6004803603606081101561059957600080fd5b508035906001600160a01b03602082013516906040013515156119c8565b610482611c22565b61050f600480360360208110156105d557600080fd5b5035611c31565b61050f600480360360208110156105f257600080fd5b5035611ca2565b61050f6004803603602081101561060f57600080fd5b810190602081018135600160201b81111561062957600080fd5b82018360208201111561063b57600080fd5b803590602001918460208302840111600160201b8311171561065c57600080fd5b919080806020026020016040519081016040528093929190818152602001838360200280828437600092019190915250929550611d13945050505050565b61050f600480360360208110156106b057600080fd5b810190602081018135600160201b8111156106ca57600080fd5b8201836020820111156106dc57600080fd5b803590602001918460208302840111600160201b831117156106fd57600080fd5b919080806020026020016040519081016040528093929190818152602001838360200280828437600092019190915250929550611d96945050505050565b6104a66004803603602081101561075157600080fd5b5035611e15565b61050f6004803603602081101561076e57600080fd5b50356001600160a01b0316611e33565b61050f6004803603602081101561079457600080fd5b810190602081018135600160201b8111156107ae57600080fd5b8201836020820111156107c057600080fd5b803590602001918460208302840111600160201b831117156107e157600080fd5b919080806020026020016040519081016040528093929190818152602001838360200280828437600092019190915250929550611ec1945050505050565b6104a66004803603602081101561083557600080fd5b50356001600160a01b0316611f40565b6104a6611f8d565b610482611f93565b61050f6004803603602081101561086b57600080fd5b5035611fa2565b6104a66004803603602081101561088857600080fd5b5035612013565b61050f600480360360208110156108a557600080fd5b810190602081018135600160201b8111156108bf57600080fd5b8201836020820111156108d157600080fd5b803590602001918460208302840111600160201b831117156108f257600080fd5b919080806020026020016040519081016040528093929190818152602001838360200280828437600092019190915250929550612020945050505050565b61050f6004803603602081101561094657600080fd5b50356001600160a01b031661209f565b61050f6004803603602081101561096c57600080fd5b810190602081018135600160201b81111561098657600080fd5b82018360208201111561099857600080fd5b803590602001918460208302840111600160201b831117156109b957600080fd5b919080806020026020016040519081016040528093929190818152602001838360200280828437600092019190915250929550612138945050505050565b61050f60048036036020811015610a0d57600080fd5b50356001600160a01b03166121b7565b61050f60048036036040811015610a3357600080fd5b506001600160a01b038135169060200135612245565b61050f60048036036020811015610a5f57600080fd5b5035612318565b61050f60048036036020811015610a7c57600080fd5b50356128c0565b6104a660048036036020811015610a9957600080fd5b50356001600160a01b0316612a0f565b61050f60048036036020811015610abf57600080fd5b810190602081018135600160201b811115610ad957600080fd5b820183602082011115610aeb57600080fd5b803590602001918460208302840111600160201b83111715610b0c57600080fd5b919080806020026020016040519081016040528093929190818152602001838360200280828437600092019190915250929550612a5a945050505050565b61050f60048036036060811015610b6057600080fd5b508035906001600160a01b036020820135169060400135612a8a565b6104a660048036036020811015610b9257600080fd5b5035612b1f565b61050f612b2c565b61050f60048036036060811015610bb757600080fd5b50803590602081013590604001351515612b4b565b61050f612c26565b61050f60048036036020811015610bea57600080fd5b5035612cd2565b61050f60048036036060811015610c0757600080fd5b508035906001600160a01b036020820135169060400135612d43565b6104a6612dd8565b61050f60048036036020811015610c4157600080fd5b810190602081018135600160201b811115610c5b57600080fd5b820183602082011115610c6d57600080fd5b803590602001918460208302840111600160201b83111715610c8e57600080fd5b919080806020026020016040519081016040528093929190818152602001838360200280828437600092019190915250929550612dde945050505050565b61050f60048036036020811015610ce257600080fd5b810190602081018135600160201b811115610cfc57600080fd5b820183602082011115610d0e57600080fd5b803590602001918460208302840111600160201b83111715610d2f57600080fd5b919080806020026020016040519081016040528093929190818152602001838360200280828437600092019190915250929550612e5d945050505050565b61050f60048036036020811015610d8357600080fd5b50356001600160a01b0316612edc565b610482612f6a565b6104a660048036036040811015610db157600080fd5b5080359060200135612f79565b61050f60048036036060811015610dd457600080fd5b50803590602081013590604001356001600160a01b0316613075565b6104a660048036036020811015610e0657600080fd5b50356001600160a01b031661332f565b610e4260048036036040811015610e2c57600080fd5b50803590602001356001600160a01b031661337e565b604080519788526020880196909652868601949094526060860192909252608085015260a084015260c0830152519081900360e00190f35b6104a66133cd565b6104a66133d3565b6104a660048036036040811015610ea057600080fd5b50803590602001356001600160a01b03166133d9565b6104a6613527565b6104a660048036036020811015610ed457600080fd5b503561352d565b61050f60048036036020811015610ef157600080fd5b503561353a565b61050f60048036036020811015610f0e57600080fd5b503561354c565b610f3b60048036036020811015610f2b57600080fd5b50356001600160a01b03166135bd565b604080519115158252519081900360200190f35b6104a660048036036020811015610f6557600080fd5b50356135d2565b6104a66135df565b61050f60048036036020811015610f8a57600080fd5b50356135e5565b6104a6613656565b61050f60048036036020811015610faf57600080fd5b50356001600160a01b031661365c565b6104826136ea565b610ff060048036036060811015610fdd57600080fd5b50803590602081013590604001356136f9565b6040805195865260208601949094528484019290925260608401526080830152519081900360a00190f35b6104a66004803603602081101561103157600080fd5b50356138cb565b610f3b6004803603602081101561104e57600080fd5b50356001600160a01b03166138d8565b6104a66004803603602081101561107457600080fd5b50356001600160a01b03166138ed565b61050f6004803603602081101561109a57600080fd5b50356001600160a01b03166138ff565b6104a6600480360360208110156110c057600080fd5b5035613988565b610482613995565b6110f5600480360360208110156110e557600080fd5b50356001600160a01b03166139a4565b60408051938452602084019290925282820152519081900360600190f35b6104a66004803603604081101561112957600080fd5b506001600160a01b03813581169160200135166139c5565b61050f6004803603602081101561115757600080fd5b50356139f4565b61050f6004803603604081101561117457600080fd5b506001600160a01b038135169060200135613a65565b610482613b1c565b6104a6613b2b565b61050f600480360360208110156111b057600080fd5b50356001600160a01b0316613b31565b61050f600480360360208110156111d657600080fd5b50356001600160a01b0316613c06565b61050f600480360360208110156111fc57600080fd5b5035613d08565b6104a66004803603604081101561121957600080fd5b5080359060200135613d79565b61050f6004803603602081101561123c57600080fd5b5035613e09565b6003546001600160a01b031681565b60195490565b6000818152601b602090815260408083203384529091528120600381015415611288576003015443039050611291565b60040154430390505b919050565b60165481565b6002805414156112f3576040805162461bcd60e51b815260206004820152601f60248201527f5265656e7472616e637947756172643a207265656e7472616e742063616c6c00604482015290519081900360640190fd5b6002808190555060006019848154811061130957fe5b60009182526020808320878452601b82526040808520338087529084528186206001600160a01b0389168752601c909452818620908652942082546004909402909101945090929186111561138f5760405162461bcd60e51b815260040180806020018281038252602281526020018061478b6022913960400191505060405180910390fd5b6001600160a01b038516156113c25733600090815260018301602052604090208054879003905560038201805487900390555b805486900381556113d287612318565b6113db87613f34565b85156119005782546113ed90876141c0565b835560038301541561140a57600383015443036005840155611417565b6004830154430360058401555b600c60008154811061142557fe5b9060005260206000200154836005015414806114445750826006015443145b156114c35761149533611483606461147d600e60008154811061146357fe5b90600052602060002001548b613e7a90919063ffffffff16565b9061421d565b86546001600160a01b03169190614284565b600554600f80546114be926001600160a01b0316916114839160649161147d9160009061146357fe5b6118a2565b600c6001815481106114d157fe5b906000526020600020015483600501541015801561150b5750600d6000815481106114f857fe5b9060005260206000200154836005015411155b156115555761152a33611483606461147d600e60018154811061146357fe5b600554600f80546114be926001600160a01b0316916114839160649161147d91600190811061146357fe5b600c60028154811061156357fe5b906000526020600020015483600501541015801561159d5750600d60018154811061158a57fe5b9060005260206000200154836005015411155b156115e7576115bc33611483606461147d600e60028154811061146357fe5b600554600f80546114be926001600160a01b0316916114839160649161147d91600290811061146357fe5b600c6003815481106115f557fe5b906000526020600020015483600501541015801561162f5750600d60028154811061161c57fe5b9060005260206000200154836005015411155b156116795761164e33611483606461147d600e60038154811061146357fe5b600554600f80546114be926001600160a01b0316916114839160649161147d91600390811061146357fe5b600c60048154811061168757fe5b90600052602060002001548360050154101580156116c15750600d6003815481106116ae57fe5b9060005260206000200154836005015411155b1561170b576116e033611483606461147d600e60048154811061146357fe5b600554600f80546114be926001600160a01b0316916114839160649161147d91600490811061146357fe5b600c60058154811061171957fe5b90600052602060002001548360050154101580156117535750600d60048154811061174057fe5b9060005260206000200154836005015411155b156117a357611773336114836103e861147d600e60058154811061146357fe5b6114be600560009054906101000a90046001600160a01b03166114836103e861147d600f60058154811061146357fe5b600c6006815481106117b157fe5b90600052602060002001548360050154101580156117eb5750600d6005815481106117d857fe5b9060005260206000200154836005015411155b156118375761180b3361148361271061147d600e60068154811061146357fe5b600554600f80546114be926001600160a01b031691611483916127109161147d91600690811061146357fe5b600c60078154811061184557fe5b9060005260206000200154836005015411156118a2576118763361148361271061147d600e60078154811061146357fe5b600554600f80546118a2926001600160a01b031691611483916127109161147d91600790811061146357fe5b600384015483546118bd9164e8d4a510009161147d91613e7a565b6001840155604080518781529051889133917ff279e6a1f5e320cca91135676d9cb6e44ca8a08c0b88342bcdb1144f6511b5689181900360200190a34360038401555b505060016002555050505050565b6019818154811061191b57fe5b600091825260209091206004909102018054600182015460028301546003909301546001600160a01b039092169350919084565b601e5481565b6000806119656001430343612f79565b9050826119825760095461197a908290613e7a565b915050611291565b61197a601e5461147d6019600187038154811061199b57fe5b9060005260206000209060040201600101546119c260095486613e7a90919063ffffffff16565b90613e7a565b6119d06142d6565b6001600160a01b03166119e1612f6a565b6001600160a01b031614611a2a576040805162461bcd60e51b8152602060048201819052602482015260008051602061474b833981519152604482015290519081900360640190fd5b6001600160a01b0382166000908152601d6020526040902054829060ff1615611a845760405162461bcd60e51b81526004018080602001828103825260298152602001806146a56029913960400191505060405180910390fd5b6001600160a01b0383166000908152601a602052604090205415611ad95760405162461bcd60e51b815260040180806020018281038252602a8152602001806147ad602a913960400191505060405180910390fd5b8115611ae757611ae7612b2c565b60006013544311611afa57601354611afc565b435b601e54909150611b0c9086613eda565b601e55601980546001600160a01b039586166000818152601a6020908152604080832060019586019055601d8252808320805460ff1916861790558051608081018252938452908301998a5282019485526060820181815284549384018555939052517f944998273e477b495144fb8794c914197f3ccb46be2900f4698fd0ef743c9695600490920291820180546001600160a01b031916919097161790955594517f944998273e477b495144fb8794c914197f3ccb46be2900f4698fd0ef743c9696850155517f944998273e477b495144fb8794c914197f3ccb46be2900f4698fd0ef743c9697840155505090517f944998273e477b495144fb8794c914197f3ccb46be2900f4698fd0ef743c969890910155565b6006546001600160a01b031681565b3360009081526001602052604090205460ff1680611c5e575033611c53612f6a565b6001600160a01b0316145b611c9d576040805162461bcd60e51b8152602060048201526018602482015260008051602061476b833981519152604482015290519081900360640190fd5b601055565b3360009081526001602052604090205460ff1680611ccf575033611cc4612f6a565b6001600160a01b0316145b611d0e576040805162461bcd60e51b8152602060048201526018602482015260008051602061476b833981519152604482015290519081900360640190fd5b601355565b3360009081526001602052604090205460ff1680611d40575033611d35612f6a565b6001600160a01b0316145b611d7f576040805162461bcd60e51b8152602060048201526018602482015260008051602061476b833981519152604482015290519081900360640190fd5b8051611d929060149060208401906145fd565b5050565b3360009081526001602052604090205460ff1680611dc3575033611db8612f6a565b6001600160a01b0316145b611e02576040805162461bcd60e51b8152602060048201526018602482015260008051602061476b833981519152604482015290519081900360640190fd5b8051611d9290600e9060208401906145fd565b600a8181548110611e2257fe5b600091825260209091200154905081565b3360009081526001602052604090205460ff1680611e60575033611e55612f6a565b6001600160a01b0316145b611e9f576040805162461bcd60e51b8152602060048201526018602482015260008051602061476b833981519152604482015290519081900360640190fd5b600880546001600160a01b0319166001600160a01b0392909216919091179055565b3360009081526001602052604090205460ff1680611eee575033611ee3612f6a565b6001600160a01b0316145b611f2d576040805162461bcd60e51b8152602060048201526018602482015260008051602061476b833981519152604482015290519081900360640190fd5b8051611d9290600b9060208401906145fd565b6000611f4a614648565b50506001600160a01b03166000908152601c6020908152604091829020825160608101845281548152600282015492810183905260039091015492019190915290565b60135481565b6007546001600160a01b031681565b3360009081526001602052604090205460ff1680611fcf575033611fc4612f6a565b6001600160a01b0316145b61200e576040805162461bcd60e51b8152602060048201526018602482015260008051602061476b833981519152604482015290519081900360640190fd5b600955565b600b8181548110611e2257fe5b3360009081526001602052604090205460ff168061204d575033612042612f6a565b6001600160a01b0316145b61208c576040805162461bcd60e51b8152602060048201526018602482015260008051602061476b833981519152604482015290519081900360640190fd5b8051611d9290600a9060208401906145fd565b6120a76142d6565b6001600160a01b03166120b8612f6a565b6001600160a01b031614612101576040805162461bcd60e51b8152602060048201819052602482015260008051602061474b833981519152604482015290519081900360640190fd5b6001600160a01b03811633141561211757600080fd5b6001600160a01b03166000908152600160205260409020805460ff19169055565b3360009081526001602052604090205460ff168061216557503361215a612f6a565b6001600160a01b0316145b6121a4576040805162461bcd60e51b8152602060048201526018602482015260008051602061476b833981519152604482015290519081900360640190fd5b8051611d9290600d9060208401906145fd565b3360009081526001602052604090205460ff16806121e45750336121d9612f6a565b6001600160a01b0316145b612223576040805162461bcd60e51b8152602060048201526018602482015260008051602061476b833981519152604482015290519081900360640190fd5b600680546001600160a01b0319166001600160a01b0392909216919091179055565b61224d6142d6565b6001600160a01b031661225e612f6a565b6001600160a01b0316146122a7576040805162461bcd60e51b8152602060048201819052602482015260008051602061474b833981519152604482015290519081900360640190fd5b60035460408051637aa0e40960e11b81526001600160a01b038581166004830152602482018590529151919092169163f541c81291604480830192600092919082900301818387803b1580156122fc57600080fd5b505af1158015612310573d6000803e3d6000fd5b505050505050565b60006019828154811061232757fe5b906000526020600020906004020190508060020154431161234857506128bd565b8054604080516370a0823160e01b815230600482015290516000926001600160a01b0316916370a08231916024808301926020929190829003018186803b15801561239257600080fd5b505afa1580156123a6573d6000803e3d6000fd5b505050506040513d60208110156123bc57600080fd5b50519050806123d25750436002909101556128bd565b60008060008060006123ed87600201544389600101546136f9565b60035460408051637aa0e40960e11b8152306004820152602481018790529051969b5094995092975090955093506001600160a01b03169163f541c8129160448082019260009290919082900301818387803b15801561244c57600080fd5b505af1158015612460573d6000803e3d6000fd5b5050505061248e6124838761147d64e8d4a5100088613e7a90919063ffffffff16565b600389015490613eda565b600388015543600288015584156125a05760035460055460408051637aa0e40960e11b81526001600160a01b039283166004820152602481018990529051919092169163f541c81291604480830192600092919082900301818387803b1580156124f757600080fd5b505af115801561250b573d6000803e3d6000fd5b5050505060105443116125a0576003546005546001600160a01b039182169163282d3fdf9116612541606461147d8a604b613e7a565b6040518363ffffffff1660e01b815260040180836001600160a01b0316815260200182815260200192505050600060405180830381600087803b15801561258757600080fd5b505af115801561259b573d6000803e3d6000fd5b505050505b82156126a75760035460065460408051637aa0e40960e11b81526001600160a01b039283166004820152602481018790529051919092169163f541c81291604480830192600092919082900301818387803b1580156125fe57600080fd5b505af1158015612612573d6000803e3d6000fd5b5050505060105443116126a7576003546006546001600160a01b039182169163282d3fdf9116612648606461147d88602d613e7a565b6040518363ffffffff1660e01b815260040180836001600160a01b0316815260200182815260200192505050600060405180830381600087803b15801561268e57600080fd5b505af11580156126a2573d6000803e3d6000fd5b505050505b81156127ae5760035460075460408051637aa0e40960e11b81526001600160a01b039283166004820152602481018690529051919092169163f541c81291604480830192600092919082900301818387803b15801561270557600080fd5b505af1158015612719573d6000803e3d6000fd5b5050505060105443116127ae576003546007546001600160a01b039182169163282d3fdf911661274f606461147d876055613e7a565b6040518363ffffffff1660e01b815260040180836001600160a01b0316815260200182815260200192505050600060405180830381600087803b15801561279557600080fd5b505af11580156127a9573d6000803e3d6000fd5b505050505b80156128b55760035460085460408051637aa0e40960e11b81526001600160a01b039283166004820152602481018590529051919092169163f541c81291604480830192600092919082900301818387803b15801561280c57600080fd5b505af1158015612820573d6000803e3d6000fd5b5050505060105443116128b5576003546008546001600160a01b039182169163282d3fdf9116612856606461147d86605f613e7a565b6040518363ffffffff1660e01b815260040180836001600160a01b0316815260200182815260200192505050600060405180830381600087803b15801561289c57600080fd5b505af11580156128b0573d6000803e3d6000fd5b505050505b505050505050505b50565b600280541415612917576040805162461bcd60e51b815260206004820152601f60248201527f5265656e7472616e637947756172643a207265656e7472616e742063616c6c00604482015290519081900360640190fd5b6002808190555060006019828154811061292d57fe5b60009182526020808320858452601b82526040808520338652909252908320805460049093029091019350919061296c9060649061147d90604b613e7a565b9050600061298d606461147d60198660000154613e7a90919063ffffffff16565b6000808555600185015584549091506129b0906001600160a01b03163384614284565b60055484546129cc916001600160a01b03918216911683614284565b604080518381529051869133917fbb757047c2b5f3974fe26b7c10f732e7bce710b0952a71082702781e62ae05959181900360200190a350506001600255505050565b6000612a19614648565b50506001600160a01b03166000908152601c602090815260409182902082516060810184528154815260028201549281019290925260030154910181905290565b60005b8151811015611d9257612a82828281518110612a7557fe5b602002602001015161353a565b600101612a5d565b3360009081526001602052604090205460ff1680612ab7575033612aac612f6a565b6001600160a01b0316145b612af6576040805162461bcd60e51b8152602060048201526018602482015260008051602061476b833981519152604482015290519081900360640190fd5b6000928352601b602090815260408085206001600160a01b039094168552929052912060030155565b600c8181548110611e2257fe5b60195460005b81811015611d9257612b4381612318565b600101612b32565b612b536142d6565b6001600160a01b0316612b64612f6a565b6001600160a01b031614612bad576040805162461bcd60e51b8152602060048201819052602482015260008051602061474b833981519152604482015290519081900360640190fd5b8015612bbb57612bbb612b2c565b612bf882612bf260198681548110612bcf57fe5b906000526020600020906004020160010154601e546141c090919063ffffffff16565b90613eda565b601e819055508160198481548110612c0c57fe5b906000526020600020906004020160010181905550505050565b612c2e6142d6565b6001600160a01b0316612c3f612f6a565b6001600160a01b031614612c88576040805162461bcd60e51b8152602060048201819052602482015260008051602061474b833981519152604482015290519081900360640190fd5b600080546040516001600160a01b03909116907f8be0079c531659141344cd1fd0a4f28419497f9722a3daafe3b4186f6b6457e0908390a3600080546001600160a01b0319169055565b3360009081526001602052604090205460ff1680612cff575033612cf4612f6a565b6001600160a01b0316145b612d3e576040805162461bcd60e51b8152602060048201526018602482015260008051602061476b833981519152604482015290519081900360640190fd5b601155565b3360009081526001602052604090205460ff1680612d70575033612d65612f6a565b6001600160a01b0316145b612daf576040805162461bcd60e51b8152602060048201526018602482015260008051602061476b833981519152604482015290519081900360640190fd5b6000928352601b602090815260408085206001600160a01b039094168552929052912060040155565b60115481565b3360009081526001602052604090205460ff1680612e0b575033612e00612f6a565b6001600160a01b0316145b612e4a576040805162461bcd60e51b8152602060048201526018602482015260008051602061476b833981519152604482015290519081900360640190fd5b8051611d9290600c9060208401906145fd565b3360009081526001602052604090205460ff1680612e8a575033612e7f612f6a565b6001600160a01b0316145b612ec9576040805162461bcd60e51b8152602060048201526018602482015260008051602061476b833981519152604482015290519081900360640190fd5b8051611d9290600f9060208401906145fd565b3360009081526001602052604090205460ff1680612f09575033612efe612f6a565b6001600160a01b0316145b612f48576040805162461bcd60e51b8152602060048201526018602482015260008051602061476b833981519152604482015290519081900360640190fd5b600580546001600160a01b0319166001600160a01b0392909216919091179055565b6000546001600160a01b031690565b6013546000908190841015612f9257600091505061306f565b60005b600b5481101561306b576000600b8281548110612fae57fe5b906000526020600020015490506001600a8054905003821115612fd7576000935050505061306f565b80851161301d576000613006600a8481548110612ff057fe5b6000918252602090912001546119c2888a6141c0565b90506130128482613eda565b94505050505061306f565b8086101561306257600061304d600a848154811061303757fe5b6000918252602090912001546119c2848a6141c0565b9196508691905061305e8482613eda565b9350505b50600101612f95565b5090505b92915050565b6002805414156130cc576040805162461bcd60e51b815260206004820152601f60248201527f5265656e7472616e637947756172643a207265656e7472616e742063616c6c00604482015290519081900360640190fd5b600280558161310c5760405162461bcd60e51b81526004018080602001828103825260368152602001806147156036913960400191505060405180910390fd5b60006019848154811061311b57fe5b60009182526020808320878452601b82526040808520338087529084528186206005546001600160a01b039081168852838820908a168852601c8652838820928852838820600184019096529290962054600495909502909201955092909190156131a6573360009081526001830160205260409020805488019055600382018054880190556131d5565b336000908152600180840160205260409091208054890190556002830180549091019055600382018054880190555b6131ef606461147d6011548a613e7a90919063ffffffff16565b81540181556131fd88612318565b61320688613f34565b845461321d906001600160a01b031633308a6142da565b835461322a574360028501555b61325a61325261324b61271061147d6011548c613e7a90919063ffffffff16565b89906141c0565b855490613eda565b80855560038601546132779164e8d4a510009161147d9190613e7a565b84600101819055506132a86132a061324b61271061147d6012548c613e7a90919063ffffffff16565b845490613eda565b80845560038601546132c59164e8d4a510009161147d9190613e7a565b6001840155604080518881529051899133917f90890809c654f11d6e72a28fa60149770a0d11ec6c92319d6ceb2bb0a4ea1a159181900360200190a360048401541561331057613317565b4360048501555b50504360069092019190915550506001600255505050565b6000613339614648565b50506001600160a01b03166000908152601c60209081526040918290208251606081018452815480825260028301549382019390935260039091015492019190915290565b601b602052816000526040600020602052806000526040600020600091509150508060000154908060010154908060020154908060030154908060040154908060050154908060060154905087565b60095481565b60105481565b600080601984815481106133e957fe5b60009182526020808320878452601b825260408085206001600160a01b03898116875290845281862060049586029093016003810154815484516370a0823160e01b81523098810198909852935191985093969395939492909116926370a08231926024808301939192829003018186803b15801561346757600080fd5b505afa15801561347b573d6000803e3d6000fd5b505050506040513d602081101561349157600080fd5b50516002850154909150431180156134a95750600081115b156134ee5760006134c385600201544387600101546136f9565b509193506134ea92506134e3915084905061147d8464e8d4a51000613e7a565b8490613eda565b9250505b61351c836001015461351664e8d4a5100061147d868860000154613e7a90919063ffffffff16565b906141c0565b979650505050505050565b60175481565b60148181548110611e2257fe5b61354381612318565b6128bd81613f34565b3360009081526001602052604090205460ff168061357957503361356e612f6a565b6001600160a01b0316145b6135b8576040805162461bcd60e51b8152602060048201526018602482015260008051602061476b833981519152604482015290519081900360640190fd5b601555565b60016020526000908152604090205460ff1681565b600f8181548110611e2257fe5b60125481565b3360009081526001602052604090205460ff1680613612575033613607612f6a565b6001600160a01b0316145b613651576040805162461bcd60e51b8152602060048201526018602482015260008051602061476b833981519152604482015290519081900360640190fd5b601755565b60185481565b3360009081526001602052604090205460ff168061368957503361367e612f6a565b6001600160a01b0316145b6136c8576040805162461bcd60e51b8152602060048201526018602482015260008051602061476b833981519152604482015290519081900360640190fd5b600780546001600160a01b0319166001600160a01b0392909216919091179055565b6004546001600160a01b031681565b60008060008060008061370c8989612f79565b9050600061372f601e5461147d8a6119c260095487613e7a90919063ffffffff16565b90506000613827600360009054906101000a90046001600160a01b03166001600160a01b0316635e9ac9726040518163ffffffff1660e01b815260040160206040518083038186803b15801561378457600080fd5b505afa158015613798573d6000803e3d6000fd5b505050506040513d60208110156137ae57600080fd5b505160035460408051631aa93a7560e11b815290516001600160a01b039092169163355274ea91600480820192602092909190829003018186803b1580156137f557600080fd5b505afa158015613809573d6000803e3d6000fd5b505050506040513d602081101561381f57600080fd5b5051906141c0565b90508181101561384957600097508096506000955060009450600093506138bd565b613863606461147d60155485613e7a90919063ffffffff16565b9750819650613882606461147d60165485613e7a90919063ffffffff16565b955061389e606461147d60175485613e7a90919063ffffffff16565b94506138ba606461147d60185485613e7a90919063ffffffff16565b93505b505050939792965093509350565b600d8181548110611e2257fe5b601d6020526000908152604090205460ff1681565b601a6020526000908152604090205481565b6139076142d6565b6001600160a01b0316613918612f6a565b6001600160a01b031614613961576040805162461bcd60e51b8152602060048201819052602482015260008051602061474b833981519152604482015290519081900360640190fd5b6001600160a01b03166000908152600160208190526040909120805460ff19169091179055565b600e8181548110611e2257fe5b6005546001600160a01b031681565b601c6020526000908152604090208054600282015460039092015490919083565b6001600160a01b039182166000908152601c602090815260408083209390941682526001909201909152205490565b3360009081526001602052604090205460ff1680613a21575033613a16612f6a565b6001600160a01b0316145b613a60576040805162461bcd60e51b8152602060048201526018602482015260008051602061476b833981519152604482015290519081900360640190fd5b601855565b613a6d6142d6565b6001600160a01b0316613a7e612f6a565b6001600160a01b031614613ac7576040805162461bcd60e51b8152602060048201819052602482015260008051602061474b833981519152604482015290519081900360640190fd5b600354604080516340c10f1960e01b81526001600160a01b03858116600483015260248201859052915191909216916340c10f1991604480830192600092919082900301818387803b1580156122fc57600080fd5b6008546001600160a01b031681565b60155481565b3360009081526001602052604090205460ff1680613b5e575033613b53612f6a565b6001600160a01b0316145b613b9d576040805162461bcd60e51b8152602060048201526018602482015260008051602061476b833981519152604482015290519081900360640190fd5b6003546040805163f2fde38b60e01b81526001600160a01b0384811660048301529151919092169163f2fde38b91602480830192600092919082900301818387803b158015613beb57600080fd5b505af1158015613bff573d6000803e3d6000fd5b5050505050565b613c0e6142d6565b6001600160a01b0316613c1f612f6a565b6001600160a01b031614613c68576040805162461bcd60e51b8152602060048201819052602482015260008051602061474b833981519152604482015290519081900360640190fd5b6001600160a01b038116613cad5760405162461bcd60e51b815260040180806020018281038252602681526020018061467f6026913960400191505060405180910390fd5b600080546040516001600160a01b03808516939216917f8be0079c531659141344cd1fd0a4f28419497f9722a3daafe3b4186f6b6457e091a3600080546001600160a01b0319166001600160a01b0392909216919091179055565b3360009081526001602052604090205460ff1680613d35575033613d2a612f6a565b6001600160a01b0316145b613d74576040805162461bcd60e51b8152602060048201526018602482015260008051602061476b833981519152604482015290519081900360640190fd5b601655565b6013546000908190841015613d9257606491505061306f565b60005b600b5481101561306b576000600b8281548110613dae57fe5b90600052602060002001549050600160148054905003821115613dd7576000935050505061306f565b808511613e005760148281548110613deb57fe5b9060005260206000200154935050505061306f565b50600101613d95565b3360009081526001602052604090205460ff1680613e36575033613e2b612f6a565b6001600160a01b0316145b613e75576040805162461bcd60e51b8152602060048201526018602482015260008051602061476b833981519152604482015290519081900360640190fd5b601255565b600082613e895750600061306f565b82820282848281613e9657fe5b0414613ed35760405162461bcd60e51b81526004018080602001828103825260218152602001806146f46021913960400191505060405180910390fd5b9392505050565b600082820183811015613ed3576040805162461bcd60e51b815260206004820152601b60248201527f536166654d6174683a206164646974696f6e206f766572666c6f770000000000604482015290519081900360640190fd5b600060198281548110613f4357fe5b60009182526020808320858452601b825260408085203386529092529220805460049092029092019250156141bb576000613fa0826001015461351664e8d4a5100061147d87600301548760000154613e7a90919063ffffffff16565b600354604080516370a0823160e01b815230600482015290519293506000926001600160a01b03909216916370a0823191602480820192602092909190829003018186803b158015613ff157600080fd5b505afa158015614005573d6000803e3d6000fd5b505050506040513d602081101561401b57600080fd5b505190508082111561402b578091505b8115614198576003546040805163a9059cbb60e01b81523360048201526024810185905290516001600160a01b039092169163a9059cbb916044808201926020929091908290030181600087803b15801561408557600080fd5b505af1158015614099573d6000803e3d6000fd5b505050506040513d60208110156140af57600080fd5b50506010546002840154600091106141515760006140d06001430343613d79565b90506140e1606461147d8684613e7a565b6003546040805163282d3fdf60e01b81523360048201526024810184905290519294506001600160a01b039091169163282d3fdf9160448082019260009290919082900301818387803b15801561413757600080fd5b505af115801561414b573d6000803e3d6000fd5b50505050505b43600285015560408051848152602081018390528151889233927f3887f2857beaaf367eb618dfb5e22c1ebd74425affb0602c2e9fe126e3f860eb929081900390910190a3505b600384015483546141b39164e8d4a510009161147d91613e7a565b600184015550505b505050565b600082821115614217576040805162461bcd60e51b815260206004820152601e60248201527f536166654d6174683a207375627472616374696f6e206f766572666c6f770000604482015290519081900360640190fd5b50900390565b6000808211614273576040805162461bcd60e51b815260206004820152601a60248201527f536166654d6174683a206469766973696f6e206279207a65726f000000000000604482015290519081900360640190fd5b81838161427c57fe5b049392505050565b604080516001600160a01b038416602482015260448082018490528251808303909101815260649091019091526020810180516001600160e01b031663a9059cbb60e01b1790526141bb90849061433a565b3390565b604080516001600160a01b0380861660248301528416604482015260648082018490528251808303909101815260849091019091526020810180516001600160e01b03166323b872dd60e01b17905261433490859061433a565b50505050565b606061438f826040518060400160405280602081526020017f5361666545524332303a206c6f772d6c6576656c2063616c6c206661696c6564815250856001600160a01b03166143eb9092919063ffffffff16565b8051909150156141bb578080602001905160208110156143ae57600080fd5b50516141bb5760405162461bcd60e51b815260040180806020018281038252602a8152602001806147d7602a913960400191505060405180910390fd5b60606143fa8484600085614402565b949350505050565b6060824710156144435760405162461bcd60e51b81526004018080602001828103825260268152602001806146ce6026913960400191505060405180910390fd5b61444c85614553565b61449d576040805162461bcd60e51b815260206004820152601d60248201527f416464726573733a2063616c6c20746f206e6f6e2d636f6e7472616374000000604482015290519081900360640190fd5b60006060866001600160a01b031685876040518082805190602001908083835b602083106144dc5780518252601f1990920191602091820191016144bd565b6001836020036101000a03801982511681845116808217855250505050505090500191505060006040518083038185875af1925050503d806000811461453e576040519150601f19603f3d011682016040523d82523d6000602084013e614543565b606091505b509150915061351c828286614559565b3b151590565b60608315614568575081613ed3565b8251156145785782518084602001fd5b8160405162461bcd60e51b81526004018080602001828103825283818151815260200191508051906020019080838360005b838110156145c25781810151838201526020016145aa565b50505050905090810190601f1680156145ef5780820380516001836020036101000a031916815260200191505b509250505060405180910390fd5b828054828255906000526020600020908101928215614638579160200282015b8281111561463857825182559160200191906001019061461d565b50614644929150614669565b5090565b60405180606001604052806000815260200160008152602001600081525090565b5b80821115614644576000815560010161466a56fe4f776e61626c653a206e6577206f776e657220697320746865207a65726f20616464726573734d617374657247617264656e65723a3a6e6f6e4475706c6963617465643a206475706c696361746564416464726573733a20696e73756666696369656e742062616c616e636520666f722063616c6c536166654d6174683a206d756c7469706c69636174696f6e206f766572666c6f774d617374657247617264656e65723a3a6465706f7369743a20616d6f756e74206d7573742062652067726561746572207468616e20304f776e61626c653a2063616c6c6572206973206e6f7420746865206f776e657263616c6c6572206973206e6f7420617574686f72697a656400000000000000004d617374657247617264656e65723a3a77697468647261773a206e6f7420676f6f644d617374657247617264656e65723a3a6164643a206c7020697320616c726561647920696e20706f6f6c5361666545524332303a204552433230206f7065726174696f6e20646964206e6f742073756363656564a264697066735822122073cc3d525ce7dff884f1f7c73f9e27978d356c3c3532219f9ff5e1fb241b2f5064736f6c634300060c0033536166654d6174683a206d756c7469706c69636174696f6e206f766572666c6f77",
			"opcodes": "PUSH1 0x80 PUSH1 0x40 MSTORE PUSH1 0x0 PUSH1 0x1E SSTORE CALLVALUE DUP1 ISZERO PUSH3 0x16 JUMPI PUSH1 0x0 DUP1 REVERT JUMPDEST POP PUSH1 0x40 MLOAD PUSH3 0x4EB4 CODESIZE SUB DUP1 PUSH3 0x4EB4 DUP4 CODECOPY DUP2 DUP2 ADD PUSH1 0x40 MSTORE PUSH1 0x80 DUP2 LT ISZERO PUSH3 0x3C JUMPI PUSH1 0x0 DUP1 REVERT JUMPDEST POP DUP1 MLOAD PUSH1 0x20 DUP3 ADD MLOAD PUSH1 0x40 DUP4 ADD MLOAD PUSH1 0x60 SWAP1 SWAP4 ADD MLOAD SWAP2 SWAP3 SWAP1 SWAP2 PUSH1 0x0 PUSH3 0x5F PUSH3 0x4C4 JUMP JUMPDEST PUSH1 0x0 DUP1 SLOAD PUSH1 0x1 PUSH1 0x1 PUSH1 0xA0 SHL SUB NOT AND PUSH1 0x1 PUSH1 0x1 PUSH1 0xA0 SHL SUB DUP4 AND SWAP1 DUP2 OR DUP3 SSTORE PUSH1 0x40 MLOAD SWAP3 SWAP4 POP SWAP2 PUSH32 0x8BE0079C531659141344CD1FD0A4F28419497F9722A3DAAFE3B4186F6B6457E0 SWAP1 DUP3 SWAP1 LOG3 POP PUSH1 0x1 PUSH1 0x2 SSTORE PUSH1 0x3 DUP1 SLOAD PUSH1 0x1 PUSH1 0x1 PUSH1 0xA0 SHL SUB DUP1 DUP8 AND PUSH1 0x1 PUSH1 0x1 PUSH1 0xA0 SHL SUB NOT SWAP3 DUP4 AND OR SWAP1 SWAP3 SSTORE PUSH1 0x5 DUP1 SLOAD SWAP3 DUP7 AND SWAP3 DUP3 AND DUP4 OR SWAP1 SSTORE PUSH1 0x6 DUP1 SLOAD DUP3 AND DUP4 OR SWAP1 SSTORE PUSH1 0x7 DUP1 SLOAD DUP3 AND DUP4 OR SWAP1 SSTORE PUSH1 0x8 DUP1 SLOAD SWAP1 SWAP2 AND SWAP1 SWAP2 OR SWAP1 SSTORE PUSH8 0xDE0B6B3A7640000 PUSH1 0x9 SSTORE PUSH1 0x13 DUP2 SWAP1 SSTORE PUSH1 0x0 PUSH1 0x11 DUP2 SWAP1 SSTORE PUSH1 0x12 SSTORE PUSH3 0x120 PUSH3 0x58A JUMP JUMPDEST PUSH1 0x40 MLOAD DUP1 PUSH2 0x480 ADD PUSH1 0x40 MSTORE DUP1 PUSH2 0x100 DUP2 MSTORE PUSH1 0x20 ADD PUSH1 0x80 DUP2 MSTORE PUSH1 0x20 ADD PUSH1 0x60 DUP2 MSTORE PUSH1 0x20 ADD PUSH1 0x40 DUP2 MSTORE PUSH1 0x20 ADD PUSH1 0x38 DUP2 MSTORE PUSH1 0x20 ADD PUSH1 0x30 DUP2 MSTORE PUSH1 0x20 ADD PUSH1 0x28 DUP2 MSTORE PUSH1 0x20 ADD PUSH1 0x20 DUP2 MSTORE PUSH1 0x20 ADD PUSH1 0x1C DUP2 MSTORE PUSH1 0x20 ADD PUSH1 0x18 DUP2 MSTORE PUSH1 0x20 ADD PUSH1 0x14 DUP2 MSTORE PUSH1 0x20 ADD PUSH1 0x10 DUP2 MSTORE PUSH1 0x20 ADD PUSH1 0xF DUP2 MSTORE PUSH1 0x20 ADD PUSH1 0xE DUP2 MSTORE PUSH1 0x20 ADD PUSH1 0xD DUP2 MSTORE PUSH1 0x20 ADD PUSH1 0xC DUP2 MSTORE PUSH1 0x20 ADD PUSH1 0xB DUP2 MSTORE PUSH1 0x20 ADD PUSH1 0xA DUP2 MSTORE PUSH1 0x20 ADD PUSH1 0x9 DUP2 MSTORE PUSH1 0x20 ADD PUSH1 0x8 DUP2 MSTORE PUSH1 0x20 ADD PUSH1 0x8 DUP2 MSTORE PUSH1 0x20 ADD PUSH1 0x8 DUP2 MSTORE PUSH1 0x20 ADD PUSH1 0x8 DUP2 MSTORE PUSH1 0x20 ADD PUSH1 0x8 DUP2 MSTORE PUSH1 0x20 ADD PUSH1 0x8 DUP2 MSTORE PUSH1 0x20 ADD PUSH1 0x8 DUP2 MSTORE PUSH1 0x20 ADD PUSH1 0x8 DUP2 MSTORE PUSH1 0x20 ADD PUSH1 0x8 DUP2 MSTORE PUSH1 0x20 ADD PUSH1 0x8 DUP2 MSTORE PUSH1 0x20 ADD PUSH1 0x8 DUP2 MSTORE PUSH1 0x20 ADD PUSH1 0x8 DUP2 MSTORE PUSH1 0x20 ADD PUSH1 0x8 DUP2 MSTORE PUSH1 0x20 ADD PUSH1 0x8 DUP2 MSTORE PUSH1 0x20 ADD PUSH1 0x8 DUP2 MSTORE PUSH1 0x20 ADD PUSH1 0x8 DUP2 MSTORE PUSH1 0x20 ADD PUSH1 0x4 DUP2 MSTORE POP SWAP1 POP DUP1 PUSH1 0xA SWAP1 PUSH1 0x24 PUSH3 0x23C SWAP3 SWAP2 SWAP1 PUSH3 0x5A9 JUMP JUMPDEST POP PUSH3 0x247 PUSH3 0x5F9 JUMP JUMPDEST POP PUSH1 0x40 DUP1 MLOAD PUSH2 0x100 DUP2 ADD DUP3 MSTORE PUSH1 0x0 DUP2 MSTORE PUSH1 0x1 PUSH1 0x20 DUP3 ADD MSTORE PUSH2 0x6EB SWAP2 DUP2 ADD SWAP2 SWAP1 SWAP2 MSTORE PUSH2 0xA8C1 PUSH1 0x60 DUP3 ADD MSTORE PUSH3 0x1FA41 PUSH1 0x80 DUP3 ADD MSTORE PUSH3 0x34BC1 PUSH1 0xA0 DUP3 ADD MSTORE PUSH3 0x93A81 PUSH1 0xC0 DUP3 ADD MSTORE PUSH3 0x127501 PUSH1 0xE0 DUP3 ADD MSTORE PUSH3 0x2A3 PUSH1 0xC DUP3 PUSH1 0x8 PUSH3 0x5A9 JUMP JUMPDEST POP PUSH3 0x2AE PUSH3 0x618 JUMP JUMPDEST POP PUSH1 0x40 DUP1 MLOAD PUSH1 0xC0 DUP2 ADD DUP3 MSTORE PUSH2 0x6EA DUP2 MSTORE PUSH2 0xA8C0 PUSH1 0x20 DUP3 ADD MSTORE PUSH3 0x1FA40 SWAP2 DUP2 ADD SWAP2 SWAP1 SWAP2 MSTORE PUSH3 0x34BC0 PUSH1 0x60 DUP3 ADD MSTORE PUSH3 0x93A80 PUSH1 0x80 DUP3 ADD MSTORE PUSH3 0x127500 PUSH1 0xA0 DUP3 ADD MSTORE PUSH3 0x2FB PUSH1 0xD DUP3 PUSH1 0x6 PUSH3 0x5A9 JUMP JUMPDEST POP PUSH3 0x306 PUSH3 0x5F9 JUMP JUMPDEST POP PUSH1 0x40 DUP1 MLOAD PUSH2 0x100 DUP2 ADD DUP3 MSTORE PUSH1 0x4B DUP2 MSTORE PUSH1 0x5C PUSH1 0x20 DUP3 ADD MSTORE PUSH1 0x60 SWAP2 DUP2 ADD DUP3 SWAP1 MSTORE PUSH1 0x62 SWAP2 DUP2 ADD SWAP2 SWAP1 SWAP2 MSTORE PUSH1 0x63 PUSH1 0x80 DUP3 ADD MSTORE PUSH2 0x3E3 PUSH1 0xA0 DUP3 ADD MSTORE PUSH2 0x26F7 PUSH1 0xC0 DUP3 ADD MSTORE PUSH2 0x270F PUSH1 0xE0 DUP3 ADD MSTORE PUSH3 0x35C PUSH1 0xE DUP3 PUSH1 0x8 PUSH3 0x5A9 JUMP JUMPDEST POP PUSH3 0x367 PUSH3 0x5F9 JUMP JUMPDEST POP PUSH1 0x40 DUP1 MLOAD PUSH2 0x100 DUP2 ADD DUP3 MSTORE PUSH1 0x4B DUP2 MSTORE PUSH1 0x5C PUSH1 0x20 DUP3 ADD MSTORE PUSH1 0x60 SWAP2 DUP2 ADD DUP3 SWAP1 MSTORE PUSH1 0x62 SWAP2 DUP2 ADD SWAP2 SWAP1 SWAP2 MSTORE PUSH1 0x63 PUSH1 0x80 DUP3 ADD MSTORE PUSH2 0x3E3 PUSH1 0xA0 DUP3 ADD MSTORE PUSH2 0x26F7 PUSH1 0xC0 DUP3 ADD MSTORE PUSH2 0x270F PUSH1 0xE0 DUP3 ADD MSTORE PUSH3 0x3BD PUSH1 0xF DUP3 PUSH1 0x8 PUSH3 0x5A9 JUMP JUMPDEST POP PUSH1 0x0 JUMPDEST PUSH1 0xA SLOAD PUSH1 0x0 NOT ADD DUP2 LT ISZERO PUSH3 0x451 JUMPI PUSH1 0x0 PUSH3 0x40E PUSH1 0x1 PUSH3 0x3FA DUP11 PUSH3 0x3FA DUP7 PUSH1 0x1 ADD DUP15 PUSH3 0x4C8 PUSH1 0x20 SHL PUSH3 0x3E7A OR SWAP1 SWAP2 SWAP1 PUSH1 0x20 SHR JUMP JUMPDEST PUSH3 0x52F PUSH1 0x20 SHL PUSH3 0x3EDA OR SWAP1 SWAP2 SWAP1 PUSH1 0x20 SHR JUMP JUMPDEST PUSH1 0xB DUP1 SLOAD PUSH1 0x1 DUP2 DUP2 ADD DUP4 SSTORE PUSH1 0x0 SWAP3 SWAP1 SWAP3 MSTORE PUSH32 0x175B7A638427703F0DBE7BB9BBF987A2551717B34E79F33B5B1008D1FA01DB9 ADD SWAP2 SWAP1 SWAP2 SSTORE SWAP2 SWAP1 SWAP2 ADD SWAP1 POP PUSH3 0x3C1 JUMP JUMPDEST POP PUSH3 0x479 DUP7 PUSH3 0x3FA PUSH1 0x1 PUSH1 0xA DUP1 SLOAD SWAP1 POP SUB DUP11 PUSH3 0x4C8 PUSH1 0x20 SHL PUSH3 0x3E7A OR SWAP1 SWAP2 SWAP1 PUSH1 0x20 SHR JUMP JUMPDEST PUSH1 0x10 SSTORE POP POP PUSH1 0xB DUP1 SLOAD PUSH1 0x1 DUP2 ADD DUP3 SSTORE PUSH1 0x0 SWAP2 SWAP1 SWAP2 MSTORE PUSH1 0x0 NOT PUSH32 0x175B7A638427703F0DBE7BB9BBF987A2551717B34E79F33B5B1008D1FA01DB9 SWAP1 SWAP2 ADD SSTORE POP PUSH3 0x64D SWAP6 POP POP POP POP POP POP JUMP JUMPDEST CALLER SWAP1 JUMP JUMPDEST PUSH1 0x0 DUP3 PUSH3 0x4D9 JUMPI POP PUSH1 0x0 PUSH3 0x529 JUMP JUMPDEST DUP3 DUP3 MUL DUP3 DUP5 DUP3 DUP2 PUSH3 0x4E7 JUMPI INVALID JUMPDEST DIV EQ PUSH3 0x526 JUMPI PUSH1 0x40 MLOAD PUSH3 0x461BCD PUSH1 0xE5 SHL DUP2 MSTORE PUSH1 0x4 ADD DUP1 DUP1 PUSH1 0x20 ADD DUP3 DUP2 SUB DUP3 MSTORE PUSH1 0x21 DUP2 MSTORE PUSH1 0x20 ADD DUP1 PUSH3 0x4E93 PUSH1 0x21 SWAP2 CODECOPY PUSH1 0x40 ADD SWAP2 POP POP PUSH1 0x40 MLOAD DUP1 SWAP2 SUB SWAP1 REVERT JUMPDEST SWAP1 POP JUMPDEST SWAP3 SWAP2 POP POP JUMP JUMPDEST PUSH1 0x0 DUP3 DUP3 ADD DUP4 DUP2 LT ISZERO PUSH3 0x526 JUMPI PUSH1 0x40 DUP1 MLOAD PUSH3 0x461BCD PUSH1 0xE5 SHL DUP2 MSTORE PUSH1 0x20 PUSH1 0x4 DUP3 ADD MSTORE PUSH1 0x1B PUSH1 0x24 DUP3 ADD MSTORE PUSH32 0x536166654D6174683A206164646974696F6E206F766572666C6F770000000000 PUSH1 0x44 DUP3 ADD MSTORE SWAP1 MLOAD SWAP1 DUP2 SWAP1 SUB PUSH1 0x64 ADD SWAP1 REVERT JUMPDEST PUSH1 0x40 MLOAD DUP1 PUSH2 0x480 ADD PUSH1 0x40 MSTORE DUP1 PUSH1 0x24 SWAP1 PUSH1 0x20 DUP3 MUL DUP1 CALLDATASIZE DUP4 CALLDATACOPY POP SWAP2 SWAP3 SWAP2 POP POP JUMP JUMPDEST DUP3 DUP1 SLOAD DUP3 DUP3 SSTORE SWAP1 PUSH1 0x0 MSTORE PUSH1 0x20 PUSH1 0x0 KECCAK256 SWAP1 DUP2 ADD SWAP3 DUP3 ISZERO PUSH3 0x5E7 JUMPI SWAP2 PUSH1 0x20 MUL DUP3 ADD JUMPDEST DUP3 DUP2 GT ISZERO PUSH3 0x5E7 JUMPI DUP3 MLOAD DUP3 SSTORE SWAP2 PUSH1 0x20 ADD SWAP2 SWAP1 PUSH1 0x1 ADD SWAP1 PUSH3 0x5CA JUMP JUMPDEST POP PUSH3 0x5F5 SWAP3 SWAP2 POP PUSH3 0x636 JUMP JUMPDEST POP SWAP1 JUMP JUMPDEST PUSH1 0x40 MLOAD DUP1 PUSH2 0x100 ADD PUSH1 0x40 MSTORE DUP1 PUSH1 0x8 SWAP1 PUSH1 0x20 DUP3 MUL DUP1 CALLDATASIZE DUP4 CALLDATACOPY POP SWAP2 SWAP3 SWAP2 POP POP JUMP JUMPDEST PUSH1 0x40 MLOAD DUP1 PUSH1 0xC0 ADD PUSH1 0x40 MSTORE DUP1 PUSH1 0x6 SWAP1 PUSH1 0x20 DUP3 MUL DUP1 CALLDATASIZE DUP4 CALLDATACOPY POP SWAP2 SWAP3 SWAP2 POP POP JUMP JUMPDEST JUMPDEST DUP1 DUP3 GT ISZERO PUSH3 0x5F5 JUMPI PUSH1 0x0 DUP2 SSTORE PUSH1 0x1 ADD PUSH3 0x637 JUMP JUMPDEST PUSH2 0x4836 DUP1 PUSH3 0x65D PUSH1 0x0 CODECOPY PUSH1 0x0 RETURN INVALID PUSH1 0x80 PUSH1 0x40 MSTORE CALLVALUE DUP1 ISZERO PUSH2 0x10 JUMPI PUSH1 0x0 DUP1 REVERT JUMPDEST POP PUSH1 0x4 CALLDATASIZE LT PUSH2 0x475 JUMPI PUSH1 0x0 CALLDATALOAD PUSH1 0xE0 SHR DUP1 PUSH4 0x847BDAA4 GT PUSH2 0x257 JUMPI DUP1 PUSH4 0xC749D614 GT PUSH2 0x146 JUMPI DUP1 PUSH4 0xDD77B9FD GT PUSH2 0xC3 JUMPI DUP1 PUSH4 0xEDA67048 GT PUSH2 0x87 JUMPI DUP1 PUSH4 0xEDA67048 EQ PUSH2 0x119A JUMPI DUP1 PUSH4 0xF2FDE38B EQ PUSH2 0x11C0 JUMPI DUP1 PUSH4 0xF2FFC22C EQ PUSH2 0x11E6 JUMPI DUP1 PUSH4 0xF930E770 EQ PUSH2 0x1203 JUMPI DUP1 PUSH4 0xFB075433 EQ PUSH2 0x1226 JUMPI PUSH2 0x475 JUMP JUMPDEST DUP1 PUSH4 0xDD77B9FD EQ PUSH2 0x1113 JUMPI DUP1 PUSH4 0xDE988524 EQ PUSH2 0x1141 JUMPI DUP1 PUSH4 0xEB986B6C EQ PUSH2 0x115E JUMPI DUP1 PUSH4 0xEC12173D EQ PUSH2 0x118A JUMPI DUP1 PUSH4 0xED9BDEDA EQ PUSH2 0x1192 JUMPI PUSH2 0x475 JUMP JUMPDEST DUP1 PUSH4 0xCE2529C9 GT PUSH2 0x10A JUMPI DUP1 PUSH4 0xCE2529C9 EQ PUSH2 0x105E JUMPI DUP1 PUSH4 0xCF1C316A EQ PUSH2 0x1084 JUMPI DUP1 PUSH4 0xD007DB29 EQ PUSH2 0x10AA JUMPI DUP1 PUSH4 0xD49E77CD EQ PUSH2 0x10C7 JUMPI DUP1 PUSH4 0xD9608D8A EQ PUSH2 0x10CF JUMPI PUSH2 0x475 JUMP JUMPDEST DUP1 PUSH4 0xC749D614 EQ PUSH2 0xF99 JUMPI DUP1 PUSH4 0xC8A4271F EQ PUSH2 0xFBF JUMPI DUP1 PUSH4 0xC8ED7680 EQ PUSH2 0xFC7 JUMPI DUP1 PUSH4 0xCB0B8CA1 EQ PUSH2 0x101B JUMPI DUP1 PUSH4 0xCBD258B5 EQ PUSH2 0x1038 JUMPI PUSH2 0x475 JUMP JUMPDEST DUP1 PUSH4 0x98969E82 GT PUSH2 0x1D4 JUMPI DUP1 PUSH4 0xB9181611 GT PUSH2 0x198 JUMPI DUP1 PUSH4 0xB9181611 EQ PUSH2 0xF15 JUMPI DUP1 PUSH4 0xBEFF2A53 EQ PUSH2 0xF4F JUMPI DUP1 PUSH4 0xC56A10FF EQ PUSH2 0xF6C JUMPI DUP1 PUSH4 0xC663BAA6 EQ PUSH2 0xF74 JUMPI DUP1 PUSH4 0xC6929E53 EQ PUSH2 0xF91 JUMPI PUSH2 0x475 JUMP JUMPDEST DUP1 PUSH4 0x98969E82 EQ PUSH2 0xE8A JUMPI DUP1 PUSH4 0xA02306F9 EQ PUSH2 0xEB6 JUMPI DUP1 PUSH4 0xA82859C5 EQ PUSH2 0xEBE JUMPI DUP1 PUSH4 0xAE169A50 EQ PUSH2 0xEDB JUMPI DUP1 PUSH4 0xB6066962 EQ PUSH2 0xEF8 JUMPI PUSH2 0x475 JUMP JUMPDEST DUP1 PUSH4 0x8DBDBE6D GT PUSH2 0x21B JUMPI DUP1 PUSH4 0x8DBDBE6D EQ PUSH2 0xDBE JUMPI DUP1 PUSH4 0x929C6971 EQ PUSH2 0xDF0 JUMPI DUP1 PUSH4 0x93F1A40B EQ PUSH2 0xE16 JUMPI DUP1 PUSH4 0x975532DC EQ PUSH2 0xE7A JUMPI DUP1 PUSH4 0x980C2A98 EQ PUSH2 0xE82 JUMPI PUSH2 0x475 JUMP JUMPDEST DUP1 PUSH4 0x847BDAA4 EQ PUSH2 0xC2B JUMPI DUP1 PUSH4 0x8CC883CE EQ PUSH2 0xCCC JUMPI DUP1 PUSH4 0x8D88A90E EQ PUSH2 0xD6D JUMPI DUP1 PUSH4 0x8DA5CB5B EQ PUSH2 0xD93 JUMPI DUP1 PUSH4 0x8DBB1E3A EQ PUSH2 0xD9B JUMPI PUSH2 0x475 JUMP JUMPDEST DUP1 PUSH4 0x3C9D9267 GT PUSH2 0x373 JUMPI DUP1 PUSH4 0x5C5E490B GT PUSH2 0x2F0 JUMPI DUP1 PUSH4 0x64482F79 GT PUSH2 0x2B4 JUMPI DUP1 PUSH4 0x64482F79 EQ PUSH2 0xBA1 JUMPI DUP1 PUSH4 0x715018A6 EQ PUSH2 0xBCC JUMPI DUP1 PUSH4 0x7C39C9C9 EQ PUSH2 0xBD4 JUMPI DUP1 PUSH4 0x82386D58 EQ PUSH2 0xBF1 JUMPI DUP1 PUSH4 0x82796E98 EQ PUSH2 0xC23 JUMPI PUSH2 0x475 JUMP JUMPDEST DUP1 PUSH4 0x5C5E490B EQ PUSH2 0xA83 JUMPI DUP1 PUSH4 0x5EAC6239 EQ PUSH2 0xAA9 JUMPI DUP1 PUSH4 0x6066DEBD EQ PUSH2 0xB4A JUMPI DUP1 PUSH4 0x6245F084 EQ PUSH2 0xB7C JUMPI DUP1 PUSH4 0x630B5BA1 EQ PUSH2 0xB99 JUMPI PUSH2 0x475 JUMP JUMPDEST DUP1 PUSH4 0x4AF0E3E1 GT PUSH2 0x337 JUMPI DUP1 PUSH4 0x4AF0E3E1 EQ PUSH2 0x956 JUMPI DUP1 PUSH4 0x4DBF85CA EQ PUSH2 0x9F7 JUMPI DUP1 PUSH4 0x4F2552C8 EQ PUSH2 0xA1D JUMPI DUP1 PUSH4 0x51EB05A6 EQ PUSH2 0xA49 JUMPI DUP1 PUSH4 0x5312EA8E EQ PUSH2 0xA66 JUMPI PUSH2 0x475 JUMP JUMPDEST DUP1 PUSH4 0x3C9D9267 EQ PUSH2 0x84D JUMPI DUP1 PUSH4 0x3D479CD5 EQ PUSH2 0x855 JUMPI DUP1 PUSH4 0x4179B4FB EQ PUSH2 0x872 JUMPI DUP1 PUSH4 0x46664064 EQ PUSH2 0x88F JUMPI DUP1 PUSH4 0x485D7D94 EQ PUSH2 0x930 JUMPI PUSH2 0x475 JUMP JUMPDEST DUP1 PUSH4 0x22A376B0 GT PUSH2 0x401 JUMPI DUP1 PUSH4 0x2FDA7735 GT PUSH2 0x3C5 JUMPI DUP1 PUSH4 0x2FDA7735 EQ PUSH2 0x73B JUMPI DUP1 PUSH4 0x30FB8E0E EQ PUSH2 0x758 JUMPI DUP1 PUSH4 0x354AFFB7 EQ PUSH2 0x77E JUMPI DUP1 PUSH4 0x36EBCDE6 EQ PUSH2 0x81F JUMPI DUP1 PUSH4 0x39B3E826 EQ PUSH2 0x845 JUMPI PUSH2 0x475 JUMP JUMPDEST DUP1 PUSH4 0x22A376B0 EQ PUSH2 0x5B7 JUMPI DUP1 PUSH4 0x245B211D EQ PUSH2 0x5BF JUMPI DUP1 PUSH4 0x24B95C3E EQ PUSH2 0x5DC JUMPI DUP1 PUSH4 0x27E68928 EQ PUSH2 0x5F9 JUMPI DUP1 PUSH4 0x2A7B0107 EQ PUSH2 0x69A JUMPI PUSH2 0x475 JUMP JUMPDEST DUP1 PUSH4 0xAD58D2F GT PUSH2 0x448 JUMPI DUP1 PUSH4 0xAD58D2F EQ PUSH2 0x4DD JUMPI DUP1 PUSH4 0x1526FE27 EQ PUSH2 0x511 JUMPI DUP1 PUSH4 0x17CAF6F1 EQ PUSH2 0x55E JUMPI DUP1 PUSH4 0x1D465C82 EQ PUSH2 0x566 JUMPI DUP1 PUSH4 0x1EAAA045 EQ PUSH2 0x583 JUMPI PUSH2 0x475 JUMP JUMPDEST DUP1 PUSH4 0x5268CFF EQ PUSH2 0x47A JUMPI DUP1 PUSH4 0x81E3EDA EQ PUSH2 0x49E JUMPI DUP1 PUSH4 0x9AE4D2C EQ PUSH2 0x4B8 JUMPI DUP1 PUSH4 0xA67D518 EQ PUSH2 0x4D5 JUMPI JUMPDEST PUSH1 0x0 DUP1 REVERT JUMPDEST PUSH2 0x482 PUSH2 0x1243 JUMP JUMPDEST PUSH1 0x40 DUP1 MLOAD PUSH1 0x1 PUSH1 0x1 PUSH1 0xA0 SHL SUB SWAP1 SWAP3 AND DUP3 MSTORE MLOAD SWAP1 DUP2 SWAP1 SUB PUSH1 0x20 ADD SWAP1 RETURN JUMPDEST PUSH2 0x4A6 PUSH2 0x1252 JUMP JUMPDEST PUSH1 0x40 DUP1 MLOAD SWAP2 DUP3 MSTORE MLOAD SWAP1 DUP2 SWAP1 SUB PUSH1 0x20 ADD SWAP1 RETURN JUMPDEST PUSH2 0x4A6 PUSH1 0x4 DUP1 CALLDATASIZE SUB PUSH1 0x20 DUP2 LT ISZERO PUSH2 0x4CE JUMPI PUSH1 0x0 DUP1 REVERT JUMPDEST POP CALLDATALOAD PUSH2 0x1258 JUMP JUMPDEST PUSH2 0x4A6 PUSH2 0x1296 JUMP JUMPDEST PUSH2 0x50F PUSH1 0x4 DUP1 CALLDATASIZE SUB PUSH1 0x60 DUP2 LT ISZERO PUSH2 0x4F3 JUMPI PUSH1 0x0 DUP1 REVERT JUMPDEST POP DUP1 CALLDATALOAD SWAP1 PUSH1 0x20 DUP2 ADD CALLDATALOAD SWAP1 PUSH1 0x40 ADD CALLDATALOAD PUSH1 0x1 PUSH1 0x1 PUSH1 0xA0 SHL SUB AND PUSH2 0x129C JUMP JUMPDEST STOP JUMPDEST PUSH2 0x52E PUSH1 0x4 DUP1 CALLDATASIZE SUB PUSH1 0x20 DUP2 LT ISZERO PUSH2 0x527 JUMPI PUSH1 0x0 DUP1 REVERT JUMPDEST POP CALLDATALOAD PUSH2 0x190E JUMP JUMPDEST PUSH1 0x40 DUP1 MLOAD PUSH1 0x1 PUSH1 0x1 PUSH1 0xA0 SHL SUB SWAP1 SWAP6 AND DUP6 MSTORE PUSH1 0x20 DUP6 ADD SWAP4 SWAP1 SWAP4 MSTORE DUP4 DUP4 ADD SWAP2 SWAP1 SWAP2 MSTORE PUSH1 0x60 DUP4 ADD MSTORE MLOAD SWAP1 DUP2 SWAP1 SUB PUSH1 0x80 ADD SWAP1 RETURN JUMPDEST PUSH2 0x4A6 PUSH2 0x194F JUMP JUMPDEST PUSH2 0x4A6 PUSH1 0x4 DUP1 CALLDATASIZE SUB PUSH1 0x20 DUP2 LT ISZERO PUSH2 0x57C JUMPI PUSH1 0x0 DUP1 REVERT JUMPDEST POP CALLDATALOAD PUSH2 0x1955 JUMP JUMPDEST PUSH2 0x50F PUSH1 0x4 DUP1 CALLDATASIZE SUB PUSH1 0x60 DUP2 LT ISZERO PUSH2 0x599 JUMPI PUSH1 0x0 DUP1 REVERT JUMPDEST POP DUP1 CALLDATALOAD SWAP1 PUSH1 0x1 PUSH1 0x1 PUSH1 0xA0 SHL SUB PUSH1 0x20 DUP3 ADD CALLDATALOAD AND SWAP1 PUSH1 0x40 ADD CALLDATALOAD ISZERO ISZERO PUSH2 0x19C8 JUMP JUMPDEST PUSH2 0x482 PUSH2 0x1C22 JUMP JUMPDEST PUSH2 0x50F PUSH1 0x4 DUP1 CALLDATASIZE SUB PUSH1 0x20 DUP2 LT ISZERO PUSH2 0x5D5 JUMPI PUSH1 0x0 DUP1 REVERT JUMPDEST POP CALLDATALOAD PUSH2 0x1C31 JUMP JUMPDEST PUSH2 0x50F PUSH1 0x4 DUP1 CALLDATASIZE SUB PUSH1 0x20 DUP2 LT ISZERO PUSH2 0x5F2 JUMPI PUSH1 0x0 DUP1 REVERT JUMPDEST POP CALLDATALOAD PUSH2 0x1CA2 JUMP JUMPDEST PUSH2 0x50F PUSH1 0x4 DUP1 CALLDATASIZE SUB PUSH1 0x20 DUP2 LT ISZERO PUSH2 0x60F JUMPI PUSH1 0x0 DUP1 REVERT JUMPDEST DUP2 ADD SWAP1 PUSH1 0x20 DUP2 ADD DUP2 CALLDATALOAD PUSH1 0x1 PUSH1 0x20 SHL DUP2 GT ISZERO PUSH2 0x629 JUMPI PUSH1 0x0 DUP1 REVERT JUMPDEST DUP3 ADD DUP4 PUSH1 0x20 DUP3 ADD GT ISZERO PUSH2 0x63B JUMPI PUSH1 0x0 DUP1 REVERT JUMPDEST DUP1 CALLDATALOAD SWAP1 PUSH1 0x20 ADD SWAP2 DUP5 PUSH1 0x20 DUP4 MUL DUP5 ADD GT PUSH1 0x1 PUSH1 0x20 SHL DUP4 GT OR ISZERO PUSH2 0x65C JUMPI PUSH1 0x0 DUP1 REVERT JUMPDEST SWAP2 SWAP1 DUP1 DUP1 PUSH1 0x20 MUL PUSH1 0x20 ADD PUSH1 0x40 MLOAD SWAP1 DUP2 ADD PUSH1 0x40 MSTORE DUP1 SWAP4 SWAP3 SWAP2 SWAP1 DUP2 DUP2 MSTORE PUSH1 0x20 ADD DUP4 DUP4 PUSH1 0x20 MUL DUP1 DUP3 DUP5 CALLDATACOPY PUSH1 0x0 SWAP3 ADD SWAP2 SWAP1 SWAP2 MSTORE POP SWAP3 SWAP6 POP PUSH2 0x1D13 SWAP5 POP POP POP POP POP JUMP JUMPDEST PUSH2 0x50F PUSH1 0x4 DUP1 CALLDATASIZE SUB PUSH1 0x20 DUP2 LT ISZERO PUSH2 0x6B0 JUMPI PUSH1 0x0 DUP1 REVERT JUMPDEST DUP2 ADD SWAP1 PUSH1 0x20 DUP2 ADD DUP2 CALLDATALOAD PUSH1 0x1 PUSH1 0x20 SHL DUP2 GT ISZERO PUSH2 0x6CA JUMPI PUSH1 0x0 DUP1 REVERT JUMPDEST DUP3 ADD DUP4 PUSH1 0x20 DUP3 ADD GT ISZERO PUSH2 0x6DC JUMPI PUSH1 0x0 DUP1 REVERT JUMPDEST DUP1 CALLDATALOAD SWAP1 PUSH1 0x20 ADD SWAP2 DUP5 PUSH1 0x20 DUP4 MUL DUP5 ADD GT PUSH1 0x1 PUSH1 0x20 SHL DUP4 GT OR ISZERO PUSH2 0x6FD JUMPI PUSH1 0x0 DUP1 REVERT JUMPDEST SWAP2 SWAP1 DUP1 DUP1 PUSH1 0x20 MUL PUSH1 0x20 ADD PUSH1 0x40 MLOAD SWAP1 DUP2 ADD PUSH1 0x40 MSTORE DUP1 SWAP4 SWAP3 SWAP2 SWAP1 DUP2 DUP2 MSTORE PUSH1 0x20 ADD DUP4 DUP4 PUSH1 0x20 MUL DUP1 DUP3 DUP5 CALLDATACOPY PUSH1 0x0 SWAP3 ADD SWAP2 SWAP1 SWAP2 MSTORE POP SWAP3 SWAP6 POP PUSH2 0x1D96 SWAP5 POP POP POP POP POP JUMP JUMPDEST PUSH2 0x4A6 PUSH1 0x4 DUP1 CALLDATASIZE SUB PUSH1 0x20 DUP2 LT ISZERO PUSH2 0x751 JUMPI PUSH1 0x0 DUP1 REVERT JUMPDEST POP CALLDATALOAD PUSH2 0x1E15 JUMP JUMPDEST PUSH2 0x50F PUSH1 0x4 DUP1 CALLDATASIZE SUB PUSH1 0x20 DUP2 LT ISZERO PUSH2 0x76E JUMPI PUSH1 0x0 DUP1 REVERT JUMPDEST POP CALLDATALOAD PUSH1 0x1 PUSH1 0x1 PUSH1 0xA0 SHL SUB AND PUSH2 0x1E33 JUMP JUMPDEST PUSH2 0x50F PUSH1 0x4 DUP1 CALLDATASIZE SUB PUSH1 0x20 DUP2 LT ISZERO PUSH2 0x794 JUMPI PUSH1 0x0 DUP1 REVERT JUMPDEST DUP2 ADD SWAP1 PUSH1 0x20 DUP2 ADD DUP2 CALLDATALOAD PUSH1 0x1 PUSH1 0x20 SHL DUP2 GT ISZERO PUSH2 0x7AE JUMPI PUSH1 0x0 DUP1 REVERT JUMPDEST DUP3 ADD DUP4 PUSH1 0x20 DUP3 ADD GT ISZERO PUSH2 0x7C0 JUMPI PUSH1 0x0 DUP1 REVERT JUMPDEST DUP1 CALLDATALOAD SWAP1 PUSH1 0x20 ADD SWAP2 DUP5 PUSH1 0x20 DUP4 MUL DUP5 ADD GT PUSH1 0x1 PUSH1 0x20 SHL DUP4 GT OR ISZERO PUSH2 0x7E1 JUMPI PUSH1 0x0 DUP1 REVERT JUMPDEST SWAP2 SWAP1 DUP1 DUP1 PUSH1 0x20 MUL PUSH1 0x20 ADD PUSH1 0x40 MLOAD SWAP1 DUP2 ADD PUSH1 0x40 MSTORE DUP1 SWAP4 SWAP3 SWAP2 SWAP1 DUP2 DUP2 MSTORE PUSH1 0x20 ADD DUP4 DUP4 PUSH1 0x20 MUL DUP1 DUP3 DUP5 CALLDATACOPY PUSH1 0x0 SWAP3 ADD SWAP2 SWAP1 SWAP2 MSTORE POP SWAP3 SWAP6 POP PUSH2 0x1EC1 SWAP5 POP POP POP POP POP JUMP JUMPDEST PUSH2 0x4A6 PUSH1 0x4 DUP1 CALLDATASIZE SUB PUSH1 0x20 DUP2 LT ISZERO PUSH2 0x835 JUMPI PUSH1 0x0 DUP1 REVERT JUMPDEST POP CALLDATALOAD PUSH1 0x1 PUSH1 0x1 PUSH1 0xA0 SHL SUB AND PUSH2 0x1F40 JUMP JUMPDEST PUSH2 0x4A6 PUSH2 0x1F8D JUMP JUMPDEST PUSH2 0x482 PUSH2 0x1F93 JUMP JUMPDEST PUSH2 0x50F PUSH1 0x4 DUP1 CALLDATASIZE SUB PUSH1 0x20 DUP2 LT ISZERO PUSH2 0x86B JUMPI PUSH1 0x0 DUP1 REVERT JUMPDEST POP CALLDATALOAD PUSH2 0x1FA2 JUMP JUMPDEST PUSH2 0x4A6 PUSH1 0x4 DUP1 CALLDATASIZE SUB PUSH1 0x20 DUP2 LT ISZERO PUSH2 0x888 JUMPI PUSH1 0x0 DUP1 REVERT JUMPDEST POP CALLDATALOAD PUSH2 0x2013 JUMP JUMPDEST PUSH2 0x50F PUSH1 0x4 DUP1 CALLDATASIZE SUB PUSH1 0x20 DUP2 LT ISZERO PUSH2 0x8A5 JUMPI PUSH1 0x0 DUP1 REVERT JUMPDEST DUP2 ADD SWAP1 PUSH1 0x20 DUP2 ADD DUP2 CALLDATALOAD PUSH1 0x1 PUSH1 0x20 SHL DUP2 GT ISZERO PUSH2 0x8BF JUMPI PUSH1 0x0 DUP1 REVERT JUMPDEST DUP3 ADD DUP4 PUSH1 0x20 DUP3 ADD GT ISZERO PUSH2 0x8D1 JUMPI PUSH1 0x0 DUP1 REVERT JUMPDEST DUP1 CALLDATALOAD SWAP1 PUSH1 0x20 ADD SWAP2 DUP5 PUSH1 0x20 DUP4 MUL DUP5 ADD GT PUSH1 0x1 PUSH1 0x20 SHL DUP4 GT OR ISZERO PUSH2 0x8F2 JUMPI PUSH1 0x0 DUP1 REVERT JUMPDEST SWAP2 SWAP1 DUP1 DUP1 PUSH1 0x20 MUL PUSH1 0x20 ADD PUSH1 0x40 MLOAD SWAP1 DUP2 ADD PUSH1 0x40 MSTORE DUP1 SWAP4 SWAP3 SWAP2 SWAP1 DUP2 DUP2 MSTORE PUSH1 0x20 ADD DUP4 DUP4 PUSH1 0x20 MUL DUP1 DUP3 DUP5 CALLDATACOPY PUSH1 0x0 SWAP3 ADD SWAP2 SWAP1 SWAP2 MSTORE POP SWAP3 SWAP6 POP PUSH2 0x2020 SWAP5 POP POP POP POP POP JUMP JUMPDEST PUSH2 0x50F PUSH1 0x4 DUP1 CALLDATASIZE SUB PUSH1 0x20 DUP2 LT ISZERO PUSH2 0x946 JUMPI PUSH1 0x0 DUP1 REVERT JUMPDEST POP CALLDATALOAD PUSH1 0x1 PUSH1 0x1 PUSH1 0xA0 SHL SUB AND PUSH2 0x209F JUMP JUMPDEST PUSH2 0x50F PUSH1 0x4 DUP1 CALLDATASIZE SUB PUSH1 0x20 DUP2 LT ISZERO PUSH2 0x96C JUMPI PUSH1 0x0 DUP1 REVERT JUMPDEST DUP2 ADD SWAP1 PUSH1 0x20 DUP2 ADD DUP2 CALLDATALOAD PUSH1 0x1 PUSH1 0x20 SHL DUP2 GT ISZERO PUSH2 0x986 JUMPI PUSH1 0x0 DUP1 REVERT JUMPDEST DUP3 ADD DUP4 PUSH1 0x20 DUP3 ADD GT ISZERO PUSH2 0x998 JUMPI PUSH1 0x0 DUP1 REVERT JUMPDEST DUP1 CALLDATALOAD SWAP1 PUSH1 0x20 ADD SWAP2 DUP5 PUSH1 0x20 DUP4 MUL DUP5 ADD GT PUSH1 0x1 PUSH1 0x20 SHL DUP4 GT OR ISZERO PUSH2 0x9B9 JUMPI PUSH1 0x0 DUP1 REVERT JUMPDEST SWAP2 SWAP1 DUP1 DUP1 PUSH1 0x20 MUL PUSH1 0x20 ADD PUSH1 0x40 MLOAD SWAP1 DUP2 ADD PUSH1 0x40 MSTORE DUP1 SWAP4 SWAP3 SWAP2 SWAP1 DUP2 DUP2 MSTORE PUSH1 0x20 ADD DUP4 DUP4 PUSH1 0x20 MUL DUP1 DUP3 DUP5 CALLDATACOPY PUSH1 0x0 SWAP3 ADD SWAP2 SWAP1 SWAP2 MSTORE POP SWAP3 SWAP6 POP PUSH2 0x2138 SWAP5 POP POP POP POP POP JUMP JUMPDEST PUSH2 0x50F PUSH1 0x4 DUP1 CALLDATASIZE SUB PUSH1 0x20 DUP2 LT ISZERO PUSH2 0xA0D JUMPI PUSH1 0x0 DUP1 REVERT JUMPDEST POP CALLDATALOAD PUSH1 0x1 PUSH1 0x1 PUSH1 0xA0 SHL SUB AND PUSH2 0x21B7 JUMP JUMPDEST PUSH2 0x50F PUSH1 0x4 DUP1 CALLDATASIZE SUB PUSH1 0x40 DUP2 LT ISZERO PUSH2 0xA33 JUMPI PUSH1 0x0 DUP1 REVERT JUMPDEST POP PUSH1 0x1 PUSH1 0x1 PUSH1 0xA0 SHL SUB DUP2 CALLDATALOAD AND SWAP1 PUSH1 0x20 ADD CALLDATALOAD PUSH2 0x2245 JUMP JUMPDEST PUSH2 0x50F PUSH1 0x4 DUP1 CALLDATASIZE SUB PUSH1 0x20 DUP2 LT ISZERO PUSH2 0xA5F JUMPI PUSH1 0x0 DUP1 REVERT JUMPDEST POP CALLDATALOAD PUSH2 0x2318 JUMP JUMPDEST PUSH2 0x50F PUSH1 0x4 DUP1 CALLDATASIZE SUB PUSH1 0x20 DUP2 LT ISZERO PUSH2 0xA7C JUMPI PUSH1 0x0 DUP1 REVERT JUMPDEST POP CALLDATALOAD PUSH2 0x28C0 JUMP JUMPDEST PUSH2 0x4A6 PUSH1 0x4 DUP1 CALLDATASIZE SUB PUSH1 0x20 DUP2 LT ISZERO PUSH2 0xA99 JUMPI PUSH1 0x0 DUP1 REVERT JUMPDEST POP CALLDATALOAD PUSH1 0x1 PUSH1 0x1 PUSH1 0xA0 SHL SUB AND PUSH2 0x2A0F JUMP JUMPDEST PUSH2 0x50F PUSH1 0x4 DUP1 CALLDATASIZE SUB PUSH1 0x20 DUP2 LT ISZERO PUSH2 0xABF JUMPI PUSH1 0x0 DUP1 REVERT JUMPDEST DUP2 ADD SWAP1 PUSH1 0x20 DUP2 ADD DUP2 CALLDATALOAD PUSH1 0x1 PUSH1 0x20 SHL DUP2 GT ISZERO PUSH2 0xAD9 JUMPI PUSH1 0x0 DUP1 REVERT JUMPDEST DUP3 ADD DUP4 PUSH1 0x20 DUP3 ADD GT ISZERO PUSH2 0xAEB JUMPI PUSH1 0x0 DUP1 REVERT JUMPDEST DUP1 CALLDATALOAD SWAP1 PUSH1 0x20 ADD SWAP2 DUP5 PUSH1 0x20 DUP4 MUL DUP5 ADD GT PUSH1 0x1 PUSH1 0x20 SHL DUP4 GT OR ISZERO PUSH2 0xB0C JUMPI PUSH1 0x0 DUP1 REVERT JUMPDEST SWAP2 SWAP1 DUP1 DUP1 PUSH1 0x20 MUL PUSH1 0x20 ADD PUSH1 0x40 MLOAD SWAP1 DUP2 ADD PUSH1 0x40 MSTORE DUP1 SWAP4 SWAP3 SWAP2 SWAP1 DUP2 DUP2 MSTORE PUSH1 0x20 ADD DUP4 DUP4 PUSH1 0x20 MUL DUP1 DUP3 DUP5 CALLDATACOPY PUSH1 0x0 SWAP3 ADD SWAP2 SWAP1 SWAP2 MSTORE POP SWAP3 SWAP6 POP PUSH2 0x2A5A SWAP5 POP POP POP POP POP JUMP JUMPDEST PUSH2 0x50F PUSH1 0x4 DUP1 CALLDATASIZE SUB PUSH1 0x60 DUP2 LT ISZERO PUSH2 0xB60 JUMPI PUSH1 0x0 DUP1 REVERT JUMPDEST POP DUP1 CALLDATALOAD SWAP1 PUSH1 0x1 PUSH1 0x1 PUSH1 0xA0 SHL SUB PUSH1 0x20 DUP3 ADD CALLDATALOAD AND SWAP1 PUSH1 0x40 ADD CALLDATALOAD PUSH2 0x2A8A JUMP JUMPDEST PUSH2 0x4A6 PUSH1 0x4 DUP1 CALLDATASIZE SUB PUSH1 0x20 DUP2 LT ISZERO PUSH2 0xB92 JUMPI PUSH1 0x0 DUP1 REVERT JUMPDEST POP CALLDATALOAD PUSH2 0x2B1F JUMP JUMPDEST PUSH2 0x50F PUSH2 0x2B2C JUMP JUMPDEST PUSH2 0x50F PUSH1 0x4 DUP1 CALLDATASIZE SUB PUSH1 0x60 DUP2 LT ISZERO PUSH2 0xBB7 JUMPI PUSH1 0x0 DUP1 REVERT JUMPDEST POP DUP1 CALLDATALOAD SWAP1 PUSH1 0x20 DUP2 ADD CALLDATALOAD SWAP1 PUSH1 0x40 ADD CALLDATALOAD ISZERO ISZERO PUSH2 0x2B4B JUMP JUMPDEST PUSH2 0x50F PUSH2 0x2C26 JUMP JUMPDEST PUSH2 0x50F PUSH1 0x4 DUP1 CALLDATASIZE SUB PUSH1 0x20 DUP2 LT ISZERO PUSH2 0xBEA JUMPI PUSH1 0x0 DUP1 REVERT JUMPDEST POP CALLDATALOAD PUSH2 0x2CD2 JUMP JUMPDEST PUSH2 0x50F PUSH1 0x4 DUP1 CALLDATASIZE SUB PUSH1 0x60 DUP2 LT ISZERO PUSH2 0xC07 JUMPI PUSH1 0x0 DUP1 REVERT JUMPDEST POP DUP1 CALLDATALOAD SWAP1 PUSH1 0x1 PUSH1 0x1 PUSH1 0xA0 SHL SUB PUSH1 0x20 DUP3 ADD CALLDATALOAD AND SWAP1 PUSH1 0x40 ADD CALLDATALOAD PUSH2 0x2D43 JUMP JUMPDEST PUSH2 0x4A6 PUSH2 0x2DD8 JUMP JUMPDEST PUSH2 0x50F PUSH1 0x4 DUP1 CALLDATASIZE SUB PUSH1 0x20 DUP2 LT ISZERO PUSH2 0xC41 JUMPI PUSH1 0x0 DUP1 REVERT JUMPDEST DUP2 ADD SWAP1 PUSH1 0x20 DUP2 ADD DUP2 CALLDATALOAD PUSH1 0x1 PUSH1 0x20 SHL DUP2 GT ISZERO PUSH2 0xC5B JUMPI PUSH1 0x0 DUP1 REVERT JUMPDEST DUP3 ADD DUP4 PUSH1 0x20 DUP3 ADD GT ISZERO PUSH2 0xC6D JUMPI PUSH1 0x0 DUP1 REVERT JUMPDEST DUP1 CALLDATALOAD SWAP1 PUSH1 0x20 ADD SWAP2 DUP5 PUSH1 0x20 DUP4 MUL DUP5 ADD GT PUSH1 0x1 PUSH1 0x20 SHL DUP4 GT OR ISZERO PUSH2 0xC8E JUMPI PUSH1 0x0 DUP1 REVERT JUMPDEST SWAP2 SWAP1 DUP1 DUP1 PUSH1 0x20 MUL PUSH1 0x20 ADD PUSH1 0x40 MLOAD SWAP1 DUP2 ADD PUSH1 0x40 MSTORE DUP1 SWAP4 SWAP3 SWAP2 SWAP1 DUP2 DUP2 MSTORE PUSH1 0x20 ADD DUP4 DUP4 PUSH1 0x20 MUL DUP1 DUP3 DUP5 CALLDATACOPY PUSH1 0x0 SWAP3 ADD SWAP2 SWAP1 SWAP2 MSTORE POP SWAP3 SWAP6 POP PUSH2 0x2DDE SWAP5 POP POP POP POP POP JUMP JUMPDEST PUSH2 0x50F PUSH1 0x4 DUP1 CALLDATASIZE SUB PUSH1 0x20 DUP2 LT ISZERO PUSH2 0xCE2 JUMPI PUSH1 0x0 DUP1 REVERT JUMPDEST DUP2 ADD SWAP1 PUSH1 0x20 DUP2 ADD DUP2 CALLDATALOAD PUSH1 0x1 PUSH1 0x20 SHL DUP2 GT ISZERO PUSH2 0xCFC JUMPI PUSH1 0x0 DUP1 REVERT JUMPDEST DUP3 ADD DUP4 PUSH1 0x20 DUP3 ADD GT ISZERO PUSH2 0xD0E JUMPI PUSH1 0x0 DUP1 REVERT JUMPDEST DUP1 CALLDATALOAD SWAP1 PUSH1 0x20 ADD SWAP2 DUP5 PUSH1 0x20 DUP4 MUL DUP5 ADD GT PUSH1 0x1 PUSH1 0x20 SHL DUP4 GT OR ISZERO PUSH2 0xD2F JUMPI PUSH1 0x0 DUP1 REVERT JUMPDEST SWAP2 SWAP1 DUP1 DUP1 PUSH1 0x20 MUL PUSH1 0x20 ADD PUSH1 0x40 MLOAD SWAP1 DUP2 ADD PUSH1 0x40 MSTORE DUP1 SWAP4 SWAP3 SWAP2 SWAP1 DUP2 DUP2 MSTORE PUSH1 0x20 ADD DUP4 DUP4 PUSH1 0x20 MUL DUP1 DUP3 DUP5 CALLDATACOPY PUSH1 0x0 SWAP3 ADD SWAP2 SWAP1 SWAP2 MSTORE POP SWAP3 SWAP6 POP PUSH2 0x2E5D SWAP5 POP POP POP POP POP JUMP JUMPDEST PUSH2 0x50F PUSH1 0x4 DUP1 CALLDATASIZE SUB PUSH1 0x20 DUP2 LT ISZERO PUSH2 0xD83 JUMPI PUSH1 0x0 DUP1 REVERT JUMPDEST POP CALLDATALOAD PUSH1 0x1 PUSH1 0x1 PUSH1 0xA0 SHL SUB AND PUSH2 0x2EDC JUMP JUMPDEST PUSH2 0x482 PUSH2 0x2F6A JUMP JUMPDEST PUSH2 0x4A6 PUSH1 0x4 DUP1 CALLDATASIZE SUB PUSH1 0x40 DUP2 LT ISZERO PUSH2 0xDB1 JUMPI PUSH1 0x0 DUP1 REVERT JUMPDEST POP DUP1 CALLDATALOAD SWAP1 PUSH1 0x20 ADD CALLDATALOAD PUSH2 0x2F79 JUMP JUMPDEST PUSH2 0x50F PUSH1 0x4 DUP1 CALLDATASIZE SUB PUSH1 0x60 DUP2 LT ISZERO PUSH2 0xDD4 JUMPI PUSH1 0x0 DUP1 REVERT JUMPDEST POP DUP1 CALLDATALOAD SWAP1 PUSH1 0x20 DUP2 ADD CALLDATALOAD SWAP1 PUSH1 0x40 ADD CALLDATALOAD PUSH1 0x1 PUSH1 0x1 PUSH1 0xA0 SHL SUB AND PUSH2 0x3075 JUMP JUMPDEST PUSH2 0x4A6 PUSH1 0x4 DUP1 CALLDATASIZE SUB PUSH1 0x20 DUP2 LT ISZERO PUSH2 0xE06 JUMPI PUSH1 0x0 DUP1 REVERT JUMPDEST POP CALLDATALOAD PUSH1 0x1 PUSH1 0x1 PUSH1 0xA0 SHL SUB AND PUSH2 0x332F JUMP JUMPDEST PUSH2 0xE42 PUSH1 0x4 DUP1 CALLDATASIZE SUB PUSH1 0x40 DUP2 LT ISZERO PUSH2 0xE2C JUMPI PUSH1 0x0 DUP1 REVERT JUMPDEST POP DUP1 CALLDATALOAD SWAP1 PUSH1 0x20 ADD CALLDATALOAD PUSH1 0x1 PUSH1 0x1 PUSH1 0xA0 SHL SUB AND PUSH2 0x337E JUMP JUMPDEST PUSH1 0x40 DUP1 MLOAD SWAP8 DUP9 MSTORE PUSH1 0x20 DUP9 ADD SWAP7 SWAP1 SWAP7 MSTORE DUP7 DUP7 ADD SWAP5 SWAP1 SWAP5 MSTORE PUSH1 0x60 DUP7 ADD SWAP3 SWAP1 SWAP3 MSTORE PUSH1 0x80 DUP6 ADD MSTORE PUSH1 0xA0 DUP5 ADD MSTORE PUSH1 0xC0 DUP4 ADD MSTORE MLOAD SWAP1 DUP2 SWAP1 SUB PUSH1 0xE0 ADD SWAP1 RETURN JUMPDEST PUSH2 0x4A6 PUSH2 0x33CD JUMP JUMPDEST PUSH2 0x4A6 PUSH2 0x33D3 JUMP JUMPDEST PUSH2 0x4A6 PUSH1 0x4 DUP1 CALLDATASIZE SUB PUSH1 0x40 DUP2 LT ISZERO PUSH2 0xEA0 JUMPI PUSH1 0x0 DUP1 REVERT JUMPDEST POP DUP1 CALLDATALOAD SWAP1 PUSH1 0x20 ADD CALLDATALOAD PUSH1 0x1 PUSH1 0x1 PUSH1 0xA0 SHL SUB AND PUSH2 0x33D9 JUMP JUMPDEST PUSH2 0x4A6 PUSH2 0x3527 JUMP JUMPDEST PUSH2 0x4A6 PUSH1 0x4 DUP1 CALLDATASIZE SUB PUSH1 0x20 DUP2 LT ISZERO PUSH2 0xED4 JUMPI PUSH1 0x0 DUP1 REVERT JUMPDEST POP CALLDATALOAD PUSH2 0x352D JUMP JUMPDEST PUSH2 0x50F PUSH1 0x4 DUP1 CALLDATASIZE SUB PUSH1 0x20 DUP2 LT ISZERO PUSH2 0xEF1 JUMPI PUSH1 0x0 DUP1 REVERT JUMPDEST POP CALLDATALOAD PUSH2 0x353A JUMP JUMPDEST PUSH2 0x50F PUSH1 0x4 DUP1 CALLDATASIZE SUB PUSH1 0x20 DUP2 LT ISZERO PUSH2 0xF0E JUMPI PUSH1 0x0 DUP1 REVERT JUMPDEST POP CALLDATALOAD PUSH2 0x354C JUMP JUMPDEST PUSH2 0xF3B PUSH1 0x4 DUP1 CALLDATASIZE SUB PUSH1 0x20 DUP2 LT ISZERO PUSH2 0xF2B JUMPI PUSH1 0x0 DUP1 REVERT JUMPDEST POP CALLDATALOAD PUSH1 0x1 PUSH1 0x1 PUSH1 0xA0 SHL SUB AND PUSH2 0x35BD JUMP JUMPDEST PUSH1 0x40 DUP1 MLOAD SWAP2 ISZERO ISZERO DUP3 MSTORE MLOAD SWAP1 DUP2 SWAP1 SUB PUSH1 0x20 ADD SWAP1 RETURN JUMPDEST PUSH2 0x4A6 PUSH1 0x4 DUP1 CALLDATASIZE SUB PUSH1 0x20 DUP2 LT ISZERO PUSH2 0xF65 JUMPI PUSH1 0x0 DUP1 REVERT JUMPDEST POP CALLDATALOAD PUSH2 0x35D2 JUMP JUMPDEST PUSH2 0x4A6 PUSH2 0x35DF JUMP JUMPDEST PUSH2 0x50F PUSH1 0x4 DUP1 CALLDATASIZE SUB PUSH1 0x20 DUP2 LT ISZERO PUSH2 0xF8A JUMPI PUSH1 0x0 DUP1 REVERT JUMPDEST POP CALLDATALOAD PUSH2 0x35E5 JUMP JUMPDEST PUSH2 0x4A6 PUSH2 0x3656 JUMP JUMPDEST PUSH2 0x50F PUSH1 0x4 DUP1 CALLDATASIZE SUB PUSH1 0x20 DUP2 LT ISZERO PUSH2 0xFAF JUMPI PUSH1 0x0 DUP1 REVERT JUMPDEST POP CALLDATALOAD PUSH1 0x1 PUSH1 0x1 PUSH1 0xA0 SHL SUB AND PUSH2 0x365C JUMP JUMPDEST PUSH2 0x482 PUSH2 0x36EA JUMP JUMPDEST PUSH2 0xFF0 PUSH1 0x4 DUP1 CALLDATASIZE SUB PUSH1 0x60 DUP2 LT ISZERO PUSH2 0xFDD JUMPI PUSH1 0x0 DUP1 REVERT JUMPDEST POP DUP1 CALLDATALOAD SWAP1 PUSH1 0x20 DUP2 ADD CALLDATALOAD SWAP1 PUSH1 0x40 ADD CALLDATALOAD PUSH2 0x36F9 JUMP JUMPDEST PUSH1 0x40 DUP1 MLOAD SWAP6 DUP7 MSTORE PUSH1 0x20 DUP7 ADD SWAP5 SWAP1 SWAP5 MSTORE DUP5 DUP5 ADD SWAP3 SWAP1 SWAP3 MSTORE PUSH1 0x60 DUP5 ADD MSTORE PUSH1 0x80 DUP4 ADD MSTORE MLOAD SWAP1 DUP2 SWAP1 SUB PUSH1 0xA0 ADD SWAP1 RETURN JUMPDEST PUSH2 0x4A6 PUSH1 0x4 DUP1 CALLDATASIZE SUB PUSH1 0x20 DUP2 LT ISZERO PUSH2 0x1031 JUMPI PUSH1 0x0 DUP1 REVERT JUMPDEST POP CALLDATALOAD PUSH2 0x38CB JUMP JUMPDEST PUSH2 0xF3B PUSH1 0x4 DUP1 CALLDATASIZE SUB PUSH1 0x20 DUP2 LT ISZERO PUSH2 0x104E JUMPI PUSH1 0x0 DUP1 REVERT JUMPDEST POP CALLDATALOAD PUSH1 0x1 PUSH1 0x1 PUSH1 0xA0 SHL SUB AND PUSH2 0x38D8 JUMP JUMPDEST PUSH2 0x4A6 PUSH1 0x4 DUP1 CALLDATASIZE SUB PUSH1 0x20 DUP2 LT ISZERO PUSH2 0x1074 JUMPI PUSH1 0x0 DUP1 REVERT JUMPDEST POP CALLDATALOAD PUSH1 0x1 PUSH1 0x1 PUSH1 0xA0 SHL SUB AND PUSH2 0x38ED JUMP JUMPDEST PUSH2 0x50F PUSH1 0x4 DUP1 CALLDATASIZE SUB PUSH1 0x20 DUP2 LT ISZERO PUSH2 0x109A JUMPI PUSH1 0x0 DUP1 REVERT JUMPDEST POP CALLDATALOAD PUSH1 0x1 PUSH1 0x1 PUSH1 0xA0 SHL SUB AND PUSH2 0x38FF JUMP JUMPDEST PUSH2 0x4A6 PUSH1 0x4 DUP1 CALLDATASIZE SUB PUSH1 0x20 DUP2 LT ISZERO PUSH2 0x10C0 JUMPI PUSH1 0x0 DUP1 REVERT JUMPDEST POP CALLDATALOAD PUSH2 0x3988 JUMP JUMPDEST PUSH2 0x482 PUSH2 0x3995 JUMP JUMPDEST PUSH2 0x10F5 PUSH1 0x4 DUP1 CALLDATASIZE SUB PUSH1 0x20 DUP2 LT ISZERO PUSH2 0x10E5 JUMPI PUSH1 0x0 DUP1 REVERT JUMPDEST POP CALLDATALOAD PUSH1 0x1 PUSH1 0x1 PUSH1 0xA0 SHL SUB AND PUSH2 0x39A4 JUMP JUMPDEST PUSH1 0x40 DUP1 MLOAD SWAP4 DUP5 MSTORE PUSH1 0x20 DUP5 ADD SWAP3 SWAP1 SWAP3 MSTORE DUP3 DUP3 ADD MSTORE MLOAD SWAP1 DUP2 SWAP1 SUB PUSH1 0x60 ADD SWAP1 RETURN JUMPDEST PUSH2 0x4A6 PUSH1 0x4 DUP1 CALLDATASIZE SUB PUSH1 0x40 DUP2 LT ISZERO PUSH2 0x1129 JUMPI PUSH1 0x0 DUP1 REVERT JUMPDEST POP PUSH1 0x1 PUSH1 0x1 PUSH1 0xA0 SHL SUB DUP2 CALLDATALOAD DUP2 AND SWAP2 PUSH1 0x20 ADD CALLDATALOAD AND PUSH2 0x39C5 JUMP JUMPDEST PUSH2 0x50F PUSH1 0x4 DUP1 CALLDATASIZE SUB PUSH1 0x20 DUP2 LT ISZERO PUSH2 0x1157 JUMPI PUSH1 0x0 DUP1 REVERT JUMPDEST POP CALLDATALOAD PUSH2 0x39F4 JUMP JUMPDEST PUSH2 0x50F PUSH1 0x4 DUP1 CALLDATASIZE SUB PUSH1 0x40 DUP2 LT ISZERO PUSH2 0x1174 JUMPI PUSH1 0x0 DUP1 REVERT JUMPDEST POP PUSH1 0x1 PUSH1 0x1 PUSH1 0xA0 SHL SUB DUP2 CALLDATALOAD AND SWAP1 PUSH1 0x20 ADD CALLDATALOAD PUSH2 0x3A65 JUMP JUMPDEST PUSH2 0x482 PUSH2 0x3B1C JUMP JUMPDEST PUSH2 0x4A6 PUSH2 0x3B2B JUMP JUMPDEST PUSH2 0x50F PUSH1 0x4 DUP1 CALLDATASIZE SUB PUSH1 0x20 DUP2 LT ISZERO PUSH2 0x11B0 JUMPI PUSH1 0x0 DUP1 REVERT JUMPDEST POP CALLDATALOAD PUSH1 0x1 PUSH1 0x1 PUSH1 0xA0 SHL SUB AND PUSH2 0x3B31 JUMP JUMPDEST PUSH2 0x50F PUSH1 0x4 DUP1 CALLDATASIZE SUB PUSH1 0x20 DUP2 LT ISZERO PUSH2 0x11D6 JUMPI PUSH1 0x0 DUP1 REVERT JUMPDEST POP CALLDATALOAD PUSH1 0x1 PUSH1 0x1 PUSH1 0xA0 SHL SUB AND PUSH2 0x3C06 JUMP JUMPDEST PUSH2 0x50F PUSH1 0x4 DUP1 CALLDATASIZE SUB PUSH1 0x20 DUP2 LT ISZERO PUSH2 0x11FC JUMPI PUSH1 0x0 DUP1 REVERT JUMPDEST POP CALLDATALOAD PUSH2 0x3D08 JUMP JUMPDEST PUSH2 0x4A6 PUSH1 0x4 DUP1 CALLDATASIZE SUB PUSH1 0x40 DUP2 LT ISZERO PUSH2 0x1219 JUMPI PUSH1 0x0 DUP1 REVERT JUMPDEST POP DUP1 CALLDATALOAD SWAP1 PUSH1 0x20 ADD CALLDATALOAD PUSH2 0x3D79 JUMP JUMPDEST PUSH2 0x50F PUSH1 0x4 DUP1 CALLDATASIZE SUB PUSH1 0x20 DUP2 LT ISZERO PUSH2 0x123C JUMPI PUSH1 0x0 DUP1 REVERT JUMPDEST POP CALLDATALOAD PUSH2 0x3E09 JUMP JUMPDEST PUSH1 0x3 SLOAD PUSH1 0x1 PUSH1 0x1 PUSH1 0xA0 SHL SUB AND DUP2 JUMP JUMPDEST PUSH1 0x19 SLOAD SWAP1 JUMP JUMPDEST PUSH1 0x0 DUP2 DUP2 MSTORE PUSH1 0x1B PUSH1 0x20 SWAP1 DUP2 MSTORE PUSH1 0x40 DUP1 DUP4 KECCAK256 CALLER DUP5 MSTORE SWAP1 SWAP2 MSTORE DUP2 KECCAK256 PUSH1 0x3 DUP2 ADD SLOAD ISZERO PUSH2 0x1288 JUMPI PUSH1 0x3 ADD SLOAD NUMBER SUB SWAP1 POP PUSH2 0x1291 JUMP JUMPDEST PUSH1 0x4 ADD SLOAD NUMBER SUB SWAP1 POP JUMPDEST SWAP2 SWAP1 POP JUMP JUMPDEST PUSH1 0x16 SLOAD DUP2 JUMP JUMPDEST PUSH1 0x2 DUP1 SLOAD EQ ISZERO PUSH2 0x12F3 JUMPI PUSH1 0x40 DUP1 MLOAD PUSH3 0x461BCD PUSH1 0xE5 SHL DUP2 MSTORE PUSH1 0x20 PUSH1 0x4 DUP3 ADD MSTORE PUSH1 0x1F PUSH1 0x24 DUP3 ADD MSTORE PUSH32 0x5265656E7472616E637947756172643A207265656E7472616E742063616C6C00 PUSH1 0x44 DUP3 ADD MSTORE SWAP1 MLOAD SWAP1 DUP2 SWAP1 SUB PUSH1 0x64 ADD SWAP1 REVERT JUMPDEST PUSH1 0x2 DUP1 DUP2 SWAP1 SSTORE POP PUSH1 0x0 PUSH1 0x19 DUP5 DUP2 SLOAD DUP2 LT PUSH2 0x1309 JUMPI INVALID JUMPDEST PUSH1 0x0 SWAP2 DUP3 MSTORE PUSH1 0x20 DUP1 DUP4 KECCAK256 DUP8 DUP5 MSTORE PUSH1 0x1B DUP3 MSTORE PUSH1 0x40 DUP1 DUP6 KECCAK256 CALLER DUP1 DUP8 MSTORE SWAP1 DUP5 MSTORE DUP2 DUP7 KECCAK256 PUSH1 0x1 PUSH1 0x1 PUSH1 0xA0 SHL SUB DUP10 AND DUP8 MSTORE PUSH1 0x1C SWAP1 SWAP5 MSTORE DUP2 DUP7 KECCAK256 SWAP1 DUP7 MSTORE SWAP5 KECCAK256 DUP3 SLOAD PUSH1 0x4 SWAP1 SWAP5 MUL SWAP1 SWAP2 ADD SWAP5 POP SWAP1 SWAP3 SWAP2 DUP7 GT ISZERO PUSH2 0x138F JUMPI PUSH1 0x40 MLOAD PUSH3 0x461BCD PUSH1 0xE5 SHL DUP2 MSTORE PUSH1 0x4 ADD DUP1 DUP1 PUSH1 0x20 ADD DUP3 DUP2 SUB DUP3 MSTORE PUSH1 0x22 DUP2 MSTORE PUSH1 0x20 ADD DUP1 PUSH2 0x478B PUSH1 0x22 SWAP2 CODECOPY PUSH1 0x40 ADD SWAP2 POP POP PUSH1 0x40 MLOAD DUP1 SWAP2 SUB SWAP1 REVERT JUMPDEST PUSH1 0x1 PUSH1 0x1 PUSH1 0xA0 SHL SUB DUP6 AND ISZERO PUSH2 0x13C2 JUMPI CALLER PUSH1 0x0 SWAP1 DUP2 MSTORE PUSH1 0x1 DUP4 ADD PUSH1 0x20 MSTORE PUSH1 0x40 SWAP1 KECCAK256 DUP1 SLOAD DUP8 SWAP1 SUB SWAP1 SSTORE PUSH1 0x3 DUP3 ADD DUP1 SLOAD DUP8 SWAP1 SUB SWAP1 SSTORE JUMPDEST DUP1 SLOAD DUP7 SWAP1 SUB DUP2 SSTORE PUSH2 0x13D2 DUP8 PUSH2 0x2318 JUMP JUMPDEST PUSH2 0x13DB DUP8 PUSH2 0x3F34 JUMP JUMPDEST DUP6 ISZERO PUSH2 0x1900 JUMPI DUP3 SLOAD PUSH2 0x13ED SWAP1 DUP8 PUSH2 0x41C0 JUMP JUMPDEST DUP4 SSTORE PUSH1 0x3 DUP4 ADD SLOAD ISZERO PUSH2 0x140A JUMPI PUSH1 0x3 DUP4 ADD SLOAD NUMBER SUB PUSH1 0x5 DUP5 ADD SSTORE PUSH2 0x1417 JUMP JUMPDEST PUSH1 0x4 DUP4 ADD SLOAD NUMBER SUB PUSH1 0x5 DUP5 ADD SSTORE JUMPDEST PUSH1 0xC PUSH1 0x0 DUP2 SLOAD DUP2 LT PUSH2 0x1425 JUMPI INVALID JUMPDEST SWAP1 PUSH1 0x0 MSTORE PUSH1 0x20 PUSH1 0x0 KECCAK256 ADD SLOAD DUP4 PUSH1 0x5 ADD SLOAD EQ DUP1 PUSH2 0x1444 JUMPI POP DUP3 PUSH1 0x6 ADD SLOAD NUMBER EQ JUMPDEST ISZERO PUSH2 0x14C3 JUMPI PUSH2 0x1495 CALLER PUSH2 0x1483 PUSH1 0x64 PUSH2 0x147D PUSH1 0xE PUSH1 0x0 DUP2 SLOAD DUP2 LT PUSH2 0x1463 JUMPI INVALID JUMPDEST SWAP1 PUSH1 0x0 MSTORE PUSH1 0x20 PUSH1 0x0 KECCAK256 ADD SLOAD DUP12 PUSH2 0x3E7A SWAP1 SWAP2 SWAP1 PUSH4 0xFFFFFFFF AND JUMP JUMPDEST SWAP1 PUSH2 0x421D JUMP JUMPDEST DUP7 SLOAD PUSH1 0x1 PUSH1 0x1 PUSH1 0xA0 SHL SUB AND SWAP2 SWAP1 PUSH2 0x4284 JUMP JUMPDEST PUSH1 0x5 SLOAD PUSH1 0xF DUP1 SLOAD PUSH2 0x14BE SWAP3 PUSH1 0x1 PUSH1 0x1 PUSH1 0xA0 SHL SUB AND SWAP2 PUSH2 0x1483 SWAP2 PUSH1 0x64 SWAP2 PUSH2 0x147D SWAP2 PUSH1 0x0 SWAP1 PUSH2 0x1463 JUMPI INVALID JUMPDEST PUSH2 0x18A2 JUMP JUMPDEST PUSH1 0xC PUSH1 0x1 DUP2 SLOAD DUP2 LT PUSH2 0x14D1 JUMPI INVALID JUMPDEST SWAP1 PUSH1 0x0 MSTORE PUSH1 0x20 PUSH1 0x0 KECCAK256 ADD SLOAD DUP4 PUSH1 0x5 ADD SLOAD LT ISZERO DUP1 ISZERO PUSH2 0x150B JUMPI POP PUSH1 0xD PUSH1 0x0 DUP2 SLOAD DUP2 LT PUSH2 0x14F8 JUMPI INVALID JUMPDEST SWAP1 PUSH1 0x0 MSTORE PUSH1 0x20 PUSH1 0x0 KECCAK256 ADD SLOAD DUP4 PUSH1 0x5 ADD SLOAD GT ISZERO JUMPDEST ISZERO PUSH2 0x1555 JUMPI PUSH2 0x152A CALLER PUSH2 0x1483 PUSH1 0x64 PUSH2 0x147D PUSH1 0xE PUSH1 0x1 DUP2 SLOAD DUP2 LT PUSH2 0x1463 JUMPI INVALID JUMPDEST PUSH1 0x5 SLOAD PUSH1 0xF DUP1 SLOAD PUSH2 0x14BE SWAP3 PUSH1 0x1 PUSH1 0x1 PUSH1 0xA0 SHL SUB AND SWAP2 PUSH2 0x1483 SWAP2 PUSH1 0x64 SWAP2 PUSH2 0x147D SWAP2 PUSH1 0x1 SWAP1 DUP2 LT PUSH2 0x1463 JUMPI INVALID JUMPDEST PUSH1 0xC PUSH1 0x2 DUP2 SLOAD DUP2 LT PUSH2 0x1563 JUMPI INVALID JUMPDEST SWAP1 PUSH1 0x0 MSTORE PUSH1 0x20 PUSH1 0x0 KECCAK256 ADD SLOAD DUP4 PUSH1 0x5 ADD SLOAD LT ISZERO DUP1 ISZERO PUSH2 0x159D JUMPI POP PUSH1 0xD PUSH1 0x1 DUP2 SLOAD DUP2 LT PUSH2 0x158A JUMPI INVALID JUMPDEST SWAP1 PUSH1 0x0 MSTORE PUSH1 0x20 PUSH1 0x0 KECCAK256 ADD SLOAD DUP4 PUSH1 0x5 ADD SLOAD GT ISZERO JUMPDEST ISZERO PUSH2 0x15E7 JUMPI PUSH2 0x15BC CALLER PUSH2 0x1483 PUSH1 0x64 PUSH2 0x147D PUSH1 0xE PUSH1 0x2 DUP2 SLOAD DUP2 LT PUSH2 0x1463 JUMPI INVALID JUMPDEST PUSH1 0x5 SLOAD PUSH1 0xF DUP1 SLOAD PUSH2 0x14BE SWAP3 PUSH1 0x1 PUSH1 0x1 PUSH1 0xA0 SHL SUB AND SWAP2 PUSH2 0x1483 SWAP2 PUSH1 0x64 SWAP2 PUSH2 0x147D SWAP2 PUSH1 0x2 SWAP1 DUP2 LT PUSH2 0x1463 JUMPI INVALID JUMPDEST PUSH1 0xC PUSH1 0x3 DUP2 SLOAD DUP2 LT PUSH2 0x15F5 JUMPI INVALID JUMPDEST SWAP1 PUSH1 0x0 MSTORE PUSH1 0x20 PUSH1 0x0 KECCAK256 ADD SLOAD DUP4 PUSH1 0x5 ADD SLOAD LT ISZERO DUP1 ISZERO PUSH2 0x162F JUMPI POP PUSH1 0xD PUSH1 0x2 DUP2 SLOAD DUP2 LT PUSH2 0x161C JUMPI INVALID JUMPDEST SWAP1 PUSH1 0x0 MSTORE PUSH1 0x20 PUSH1 0x0 KECCAK256 ADD SLOAD DUP4 PUSH1 0x5 ADD SLOAD GT ISZERO JUMPDEST ISZERO PUSH2 0x1679 JUMPI PUSH2 0x164E CALLER PUSH2 0x1483 PUSH1 0x64 PUSH2 0x147D PUSH1 0xE PUSH1 0x3 DUP2 SLOAD DUP2 LT PUSH2 0x1463 JUMPI INVALID JUMPDEST PUSH1 0x5 SLOAD PUSH1 0xF DUP1 SLOAD PUSH2 0x14BE SWAP3 PUSH1 0x1 PUSH1 0x1 PUSH1 0xA0 SHL SUB AND SWAP2 PUSH2 0x1483 SWAP2 PUSH1 0x64 SWAP2 PUSH2 0x147D SWAP2 PUSH1 0x3 SWAP1 DUP2 LT PUSH2 0x1463 JUMPI INVALID JUMPDEST PUSH1 0xC PUSH1 0x4 DUP2 SLOAD DUP2 LT PUSH2 0x1687 JUMPI INVALID JUMPDEST SWAP1 PUSH1 0x0 MSTORE PUSH1 0x20 PUSH1 0x0 KECCAK256 ADD SLOAD DUP4 PUSH1 0x5 ADD SLOAD LT ISZERO DUP1 ISZERO PUSH2 0x16C1 JUMPI POP PUSH1 0xD PUSH1 0x3 DUP2 SLOAD DUP2 LT PUSH2 0x16AE JUMPI INVALID JUMPDEST SWAP1 PUSH1 0x0 MSTORE PUSH1 0x20 PUSH1 0x0 KECCAK256 ADD SLOAD DUP4 PUSH1 0x5 ADD SLOAD GT ISZERO JUMPDEST ISZERO PUSH2 0x170B JUMPI PUSH2 0x16E0 CALLER PUSH2 0x1483 PUSH1 0x64 PUSH2 0x147D PUSH1 0xE PUSH1 0x4 DUP2 SLOAD DUP2 LT PUSH2 0x1463 JUMPI INVALID JUMPDEST PUSH1 0x5 SLOAD PUSH1 0xF DUP1 SLOAD PUSH2 0x14BE SWAP3 PUSH1 0x1 PUSH1 0x1 PUSH1 0xA0 SHL SUB AND SWAP2 PUSH2 0x1483 SWAP2 PUSH1 0x64 SWAP2 PUSH2 0x147D SWAP2 PUSH1 0x4 SWAP1 DUP2 LT PUSH2 0x1463 JUMPI INVALID JUMPDEST PUSH1 0xC PUSH1 0x5 DUP2 SLOAD DUP2 LT PUSH2 0x1719 JUMPI INVALID JUMPDEST SWAP1 PUSH1 0x0 MSTORE PUSH1 0x20 PUSH1 0x0 KECCAK256 ADD SLOAD DUP4 PUSH1 0x5 ADD SLOAD LT ISZERO DUP1 ISZERO PUSH2 0x1753 JUMPI POP PUSH1 0xD PUSH1 0x4 DUP2 SLOAD DUP2 LT PUSH2 0x1740 JUMPI INVALID JUMPDEST SWAP1 PUSH1 0x0 MSTORE PUSH1 0x20 PUSH1 0x0 KECCAK256 ADD SLOAD DUP4 PUSH1 0x5 ADD SLOAD GT ISZERO JUMPDEST ISZERO PUSH2 0x17A3 JUMPI PUSH2 0x1773 CALLER PUSH2 0x1483 PUSH2 0x3E8 PUSH2 0x147D PUSH1 0xE PUSH1 0x5 DUP2 SLOAD DUP2 LT PUSH2 0x1463 JUMPI INVALID JUMPDEST PUSH2 0x14BE PUSH1 0x5 PUSH1 0x0 SWAP1 SLOAD SWAP1 PUSH2 0x100 EXP SWAP1 DIV PUSH1 0x1 PUSH1 0x1 PUSH1 0xA0 SHL SUB AND PUSH2 0x1483 PUSH2 0x3E8 PUSH2 0x147D PUSH1 0xF PUSH1 0x5 DUP2 SLOAD DUP2 LT PUSH2 0x1463 JUMPI INVALID JUMPDEST PUSH1 0xC PUSH1 0x6 DUP2 SLOAD DUP2 LT PUSH2 0x17B1 JUMPI INVALID JUMPDEST SWAP1 PUSH1 0x0 MSTORE PUSH1 0x20 PUSH1 0x0 KECCAK256 ADD SLOAD DUP4 PUSH1 0x5 ADD SLOAD LT ISZERO DUP1 ISZERO PUSH2 0x17EB JUMPI POP PUSH1 0xD PUSH1 0x5 DUP2 SLOAD DUP2 LT PUSH2 0x17D8 JUMPI INVALID JUMPDEST SWAP1 PUSH1 0x0 MSTORE PUSH1 0x20 PUSH1 0x0 KECCAK256 ADD SLOAD DUP4 PUSH1 0x5 ADD SLOAD GT ISZERO JUMPDEST ISZERO PUSH2 0x1837 JUMPI PUSH2 0x180B CALLER PUSH2 0x1483 PUSH2 0x2710 PUSH2 0x147D PUSH1 0xE PUSH1 0x6 DUP2 SLOAD DUP2 LT PUSH2 0x1463 JUMPI INVALID JUMPDEST PUSH1 0x5 SLOAD PUSH1 0xF DUP1 SLOAD PUSH2 0x14BE SWAP3 PUSH1 0x1 PUSH1 0x1 PUSH1 0xA0 SHL SUB AND SWAP2 PUSH2 0x1483 SWAP2 PUSH2 0x2710 SWAP2 PUSH2 0x147D SWAP2 PUSH1 0x6 SWAP1 DUP2 LT PUSH2 0x1463 JUMPI INVALID JUMPDEST PUSH1 0xC PUSH1 0x7 DUP2 SLOAD DUP2 LT PUSH2 0x1845 JUMPI INVALID JUMPDEST SWAP1 PUSH1 0x0 MSTORE PUSH1 0x20 PUSH1 0x0 KECCAK256 ADD SLOAD DUP4 PUSH1 0x5 ADD SLOAD GT ISZERO PUSH2 0x18A2 JUMPI PUSH2 0x1876 CALLER PUSH2 0x1483 PUSH2 0x2710 PUSH2 0x147D PUSH1 0xE PUSH1 0x7 DUP2 SLOAD DUP2 LT PUSH2 0x1463 JUMPI INVALID JUMPDEST PUSH1 0x5 SLOAD PUSH1 0xF DUP1 SLOAD PUSH2 0x18A2 SWAP3 PUSH1 0x1 PUSH1 0x1 PUSH1 0xA0 SHL SUB AND SWAP2 PUSH2 0x1483 SWAP2 PUSH2 0x2710 SWAP2 PUSH2 0x147D SWAP2 PUSH1 0x7 SWAP1 DUP2 LT PUSH2 0x1463 JUMPI INVALID JUMPDEST PUSH1 0x3 DUP5 ADD SLOAD DUP4 SLOAD PUSH2 0x18BD SWAP2 PUSH5 0xE8D4A51000 SWAP2 PUSH2 0x147D SWAP2 PUSH2 0x3E7A JUMP JUMPDEST PUSH1 0x1 DUP5 ADD SSTORE PUSH1 0x40 DUP1 MLOAD DUP8 DUP2 MSTORE SWAP1 MLOAD DUP9 SWAP2 CALLER SWAP2 PUSH32 0xF279E6A1F5E320CCA91135676D9CB6E44CA8A08C0B88342BCDB1144F6511B568 SWAP2 DUP2 SWAP1 SUB PUSH1 0x20 ADD SWAP1 LOG3 NUMBER PUSH1 0x3 DUP5 ADD SSTORE JUMPDEST POP POP PUSH1 0x1 PUSH1 0x2 SSTORE POP POP POP POP POP JUMP JUMPDEST PUSH1 0x19 DUP2 DUP2 SLOAD DUP2 LT PUSH2 0x191B JUMPI INVALID JUMPDEST PUSH1 0x0 SWAP2 DUP3 MSTORE PUSH1 0x20 SWAP1 SWAP2 KECCAK256 PUSH1 0x4 SWAP1 SWAP2 MUL ADD DUP1 SLOAD PUSH1 0x1 DUP3 ADD SLOAD PUSH1 0x2 DUP4 ADD SLOAD PUSH1 0x3 SWAP1 SWAP4 ADD SLOAD PUSH1 0x1 PUSH1 0x1 PUSH1 0xA0 SHL SUB SWAP1 SWAP3 AND SWAP4 POP SWAP2 SWAP1 DUP5 JUMP JUMPDEST PUSH1 0x1E SLOAD DUP2 JUMP JUMPDEST PUSH1 0x0 DUP1 PUSH2 0x1965 PUSH1 0x1 NUMBER SUB NUMBER PUSH2 0x2F79 JUMP JUMPDEST SWAP1 POP DUP3 PUSH2 0x1982 JUMPI PUSH1 0x9 SLOAD PUSH2 0x197A SWAP1 DUP3 SWAP1 PUSH2 0x3E7A JUMP JUMPDEST SWAP2 POP POP PUSH2 0x1291 JUMP JUMPDEST PUSH2 0x197A PUSH1 0x1E SLOAD PUSH2 0x147D PUSH1 0x19 PUSH1 0x1 DUP8 SUB DUP2 SLOAD DUP2 LT PUSH2 0x199B JUMPI INVALID JUMPDEST SWAP1 PUSH1 0x0 MSTORE PUSH1 0x20 PUSH1 0x0 KECCAK256 SWAP1 PUSH1 0x4 MUL ADD PUSH1 0x1 ADD SLOAD PUSH2 0x19C2 PUSH1 0x9 SLOAD DUP7 PUSH2 0x3E7A SWAP1 SWAP2 SWAP1 PUSH4 0xFFFFFFFF AND JUMP JUMPDEST SWAP1 PUSH2 0x3E7A JUMP JUMPDEST PUSH2 0x19D0 PUSH2 0x42D6 JUMP JUMPDEST PUSH1 0x1 PUSH1 0x1 PUSH1 0xA0 SHL SUB AND PUSH2 0x19E1 PUSH2 0x2F6A JUMP JUMPDEST PUSH1 0x1 PUSH1 0x1 PUSH1 0xA0 SHL SUB AND EQ PUSH2 0x1A2A JUMPI PUSH1 0x40 DUP1 MLOAD PUSH3 0x461BCD PUSH1 0xE5 SHL DUP2 MSTORE PUSH1 0x20 PUSH1 0x4 DUP3 ADD DUP2 SWAP1 MSTORE PUSH1 0x24 DUP3 ADD MSTORE PUSH1 0x0 DUP1 MLOAD PUSH1 0x20 PUSH2 0x474B DUP4 CODECOPY DUP2 MLOAD SWAP2 MSTORE PUSH1 0x44 DUP3 ADD MSTORE SWAP1 MLOAD SWAP1 DUP2 SWAP1 SUB PUSH1 0x64 ADD SWAP1 REVERT JUMPDEST PUSH1 0x1 PUSH1 0x1 PUSH1 0xA0 SHL SUB DUP3 AND PUSH1 0x0 SWAP1 DUP2 MSTORE PUSH1 0x1D PUSH1 0x20 MSTORE PUSH1 0x40 SWAP1 KECCAK256 SLOAD DUP3 SWAP1 PUSH1 0xFF AND ISZERO PUSH2 0x1A84 JUMPI PUSH1 0x40 MLOAD PUSH3 0x461BCD PUSH1 0xE5 SHL DUP2 MSTORE PUSH1 0x4 ADD DUP1 DUP1 PUSH1 0x20 ADD DUP3 DUP2 SUB DUP3 MSTORE PUSH1 0x29 DUP2 MSTORE PUSH1 0x20 ADD DUP1 PUSH2 0x46A5 PUSH1 0x29 SWAP2 CODECOPY PUSH1 0x40 ADD SWAP2 POP POP PUSH1 0x40 MLOAD DUP1 SWAP2 SUB SWAP1 REVERT JUMPDEST PUSH1 0x1 PUSH1 0x1 PUSH1 0xA0 SHL SUB DUP4 AND PUSH1 0x0 SWAP1 DUP2 MSTORE PUSH1 0x1A PUSH1 0x20 MSTORE PUSH1 0x40 SWAP1 KECCAK256 SLOAD ISZERO PUSH2 0x1AD9 JUMPI PUSH1 0x40 MLOAD PUSH3 0x461BCD PUSH1 0xE5 SHL DUP2 MSTORE PUSH1 0x4 ADD DUP1 DUP1 PUSH1 0x20 ADD DUP3 DUP2 SUB DUP3 MSTORE PUSH1 0x2A DUP2 MSTORE PUSH1 0x20 ADD DUP1 PUSH2 0x47AD PUSH1 0x2A SWAP2 CODECOPY PUSH1 0x40 ADD SWAP2 POP POP PUSH1 0x40 MLOAD DUP1 SWAP2 SUB SWAP1 REVERT JUMPDEST DUP2 ISZERO PUSH2 0x1AE7 JUMPI PUSH2 0x1AE7 PUSH2 0x2B2C JUMP JUMPDEST PUSH1 0x0 PUSH1 0x13 SLOAD NUMBER GT PUSH2 0x1AFA JUMPI PUSH1 0x13 SLOAD PUSH2 0x1AFC JUMP JUMPDEST NUMBER JUMPDEST PUSH1 0x1E SLOAD SWAP1 SWAP2 POP PUSH2 0x1B0C SWAP1 DUP7 PUSH2 0x3EDA JUMP JUMPDEST PUSH1 0x1E SSTORE PUSH1 0x19 DUP1 SLOAD PUSH1 0x1 PUSH1 0x1 PUSH1 0xA0 SHL SUB SWAP6 DUP7 AND PUSH1 0x0 DUP2 DUP2 MSTORE PUSH1 0x1A PUSH1 0x20 SWAP1 DUP2 MSTORE PUSH1 0x40 DUP1 DUP4 KECCAK256 PUSH1 0x1 SWAP6 DUP7 ADD SWAP1 SSTORE PUSH1 0x1D DUP3 MSTORE DUP1 DUP4 KECCAK256 DUP1 SLOAD PUSH1 0xFF NOT AND DUP7 OR SWAP1 SSTORE DUP1 MLOAD PUSH1 0x80 DUP2 ADD DUP3 MSTORE SWAP4 DUP5 MSTORE SWAP1 DUP4 ADD SWAP10 DUP11 MSTORE DUP3 ADD SWAP5 DUP6 MSTORE PUSH1 0x60 DUP3 ADD DUP2 DUP2 MSTORE DUP5 SLOAD SWAP4 DUP5 ADD DUP6 SSTORE SWAP4 SWAP1 MSTORE MLOAD PUSH32 0x944998273E477B495144FB8794C914197F3CCB46BE2900F4698FD0EF743C9695 PUSH1 0x4 SWAP1 SWAP3 MUL SWAP2 DUP3 ADD DUP1 SLOAD PUSH1 0x1 PUSH1 0x1 PUSH1 0xA0 SHL SUB NOT AND SWAP2 SWAP1 SWAP8 AND OR SWAP1 SWAP6 SSTORE SWAP5 MLOAD PUSH32 0x944998273E477B495144FB8794C914197F3CCB46BE2900F4698FD0EF743C9696 DUP6 ADD SSTORE MLOAD PUSH32 0x944998273E477B495144FB8794C914197F3CCB46BE2900F4698FD0EF743C9697 DUP5 ADD SSTORE POP POP SWAP1 MLOAD PUSH32 0x944998273E477B495144FB8794C914197F3CCB46BE2900F4698FD0EF743C9698 SWAP1 SWAP2 ADD SSTORE JUMP JUMPDEST PUSH1 0x6 SLOAD PUSH1 0x1 PUSH1 0x1 PUSH1 0xA0 SHL SUB AND DUP2 JUMP JUMPDEST CALLER PUSH1 0x0 SWAP1 DUP2 MSTORE PUSH1 0x1 PUSH1 0x20 MSTORE PUSH1 0x40 SWAP1 KECCAK256 SLOAD PUSH1 0xFF AND DUP1 PUSH2 0x1C5E JUMPI POP CALLER PUSH2 0x1C53 PUSH2 0x2F6A JUMP JUMPDEST PUSH1 0x1 PUSH1 0x1 PUSH1 0xA0 SHL SUB AND EQ JUMPDEST PUSH2 0x1C9D JUMPI PUSH1 0x40 DUP1 MLOAD PUSH3 0x461BCD PUSH1 0xE5 SHL DUP2 MSTORE PUSH1 0x20 PUSH1 0x4 DUP3 ADD MSTORE PUSH1 0x18 PUSH1 0x24 DUP3 ADD MSTORE PUSH1 0x0 DUP1 MLOAD PUSH1 0x20 PUSH2 0x476B DUP4 CODECOPY DUP2 MLOAD SWAP2 MSTORE PUSH1 0x44 DUP3 ADD MSTORE SWAP1 MLOAD SWAP1 DUP2 SWAP1 SUB PUSH1 0x64 ADD SWAP1 REVERT JUMPDEST PUSH1 0x10 SSTORE JUMP JUMPDEST CALLER PUSH1 0x0 SWAP1 DUP2 MSTORE PUSH1 0x1 PUSH1 0x20 MSTORE PUSH1 0x40 SWAP1 KECCAK256 SLOAD PUSH1 0xFF AND DUP1 PUSH2 0x1CCF JUMPI POP CALLER PUSH2 0x1CC4 PUSH2 0x2F6A JUMP JUMPDEST PUSH1 0x1 PUSH1 0x1 PUSH1 0xA0 SHL SUB AND EQ JUMPDEST PUSH2 0x1D0E JUMPI PUSH1 0x40 DUP1 MLOAD PUSH3 0x461BCD PUSH1 0xE5 SHL DUP2 MSTORE PUSH1 0x20 PUSH1 0x4 DUP3 ADD MSTORE PUSH1 0x18 PUSH1 0x24 DUP3 ADD MSTORE PUSH1 0x0 DUP1 MLOAD PUSH1 0x20 PUSH2 0x476B DUP4 CODECOPY DUP2 MLOAD SWAP2 MSTORE PUSH1 0x44 DUP3 ADD MSTORE SWAP1 MLOAD SWAP1 DUP2 SWAP1 SUB PUSH1 0x64 ADD SWAP1 REVERT JUMPDEST PUSH1 0x13 SSTORE JUMP JUMPDEST CALLER PUSH1 0x0 SWAP1 DUP2 MSTORE PUSH1 0x1 PUSH1 0x20 MSTORE PUSH1 0x40 SWAP1 KECCAK256 SLOAD PUSH1 0xFF AND DUP1 PUSH2 0x1D40 JUMPI POP CALLER PUSH2 0x1D35 PUSH2 0x2F6A JUMP JUMPDEST PUSH1 0x1 PUSH1 0x1 PUSH1 0xA0 SHL SUB AND EQ JUMPDEST PUSH2 0x1D7F JUMPI PUSH1 0x40 DUP1 MLOAD PUSH3 0x461BCD PUSH1 0xE5 SHL DUP2 MSTORE PUSH1 0x20 PUSH1 0x4 DUP3 ADD MSTORE PUSH1 0x18 PUSH1 0x24 DUP3 ADD MSTORE PUSH1 0x0 DUP1 MLOAD PUSH1 0x20 PUSH2 0x476B DUP4 CODECOPY DUP2 MLOAD SWAP2 MSTORE PUSH1 0x44 DUP3 ADD MSTORE SWAP1 MLOAD SWAP1 DUP2 SWAP1 SUB PUSH1 0x64 ADD SWAP1 REVERT JUMPDEST DUP1 MLOAD PUSH2 0x1D92 SWAP1 PUSH1 0x14 SWAP1 PUSH1 0x20 DUP5 ADD SWAP1 PUSH2 0x45FD JUMP JUMPDEST POP POP JUMP JUMPDEST CALLER PUSH1 0x0 SWAP1 DUP2 MSTORE PUSH1 0x1 PUSH1 0x20 MSTORE PUSH1 0x40 SWAP1 KECCAK256 SLOAD PUSH1 0xFF AND DUP1 PUSH2 0x1DC3 JUMPI POP CALLER PUSH2 0x1DB8 PUSH2 0x2F6A JUMP JUMPDEST PUSH1 0x1 PUSH1 0x1 PUSH1 0xA0 SHL SUB AND EQ JUMPDEST PUSH2 0x1E02 JUMPI PUSH1 0x40 DUP1 MLOAD PUSH3 0x461BCD PUSH1 0xE5 SHL DUP2 MSTORE PUSH1 0x20 PUSH1 0x4 DUP3 ADD MSTORE PUSH1 0x18 PUSH1 0x24 DUP3 ADD MSTORE PUSH1 0x0 DUP1 MLOAD PUSH1 0x20 PUSH2 0x476B DUP4 CODECOPY DUP2 MLOAD SWAP2 MSTORE PUSH1 0x44 DUP3 ADD MSTORE SWAP1 MLOAD SWAP1 DUP2 SWAP1 SUB PUSH1 0x64 ADD SWAP1 REVERT JUMPDEST DUP1 MLOAD PUSH2 0x1D92 SWAP1 PUSH1 0xE SWAP1 PUSH1 0x20 DUP5 ADD SWAP1 PUSH2 0x45FD JUMP JUMPDEST PUSH1 0xA DUP2 DUP2 SLOAD DUP2 LT PUSH2 0x1E22 JUMPI INVALID JUMPDEST PUSH1 0x0 SWAP2 DUP3 MSTORE PUSH1 0x20 SWAP1 SWAP2 KECCAK256 ADD SLOAD SWAP1 POP DUP2 JUMP JUMPDEST CALLER PUSH1 0x0 SWAP1 DUP2 MSTORE PUSH1 0x1 PUSH1 0x20 MSTORE PUSH1 0x40 SWAP1 KECCAK256 SLOAD PUSH1 0xFF AND DUP1 PUSH2 0x1E60 JUMPI POP CALLER PUSH2 0x1E55 PUSH2 0x2F6A JUMP JUMPDEST PUSH1 0x1 PUSH1 0x1 PUSH1 0xA0 SHL SUB AND EQ JUMPDEST PUSH2 0x1E9F JUMPI PUSH1 0x40 DUP1 MLOAD PUSH3 0x461BCD PUSH1 0xE5 SHL DUP2 MSTORE PUSH1 0x20 PUSH1 0x4 DUP3 ADD MSTORE PUSH1 0x18 PUSH1 0x24 DUP3 ADD MSTORE PUSH1 0x0 DUP1 MLOAD PUSH1 0x20 PUSH2 0x476B DUP4 CODECOPY DUP2 MLOAD SWAP2 MSTORE PUSH1 0x44 DUP3 ADD MSTORE SWAP1 MLOAD SWAP1 DUP2 SWAP1 SUB PUSH1 0x64 ADD SWAP1 REVERT JUMPDEST PUSH1 0x8 DUP1 SLOAD PUSH1 0x1 PUSH1 0x1 PUSH1 0xA0 SHL SUB NOT AND PUSH1 0x1 PUSH1 0x1 PUSH1 0xA0 SHL SUB SWAP3 SWAP1 SWAP3 AND SWAP2 SWAP1 SWAP2 OR SWAP1 SSTORE JUMP JUMPDEST CALLER PUSH1 0x0 SWAP1 DUP2 MSTORE PUSH1 0x1 PUSH1 0x20 MSTORE PUSH1 0x40 SWAP1 KECCAK256 SLOAD PUSH1 0xFF AND DUP1 PUSH2 0x1EEE JUMPI POP CALLER PUSH2 0x1EE3 PUSH2 0x2F6A JUMP JUMPDEST PUSH1 0x1 PUSH1 0x1 PUSH1 0xA0 SHL SUB AND EQ JUMPDEST PUSH2 0x1F2D JUMPI PUSH1 0x40 DUP1 MLOAD PUSH3 0x461BCD PUSH1 0xE5 SHL DUP2 MSTORE PUSH1 0x20 PUSH1 0x4 DUP3 ADD MSTORE PUSH1 0x18 PUSH1 0x24 DUP3 ADD MSTORE PUSH1 0x0 DUP1 MLOAD PUSH1 0x20 PUSH2 0x476B DUP4 CODECOPY DUP2 MLOAD SWAP2 MSTORE PUSH1 0x44 DUP3 ADD MSTORE SWAP1 MLOAD SWAP1 DUP2 SWAP1 SUB PUSH1 0x64 ADD SWAP1 REVERT JUMPDEST DUP1 MLOAD PUSH2 0x1D92 SWAP1 PUSH1 0xB SWAP1 PUSH1 0x20 DUP5 ADD SWAP1 PUSH2 0x45FD JUMP JUMPDEST PUSH1 0x0 PUSH2 0x1F4A PUSH2 0x4648 JUMP JUMPDEST POP POP PUSH1 0x1 PUSH1 0x1 PUSH1 0xA0 SHL SUB AND PUSH1 0x0 SWAP1 DUP2 MSTORE PUSH1 0x1C PUSH1 0x20 SWAP1 DUP2 MSTORE PUSH1 0x40 SWAP2 DUP3 SWAP1 KECCAK256 DUP3 MLOAD PUSH1 0x60 DUP2 ADD DUP5 MSTORE DUP2 SLOAD DUP2 MSTORE PUSH1 0x2 DUP3 ADD SLOAD SWAP3 DUP2 ADD DUP4 SWAP1 MSTORE PUSH1 0x3 SWAP1 SWAP2 ADD SLOAD SWAP3 ADD SWAP2 SWAP1 SWAP2 MSTORE SWAP1 JUMP JUMPDEST PUSH1 0x13 SLOAD DUP2 JUMP JUMPDEST PUSH1 0x7 SLOAD PUSH1 0x1 PUSH1 0x1 PUSH1 0xA0 SHL SUB AND DUP2 JUMP JUMPDEST CALLER PUSH1 0x0 SWAP1 DUP2 MSTORE PUSH1 0x1 PUSH1 0x20 MSTORE PUSH1 0x40 SWAP1 KECCAK256 SLOAD PUSH1 0xFF AND DUP1 PUSH2 0x1FCF JUMPI POP CALLER PUSH2 0x1FC4 PUSH2 0x2F6A JUMP JUMPDEST PUSH1 0x1 PUSH1 0x1 PUSH1 0xA0 SHL SUB AND EQ JUMPDEST PUSH2 0x200E JUMPI PUSH1 0x40 DUP1 MLOAD PUSH3 0x461BCD PUSH1 0xE5 SHL DUP2 MSTORE PUSH1 0x20 PUSH1 0x4 DUP3 ADD MSTORE PUSH1 0x18 PUSH1 0x24 DUP3 ADD MSTORE PUSH1 0x0 DUP1 MLOAD PUSH1 0x20 PUSH2 0x476B DUP4 CODECOPY DUP2 MLOAD SWAP2 MSTORE PUSH1 0x44 DUP3 ADD MSTORE SWAP1 MLOAD SWAP1 DUP2 SWAP1 SUB PUSH1 0x64 ADD SWAP1 REVERT JUMPDEST PUSH1 0x9 SSTORE JUMP JUMPDEST PUSH1 0xB DUP2 DUP2 SLOAD DUP2 LT PUSH2 0x1E22 JUMPI INVALID JUMPDEST CALLER PUSH1 0x0 SWAP1 DUP2 MSTORE PUSH1 0x1 PUSH1 0x20 MSTORE PUSH1 0x40 SWAP1 KECCAK256 SLOAD PUSH1 0xFF AND DUP1 PUSH2 0x204D JUMPI POP CALLER PUSH2 0x2042 PUSH2 0x2F6A JUMP JUMPDEST PUSH1 0x1 PUSH1 0x1 PUSH1 0xA0 SHL SUB AND EQ JUMPDEST PUSH2 0x208C JUMPI PUSH1 0x40 DUP1 MLOAD PUSH3 0x461BCD PUSH1 0xE5 SHL DUP2 MSTORE PUSH1 0x20 PUSH1 0x4 DUP3 ADD MSTORE PUSH1 0x18 PUSH1 0x24 DUP3 ADD MSTORE PUSH1 0x0 DUP1 MLOAD PUSH1 0x20 PUSH2 0x476B DUP4 CODECOPY DUP2 MLOAD SWAP2 MSTORE PUSH1 0x44 DUP3 ADD MSTORE SWAP1 MLOAD SWAP1 DUP2 SWAP1 SUB PUSH1 0x64 ADD SWAP1 REVERT JUMPDEST DUP1 MLOAD PUSH2 0x1D92 SWAP1 PUSH1 0xA SWAP1 PUSH1 0x20 DUP5 ADD SWAP1 PUSH2 0x45FD JUMP JUMPDEST PUSH2 0x20A7 PUSH2 0x42D6 JUMP JUMPDEST PUSH1 0x1 PUSH1 0x1 PUSH1 0xA0 SHL SUB AND PUSH2 0x20B8 PUSH2 0x2F6A JUMP JUMPDEST PUSH1 0x1 PUSH1 0x1 PUSH1 0xA0 SHL SUB AND EQ PUSH2 0x2101 JUMPI PUSH1 0x40 DUP1 MLOAD PUSH3 0x461BCD PUSH1 0xE5 SHL DUP2 MSTORE PUSH1 0x20 PUSH1 0x4 DUP3 ADD DUP2 SWAP1 MSTORE PUSH1 0x24 DUP3 ADD MSTORE PUSH1 0x0 DUP1 MLOAD PUSH1 0x20 PUSH2 0x474B DUP4 CODECOPY DUP2 MLOAD SWAP2 MSTORE PUSH1 0x44 DUP3 ADD MSTORE SWAP1 MLOAD SWAP1 DUP2 SWAP1 SUB PUSH1 0x64 ADD SWAP1 REVERT JUMPDEST PUSH1 0x1 PUSH1 0x1 PUSH1 0xA0 SHL SUB DUP2 AND CALLER EQ ISZERO PUSH2 0x2117 JUMPI PUSH1 0x0 DUP1 REVERT JUMPDEST PUSH1 0x1 PUSH1 0x1 PUSH1 0xA0 SHL SUB AND PUSH1 0x0 SWAP1 DUP2 MSTORE PUSH1 0x1 PUSH1 0x20 MSTORE PUSH1 0x40 SWAP1 KECCAK256 DUP1 SLOAD PUSH1 0xFF NOT AND SWAP1 SSTORE JUMP JUMPDEST CALLER PUSH1 0x0 SWAP1 DUP2 MSTORE PUSH1 0x1 PUSH1 0x20 MSTORE PUSH1 0x40 SWAP1 KECCAK256 SLOAD PUSH1 0xFF AND DUP1 PUSH2 0x2165 JUMPI POP CALLER PUSH2 0x215A PUSH2 0x2F6A JUMP JUMPDEST PUSH1 0x1 PUSH1 0x1 PUSH1 0xA0 SHL SUB AND EQ JUMPDEST PUSH2 0x21A4 JUMPI PUSH1 0x40 DUP1 MLOAD PUSH3 0x461BCD PUSH1 0xE5 SHL DUP2 MSTORE PUSH1 0x20 PUSH1 0x4 DUP3 ADD MSTORE PUSH1 0x18 PUSH1 0x24 DUP3 ADD MSTORE PUSH1 0x0 DUP1 MLOAD PUSH1 0x20 PUSH2 0x476B DUP4 CODECOPY DUP2 MLOAD SWAP2 MSTORE PUSH1 0x44 DUP3 ADD MSTORE SWAP1 MLOAD SWAP1 DUP2 SWAP1 SUB PUSH1 0x64 ADD SWAP1 REVERT JUMPDEST DUP1 MLOAD PUSH2 0x1D92 SWAP1 PUSH1 0xD SWAP1 PUSH1 0x20 DUP5 ADD SWAP1 PUSH2 0x45FD JUMP JUMPDEST CALLER PUSH1 0x0 SWAP1 DUP2 MSTORE PUSH1 0x1 PUSH1 0x20 MSTORE PUSH1 0x40 SWAP1 KECCAK256 SLOAD PUSH1 0xFF AND DUP1 PUSH2 0x21E4 JUMPI POP CALLER PUSH2 0x21D9 PUSH2 0x2F6A JUMP JUMPDEST PUSH1 0x1 PUSH1 0x1 PUSH1 0xA0 SHL SUB AND EQ JUMPDEST PUSH2 0x2223 JUMPI PUSH1 0x40 DUP1 MLOAD PUSH3 0x461BCD PUSH1 0xE5 SHL DUP2 MSTORE PUSH1 0x20 PUSH1 0x4 DUP3 ADD MSTORE PUSH1 0x18 PUSH1 0x24 DUP3 ADD MSTORE PUSH1 0x0 DUP1 MLOAD PUSH1 0x20 PUSH2 0x476B DUP4 CODECOPY DUP2 MLOAD SWAP2 MSTORE PUSH1 0x44 DUP3 ADD MSTORE SWAP1 MLOAD SWAP1 DUP2 SWAP1 SUB PUSH1 0x64 ADD SWAP1 REVERT JUMPDEST PUSH1 0x6 DUP1 SLOAD PUSH1 0x1 PUSH1 0x1 PUSH1 0xA0 SHL SUB NOT AND PUSH1 0x1 PUSH1 0x1 PUSH1 0xA0 SHL SUB SWAP3 SWAP1 SWAP3 AND SWAP2 SWAP1 SWAP2 OR SWAP1 SSTORE JUMP JUMPDEST PUSH2 0x224D PUSH2 0x42D6 JUMP JUMPDEST PUSH1 0x1 PUSH1 0x1 PUSH1 0xA0 SHL SUB AND PUSH2 0x225E PUSH2 0x2F6A JUMP JUMPDEST PUSH1 0x1 PUSH1 0x1 PUSH1 0xA0 SHL SUB AND EQ PUSH2 0x22A7 JUMPI PUSH1 0x40 DUP1 MLOAD PUSH3 0x461BCD PUSH1 0xE5 SHL DUP2 MSTORE PUSH1 0x20 PUSH1 0x4 DUP3 ADD DUP2 SWAP1 MSTORE PUSH1 0x24 DUP3 ADD MSTORE PUSH1 0x0 DUP1 MLOAD PUSH1 0x20 PUSH2 0x474B DUP4 CODECOPY DUP2 MLOAD SWAP2 MSTORE PUSH1 0x44 DUP3 ADD MSTORE SWAP1 MLOAD SWAP1 DUP2 SWAP1 SUB PUSH1 0x64 ADD SWAP1 REVERT JUMPDEST PUSH1 0x3 SLOAD PUSH1 0x40 DUP1 MLOAD PUSH4 0x7AA0E409 PUSH1 0xE1 SHL DUP2 MSTORE PUSH1 0x1 PUSH1 0x1 PUSH1 0xA0 SHL SUB DUP6 DUP2 AND PUSH1 0x4 DUP4 ADD MSTORE PUSH1 0x24 DUP3 ADD DUP6 SWAP1 MSTORE SWAP2 MLOAD SWAP2 SWAP1 SWAP3 AND SWAP2 PUSH4 0xF541C812 SWAP2 PUSH1 0x44 DUP1 DUP4 ADD SWAP3 PUSH1 0x0 SWAP3 SWAP2 SWAP1 DUP3 SWAP1 SUB ADD DUP2 DUP4 DUP8 DUP1 EXTCODESIZE ISZERO DUP1 ISZERO PUSH2 0x22FC JUMPI PUSH1 0x0 DUP1 REVERT JUMPDEST POP GAS CALL ISZERO DUP1 ISZERO PUSH2 0x2310 JUMPI RETURNDATASIZE PUSH1 0x0 DUP1 RETURNDATACOPY RETURNDATASIZE PUSH1 0x0 REVERT JUMPDEST POP POP POP POP POP POP JUMP JUMPDEST PUSH1 0x0 PUSH1 0x19 DUP3 DUP2 SLOAD DUP2 LT PUSH2 0x2327 JUMPI INVALID JUMPDEST SWAP1 PUSH1 0x0 MSTORE PUSH1 0x20 PUSH1 0x0 KECCAK256 SWAP1 PUSH1 0x4 MUL ADD SWAP1 POP DUP1 PUSH1 0x2 ADD SLOAD NUMBER GT PUSH2 0x2348 JUMPI POP PUSH2 0x28BD JUMP JUMPDEST DUP1 SLOAD PUSH1 0x40 DUP1 MLOAD PUSH4 0x70A08231 PUSH1 0xE0 SHL DUP2 MSTORE ADDRESS PUSH1 0x4 DUP3 ADD MSTORE SWAP1 MLOAD PUSH1 0x0 SWAP3 PUSH1 0x1 PUSH1 0x1 PUSH1 0xA0 SHL SUB AND SWAP2 PUSH4 0x70A08231 SWAP2 PUSH1 0x24 DUP1 DUP4 ADD SWAP3 PUSH1 0x20 SWAP3 SWAP2 SWAP1 DUP3 SWAP1 SUB ADD DUP2 DUP7 DUP1 EXTCODESIZE ISZERO DUP1 ISZERO PUSH2 0x2392 JUMPI PUSH1 0x0 DUP1 REVERT JUMPDEST POP GAS STATICCALL ISZERO DUP1 ISZERO PUSH2 0x23A6 JUMPI RETURNDATASIZE PUSH1 0x0 DUP1 RETURNDATACOPY RETURNDATASIZE PUSH1 0x0 REVERT JUMPDEST POP POP POP POP PUSH1 0x40 MLOAD RETURNDATASIZE PUSH1 0x20 DUP2 LT ISZERO PUSH2 0x23BC JUMPI PUSH1 0x0 DUP1 REVERT JUMPDEST POP MLOAD SWAP1 POP DUP1 PUSH2 0x23D2 JUMPI POP NUMBER PUSH1 0x2 SWAP1 SWAP2 ADD SSTORE PUSH2 0x28BD JUMP JUMPDEST PUSH1 0x0 DUP1 PUSH1 0x0 DUP1 PUSH1 0x0 PUSH2 0x23ED DUP8 PUSH1 0x2 ADD SLOAD NUMBER DUP10 PUSH1 0x1 ADD SLOAD PUSH2 0x36F9 JUMP JUMPDEST PUSH1 0x3 SLOAD PUSH1 0x40 DUP1 MLOAD PUSH4 0x7AA0E409 PUSH1 0xE1 SHL DUP2 MSTORE ADDRESS PUSH1 0x4 DUP3 ADD MSTORE PUSH1 0x24 DUP2 ADD DUP8 SWAP1 MSTORE SWAP1 MLOAD SWAP7 SWAP12 POP SWAP5 SWAP10 POP SWAP3 SWAP8 POP SWAP1 SWAP6 POP SWAP4 POP PUSH1 0x1 PUSH1 0x1 PUSH1 0xA0 SHL SUB AND SWAP2 PUSH4 0xF541C812 SWAP2 PUSH1 0x44 DUP1 DUP3 ADD SWAP3 PUSH1 0x0 SWAP3 SWAP1 SWAP2 SWAP1 DUP3 SWAP1 SUB ADD DUP2 DUP4 DUP8 DUP1 EXTCODESIZE ISZERO DUP1 ISZERO PUSH2 0x244C JUMPI PUSH1 0x0 DUP1 REVERT JUMPDEST POP GAS CALL ISZERO DUP1 ISZERO PUSH2 0x2460 JUMPI RETURNDATASIZE PUSH1 0x0 DUP1 RETURNDATACOPY RETURNDATASIZE PUSH1 0x0 REVERT JUMPDEST POP POP POP POP PUSH2 0x248E PUSH2 0x2483 DUP8 PUSH2 0x147D PUSH5 0xE8D4A51000 DUP9 PUSH2 0x3E7A SWAP1 SWAP2 SWAP1 PUSH4 0xFFFFFFFF AND JUMP JUMPDEST PUSH1 0x3 DUP10 ADD SLOAD SWAP1 PUSH2 0x3EDA JUMP JUMPDEST PUSH1 0x3 DUP9 ADD SSTORE NUMBER PUSH1 0x2 DUP9 ADD SSTORE DUP5 ISZERO PUSH2 0x25A0 JUMPI PUSH1 0x3 SLOAD PUSH1 0x5 SLOAD PUSH1 0x40 DUP1 MLOAD PUSH4 0x7AA0E409 PUSH1 0xE1 SHL DUP2 MSTORE PUSH1 0x1 PUSH1 0x1 PUSH1 0xA0 SHL SUB SWAP3 DUP4 AND PUSH1 0x4 DUP3 ADD MSTORE PUSH1 0x24 DUP2 ADD DUP10 SWAP1 MSTORE SWAP1 MLOAD SWAP2 SWAP1 SWAP3 AND SWAP2 PUSH4 0xF541C812 SWAP2 PUSH1 0x44 DUP1 DUP4 ADD SWAP3 PUSH1 0x0 SWAP3 SWAP2 SWAP1 DUP3 SWAP1 SUB ADD DUP2 DUP4 DUP8 DUP1 EXTCODESIZE ISZERO DUP1 ISZERO PUSH2 0x24F7 JUMPI PUSH1 0x0 DUP1 REVERT JUMPDEST POP GAS CALL ISZERO DUP1 ISZERO PUSH2 0x250B JUMPI RETURNDATASIZE PUSH1 0x0 DUP1 RETURNDATACOPY RETURNDATASIZE PUSH1 0x0 REVERT JUMPDEST POP POP POP POP PUSH1 0x10 SLOAD NUMBER GT PUSH2 0x25A0 JUMPI PUSH1 0x3 SLOAD PUSH1 0x5 SLOAD PUSH1 0x1 PUSH1 0x1 PUSH1 0xA0 SHL SUB SWAP2 DUP3 AND SWAP2 PUSH4 0x282D3FDF SWAP2 AND PUSH2 0x2541 PUSH1 0x64 PUSH2 0x147D DUP11 PUSH1 0x4B PUSH2 0x3E7A JUMP JUMPDEST PUSH1 0x40 MLOAD DUP4 PUSH4 0xFFFFFFFF AND PUSH1 0xE0 SHL DUP2 MSTORE PUSH1 0x4 ADD DUP1 DUP4 PUSH1 0x1 PUSH1 0x1 PUSH1 0xA0 SHL SUB AND DUP2 MSTORE PUSH1 0x20 ADD DUP3 DUP2 MSTORE PUSH1 0x20 ADD SWAP3 POP POP POP PUSH1 0x0 PUSH1 0x40 MLOAD DUP1 DUP4 SUB DUP2 PUSH1 0x0 DUP8 DUP1 EXTCODESIZE ISZERO DUP1 ISZERO PUSH2 0x2587 JUMPI PUSH1 0x0 DUP1 REVERT JUMPDEST POP GAS CALL ISZERO DUP1 ISZERO PUSH2 0x259B JUMPI RETURNDATASIZE PUSH1 0x0 DUP1 RETURNDATACOPY RETURNDATASIZE PUSH1 0x0 REVERT JUMPDEST POP POP POP POP JUMPDEST DUP3 ISZERO PUSH2 0x26A7 JUMPI PUSH1 0x3 SLOAD PUSH1 0x6 SLOAD PUSH1 0x40 DUP1 MLOAD PUSH4 0x7AA0E409 PUSH1 0xE1 SHL DUP2 MSTORE PUSH1 0x1 PUSH1 0x1 PUSH1 0xA0 SHL SUB SWAP3 DUP4 AND PUSH1 0x4 DUP3 ADD MSTORE PUSH1 0x24 DUP2 ADD DUP8 SWAP1 MSTORE SWAP1 MLOAD SWAP2 SWAP1 SWAP3 AND SWAP2 PUSH4 0xF541C812 SWAP2 PUSH1 0x44 DUP1 DUP4 ADD SWAP3 PUSH1 0x0 SWAP3 SWAP2 SWAP1 DUP3 SWAP1 SUB ADD DUP2 DUP4 DUP8 DUP1 EXTCODESIZE ISZERO DUP1 ISZERO PUSH2 0x25FE JUMPI PUSH1 0x0 DUP1 REVERT JUMPDEST POP GAS CALL ISZERO DUP1 ISZERO PUSH2 0x2612 JUMPI RETURNDATASIZE PUSH1 0x0 DUP1 RETURNDATACOPY RETURNDATASIZE PUSH1 0x0 REVERT JUMPDEST POP POP POP POP PUSH1 0x10 SLOAD NUMBER GT PUSH2 0x26A7 JUMPI PUSH1 0x3 SLOAD PUSH1 0x6 SLOAD PUSH1 0x1 PUSH1 0x1 PUSH1 0xA0 SHL SUB SWAP2 DUP3 AND SWAP2 PUSH4 0x282D3FDF SWAP2 AND PUSH2 0x2648 PUSH1 0x64 PUSH2 0x147D DUP9 PUSH1 0x2D PUSH2 0x3E7A JUMP JUMPDEST PUSH1 0x40 MLOAD DUP4 PUSH4 0xFFFFFFFF AND PUSH1 0xE0 SHL DUP2 MSTORE PUSH1 0x4 ADD DUP1 DUP4 PUSH1 0x1 PUSH1 0x1 PUSH1 0xA0 SHL SUB AND DUP2 MSTORE PUSH1 0x20 ADD DUP3 DUP2 MSTORE PUSH1 0x20 ADD SWAP3 POP POP POP PUSH1 0x0 PUSH1 0x40 MLOAD DUP1 DUP4 SUB DUP2 PUSH1 0x0 DUP8 DUP1 EXTCODESIZE ISZERO DUP1 ISZERO PUSH2 0x268E JUMPI PUSH1 0x0 DUP1 REVERT JUMPDEST POP GAS CALL ISZERO DUP1 ISZERO PUSH2 0x26A2 JUMPI RETURNDATASIZE PUSH1 0x0 DUP1 RETURNDATACOPY RETURNDATASIZE PUSH1 0x0 REVERT JUMPDEST POP POP POP POP JUMPDEST DUP2 ISZERO PUSH2 0x27AE JUMPI PUSH1 0x3 SLOAD PUSH1 0x7 SLOAD PUSH1 0x40 DUP1 MLOAD PUSH4 0x7AA0E409 PUSH1 0xE1 SHL DUP2 MSTORE PUSH1 0x1 PUSH1 0x1 PUSH1 0xA0 SHL SUB SWAP3 DUP4 AND PUSH1 0x4 DUP3 ADD MSTORE PUSH1 0x24 DUP2 ADD DUP7 SWAP1 MSTORE SWAP1 MLOAD SWAP2 SWAP1 SWAP3 AND SWAP2 PUSH4 0xF541C812 SWAP2 PUSH1 0x44 DUP1 DUP4 ADD SWAP3 PUSH1 0x0 SWAP3 SWAP2 SWAP1 DUP3 SWAP1 SUB ADD DUP2 DUP4 DUP8 DUP1 EXTCODESIZE ISZERO DUP1 ISZERO PUSH2 0x2705 JUMPI PUSH1 0x0 DUP1 REVERT JUMPDEST POP GAS CALL ISZERO DUP1 ISZERO PUSH2 0x2719 JUMPI RETURNDATASIZE PUSH1 0x0 DUP1 RETURNDATACOPY RETURNDATASIZE PUSH1 0x0 REVERT JUMPDEST POP POP POP POP PUSH1 0x10 SLOAD NUMBER GT PUSH2 0x27AE JUMPI PUSH1 0x3 SLOAD PUSH1 0x7 SLOAD PUSH1 0x1 PUSH1 0x1 PUSH1 0xA0 SHL SUB SWAP2 DUP3 AND SWAP2 PUSH4 0x282D3FDF SWAP2 AND PUSH2 0x274F PUSH1 0x64 PUSH2 0x147D DUP8 PUSH1 0x55 PUSH2 0x3E7A JUMP JUMPDEST PUSH1 0x40 MLOAD DUP4 PUSH4 0xFFFFFFFF AND PUSH1 0xE0 SHL DUP2 MSTORE PUSH1 0x4 ADD DUP1 DUP4 PUSH1 0x1 PUSH1 0x1 PUSH1 0xA0 SHL SUB AND DUP2 MSTORE PUSH1 0x20 ADD DUP3 DUP2 MSTORE PUSH1 0x20 ADD SWAP3 POP POP POP PUSH1 0x0 PUSH1 0x40 MLOAD DUP1 DUP4 SUB DUP2 PUSH1 0x0 DUP8 DUP1 EXTCODESIZE ISZERO DUP1 ISZERO PUSH2 0x2795 JUMPI PUSH1 0x0 DUP1 REVERT JUMPDEST POP GAS CALL ISZERO DUP1 ISZERO PUSH2 0x27A9 JUMPI RETURNDATASIZE PUSH1 0x0 DUP1 RETURNDATACOPY RETURNDATASIZE PUSH1 0x0 REVERT JUMPDEST POP POP POP POP JUMPDEST DUP1 ISZERO PUSH2 0x28B5 JUMPI PUSH1 0x3 SLOAD PUSH1 0x8 SLOAD PUSH1 0x40 DUP1 MLOAD PUSH4 0x7AA0E409 PUSH1 0xE1 SHL DUP2 MSTORE PUSH1 0x1 PUSH1 0x1 PUSH1 0xA0 SHL SUB SWAP3 DUP4 AND PUSH1 0x4 DUP3 ADD MSTORE PUSH1 0x24 DUP2 ADD DUP6 SWAP1 MSTORE SWAP1 MLOAD SWAP2 SWAP1 SWAP3 AND SWAP2 PUSH4 0xF541C812 SWAP2 PUSH1 0x44 DUP1 DUP4 ADD SWAP3 PUSH1 0x0 SWAP3 SWAP2 SWAP1 DUP3 SWAP1 SUB ADD DUP2 DUP4 DUP8 DUP1 EXTCODESIZE ISZERO DUP1 ISZERO PUSH2 0x280C JUMPI PUSH1 0x0 DUP1 REVERT JUMPDEST POP GAS CALL ISZERO DUP1 ISZERO PUSH2 0x2820 JUMPI RETURNDATASIZE PUSH1 0x0 DUP1 RETURNDATACOPY RETURNDATASIZE PUSH1 0x0 REVERT JUMPDEST POP POP POP POP PUSH1 0x10 SLOAD NUMBER GT PUSH2 0x28B5 JUMPI PUSH1 0x3 SLOAD PUSH1 0x8 SLOAD PUSH1 0x1 PUSH1 0x1 PUSH1 0xA0 SHL SUB SWAP2 DUP3 AND SWAP2 PUSH4 0x282D3FDF SWAP2 AND PUSH2 0x2856 PUSH1 0x64 PUSH2 0x147D DUP7 PUSH1 0x5F PUSH2 0x3E7A JUMP JUMPDEST PUSH1 0x40 MLOAD DUP4 PUSH4 0xFFFFFFFF AND PUSH1 0xE0 SHL DUP2 MSTORE PUSH1 0x4 ADD DUP1 DUP4 PUSH1 0x1 PUSH1 0x1 PUSH1 0xA0 SHL SUB AND DUP2 MSTORE PUSH1 0x20 ADD DUP3 DUP2 MSTORE PUSH1 0x20 ADD SWAP3 POP POP POP PUSH1 0x0 PUSH1 0x40 MLOAD DUP1 DUP4 SUB DUP2 PUSH1 0x0 DUP8 DUP1 EXTCODESIZE ISZERO DUP1 ISZERO PUSH2 0x289C JUMPI PUSH1 0x0 DUP1 REVERT JUMPDEST POP GAS CALL ISZERO DUP1 ISZERO PUSH2 0x28B0 JUMPI RETURNDATASIZE PUSH1 0x0 DUP1 RETURNDATACOPY RETURNDATASIZE PUSH1 0x0 REVERT JUMPDEST POP POP POP POP JUMPDEST POP POP POP POP POP POP POP JUMPDEST POP JUMP JUMPDEST PUSH1 0x2 DUP1 SLOAD EQ ISZERO PUSH2 0x2917 JUMPI PUSH1 0x40 DUP1 MLOAD PUSH3 0x461BCD PUSH1 0xE5 SHL DUP2 MSTORE PUSH1 0x20 PUSH1 0x4 DUP3 ADD MSTORE PUSH1 0x1F PUSH1 0x24 DUP3 ADD MSTORE PUSH32 0x5265656E7472616E637947756172643A207265656E7472616E742063616C6C00 PUSH1 0x44 DUP3 ADD MSTORE SWAP1 MLOAD SWAP1 DUP2 SWAP1 SUB PUSH1 0x64 ADD SWAP1 REVERT JUMPDEST PUSH1 0x2 DUP1 DUP2 SWAP1 SSTORE POP PUSH1 0x0 PUSH1 0x19 DUP3 DUP2 SLOAD DUP2 LT PUSH2 0x292D JUMPI INVALID JUMPDEST PUSH1 0x0 SWAP2 DUP3 MSTORE PUSH1 0x20 DUP1 DUP4 KECCAK256 DUP6 DUP5 MSTORE PUSH1 0x1B DUP3 MSTORE PUSH1 0x40 DUP1 DUP6 KECCAK256 CALLER DUP7 MSTORE SWAP1 SWAP3 MSTORE SWAP1 DUP4 KECCAK256 DUP1 SLOAD PUSH1 0x4 SWAP1 SWAP4 MUL SWAP1 SWAP2 ADD SWAP4 POP SWAP2 SWAP1 PUSH2 0x296C SWAP1 PUSH1 0x64 SWAP1 PUSH2 0x147D SWAP1 PUSH1 0x4B PUSH2 0x3E7A JUMP JUMPDEST SWAP1 POP PUSH1 0x0 PUSH2 0x298D PUSH1 0x64 PUSH2 0x147D PUSH1 0x19 DUP7 PUSH1 0x0 ADD SLOAD PUSH2 0x3E7A SWAP1 SWAP2 SWAP1 PUSH4 0xFFFFFFFF AND JUMP JUMPDEST PUSH1 0x0 DUP1 DUP6 SSTORE PUSH1 0x1 DUP6 ADD SSTORE DUP5 SLOAD SWAP1 SWAP2 POP PUSH2 0x29B0 SWAP1 PUSH1 0x1 PUSH1 0x1 PUSH1 0xA0 SHL SUB AND CALLER DUP5 PUSH2 0x4284 JUMP JUMPDEST PUSH1 0x5 SLOAD DUP5 SLOAD PUSH2 0x29CC SWAP2 PUSH1 0x1 PUSH1 0x1 PUSH1 0xA0 SHL SUB SWAP2 DUP3 AND SWAP2 AND DUP4 PUSH2 0x4284 JUMP JUMPDEST PUSH1 0x40 DUP1 MLOAD DUP4 DUP2 MSTORE SWAP1 MLOAD DUP7 SWAP2 CALLER SWAP2 PUSH32 0xBB757047C2B5F3974FE26B7C10F732E7BCE710B0952A71082702781E62AE0595 SWAP2 DUP2 SWAP1 SUB PUSH1 0x20 ADD SWAP1 LOG3 POP POP PUSH1 0x1 PUSH1 0x2 SSTORE POP POP POP JUMP JUMPDEST PUSH1 0x0 PUSH2 0x2A19 PUSH2 0x4648 JUMP JUMPDEST POP POP PUSH1 0x1 PUSH1 0x1 PUSH1 0xA0 SHL SUB AND PUSH1 0x0 SWAP1 DUP2 MSTORE PUSH1 0x1C PUSH1 0x20 SWAP1 DUP2 MSTORE PUSH1 0x40 SWAP2 DUP3 SWAP1 KECCAK256 DUP3 MLOAD PUSH1 0x60 DUP2 ADD DUP5 MSTORE DUP2 SLOAD DUP2 MSTORE PUSH1 0x2 DUP3 ADD SLOAD SWAP3 DUP2 ADD SWAP3 SWAP1 SWAP3 MSTORE PUSH1 0x3 ADD SLOAD SWAP2 ADD DUP2 SWAP1 MSTORE SWAP1 JUMP JUMPDEST PUSH1 0x0 JUMPDEST DUP2 MLOAD DUP2 LT ISZERO PUSH2 0x1D92 JUMPI PUSH2 0x2A82 DUP3 DUP3 DUP2 MLOAD DUP2 LT PUSH2 0x2A75 JUMPI INVALID JUMPDEST PUSH1 0x20 MUL PUSH1 0x20 ADD ADD MLOAD PUSH2 0x353A JUMP JUMPDEST PUSH1 0x1 ADD PUSH2 0x2A5D JUMP JUMPDEST CALLER PUSH1 0x0 SWAP1 DUP2 MSTORE PUSH1 0x1 PUSH1 0x20 MSTORE PUSH1 0x40 SWAP1 KECCAK256 SLOAD PUSH1 0xFF AND DUP1 PUSH2 0x2AB7 JUMPI POP CALLER PUSH2 0x2AAC PUSH2 0x2F6A JUMP JUMPDEST PUSH1 0x1 PUSH1 0x1 PUSH1 0xA0 SHL SUB AND EQ JUMPDEST PUSH2 0x2AF6 JUMPI PUSH1 0x40 DUP1 MLOAD PUSH3 0x461BCD PUSH1 0xE5 SHL DUP2 MSTORE PUSH1 0x20 PUSH1 0x4 DUP3 ADD MSTORE PUSH1 0x18 PUSH1 0x24 DUP3 ADD MSTORE PUSH1 0x0 DUP1 MLOAD PUSH1 0x20 PUSH2 0x476B DUP4 CODECOPY DUP2 MLOAD SWAP2 MSTORE PUSH1 0x44 DUP3 ADD MSTORE SWAP1 MLOAD SWAP1 DUP2 SWAP1 SUB PUSH1 0x64 ADD SWAP1 REVERT JUMPDEST PUSH1 0x0 SWAP3 DUP4 MSTORE PUSH1 0x1B PUSH1 0x20 SWAP1 DUP2 MSTORE PUSH1 0x40 DUP1 DUP6 KECCAK256 PUSH1 0x1 PUSH1 0x1 PUSH1 0xA0 SHL SUB SWAP1 SWAP5 AND DUP6 MSTORE SWAP3 SWAP1 MSTORE SWAP2 KECCAK256 PUSH1 0x3 ADD SSTORE JUMP JUMPDEST PUSH1 0xC DUP2 DUP2 SLOAD DUP2 LT PUSH2 0x1E22 JUMPI INVALID JUMPDEST PUSH1 0x19 SLOAD PUSH1 0x0 JUMPDEST DUP2 DUP2 LT ISZERO PUSH2 0x1D92 JUMPI PUSH2 0x2B43 DUP2 PUSH2 0x2318 JUMP JUMPDEST PUSH1 0x1 ADD PUSH2 0x2B32 JUMP JUMPDEST PUSH2 0x2B53 PUSH2 0x42D6 JUMP JUMPDEST PUSH1 0x1 PUSH1 0x1 PUSH1 0xA0 SHL SUB AND PUSH2 0x2B64 PUSH2 0x2F6A JUMP JUMPDEST PUSH1 0x1 PUSH1 0x1 PUSH1 0xA0 SHL SUB AND EQ PUSH2 0x2BAD JUMPI PUSH1 0x40 DUP1 MLOAD PUSH3 0x461BCD PUSH1 0xE5 SHL DUP2 MSTORE PUSH1 0x20 PUSH1 0x4 DUP3 ADD DUP2 SWAP1 MSTORE PUSH1 0x24 DUP3 ADD MSTORE PUSH1 0x0 DUP1 MLOAD PUSH1 0x20 PUSH2 0x474B DUP4 CODECOPY DUP2 MLOAD SWAP2 MSTORE PUSH1 0x44 DUP3 ADD MSTORE SWAP1 MLOAD SWAP1 DUP2 SWAP1 SUB PUSH1 0x64 ADD SWAP1 REVERT JUMPDEST DUP1 ISZERO PUSH2 0x2BBB JUMPI PUSH2 0x2BBB PUSH2 0x2B2C JUMP JUMPDEST PUSH2 0x2BF8 DUP3 PUSH2 0x2BF2 PUSH1 0x19 DUP7 DUP2 SLOAD DUP2 LT PUSH2 0x2BCF JUMPI INVALID JUMPDEST SWAP1 PUSH1 0x0 MSTORE PUSH1 0x20 PUSH1 0x0 KECCAK256 SWAP1 PUSH1 0x4 MUL ADD PUSH1 0x1 ADD SLOAD PUSH1 0x1E SLOAD PUSH2 0x41C0 SWAP1 SWAP2 SWAP1 PUSH4 0xFFFFFFFF AND JUMP JUMPDEST SWAP1 PUSH2 0x3EDA JUMP JUMPDEST PUSH1 0x1E DUP2 SWAP1 SSTORE POP DUP2 PUSH1 0x19 DUP5 DUP2 SLOAD DUP2 LT PUSH2 0x2C0C JUMPI INVALID JUMPDEST SWAP1 PUSH1 0x0 MSTORE PUSH1 0x20 PUSH1 0x0 KECCAK256 SWAP1 PUSH1 0x4 MUL ADD PUSH1 0x1 ADD DUP2 SWAP1 SSTORE POP POP POP POP JUMP JUMPDEST PUSH2 0x2C2E PUSH2 0x42D6 JUMP JUMPDEST PUSH1 0x1 PUSH1 0x1 PUSH1 0xA0 SHL SUB AND PUSH2 0x2C3F PUSH2 0x2F6A JUMP JUMPDEST PUSH1 0x1 PUSH1 0x1 PUSH1 0xA0 SHL SUB AND EQ PUSH2 0x2C88 JUMPI PUSH1 0x40 DUP1 MLOAD PUSH3 0x461BCD PUSH1 0xE5 SHL DUP2 MSTORE PUSH1 0x20 PUSH1 0x4 DUP3 ADD DUP2 SWAP1 MSTORE PUSH1 0x24 DUP3 ADD MSTORE PUSH1 0x0 DUP1 MLOAD PUSH1 0x20 PUSH2 0x474B DUP4 CODECOPY DUP2 MLOAD SWAP2 MSTORE PUSH1 0x44 DUP3 ADD MSTORE SWAP1 MLOAD SWAP1 DUP2 SWAP1 SUB PUSH1 0x64 ADD SWAP1 REVERT JUMPDEST PUSH1 0x0 DUP1 SLOAD PUSH1 0x40 MLOAD PUSH1 0x1 PUSH1 0x1 PUSH1 0xA0 SHL SUB SWAP1 SWAP2 AND SWAP1 PUSH32 0x8BE0079C531659141344CD1FD0A4F28419497F9722A3DAAFE3B4186F6B6457E0 SWAP1 DUP4 SWAP1 LOG3 PUSH1 0x0 DUP1 SLOAD PUSH1 0x1 PUSH1 0x1 PUSH1 0xA0 SHL SUB NOT AND SWAP1 SSTORE JUMP JUMPDEST CALLER PUSH1 0x0 SWAP1 DUP2 MSTORE PUSH1 0x1 PUSH1 0x20 MSTORE PUSH1 0x40 SWAP1 KECCAK256 SLOAD PUSH1 0xFF AND DUP1 PUSH2 0x2CFF JUMPI POP CALLER PUSH2 0x2CF4 PUSH2 0x2F6A JUMP JUMPDEST PUSH1 0x1 PUSH1 0x1 PUSH1 0xA0 SHL SUB AND EQ JUMPDEST PUSH2 0x2D3E JUMPI PUSH1 0x40 DUP1 MLOAD PUSH3 0x461BCD PUSH1 0xE5 SHL DUP2 MSTORE PUSH1 0x20 PUSH1 0x4 DUP3 ADD MSTORE PUSH1 0x18 PUSH1 0x24 DUP3 ADD MSTORE PUSH1 0x0 DUP1 MLOAD PUSH1 0x20 PUSH2 0x476B DUP4 CODECOPY DUP2 MLOAD SWAP2 MSTORE PUSH1 0x44 DUP3 ADD MSTORE SWAP1 MLOAD SWAP1 DUP2 SWAP1 SUB PUSH1 0x64 ADD SWAP1 REVERT JUMPDEST PUSH1 0x11 SSTORE JUMP JUMPDEST CALLER PUSH1 0x0 SWAP1 DUP2 MSTORE PUSH1 0x1 PUSH1 0x20 MSTORE PUSH1 0x40 SWAP1 KECCAK256 SLOAD PUSH1 0xFF AND DUP1 PUSH2 0x2D70 JUMPI POP CALLER PUSH2 0x2D65 PUSH2 0x2F6A JUMP JUMPDEST PUSH1 0x1 PUSH1 0x1 PUSH1 0xA0 SHL SUB AND EQ JUMPDEST PUSH2 0x2DAF JUMPI PUSH1 0x40 DUP1 MLOAD PUSH3 0x461BCD PUSH1 0xE5 SHL DUP2 MSTORE PUSH1 0x20 PUSH1 0x4 DUP3 ADD MSTORE PUSH1 0x18 PUSH1 0x24 DUP3 ADD MSTORE PUSH1 0x0 DUP1 MLOAD PUSH1 0x20 PUSH2 0x476B DUP4 CODECOPY DUP2 MLOAD SWAP2 MSTORE PUSH1 0x44 DUP3 ADD MSTORE SWAP1 MLOAD SWAP1 DUP2 SWAP1 SUB PUSH1 0x64 ADD SWAP1 REVERT JUMPDEST PUSH1 0x0 SWAP3 DUP4 MSTORE PUSH1 0x1B PUSH1 0x20 SWAP1 DUP2 MSTORE PUSH1 0x40 DUP1 DUP6 KECCAK256 PUSH1 0x1 PUSH1 0x1 PUSH1 0xA0 SHL SUB SWAP1 SWAP5 AND DUP6 MSTORE SWAP3 SWAP1 MSTORE SWAP2 KECCAK256 PUSH1 0x4 ADD SSTORE JUMP JUMPDEST PUSH1 0x11 SLOAD DUP2 JUMP JUMPDEST CALLER PUSH1 0x0 SWAP1 DUP2 MSTORE PUSH1 0x1 PUSH1 0x20 MSTORE PUSH1 0x40 SWAP1 KECCAK256 SLOAD PUSH1 0xFF AND DUP1 PUSH2 0x2E0B JUMPI POP CALLER PUSH2 0x2E00 PUSH2 0x2F6A JUMP JUMPDEST PUSH1 0x1 PUSH1 0x1 PUSH1 0xA0 SHL SUB AND EQ JUMPDEST PUSH2 0x2E4A JUMPI PUSH1 0x40 DUP1 MLOAD PUSH3 0x461BCD PUSH1 0xE5 SHL DUP2 MSTORE PUSH1 0x20 PUSH1 0x4 DUP3 ADD MSTORE PUSH1 0x18 PUSH1 0x24 DUP3 ADD MSTORE PUSH1 0x0 DUP1 MLOAD PUSH1 0x20 PUSH2 0x476B DUP4 CODECOPY DUP2 MLOAD SWAP2 MSTORE PUSH1 0x44 DUP3 ADD MSTORE SWAP1 MLOAD SWAP1 DUP2 SWAP1 SUB PUSH1 0x64 ADD SWAP1 REVERT JUMPDEST DUP1 MLOAD PUSH2 0x1D92 SWAP1 PUSH1 0xC SWAP1 PUSH1 0x20 DUP5 ADD SWAP1 PUSH2 0x45FD JUMP JUMPDEST CALLER PUSH1 0x0 SWAP1 DUP2 MSTORE PUSH1 0x1 PUSH1 0x20 MSTORE PUSH1 0x40 SWAP1 KECCAK256 SLOAD PUSH1 0xFF AND DUP1 PUSH2 0x2E8A JUMPI POP CALLER PUSH2 0x2E7F PUSH2 0x2F6A JUMP JUMPDEST PUSH1 0x1 PUSH1 0x1 PUSH1 0xA0 SHL SUB AND EQ JUMPDEST PUSH2 0x2EC9 JUMPI PUSH1 0x40 DUP1 MLOAD PUSH3 0x461BCD PUSH1 0xE5 SHL DUP2 MSTORE PUSH1 0x20 PUSH1 0x4 DUP3 ADD MSTORE PUSH1 0x18 PUSH1 0x24 DUP3 ADD MSTORE PUSH1 0x0 DUP1 MLOAD PUSH1 0x20 PUSH2 0x476B DUP4 CODECOPY DUP2 MLOAD SWAP2 MSTORE PUSH1 0x44 DUP3 ADD MSTORE SWAP1 MLOAD SWAP1 DUP2 SWAP1 SUB PUSH1 0x64 ADD SWAP1 REVERT JUMPDEST DUP1 MLOAD PUSH2 0x1D92 SWAP1 PUSH1 0xF SWAP1 PUSH1 0x20 DUP5 ADD SWAP1 PUSH2 0x45FD JUMP JUMPDEST CALLER PUSH1 0x0 SWAP1 DUP2 MSTORE PUSH1 0x1 PUSH1 0x20 MSTORE PUSH1 0x40 SWAP1 KECCAK256 SLOAD PUSH1 0xFF AND DUP1 PUSH2 0x2F09 JUMPI POP CALLER PUSH2 0x2EFE PUSH2 0x2F6A JUMP JUMPDEST PUSH1 0x1 PUSH1 0x1 PUSH1 0xA0 SHL SUB AND EQ JUMPDEST PUSH2 0x2F48 JUMPI PUSH1 0x40 DUP1 MLOAD PUSH3 0x461BCD PUSH1 0xE5 SHL DUP2 MSTORE PUSH1 0x20 PUSH1 0x4 DUP3 ADD MSTORE PUSH1 0x18 PUSH1 0x24 DUP3 ADD MSTORE PUSH1 0x0 DUP1 MLOAD PUSH1 0x20 PUSH2 0x476B DUP4 CODECOPY DUP2 MLOAD SWAP2 MSTORE PUSH1 0x44 DUP3 ADD MSTORE SWAP1 MLOAD SWAP1 DUP2 SWAP1 SUB PUSH1 0x64 ADD SWAP1 REVERT JUMPDEST PUSH1 0x5 DUP1 SLOAD PUSH1 0x1 PUSH1 0x1 PUSH1 0xA0 SHL SUB NOT AND PUSH1 0x1 PUSH1 0x1 PUSH1 0xA0 SHL SUB SWAP3 SWAP1 SWAP3 AND SWAP2 SWAP1 SWAP2 OR SWAP1 SSTORE JUMP JUMPDEST PUSH1 0x0 SLOAD PUSH1 0x1 PUSH1 0x1 PUSH1 0xA0 SHL SUB AND SWAP1 JUMP JUMPDEST PUSH1 0x13 SLOAD PUSH1 0x0 SWAP1 DUP2 SWAP1 DUP5 LT ISZERO PUSH2 0x2F92 JUMPI PUSH1 0x0 SWAP2 POP POP PUSH2 0x306F JUMP JUMPDEST PUSH1 0x0 JUMPDEST PUSH1 0xB SLOAD DUP2 LT ISZERO PUSH2 0x306B JUMPI PUSH1 0x0 PUSH1 0xB DUP3 DUP2 SLOAD DUP2 LT PUSH2 0x2FAE JUMPI INVALID JUMPDEST SWAP1 PUSH1 0x0 MSTORE PUSH1 0x20 PUSH1 0x0 KECCAK256 ADD SLOAD SWAP1 POP PUSH1 0x1 PUSH1 0xA DUP1 SLOAD SWAP1 POP SUB DUP3 GT ISZERO PUSH2 0x2FD7 JUMPI PUSH1 0x0 SWAP4 POP POP POP POP PUSH2 0x306F JUMP JUMPDEST DUP1 DUP6 GT PUSH2 0x301D JUMPI PUSH1 0x0 PUSH2 0x3006 PUSH1 0xA DUP5 DUP2 SLOAD DUP2 LT PUSH2 0x2FF0 JUMPI INVALID JUMPDEST PUSH1 0x0 SWAP2 DUP3 MSTORE PUSH1 0x20 SWAP1 SWAP2 KECCAK256 ADD SLOAD PUSH2 0x19C2 DUP9 DUP11 PUSH2 0x41C0 JUMP JUMPDEST SWAP1 POP PUSH2 0x3012 DUP5 DUP3 PUSH2 0x3EDA JUMP JUMPDEST SWAP5 POP POP POP POP POP PUSH2 0x306F JUMP JUMPDEST DUP1 DUP7 LT ISZERO PUSH2 0x3062 JUMPI PUSH1 0x0 PUSH2 0x304D PUSH1 0xA DUP5 DUP2 SLOAD DUP2 LT PUSH2 0x3037 JUMPI INVALID JUMPDEST PUSH1 0x0 SWAP2 DUP3 MSTORE PUSH1 0x20 SWAP1 SWAP2 KECCAK256 ADD SLOAD PUSH2 0x19C2 DUP5 DUP11 PUSH2 0x41C0 JUMP JUMPDEST SWAP2 SWAP7 POP DUP7 SWAP2 SWAP1 POP PUSH2 0x305E DUP5 DUP3 PUSH2 0x3EDA JUMP JUMPDEST SWAP4 POP POP JUMPDEST POP PUSH1 0x1 ADD PUSH2 0x2F95 JUMP JUMPDEST POP SWAP1 POP JUMPDEST SWAP3 SWAP2 POP POP JUMP JUMPDEST PUSH1 0x2 DUP1 SLOAD EQ ISZERO PUSH2 0x30CC JUMPI PUSH1 0x40 DUP1 MLOAD PUSH3 0x461BCD PUSH1 0xE5 SHL DUP2 MSTORE PUSH1 0x20 PUSH1 0x4 DUP3 ADD MSTORE PUSH1 0x1F PUSH1 0x24 DUP3 ADD MSTORE PUSH32 0x5265656E7472616E637947756172643A207265656E7472616E742063616C6C00 PUSH1 0x44 DUP3 ADD MSTORE SWAP1 MLOAD SWAP1 DUP2 SWAP1 SUB PUSH1 0x64 ADD SWAP1 REVERT JUMPDEST PUSH1 0x2 DUP1 SSTORE DUP2 PUSH2 0x310C JUMPI PUSH1 0x40 MLOAD PUSH3 0x461BCD PUSH1 0xE5 SHL DUP2 MSTORE PUSH1 0x4 ADD DUP1 DUP1 PUSH1 0x20 ADD DUP3 DUP2 SUB DUP3 MSTORE PUSH1 0x36 DUP2 MSTORE PUSH1 0x20 ADD DUP1 PUSH2 0x4715 PUSH1 0x36 SWAP2 CODECOPY PUSH1 0x40 ADD SWAP2 POP POP PUSH1 0x40 MLOAD DUP1 SWAP2 SUB SWAP1 REVERT JUMPDEST PUSH1 0x0 PUSH1 0x19 DUP5 DUP2 SLOAD DUP2 LT PUSH2 0x311B JUMPI INVALID JUMPDEST PUSH1 0x0 SWAP2 DUP3 MSTORE PUSH1 0x20 DUP1 DUP4 KECCAK256 DUP8 DUP5 MSTORE PUSH1 0x1B DUP3 MSTORE PUSH1 0x40 DUP1 DUP6 KECCAK256 CALLER DUP1 DUP8 MSTORE SWAP1 DUP5 MSTORE DUP2 DUP7 KECCAK256 PUSH1 0x5 SLOAD PUSH1 0x1 PUSH1 0x1 PUSH1 0xA0 SHL SUB SWAP1 DUP2 AND DUP9 MSTORE DUP4 DUP9 KECCAK256 SWAP1 DUP11 AND DUP9 MSTORE PUSH1 0x1C DUP7 MSTORE DUP4 DUP9 KECCAK256 SWAP3 DUP9 MSTORE DUP4 DUP9 KECCAK256 PUSH1 0x1 DUP5 ADD SWAP1 SWAP7 MSTORE SWAP3 SWAP1 SWAP7 KECCAK256 SLOAD PUSH1 0x4 SWAP6 SWAP1 SWAP6 MUL SWAP1 SWAP3 ADD SWAP6 POP SWAP3 SWAP1 SWAP2 SWAP1 ISZERO PUSH2 0x31A6 JUMPI CALLER PUSH1 0x0 SWAP1 DUP2 MSTORE PUSH1 0x1 DUP4 ADD PUSH1 0x20 MSTORE PUSH1 0x40 SWAP1 KECCAK256 DUP1 SLOAD DUP9 ADD SWAP1 SSTORE PUSH1 0x3 DUP3 ADD DUP1 SLOAD DUP9 ADD SWAP1 SSTORE PUSH2 0x31D5 JUMP JUMPDEST CALLER PUSH1 0x0 SWAP1 DUP2 MSTORE PUSH1 0x1 DUP1 DUP5 ADD PUSH1 0x20 MSTORE PUSH1 0x40 SWAP1 SWAP2 KECCAK256 DUP1 SLOAD DUP10 ADD SWAP1 SSTORE PUSH1 0x2 DUP4 ADD DUP1 SLOAD SWAP1 SWAP2 ADD SWAP1 SSTORE PUSH1 0x3 DUP3 ADD DUP1 SLOAD DUP9 ADD SWAP1 SSTORE JUMPDEST PUSH2 0x31EF PUSH1 0x64 PUSH2 0x147D PUSH1 0x11 SLOAD DUP11 PUSH2 0x3E7A SWAP1 SWAP2 SWAP1 PUSH4 0xFFFFFFFF AND JUMP JUMPDEST DUP2 SLOAD ADD DUP2 SSTORE PUSH2 0x31FD DUP9 PUSH2 0x2318 JUMP JUMPDEST PUSH2 0x3206 DUP9 PUSH2 0x3F34 JUMP JUMPDEST DUP5 SLOAD PUSH2 0x321D SWAP1 PUSH1 0x1 PUSH1 0x1 PUSH1 0xA0 SHL SUB AND CALLER ADDRESS DUP11 PUSH2 0x42DA JUMP JUMPDEST DUP4 SLOAD PUSH2 0x322A JUMPI NUMBER PUSH1 0x2 DUP6 ADD SSTORE JUMPDEST PUSH2 0x325A PUSH2 0x3252 PUSH2 0x324B PUSH2 0x2710 PUSH2 0x147D PUSH1 0x11 SLOAD DUP13 PUSH2 0x3E7A SWAP1 SWAP2 SWAP1 PUSH4 0xFFFFFFFF AND JUMP JUMPDEST DUP10 SWAP1 PUSH2 0x41C0 JUMP JUMPDEST DUP6 SLOAD SWAP1 PUSH2 0x3EDA JUMP JUMPDEST DUP1 DUP6 SSTORE PUSH1 0x3 DUP7 ADD SLOAD PUSH2 0x3277 SWAP2 PUSH5 0xE8D4A51000 SWAP2 PUSH2 0x147D SWAP2 SWAP1 PUSH2 0x3E7A JUMP JUMPDEST DUP5 PUSH1 0x1 ADD DUP2 SWAP1 SSTORE POP PUSH2 0x32A8 PUSH2 0x32A0 PUSH2 0x324B PUSH2 0x2710 PUSH2 0x147D PUSH1 0x12 SLOAD DUP13 PUSH2 0x3E7A SWAP1 SWAP2 SWAP1 PUSH4 0xFFFFFFFF AND JUMP JUMPDEST DUP5 SLOAD SWAP1 PUSH2 0x3EDA JUMP JUMPDEST DUP1 DUP5 SSTORE PUSH1 0x3 DUP7 ADD SLOAD PUSH2 0x32C5 SWAP2 PUSH5 0xE8D4A51000 SWAP2 PUSH2 0x147D SWAP2 SWAP1 PUSH2 0x3E7A JUMP JUMPDEST PUSH1 0x1 DUP5 ADD SSTORE PUSH1 0x40 DUP1 MLOAD DUP9 DUP2 MSTORE SWAP1 MLOAD DUP10 SWAP2 CALLER SWAP2 PUSH32 0x90890809C654F11D6E72A28FA60149770A0D11EC6C92319D6CEB2BB0A4EA1A15 SWAP2 DUP2 SWAP1 SUB PUSH1 0x20 ADD SWAP1 LOG3 PUSH1 0x4 DUP5 ADD SLOAD ISZERO PUSH2 0x3310 JUMPI PUSH2 0x3317 JUMP JUMPDEST NUMBER PUSH1 0x4 DUP6 ADD SSTORE JUMPDEST POP POP NUMBER PUSH1 0x6 SWAP1 SWAP3 ADD SWAP2 SWAP1 SWAP2 SSTORE POP POP PUSH1 0x1 PUSH1 0x2 SSTORE POP POP POP JUMP JUMPDEST PUSH1 0x0 PUSH2 0x3339 PUSH2 0x4648 JUMP JUMPDEST POP POP PUSH1 0x1 PUSH1 0x1 PUSH1 0xA0 SHL SUB AND PUSH1 0x0 SWAP1 DUP2 MSTORE PUSH1 0x1C PUSH1 0x20 SWAP1 DUP2 MSTORE PUSH1 0x40 SWAP2 DUP3 SWAP1 KECCAK256 DUP3 MLOAD PUSH1 0x60 DUP2 ADD DUP5 MSTORE DUP2 SLOAD DUP1 DUP3 MSTORE PUSH1 0x2 DUP4 ADD SLOAD SWAP4 DUP3 ADD SWAP4 SWAP1 SWAP4 MSTORE PUSH1 0x3 SWAP1 SWAP2 ADD SLOAD SWAP3 ADD SWAP2 SWAP1 SWAP2 MSTORE SWAP1 JUMP JUMPDEST PUSH1 0x1B PUSH1 0x20 MSTORE DUP2 PUSH1 0x0 MSTORE PUSH1 0x40 PUSH1 0x0 KECCAK256 PUSH1 0x20 MSTORE DUP1 PUSH1 0x0 MSTORE PUSH1 0x40 PUSH1 0x0 KECCAK256 PUSH1 0x0 SWAP2 POP SWAP2 POP POP DUP1 PUSH1 0x0 ADD SLOAD SWAP1 DUP1 PUSH1 0x1 ADD SLOAD SWAP1 DUP1 PUSH1 0x2 ADD SLOAD SWAP1 DUP1 PUSH1 0x3 ADD SLOAD SWAP1 DUP1 PUSH1 0x4 ADD SLOAD SWAP1 DUP1 PUSH1 0x5 ADD SLOAD SWAP1 DUP1 PUSH1 0x6 ADD SLOAD SWAP1 POP DUP8 JUMP JUMPDEST PUSH1 0x9 SLOAD DUP2 JUMP JUMPDEST PUSH1 0x10 SLOAD DUP2 JUMP JUMPDEST PUSH1 0x0 DUP1 PUSH1 0x19 DUP5 DUP2 SLOAD DUP2 LT PUSH2 0x33E9 JUMPI INVALID JUMPDEST PUSH1 0x0 SWAP2 DUP3 MSTORE PUSH1 0x20 DUP1 DUP4 KECCAK256 DUP8 DUP5 MSTORE PUSH1 0x1B DUP3 MSTORE PUSH1 0x40 DUP1 DUP6 KECCAK256 PUSH1 0x1 PUSH1 0x1 PUSH1 0xA0 SHL SUB DUP10 DUP2 AND DUP8 MSTORE SWAP1 DUP5 MSTORE DUP2 DUP7 KECCAK256 PUSH1 0x4 SWAP6 DUP7 MUL SWAP1 SWAP4 ADD PUSH1 0x3 DUP2 ADD SLOAD DUP2 SLOAD DUP5 MLOAD PUSH4 0x70A08231 PUSH1 0xE0 SHL DUP2 MSTORE ADDRESS SWAP9 DUP2 ADD SWAP9 SWAP1 SWAP9 MSTORE SWAP4 MLOAD SWAP2 SWAP9 POP SWAP4 SWAP7 SWAP4 SWAP6 SWAP4 SWAP5 SWAP3 SWAP1 SWAP2 AND SWAP3 PUSH4 0x70A08231 SWAP3 PUSH1 0x24 DUP1 DUP4 ADD SWAP4 SWAP2 SWAP3 DUP3 SWAP1 SUB ADD DUP2 DUP7 DUP1 EXTCODESIZE ISZERO DUP1 ISZERO PUSH2 0x3467 JUMPI PUSH1 0x0 DUP1 REVERT JUMPDEST POP GAS STATICCALL ISZERO DUP1 ISZERO PUSH2 0x347B JUMPI RETURNDATASIZE PUSH1 0x0 DUP1 RETURNDATACOPY RETURNDATASIZE PUSH1 0x0 REVERT JUMPDEST POP POP POP POP PUSH1 0x40 MLOAD RETURNDATASIZE PUSH1 0x20 DUP2 LT ISZERO PUSH2 0x3491 JUMPI PUSH1 0x0 DUP1 REVERT JUMPDEST POP MLOAD PUSH1 0x2 DUP6 ADD SLOAD SWAP1 SWAP2 POP NUMBER GT DUP1 ISZERO PUSH2 0x34A9 JUMPI POP PUSH1 0x0 DUP2 GT JUMPDEST ISZERO PUSH2 0x34EE JUMPI PUSH1 0x0 PUSH2 0x34C3 DUP6 PUSH1 0x2 ADD SLOAD NUMBER DUP8 PUSH1 0x1 ADD SLOAD PUSH2 0x36F9 JUMP JUMPDEST POP SWAP2 SWAP4 POP PUSH2 0x34EA SWAP3 POP PUSH2 0x34E3 SWAP2 POP DUP5 SWAP1 POP PUSH2 0x147D DUP5 PUSH5 0xE8D4A51000 PUSH2 0x3E7A JUMP JUMPDEST DUP5 SWAP1 PUSH2 0x3EDA JUMP JUMPDEST SWAP3 POP POP JUMPDEST PUSH2 0x351C DUP4 PUSH1 0x1 ADD SLOAD PUSH2 0x3516 PUSH5 0xE8D4A51000 PUSH2 0x147D DUP7 DUP9 PUSH1 0x0 ADD SLOAD PUSH2 0x3E7A SWAP1 SWAP2 SWAP1 PUSH4 0xFFFFFFFF AND JUMP JUMPDEST SWAP1 PUSH2 0x41C0 JUMP JUMPDEST SWAP8 SWAP7 POP POP POP POP POP POP POP JUMP JUMPDEST PUSH1 0x17 SLOAD DUP2 JUMP JUMPDEST PUSH1 0x14 DUP2 DUP2 SLOAD DUP2 LT PUSH2 0x1E22 JUMPI INVALID JUMPDEST PUSH2 0x3543 DUP2 PUSH2 0x2318 JUMP JUMPDEST PUSH2 0x28BD DUP2 PUSH2 0x3F34 JUMP JUMPDEST CALLER PUSH1 0x0 SWAP1 DUP2 MSTORE PUSH1 0x1 PUSH1 0x20 MSTORE PUSH1 0x40 SWAP1 KECCAK256 SLOAD PUSH1 0xFF AND DUP1 PUSH2 0x3579 JUMPI POP CALLER PUSH2 0x356E PUSH2 0x2F6A JUMP JUMPDEST PUSH1 0x1 PUSH1 0x1 PUSH1 0xA0 SHL SUB AND EQ JUMPDEST PUSH2 0x35B8 JUMPI PUSH1 0x40 DUP1 MLOAD PUSH3 0x461BCD PUSH1 0xE5 SHL DUP2 MSTORE PUSH1 0x20 PUSH1 0x4 DUP3 ADD MSTORE PUSH1 0x18 PUSH1 0x24 DUP3 ADD MSTORE PUSH1 0x0 DUP1 MLOAD PUSH1 0x20 PUSH2 0x476B DUP4 CODECOPY DUP2 MLOAD SWAP2 MSTORE PUSH1 0x44 DUP3 ADD MSTORE SWAP1 MLOAD SWAP1 DUP2 SWAP1 SUB PUSH1 0x64 ADD SWAP1 REVERT JUMPDEST PUSH1 0x15 SSTORE JUMP JUMPDEST PUSH1 0x1 PUSH1 0x20 MSTORE PUSH1 0x0 SWAP1 DUP2 MSTORE PUSH1 0x40 SWAP1 KECCAK256 SLOAD PUSH1 0xFF AND DUP2 JUMP JUMPDEST PUSH1 0xF DUP2 DUP2 SLOAD DUP2 LT PUSH2 0x1E22 JUMPI INVALID JUMPDEST PUSH1 0x12 SLOAD DUP2 JUMP JUMPDEST CALLER PUSH1 0x0 SWAP1 DUP2 MSTORE PUSH1 0x1 PUSH1 0x20 MSTORE PUSH1 0x40 SWAP1 KECCAK256 SLOAD PUSH1 0xFF AND DUP1 PUSH2 0x3612 JUMPI POP CALLER PUSH2 0x3607 PUSH2 0x2F6A JUMP JUMPDEST PUSH1 0x1 PUSH1 0x1 PUSH1 0xA0 SHL SUB AND EQ JUMPDEST PUSH2 0x3651 JUMPI PUSH1 0x40 DUP1 MLOAD PUSH3 0x461BCD PUSH1 0xE5 SHL DUP2 MSTORE PUSH1 0x20 PUSH1 0x4 DUP3 ADD MSTORE PUSH1 0x18 PUSH1 0x24 DUP3 ADD MSTORE PUSH1 0x0 DUP1 MLOAD PUSH1 0x20 PUSH2 0x476B DUP4 CODECOPY DUP2 MLOAD SWAP2 MSTORE PUSH1 0x44 DUP3 ADD MSTORE SWAP1 MLOAD SWAP1 DUP2 SWAP1 SUB PUSH1 0x64 ADD SWAP1 REVERT JUMPDEST PUSH1 0x17 SSTORE JUMP JUMPDEST PUSH1 0x18 SLOAD DUP2 JUMP JUMPDEST CALLER PUSH1 0x0 SWAP1 DUP2 MSTORE PUSH1 0x1 PUSH1 0x20 MSTORE PUSH1 0x40 SWAP1 KECCAK256 SLOAD PUSH1 0xFF AND DUP1 PUSH2 0x3689 JUMPI POP CALLER PUSH2 0x367E PUSH2 0x2F6A JUMP JUMPDEST PUSH1 0x1 PUSH1 0x1 PUSH1 0xA0 SHL SUB AND EQ JUMPDEST PUSH2 0x36C8 JUMPI PUSH1 0x40 DUP1 MLOAD PUSH3 0x461BCD PUSH1 0xE5 SHL DUP2 MSTORE PUSH1 0x20 PUSH1 0x4 DUP3 ADD MSTORE PUSH1 0x18 PUSH1 0x24 DUP3 ADD MSTORE PUSH1 0x0 DUP1 MLOAD PUSH1 0x20 PUSH2 0x476B DUP4 CODECOPY DUP2 MLOAD SWAP2 MSTORE PUSH1 0x44 DUP3 ADD MSTORE SWAP1 MLOAD SWAP1 DUP2 SWAP1 SUB PUSH1 0x64 ADD SWAP1 REVERT JUMPDEST PUSH1 0x7 DUP1 SLOAD PUSH1 0x1 PUSH1 0x1 PUSH1 0xA0 SHL SUB NOT AND PUSH1 0x1 PUSH1 0x1 PUSH1 0xA0 SHL SUB SWAP3 SWAP1 SWAP3 AND SWAP2 SWAP1 SWAP2 OR SWAP1 SSTORE JUMP JUMPDEST PUSH1 0x4 SLOAD PUSH1 0x1 PUSH1 0x1 PUSH1 0xA0 SHL SUB AND DUP2 JUMP JUMPDEST PUSH1 0x0 DUP1 PUSH1 0x0 DUP1 PUSH1 0x0 DUP1 PUSH2 0x370C DUP10 DUP10 PUSH2 0x2F79 JUMP JUMPDEST SWAP1 POP PUSH1 0x0 PUSH2 0x372F PUSH1 0x1E SLOAD PUSH2 0x147D DUP11 PUSH2 0x19C2 PUSH1 0x9 SLOAD DUP8 PUSH2 0x3E7A SWAP1 SWAP2 SWAP1 PUSH4 0xFFFFFFFF AND JUMP JUMPDEST SWAP1 POP PUSH1 0x0 PUSH2 0x3827 PUSH1 0x3 PUSH1 0x0 SWAP1 SLOAD SWAP1 PUSH2 0x100 EXP SWAP1 DIV PUSH1 0x1 PUSH1 0x1 PUSH1 0xA0 SHL SUB AND PUSH1 0x1 PUSH1 0x1 PUSH1 0xA0 SHL SUB AND PUSH4 0x5E9AC972 PUSH1 0x40 MLOAD DUP2 PUSH4 0xFFFFFFFF AND PUSH1 0xE0 SHL DUP2 MSTORE PUSH1 0x4 ADD PUSH1 0x20 PUSH1 0x40 MLOAD DUP1 DUP4 SUB DUP2 DUP7 DUP1 EXTCODESIZE ISZERO DUP1 ISZERO PUSH2 0x3784 JUMPI PUSH1 0x0 DUP1 REVERT JUMPDEST POP GAS STATICCALL ISZERO DUP1 ISZERO PUSH2 0x3798 JUMPI RETURNDATASIZE PUSH1 0x0 DUP1 RETURNDATACOPY RETURNDATASIZE PUSH1 0x0 REVERT JUMPDEST POP POP POP POP PUSH1 0x40 MLOAD RETURNDATASIZE PUSH1 0x20 DUP2 LT ISZERO PUSH2 0x37AE JUMPI PUSH1 0x0 DUP1 REVERT JUMPDEST POP MLOAD PUSH1 0x3 SLOAD PUSH1 0x40 DUP1 MLOAD PUSH4 0x1AA93A75 PUSH1 0xE1 SHL DUP2 MSTORE SWAP1 MLOAD PUSH1 0x1 PUSH1 0x1 PUSH1 0xA0 SHL SUB SWAP1 SWAP3 AND SWAP2 PUSH4 0x355274EA SWAP2 PUSH1 0x4 DUP1 DUP3 ADD SWAP3 PUSH1 0x20 SWAP3 SWAP1 SWAP2 SWAP1 DUP3 SWAP1 SUB ADD DUP2 DUP7 DUP1 EXTCODESIZE ISZERO DUP1 ISZERO PUSH2 0x37F5 JUMPI PUSH1 0x0 DUP1 REVERT JUMPDEST POP GAS STATICCALL ISZERO DUP1 ISZERO PUSH2 0x3809 JUMPI RETURNDATASIZE PUSH1 0x0 DUP1 RETURNDATACOPY RETURNDATASIZE PUSH1 0x0 REVERT JUMPDEST POP POP POP POP PUSH1 0x40 MLOAD RETURNDATASIZE PUSH1 0x20 DUP2 LT ISZERO PUSH2 0x381F JUMPI PUSH1 0x0 DUP1 REVERT JUMPDEST POP MLOAD SWAP1 PUSH2 0x41C0 JUMP JUMPDEST SWAP1 POP DUP2 DUP2 LT ISZERO PUSH2 0x3849 JUMPI PUSH1 0x0 SWAP8 POP DUP1 SWAP7 POP PUSH1 0x0 SWAP6 POP PUSH1 0x0 SWAP5 POP PUSH1 0x0 SWAP4 POP PUSH2 0x38BD JUMP JUMPDEST PUSH2 0x3863 PUSH1 0x64 PUSH2 0x147D PUSH1 0x15 SLOAD DUP6 PUSH2 0x3E7A SWAP1 SWAP2 SWAP1 PUSH4 0xFFFFFFFF AND JUMP JUMPDEST SWAP8 POP DUP2 SWAP7 POP PUSH2 0x3882 PUSH1 0x64 PUSH2 0x147D PUSH1 0x16 SLOAD DUP6 PUSH2 0x3E7A SWAP1 SWAP2 SWAP1 PUSH4 0xFFFFFFFF AND JUMP JUMPDEST SWAP6 POP PUSH2 0x389E PUSH1 0x64 PUSH2 0x147D PUSH1 0x17 SLOAD DUP6 PUSH2 0x3E7A SWAP1 SWAP2 SWAP1 PUSH4 0xFFFFFFFF AND JUMP JUMPDEST SWAP5 POP PUSH2 0x38BA PUSH1 0x64 PUSH2 0x147D PUSH1 0x18 SLOAD DUP6 PUSH2 0x3E7A SWAP1 SWAP2 SWAP1 PUSH4 0xFFFFFFFF AND JUMP JUMPDEST SWAP4 POP JUMPDEST POP POP POP SWAP4 SWAP8 SWAP3 SWAP7 POP SWAP4 POP SWAP4 POP JUMP JUMPDEST PUSH1 0xD DUP2 DUP2 SLOAD DUP2 LT PUSH2 0x1E22 JUMPI INVALID JUMPDEST PUSH1 0x1D PUSH1 0x20 MSTORE PUSH1 0x0 SWAP1 DUP2 MSTORE PUSH1 0x40 SWAP1 KECCAK256 SLOAD PUSH1 0xFF AND DUP2 JUMP JUMPDEST PUSH1 0x1A PUSH1 0x20 MSTORE PUSH1 0x0 SWAP1 DUP2 MSTORE PUSH1 0x40 SWAP1 KECCAK256 SLOAD DUP2 JUMP JUMPDEST PUSH2 0x3907 PUSH2 0x42D6 JUMP JUMPDEST PUSH1 0x1 PUSH1 0x1 PUSH1 0xA0 SHL SUB AND PUSH2 0x3918 PUSH2 0x2F6A JUMP JUMPDEST PUSH1 0x1 PUSH1 0x1 PUSH1 0xA0 SHL SUB AND EQ PUSH2 0x3961 JUMPI PUSH1 0x40 DUP1 MLOAD PUSH3 0x461BCD PUSH1 0xE5 SHL DUP2 MSTORE PUSH1 0x20 PUSH1 0x4 DUP3 ADD DUP2 SWAP1 MSTORE PUSH1 0x24 DUP3 ADD MSTORE PUSH1 0x0 DUP1 MLOAD PUSH1 0x20 PUSH2 0x474B DUP4 CODECOPY DUP2 MLOAD SWAP2 MSTORE PUSH1 0x44 DUP3 ADD MSTORE SWAP1 MLOAD SWAP1 DUP2 SWAP1 SUB PUSH1 0x64 ADD SWAP1 REVERT JUMPDEST PUSH1 0x1 PUSH1 0x1 PUSH1 0xA0 SHL SUB AND PUSH1 0x0 SWAP1 DUP2 MSTORE PUSH1 0x1 PUSH1 0x20 DUP2 SWAP1 MSTORE PUSH1 0x40 SWAP1 SWAP2 KECCAK256 DUP1 SLOAD PUSH1 0xFF NOT AND SWAP1 SWAP2 OR SWAP1 SSTORE JUMP JUMPDEST PUSH1 0xE DUP2 DUP2 SLOAD DUP2 LT PUSH2 0x1E22 JUMPI INVALID JUMPDEST PUSH1 0x5 SLOAD PUSH1 0x1 PUSH1 0x1 PUSH1 0xA0 SHL SUB AND DUP2 JUMP JUMPDEST PUSH1 0x1C PUSH1 0x20 MSTORE PUSH1 0x0 SWAP1 DUP2 MSTORE PUSH1 0x40 SWAP1 KECCAK256 DUP1 SLOAD PUSH1 0x2 DUP3 ADD SLOAD PUSH1 0x3 SWAP1 SWAP3 ADD SLOAD SWAP1 SWAP2 SWAP1 DUP4 JUMP JUMPDEST PUSH1 0x1 PUSH1 0x1 PUSH1 0xA0 SHL SUB SWAP2 DUP3 AND PUSH1 0x0 SWAP1 DUP2 MSTORE PUSH1 0x1C PUSH1 0x20 SWAP1 DUP2 MSTORE PUSH1 0x40 DUP1 DUP4 KECCAK256 SWAP4 SWAP1 SWAP5 AND DUP3 MSTORE PUSH1 0x1 SWAP1 SWAP3 ADD SWAP1 SWAP2 MSTORE KECCAK256 SLOAD SWAP1 JUMP JUMPDEST CALLER PUSH1 0x0 SWAP1 DUP2 MSTORE PUSH1 0x1 PUSH1 0x20 MSTORE PUSH1 0x40 SWAP1 KECCAK256 SLOAD PUSH1 0xFF AND DUP1 PUSH2 0x3A21 JUMPI POP CALLER PUSH2 0x3A16 PUSH2 0x2F6A JUMP JUMPDEST PUSH1 0x1 PUSH1 0x1 PUSH1 0xA0 SHL SUB AND EQ JUMPDEST PUSH2 0x3A60 JUMPI PUSH1 0x40 DUP1 MLOAD PUSH3 0x461BCD PUSH1 0xE5 SHL DUP2 MSTORE PUSH1 0x20 PUSH1 0x4 DUP3 ADD MSTORE PUSH1 0x18 PUSH1 0x24 DUP3 ADD MSTORE PUSH1 0x0 DUP1 MLOAD PUSH1 0x20 PUSH2 0x476B DUP4 CODECOPY DUP2 MLOAD SWAP2 MSTORE PUSH1 0x44 DUP3 ADD MSTORE SWAP1 MLOAD SWAP1 DUP2 SWAP1 SUB PUSH1 0x64 ADD SWAP1 REVERT JUMPDEST PUSH1 0x18 SSTORE JUMP JUMPDEST PUSH2 0x3A6D PUSH2 0x42D6 JUMP JUMPDEST PUSH1 0x1 PUSH1 0x1 PUSH1 0xA0 SHL SUB AND PUSH2 0x3A7E PUSH2 0x2F6A JUMP JUMPDEST PUSH1 0x1 PUSH1 0x1 PUSH1 0xA0 SHL SUB AND EQ PUSH2 0x3AC7 JUMPI PUSH1 0x40 DUP1 MLOAD PUSH3 0x461BCD PUSH1 0xE5 SHL DUP2 MSTORE PUSH1 0x20 PUSH1 0x4 DUP3 ADD DUP2 SWAP1 MSTORE PUSH1 0x24 DUP3 ADD MSTORE PUSH1 0x0 DUP1 MLOAD PUSH1 0x20 PUSH2 0x474B DUP4 CODECOPY DUP2 MLOAD SWAP2 MSTORE PUSH1 0x44 DUP3 ADD MSTORE SWAP1 MLOAD SWAP1 DUP2 SWAP1 SUB PUSH1 0x64 ADD SWAP1 REVERT JUMPDEST PUSH1 0x3 SLOAD PUSH1 0x40 DUP1 MLOAD PUSH4 0x40C10F19 PUSH1 0xE0 SHL DUP2 MSTORE PUSH1 0x1 PUSH1 0x1 PUSH1 0xA0 SHL SUB DUP6 DUP2 AND PUSH1 0x4 DUP4 ADD MSTORE PUSH1 0x24 DUP3 ADD DUP6 SWAP1 MSTORE SWAP2 MLOAD SWAP2 SWAP1 SWAP3 AND SWAP2 PUSH4 0x40C10F19 SWAP2 PUSH1 0x44 DUP1 DUP4 ADD SWAP3 PUSH1 0x0 SWAP3 SWAP2 SWAP1 DUP3 SWAP1 SUB ADD DUP2 DUP4 DUP8 DUP1 EXTCODESIZE ISZERO DUP1 ISZERO PUSH2 0x22FC JUMPI PUSH1 0x0 DUP1 REVERT JUMPDEST PUSH1 0x8 SLOAD PUSH1 0x1 PUSH1 0x1 PUSH1 0xA0 SHL SUB AND DUP2 JUMP JUMPDEST PUSH1 0x15 SLOAD DUP2 JUMP JUMPDEST CALLER PUSH1 0x0 SWAP1 DUP2 MSTORE PUSH1 0x1 PUSH1 0x20 MSTORE PUSH1 0x40 SWAP1 KECCAK256 SLOAD PUSH1 0xFF AND DUP1 PUSH2 0x3B5E JUMPI POP CALLER PUSH2 0x3B53 PUSH2 0x2F6A JUMP JUMPDEST PUSH1 0x1 PUSH1 0x1 PUSH1 0xA0 SHL SUB AND EQ JUMPDEST PUSH2 0x3B9D JUMPI PUSH1 0x40 DUP1 MLOAD PUSH3 0x461BCD PUSH1 0xE5 SHL DUP2 MSTORE PUSH1 0x20 PUSH1 0x4 DUP3 ADD MSTORE PUSH1 0x18 PUSH1 0x24 DUP3 ADD MSTORE PUSH1 0x0 DUP1 MLOAD PUSH1 0x20 PUSH2 0x476B DUP4 CODECOPY DUP2 MLOAD SWAP2 MSTORE PUSH1 0x44 DUP3 ADD MSTORE SWAP1 MLOAD SWAP1 DUP2 SWAP1 SUB PUSH1 0x64 ADD SWAP1 REVERT JUMPDEST PUSH1 0x3 SLOAD PUSH1 0x40 DUP1 MLOAD PUSH4 0xF2FDE38B PUSH1 0xE0 SHL DUP2 MSTORE PUSH1 0x1 PUSH1 0x1 PUSH1 0xA0 SHL SUB DUP5 DUP2 AND PUSH1 0x4 DUP4 ADD MSTORE SWAP2 MLOAD SWAP2 SWAP1 SWAP3 AND SWAP2 PUSH4 0xF2FDE38B SWAP2 PUSH1 0x24 DUP1 DUP4 ADD SWAP3 PUSH1 0x0 SWAP3 SWAP2 SWAP1 DUP3 SWAP1 SUB ADD DUP2 DUP4 DUP8 DUP1 EXTCODESIZE ISZERO DUP1 ISZERO PUSH2 0x3BEB JUMPI PUSH1 0x0 DUP1 REVERT JUMPDEST POP GAS CALL ISZERO DUP1 ISZERO PUSH2 0x3BFF JUMPI RETURNDATASIZE PUSH1 0x0 DUP1 RETURNDATACOPY RETURNDATASIZE PUSH1 0x0 REVERT JUMPDEST POP POP POP POP POP JUMP JUMPDEST PUSH2 0x3C0E PUSH2 0x42D6 JUMP JUMPDEST PUSH1 0x1 PUSH1 0x1 PUSH1 0xA0 SHL SUB AND PUSH2 0x3C1F PUSH2 0x2F6A JUMP JUMPDEST PUSH1 0x1 PUSH1 0x1 PUSH1 0xA0 SHL SUB AND EQ PUSH2 0x3C68 JUMPI PUSH1 0x40 DUP1 MLOAD PUSH3 0x461BCD PUSH1 0xE5 SHL DUP2 MSTORE PUSH1 0x20 PUSH1 0x4 DUP3 ADD DUP2 SWAP1 MSTORE PUSH1 0x24 DUP3 ADD MSTORE PUSH1 0x0 DUP1 MLOAD PUSH1 0x20 PUSH2 0x474B DUP4 CODECOPY DUP2 MLOAD SWAP2 MSTORE PUSH1 0x44 DUP3 ADD MSTORE SWAP1 MLOAD SWAP1 DUP2 SWAP1 SUB PUSH1 0x64 ADD SWAP1 REVERT JUMPDEST PUSH1 0x1 PUSH1 0x1 PUSH1 0xA0 SHL SUB DUP2 AND PUSH2 0x3CAD JUMPI PUSH1 0x40 MLOAD PUSH3 0x461BCD PUSH1 0xE5 SHL DUP2 MSTORE PUSH1 0x4 ADD DUP1 DUP1 PUSH1 0x20 ADD DUP3 DUP2 SUB DUP3 MSTORE PUSH1 0x26 DUP2 MSTORE PUSH1 0x20 ADD DUP1 PUSH2 0x467F PUSH1 0x26 SWAP2 CODECOPY PUSH1 0x40 ADD SWAP2 POP POP PUSH1 0x40 MLOAD DUP1 SWAP2 SUB SWAP1 REVERT JUMPDEST PUSH1 0x0 DUP1 SLOAD PUSH1 0x40 MLOAD PUSH1 0x1 PUSH1 0x1 PUSH1 0xA0 SHL SUB DUP1 DUP6 AND SWAP4 SWAP3 AND SWAP2 PUSH32 0x8BE0079C531659141344CD1FD0A4F28419497F9722A3DAAFE3B4186F6B6457E0 SWAP2 LOG3 PUSH1 0x0 DUP1 SLOAD PUSH1 0x1 PUSH1 0x1 PUSH1 0xA0 SHL SUB NOT AND PUSH1 0x1 PUSH1 0x1 PUSH1 0xA0 SHL SUB SWAP3 SWAP1 SWAP3 AND SWAP2 SWAP1 SWAP2 OR SWAP1 SSTORE JUMP JUMPDEST CALLER PUSH1 0x0 SWAP1 DUP2 MSTORE PUSH1 0x1 PUSH1 0x20 MSTORE PUSH1 0x40 SWAP1 KECCAK256 SLOAD PUSH1 0xFF AND DUP1 PUSH2 0x3D35 JUMPI POP CALLER PUSH2 0x3D2A PUSH2 0x2F6A JUMP JUMPDEST PUSH1 0x1 PUSH1 0x1 PUSH1 0xA0 SHL SUB AND EQ JUMPDEST PUSH2 0x3D74 JUMPI PUSH1 0x40 DUP1 MLOAD PUSH3 0x461BCD PUSH1 0xE5 SHL DUP2 MSTORE PUSH1 0x20 PUSH1 0x4 DUP3 ADD MSTORE PUSH1 0x18 PUSH1 0x24 DUP3 ADD MSTORE PUSH1 0x0 DUP1 MLOAD PUSH1 0x20 PUSH2 0x476B DUP4 CODECOPY DUP2 MLOAD SWAP2 MSTORE PUSH1 0x44 DUP3 ADD MSTORE SWAP1 MLOAD SWAP1 DUP2 SWAP1 SUB PUSH1 0x64 ADD SWAP1 REVERT JUMPDEST PUSH1 0x16 SSTORE JUMP JUMPDEST PUSH1 0x13 SLOAD PUSH1 0x0 SWAP1 DUP2 SWAP1 DUP5 LT ISZERO PUSH2 0x3D92 JUMPI PUSH1 0x64 SWAP2 POP POP PUSH2 0x306F JUMP JUMPDEST PUSH1 0x0 JUMPDEST PUSH1 0xB SLOAD DUP2 LT ISZERO PUSH2 0x306B JUMPI PUSH1 0x0 PUSH1 0xB DUP3 DUP2 SLOAD DUP2 LT PUSH2 0x3DAE JUMPI INVALID JUMPDEST SWAP1 PUSH1 0x0 MSTORE PUSH1 0x20 PUSH1 0x0 KECCAK256 ADD SLOAD SWAP1 POP PUSH1 0x1 PUSH1 0x14 DUP1 SLOAD SWAP1 POP SUB DUP3 GT ISZERO PUSH2 0x3DD7 JUMPI PUSH1 0x0 SWAP4 POP POP POP POP PUSH2 0x306F JUMP JUMPDEST DUP1 DUP6 GT PUSH2 0x3E00 JUMPI PUSH1 0x14 DUP3 DUP2 SLOAD DUP2 LT PUSH2 0x3DEB JUMPI INVALID JUMPDEST SWAP1 PUSH1 0x0 MSTORE PUSH1 0x20 PUSH1 0x0 KECCAK256 ADD SLOAD SWAP4 POP POP POP POP PUSH2 0x306F JUMP JUMPDEST POP PUSH1 0x1 ADD PUSH2 0x3D95 JUMP JUMPDEST CALLER PUSH1 0x0 SWAP1 DUP2 MSTORE PUSH1 0x1 PUSH1 0x20 MSTORE PUSH1 0x40 SWAP1 KECCAK256 SLOAD PUSH1 0xFF AND DUP1 PUSH2 0x3E36 JUMPI POP CALLER PUSH2 0x3E2B PUSH2 0x2F6A JUMP JUMPDEST PUSH1 0x1 PUSH1 0x1 PUSH1 0xA0 SHL SUB AND EQ JUMPDEST PUSH2 0x3E75 JUMPI PUSH1 0x40 DUP1 MLOAD PUSH3 0x461BCD PUSH1 0xE5 SHL DUP2 MSTORE PUSH1 0x20 PUSH1 0x4 DUP3 ADD MSTORE PUSH1 0x18 PUSH1 0x24 DUP3 ADD MSTORE PUSH1 0x0 DUP1 MLOAD PUSH1 0x20 PUSH2 0x476B DUP4 CODECOPY DUP2 MLOAD SWAP2 MSTORE PUSH1 0x44 DUP3 ADD MSTORE SWAP1 MLOAD SWAP1 DUP2 SWAP1 SUB PUSH1 0x64 ADD SWAP1 REVERT JUMPDEST PUSH1 0x12 SSTORE JUMP JUMPDEST PUSH1 0x0 DUP3 PUSH2 0x3E89 JUMPI POP PUSH1 0x0 PUSH2 0x306F JUMP JUMPDEST DUP3 DUP3 MUL DUP3 DUP5 DUP3 DUP2 PUSH2 0x3E96 JUMPI INVALID JUMPDEST DIV EQ PUSH2 0x3ED3 JUMPI PUSH1 0x40 MLOAD PUSH3 0x461BCD PUSH1 0xE5 SHL DUP2 MSTORE PUSH1 0x4 ADD DUP1 DUP1 PUSH1 0x20 ADD DUP3 DUP2 SUB DUP3 MSTORE PUSH1 0x21 DUP2 MSTORE PUSH1 0x20 ADD DUP1 PUSH2 0x46F4 PUSH1 0x21 SWAP2 CODECOPY PUSH1 0x40 ADD SWAP2 POP POP PUSH1 0x40 MLOAD DUP1 SWAP2 SUB SWAP1 REVERT JUMPDEST SWAP4 SWAP3 POP POP POP JUMP JUMPDEST PUSH1 0x0 DUP3 DUP3 ADD DUP4 DUP2 LT ISZERO PUSH2 0x3ED3 JUMPI PUSH1 0x40 DUP1 MLOAD PUSH3 0x461BCD PUSH1 0xE5 SHL DUP2 MSTORE PUSH1 0x20 PUSH1 0x4 DUP3 ADD MSTORE PUSH1 0x1B PUSH1 0x24 DUP3 ADD MSTORE PUSH32 0x536166654D6174683A206164646974696F6E206F766572666C6F770000000000 PUSH1 0x44 DUP3 ADD MSTORE SWAP1 MLOAD SWAP1 DUP2 SWAP1 SUB PUSH1 0x64 ADD SWAP1 REVERT JUMPDEST PUSH1 0x0 PUSH1 0x19 DUP3 DUP2 SLOAD DUP2 LT PUSH2 0x3F43 JUMPI INVALID JUMPDEST PUSH1 0x0 SWAP2 DUP3 MSTORE PUSH1 0x20 DUP1 DUP4 KECCAK256 DUP6 DUP5 MSTORE PUSH1 0x1B DUP3 MSTORE PUSH1 0x40 DUP1 DUP6 KECCAK256 CALLER DUP7 MSTORE SWAP1 SWAP3 MSTORE SWAP3 KECCAK256 DUP1 SLOAD PUSH1 0x4 SWAP1 SWAP3 MUL SWAP1 SWAP3 ADD SWAP3 POP ISZERO PUSH2 0x41BB JUMPI PUSH1 0x0 PUSH2 0x3FA0 DUP3 PUSH1 0x1 ADD SLOAD PUSH2 0x3516 PUSH5 0xE8D4A51000 PUSH2 0x147D DUP8 PUSH1 0x3 ADD SLOAD DUP8 PUSH1 0x0 ADD SLOAD PUSH2 0x3E7A SWAP1 SWAP2 SWAP1 PUSH4 0xFFFFFFFF AND JUMP JUMPDEST PUSH1 0x3 SLOAD PUSH1 0x40 DUP1 MLOAD PUSH4 0x70A08231 PUSH1 0xE0 SHL DUP2 MSTORE ADDRESS PUSH1 0x4 DUP3 ADD MSTORE SWAP1 MLOAD SWAP3 SWAP4 POP PUSH1 0x0 SWAP3 PUSH1 0x1 PUSH1 0x1 PUSH1 0xA0 SHL SUB SWAP1 SWAP3 AND SWAP2 PUSH4 0x70A08231 SWAP2 PUSH1 0x24 DUP1 DUP3 ADD SWAP3 PUSH1 0x20 SWAP3 SWAP1 SWAP2 SWAP1 DUP3 SWAP1 SUB ADD DUP2 DUP7 DUP1 EXTCODESIZE ISZERO DUP1 ISZERO PUSH2 0x3FF1 JUMPI PUSH1 0x0 DUP1 REVERT JUMPDEST POP GAS STATICCALL ISZERO DUP1 ISZERO PUSH2 0x4005 JUMPI RETURNDATASIZE PUSH1 0x0 DUP1 RETURNDATACOPY RETURNDATASIZE PUSH1 0x0 REVERT JUMPDEST POP POP POP POP PUSH1 0x40 MLOAD RETURNDATASIZE PUSH1 0x20 DUP2 LT ISZERO PUSH2 0x401B JUMPI PUSH1 0x0 DUP1 REVERT JUMPDEST POP MLOAD SWAP1 POP DUP1 DUP3 GT ISZERO PUSH2 0x402B JUMPI DUP1 SWAP2 POP JUMPDEST DUP2 ISZERO PUSH2 0x4198 JUMPI PUSH1 0x3 SLOAD PUSH1 0x40 DUP1 MLOAD PUSH4 0xA9059CBB PUSH1 0xE0 SHL DUP2 MSTORE CALLER PUSH1 0x4 DUP3 ADD MSTORE PUSH1 0x24 DUP2 ADD DUP6 SWAP1 MSTORE SWAP1 MLOAD PUSH1 0x1 PUSH1 0x1 PUSH1 0xA0 SHL SUB SWAP1 SWAP3 AND SWAP2 PUSH4 0xA9059CBB SWAP2 PUSH1 0x44 DUP1 DUP3 ADD SWAP3 PUSH1 0x20 SWAP3 SWAP1 SWAP2 SWAP1 DUP3 SWAP1 SUB ADD DUP2 PUSH1 0x0 DUP8 DUP1 EXTCODESIZE ISZERO DUP1 ISZERO PUSH2 0x4085 JUMPI PUSH1 0x0 DUP1 REVERT JUMPDEST POP GAS CALL ISZERO DUP1 ISZERO PUSH2 0x4099 JUMPI RETURNDATASIZE PUSH1 0x0 DUP1 RETURNDATACOPY RETURNDATASIZE PUSH1 0x0 REVERT JUMPDEST POP POP POP POP PUSH1 0x40 MLOAD RETURNDATASIZE PUSH1 0x20 DUP2 LT ISZERO PUSH2 0x40AF JUMPI PUSH1 0x0 DUP1 REVERT JUMPDEST POP POP PUSH1 0x10 SLOAD PUSH1 0x2 DUP5 ADD SLOAD PUSH1 0x0 SWAP2 LT PUSH2 0x4151 JUMPI PUSH1 0x0 PUSH2 0x40D0 PUSH1 0x1 NUMBER SUB NUMBER PUSH2 0x3D79 JUMP JUMPDEST SWAP1 POP PUSH2 0x40E1 PUSH1 0x64 PUSH2 0x147D DUP7 DUP5 PUSH2 0x3E7A JUMP JUMPDEST PUSH1 0x3 SLOAD PUSH1 0x40 DUP1 MLOAD PUSH4 0x282D3FDF PUSH1 0xE0 SHL DUP2 MSTORE CALLER PUSH1 0x4 DUP3 ADD MSTORE PUSH1 0x24 DUP2 ADD DUP5 SWAP1 MSTORE SWAP1 MLOAD SWAP3 SWAP5 POP PUSH1 0x1 PUSH1 0x1 PUSH1 0xA0 SHL SUB SWAP1 SWAP2 AND SWAP2 PUSH4 0x282D3FDF SWAP2 PUSH1 0x44 DUP1 DUP3 ADD SWAP3 PUSH1 0x0 SWAP3 SWAP1 SWAP2 SWAP1 DUP3 SWAP1 SUB ADD DUP2 DUP4 DUP8 DUP1 EXTCODESIZE ISZERO DUP1 ISZERO PUSH2 0x4137 JUMPI PUSH1 0x0 DUP1 REVERT JUMPDEST POP GAS CALL ISZERO DUP1 ISZERO PUSH2 0x414B JUMPI RETURNDATASIZE PUSH1 0x0 DUP1 RETURNDATACOPY RETURNDATASIZE PUSH1 0x0 REVERT JUMPDEST POP POP POP POP POP JUMPDEST NUMBER PUSH1 0x2 DUP6 ADD SSTORE PUSH1 0x40 DUP1 MLOAD DUP5 DUP2 MSTORE PUSH1 0x20 DUP2 ADD DUP4 SWAP1 MSTORE DUP2 MLOAD DUP9 SWAP3 CALLER SWAP3 PUSH32 0x3887F2857BEAAF367EB618DFB5E22C1EBD74425AFFB0602C2E9FE126E3F860EB SWAP3 SWAP1 DUP2 SWAP1 SUB SWAP1 SWAP2 ADD SWAP1 LOG3 POP JUMPDEST PUSH1 0x3 DUP5 ADD SLOAD DUP4 SLOAD PUSH2 0x41B3 SWAP2 PUSH5 0xE8D4A51000 SWAP2 PUSH2 0x147D SWAP2 PUSH2 0x3E7A JUMP JUMPDEST PUSH1 0x1 DUP5 ADD SSTORE POP POP JUMPDEST POP POP POP JUMP JUMPDEST PUSH1 0x0 DUP3 DUP3 GT ISZERO PUSH2 0x4217 JUMPI PUSH1 0x40 DUP1 MLOAD PUSH3 0x461BCD PUSH1 0xE5 SHL DUP2 MSTORE PUSH1 0x20 PUSH1 0x4 DUP3 ADD MSTORE PUSH1 0x1E PUSH1 0x24 DUP3 ADD MSTORE PUSH32 0x536166654D6174683A207375627472616374696F6E206F766572666C6F770000 PUSH1 0x44 DUP3 ADD MSTORE SWAP1 MLOAD SWAP1 DUP2 SWAP1 SUB PUSH1 0x64 ADD SWAP1 REVERT JUMPDEST POP SWAP1 SUB SWAP1 JUMP JUMPDEST PUSH1 0x0 DUP1 DUP3 GT PUSH2 0x4273 JUMPI PUSH1 0x40 DUP1 MLOAD PUSH3 0x461BCD PUSH1 0xE5 SHL DUP2 MSTORE PUSH1 0x20 PUSH1 0x4 DUP3 ADD MSTORE PUSH1 0x1A PUSH1 0x24 DUP3 ADD MSTORE PUSH32 0x536166654D6174683A206469766973696F6E206279207A65726F000000000000 PUSH1 0x44 DUP3 ADD MSTORE SWAP1 MLOAD SWAP1 DUP2 SWAP1 SUB PUSH1 0x64 ADD SWAP1 REVERT JUMPDEST DUP2 DUP4 DUP2 PUSH2 0x427C JUMPI INVALID JUMPDEST DIV SWAP4 SWAP3 POP POP POP JUMP JUMPDEST PUSH1 0x40 DUP1 MLOAD PUSH1 0x1 PUSH1 0x1 PUSH1 0xA0 SHL SUB DUP5 AND PUSH1 0x24 DUP3 ADD MSTORE PUSH1 0x44 DUP1 DUP3 ADD DUP5 SWAP1 MSTORE DUP3 MLOAD DUP1 DUP4 SUB SWAP1 SWAP2 ADD DUP2 MSTORE PUSH1 0x64 SWAP1 SWAP2 ADD SWAP1 SWAP2 MSTORE PUSH1 0x20 DUP2 ADD DUP1 MLOAD PUSH1 0x1 PUSH1 0x1 PUSH1 0xE0 SHL SUB AND PUSH4 0xA9059CBB PUSH1 0xE0 SHL OR SWAP1 MSTORE PUSH2 0x41BB SWAP1 DUP5 SWAP1 PUSH2 0x433A JUMP JUMPDEST CALLER SWAP1 JUMP JUMPDEST PUSH1 0x40 DUP1 MLOAD PUSH1 0x1 PUSH1 0x1 PUSH1 0xA0 SHL SUB DUP1 DUP7 AND PUSH1 0x24 DUP4 ADD MSTORE DUP5 AND PUSH1 0x44 DUP3 ADD MSTORE PUSH1 0x64 DUP1 DUP3 ADD DUP5 SWAP1 MSTORE DUP3 MLOAD DUP1 DUP4 SUB SWAP1 SWAP2 ADD DUP2 MSTORE PUSH1 0x84 SWAP1 SWAP2 ADD SWAP1 SWAP2 MSTORE PUSH1 0x20 DUP2 ADD DUP1 MLOAD PUSH1 0x1 PUSH1 0x1 PUSH1 0xE0 SHL SUB AND PUSH4 0x23B872DD PUSH1 0xE0 SHL OR SWAP1 MSTORE PUSH2 0x4334 SWAP1 DUP6 SWAP1 PUSH2 0x433A JUMP JUMPDEST POP POP POP POP JUMP JUMPDEST PUSH1 0x60 PUSH2 0x438F DUP3 PUSH1 0x40 MLOAD DUP1 PUSH1 0x40 ADD PUSH1 0x40 MSTORE DUP1 PUSH1 0x20 DUP2 MSTORE PUSH1 0x20 ADD PUSH32 0x5361666545524332303A206C6F772D6C6576656C2063616C6C206661696C6564 DUP2 MSTORE POP DUP6 PUSH1 0x1 PUSH1 0x1 PUSH1 0xA0 SHL SUB AND PUSH2 0x43EB SWAP1 SWAP3 SWAP2 SWAP1 PUSH4 0xFFFFFFFF AND JUMP JUMPDEST DUP1 MLOAD SWAP1 SWAP2 POP ISZERO PUSH2 0x41BB JUMPI DUP1 DUP1 PUSH1 0x20 ADD SWAP1 MLOAD PUSH1 0x20 DUP2 LT ISZERO PUSH2 0x43AE JUMPI PUSH1 0x0 DUP1 REVERT JUMPDEST POP MLOAD PUSH2 0x41BB JUMPI PUSH1 0x40 MLOAD PUSH3 0x461BCD PUSH1 0xE5 SHL DUP2 MSTORE PUSH1 0x4 ADD DUP1 DUP1 PUSH1 0x20 ADD DUP3 DUP2 SUB DUP3 MSTORE PUSH1 0x2A DUP2 MSTORE PUSH1 0x20 ADD DUP1 PUSH2 0x47D7 PUSH1 0x2A SWAP2 CODECOPY PUSH1 0x40 ADD SWAP2 POP POP PUSH1 0x40 MLOAD DUP1 SWAP2 SUB SWAP1 REVERT JUMPDEST PUSH1 0x60 PUSH2 0x43FA DUP5 DUP5 PUSH1 0x0 DUP6 PUSH2 0x4402 JUMP JUMPDEST SWAP5 SWAP4 POP POP POP POP JUMP JUMPDEST PUSH1 0x60 DUP3 SELFBALANCE LT ISZERO PUSH2 0x4443 JUMPI PUSH1 0x40 MLOAD PUSH3 0x461BCD PUSH1 0xE5 SHL DUP2 MSTORE PUSH1 0x4 ADD DUP1 DUP1 PUSH1 0x20 ADD DUP3 DUP2 SUB DUP3 MSTORE PUSH1 0x26 DUP2 MSTORE PUSH1 0x20 ADD DUP1 PUSH2 0x46CE PUSH1 0x26 SWAP2 CODECOPY PUSH1 0x40 ADD SWAP2 POP POP PUSH1 0x40 MLOAD DUP1 SWAP2 SUB SWAP1 REVERT JUMPDEST PUSH2 0x444C DUP6 PUSH2 0x4553 JUMP JUMPDEST PUSH2 0x449D JUMPI PUSH1 0x40 DUP1 MLOAD PUSH3 0x461BCD PUSH1 0xE5 SHL DUP2 MSTORE PUSH1 0x20 PUSH1 0x4 DUP3 ADD MSTORE PUSH1 0x1D PUSH1 0x24 DUP3 ADD MSTORE PUSH32 0x416464726573733A2063616C6C20746F206E6F6E2D636F6E7472616374000000 PUSH1 0x44 DUP3 ADD MSTORE SWAP1 MLOAD SWAP1 DUP2 SWAP1 SUB PUSH1 0x64 ADD SWAP1 REVERT JUMPDEST PUSH1 0x0 PUSH1 0x60 DUP7 PUSH1 0x1 PUSH1 0x1 PUSH1 0xA0 SHL SUB AND DUP6 DUP8 PUSH1 0x40 MLOAD DUP1 DUP3 DUP1 MLOAD SWAP1 PUSH1 0x20 ADD SWAP1 DUP1 DUP4 DUP4 JUMPDEST PUSH1 0x20 DUP4 LT PUSH2 0x44DC JUMPI DUP1 MLOAD DUP3 MSTORE PUSH1 0x1F NOT SWAP1 SWAP3 ADD SWAP2 PUSH1 0x20 SWAP2 DUP3 ADD SWAP2 ADD PUSH2 0x44BD JUMP JUMPDEST PUSH1 0x1 DUP4 PUSH1 0x20 SUB PUSH2 0x100 EXP SUB DUP1 NOT DUP3 MLOAD AND DUP2 DUP5 MLOAD AND DUP1 DUP3 OR DUP6 MSTORE POP POP POP POP POP POP SWAP1 POP ADD SWAP2 POP POP PUSH1 0x0 PUSH1 0x40 MLOAD DUP1 DUP4 SUB DUP2 DUP6 DUP8 GAS CALL SWAP3 POP POP POP RETURNDATASIZE DUP1 PUSH1 0x0 DUP2 EQ PUSH2 0x453E JUMPI PUSH1 0x40 MLOAD SWAP2 POP PUSH1 0x1F NOT PUSH1 0x3F RETURNDATASIZE ADD AND DUP3 ADD PUSH1 0x40 MSTORE RETURNDATASIZE DUP3 MSTORE RETURNDATASIZE PUSH1 0x0 PUSH1 0x20 DUP5 ADD RETURNDATACOPY PUSH2 0x4543 JUMP JUMPDEST PUSH1 0x60 SWAP2 POP JUMPDEST POP SWAP2 POP SWAP2 POP PUSH2 0x351C DUP3 DUP3 DUP7 PUSH2 0x4559 JUMP JUMPDEST EXTCODESIZE ISZERO ISZERO SWAP1 JUMP JUMPDEST PUSH1 0x60 DUP4 ISZERO PUSH2 0x4568 JUMPI POP DUP2 PUSH2 0x3ED3 JUMP JUMPDEST DUP3 MLOAD ISZERO PUSH2 0x4578 JUMPI DUP3 MLOAD DUP1 DUP5 PUSH1 0x20 ADD REVERT JUMPDEST DUP2 PUSH1 0x40 MLOAD PUSH3 0x461BCD PUSH1 0xE5 SHL DUP2 MSTORE PUSH1 0x4 ADD DUP1 DUP1 PUSH1 0x20 ADD DUP3 DUP2 SUB DUP3 MSTORE DUP4 DUP2 DUP2 MLOAD DUP2 MSTORE PUSH1 0x20 ADD SWAP2 POP DUP1 MLOAD SWAP1 PUSH1 0x20 ADD SWAP1 DUP1 DUP4 DUP4 PUSH1 0x0 JUMPDEST DUP4 DUP2 LT ISZERO PUSH2 0x45C2 JUMPI DUP2 DUP2 ADD MLOAD DUP4 DUP3 ADD MSTORE PUSH1 0x20 ADD PUSH2 0x45AA JUMP JUMPDEST POP POP POP POP SWAP1 POP SWAP1 DUP2 ADD SWAP1 PUSH1 0x1F AND DUP1 ISZERO PUSH2 0x45EF JUMPI DUP1 DUP3 SUB DUP1 MLOAD PUSH1 0x1 DUP4 PUSH1 0x20 SUB PUSH2 0x100 EXP SUB NOT AND DUP2 MSTORE PUSH1 0x20 ADD SWAP2 POP JUMPDEST POP SWAP3 POP POP POP PUSH1 0x40 MLOAD DUP1 SWAP2 SUB SWAP1 REVERT JUMPDEST DUP3 DUP1 SLOAD DUP3 DUP3 SSTORE SWAP1 PUSH1 0x0 MSTORE PUSH1 0x20 PUSH1 0x0 KECCAK256 SWAP1 DUP2 ADD SWAP3 DUP3 ISZERO PUSH2 0x4638 JUMPI SWAP2 PUSH1 0x20 MUL DUP3 ADD JUMPDEST DUP3 DUP2 GT ISZERO PUSH2 0x4638 JUMPI DUP3 MLOAD DUP3 SSTORE SWAP2 PUSH1 0x20 ADD SWAP2 SWAP1 PUSH1 0x1 ADD SWAP1 PUSH2 0x461D JUMP JUMPDEST POP PUSH2 0x4644 SWAP3 SWAP2 POP PUSH2 0x4669 JUMP JUMPDEST POP SWAP1 JUMP JUMPDEST PUSH1 0x40 MLOAD DUP1 PUSH1 0x60 ADD PUSH1 0x40 MSTORE DUP1 PUSH1 0x0 DUP2 MSTORE PUSH1 0x20 ADD PUSH1 0x0 DUP2 MSTORE PUSH1 0x20 ADD PUSH1 0x0 DUP2 MSTORE POP SWAP1 JUMP JUMPDEST JUMPDEST DUP1 DUP3 GT ISZERO PUSH2 0x4644 JUMPI PUSH1 0x0 DUP2 SSTORE PUSH1 0x1 ADD PUSH2 0x466A JUMP INVALID 0x4F PUSH24 0x6E61626C653A206E6577206F776E65722069732074686520 PUSH27 0x65726F20616464726573734D617374657247617264656E65723A3A PUSH15 0x6F6E4475706C6963617465643A2064 PUSH22 0x706C696361746564416464726573733A20696E737566 PUSH7 0x696369656E7420 PUSH3 0x616C61 PUSH15 0x636520666F722063616C6C53616665 0x4D PUSH2 0x7468 GASPRICE KECCAK256 PUSH14 0x756C7469706C69636174696F6E20 PUSH16 0x766572666C6F774D6173746572476172 PUSH5 0x656E65723A GASPRICE PUSH5 0x65706F7369 PUSH21 0x3A20616D6F756E74206D7573742062652067726561 PUSH21 0x6572207468616E20304F776E61626C653A2063616C PUSH13 0x6572206973206E6F7420746865 KECCAK256 PUSH16 0x776E657263616C6C6572206973206E6F PUSH21 0x20617574686F72697A656400000000000000004D61 PUSH20 0x74657247617264656E65723A3A77697468647261 PUSH24 0x3A206E6F7420676F6F644D617374657247617264656E6572 GASPRICE GASPRICE PUSH2 0x6464 GASPRICE KECCAK256 PUSH13 0x7020697320616C726561647920 PUSH10 0x6E20706F6F6C53616665 GASLIMIT MSTORE NUMBER ORIGIN ADDRESS GASPRICE KECCAK256 GASLIMIT MSTORE NUMBER ORIGIN ADDRESS KECCAK256 PUSH16 0x7065726174696F6E20646964206E6F74 KECCAK256 PUSH20 0x756363656564A264697066735822122073CC3D52 0x5C 0xE7 0xDF 0xF8 DUP5 CALL 0xF7 0xC7 EXTCODEHASH SWAP15 0x27 SWAP8 DUP14 CALLDATALOAD PUSH13 0x3C3532219F9FF5E1FB241B2F50 PUSH5 0x736F6C6343 STOP MOD 0xC STOP CALLER MSTORE8 PUSH2 0x6665 0x4D PUSH2 0x7468 GASPRICE KECCAK256 PUSH14 0x756C7469706C69636174696F6E20 PUSH16 0x766572666C6F77000000000000000000 "
		},
		"gasEstimates": {
			"creation": {
				"codeDepositCost": "3697200",
				"executionCost": "infinite",
				"totalCost": "infinite"
			},
			"external": {
				"FINISH_BONUS_AT_BLOCK()": "1154",
				"HALVING_AT_BLOCK(uint256)": "2044",
				"PERCENT_FOR_COM()": "1088",
				"PERCENT_FOR_DEV()": "1153",
				"PERCENT_FOR_FOUNDERS()": "1153",
				"PERCENT_FOR_LP()": "1134",
				"PERCENT_LOCK_BONUS_REWARD(uint256)": "2043",
				"REWARD_MULTIPLIER(uint256)": "1999",
				"REWARD_PER_BLOCK()": "1132",
				"START_BLOCK()": "1154",
				"add(uint256,address,bool)": "infinite",
				"addAuthorized(address)": "infinite",
				"authorized(address)": "1203",
				"blockDeltaEndStage(uint256)": "2065",
				"blockDeltaStartStage(uint256)": "2065",
				"bonusFinishUpdate(uint256)": "infinite",
				"claimReward(uint256)": "infinite",
				"claimRewards(uint256[])": "infinite",
				"comUpdate(address)": "infinite",
				"comfundaddr()": "1106",
				"deledateMint(address,uint256)": "infinite",
				"deledateReleaseReward(address,uint256)": "infinite",
				"deposit(uint256,uint256,address)": "infinite",
				"dev(address)": "infinite",
				"devDepFee()": "1109",
				"devFeeStage(uint256)": "2020",
				"devaddr()": "1170",
				"emergencyWithdraw(uint256)": "infinite",
				"founderUpdate(address)": "infinite",
				"founderaddr()": "1170",
				"getGlobalAmount(address)": "3054",
				"getGlobalRefAmount(address)": "3020",
				"getLockPercentage(uint256,uint256)": "infinite",
				"getMultiplier(uint256,uint256)": "infinite",
				"getNewRewardPerBlock(uint256)": "infinite",
				"getPoolReward(uint256,uint256,uint256)": "infinite",
				"getRefValueOf(address,address)": "1326",
				"getTotalRefs(address)": "3092",
				"govToken()": "1107",
				"halvingUpdate(uint256[])": "infinite",
				"liquidityaddr()": "1106",
				"lockUpdate(uint256[])": "infinite",
				"lockcomUpdate(uint256)": "infinite",
				"lockdevUpdate(uint256)": "infinite",
				"lockfounderUpdate(uint256)": "infinite",
				"locklpUpdate(uint256)": "infinite",
				"lpUpdate(address)": "infinite",
				"massUpdatePools()": "infinite",
				"owner()": "1172",
				"pendingReward(uint256,address)": "infinite",
				"poolExistence(address)": "1292",
				"poolId1(address)": "1191",
				"poolInfo(uint256)": "4583",
				"poolLength()": "1090",
				"reclaimTokenOwnership(address)": "infinite",
				"removeAuthorized(address)": "infinite",
				"renounceOwnership()": "infinite",
				"reviseDeposit(uint256,address,uint256)": "infinite",
				"reviseWithdraw(uint256,address,uint256)": "infinite",
				"rewardMulUpdate(uint256[])": "infinite",
				"rewardUpdate(uint256)": "infinite",
				"set(uint256,uint256,bool)": "infinite",
				"setDevDepFee(uint256)": "infinite",
				"setDevFeeStage(uint256[])": "infinite",
				"setStageEnds(uint256[])": "infinite",
				"setStageStarts(uint256[])": "infinite",
				"setUserDepFee(uint256)": "infinite",
				"setUserFeeStage(uint256[])": "infinite",
				"starblockUpdate(uint256)": "infinite",
				"totalAllocPoint()": "1111",
				"transferOwnership(address)": "infinite",
				"updatePool(uint256)": "infinite",
				"usdOracle()": "1127",
				"userDelta(uint256)": "2149",
				"userDepFee()": "1153",
				"userFeeStage(uint256)": "2042",
				"userGlobalInfo(address)": "2951",
				"userInfo(uint256,address)": "6329",
				"withdraw(uint256,uint256,address)": "infinite"
			},
			"internal": {
				"_harvest(uint256)": "infinite",
				"safeGovTokenTransfer(address,uint256)": "infinite"
			}
		},
		"methodIdentifiers": {
			"FINISH_BONUS_AT_BLOCK()": "980c2a98",
			"HALVING_AT_BLOCK(uint256)": "4179b4fb",
			"PERCENT_FOR_COM()": "a02306f9",
			"PERCENT_FOR_DEV()": "ed9bdeda",
			"PERCENT_FOR_FOUNDERS()": "c6929e53",
			"PERCENT_FOR_LP()": "0a67d518",
			"PERCENT_LOCK_BONUS_REWARD(uint256)": "a82859c5",
			"REWARD_MULTIPLIER(uint256)": "2fda7735",
			"REWARD_PER_BLOCK()": "975532dc",
			"START_BLOCK()": "39b3e826",
			"add(uint256,address,bool)": "1eaaa045",
			"addAuthorized(address)": "cf1c316a",
			"authorized(address)": "b9181611",
			"blockDeltaEndStage(uint256)": "cb0b8ca1",
			"blockDeltaStartStage(uint256)": "6245f084",
			"bonusFinishUpdate(uint256)": "245b211d",
			"claimReward(uint256)": "ae169a50",
			"claimRewards(uint256[])": "5eac6239",
			"comUpdate(address)": "c749d614",
			"comfundaddr()": "3c9d9267",
			"deledateMint(address,uint256)": "eb986b6c",
			"deledateReleaseReward(address,uint256)": "4f2552c8",
			"deposit(uint256,uint256,address)": "8dbdbe6d",
			"dev(address)": "8d88a90e",
			"devDepFee()": "c56a10ff",
			"devFeeStage(uint256)": "beff2a53",
			"devaddr()": "d49e77cd",
			"emergencyWithdraw(uint256)": "5312ea8e",
			"founderUpdate(address)": "30fb8e0e",
			"founderaddr()": "ec12173d",
			"getGlobalAmount(address)": "929c6971",
			"getGlobalRefAmount(address)": "5c5e490b",
			"getLockPercentage(uint256,uint256)": "f930e770",
			"getMultiplier(uint256,uint256)": "8dbb1e3a",
			"getNewRewardPerBlock(uint256)": "1d465c82",
			"getPoolReward(uint256,uint256,uint256)": "c8ed7680",
			"getRefValueOf(address,address)": "dd77b9fd",
			"getTotalRefs(address)": "36ebcde6",
			"govToken()": "05268cff",
			"halvingUpdate(uint256[])": "354affb7",
			"liquidityaddr()": "22a376b0",
			"lockUpdate(uint256[])": "27e68928",
			"lockcomUpdate(uint256)": "c663baa6",
			"lockdevUpdate(uint256)": "b6066962",
			"lockfounderUpdate(uint256)": "de988524",
			"locklpUpdate(uint256)": "f2ffc22c",
			"lpUpdate(address)": "4dbf85ca",
			"massUpdatePools()": "630b5ba1",
			"owner()": "8da5cb5b",
			"pendingReward(uint256,address)": "98969e82",
			"poolExistence(address)": "cbd258b5",
			"poolId1(address)": "ce2529c9",
			"poolInfo(uint256)": "1526fe27",
			"poolLength()": "081e3eda",
			"reclaimTokenOwnership(address)": "eda67048",
			"removeAuthorized(address)": "485d7d94",
			"renounceOwnership()": "715018a6",
			"reviseDeposit(uint256,address,uint256)": "82386d58",
			"reviseWithdraw(uint256,address,uint256)": "6066debd",
			"rewardMulUpdate(uint256[])": "46664064",
			"rewardUpdate(uint256)": "3d479cd5",
			"set(uint256,uint256,bool)": "64482f79",
			"setDevDepFee(uint256)": "fb075433",
			"setDevFeeStage(uint256[])": "8cc883ce",
			"setStageEnds(uint256[])": "4af0e3e1",
			"setStageStarts(uint256[])": "847bdaa4",
			"setUserDepFee(uint256)": "7c39c9c9",
			"setUserFeeStage(uint256[])": "2a7b0107",
			"starblockUpdate(uint256)": "24b95c3e",
			"totalAllocPoint()": "17caf6f1",
			"transferOwnership(address)": "f2fde38b",
			"updatePool(uint256)": "51eb05a6",
			"usdOracle()": "c8a4271f",
			"userDelta(uint256)": "09ae4d2c",
			"userDepFee()": "82796e98",
			"userFeeStage(uint256)": "d007db29",
			"userGlobalInfo(address)": "d9608d8a",
			"userInfo(uint256,address)": "93f1a40b",
			"withdraw(uint256,uint256,address)": "0ad58d2f"
		}
	},
	"abi": [
		{
			"inputs": [
				{
					"internalType": "contract LcToken",
					"name": "_govToken",
					"type": "address"
				},
				{
					"internalType": "address",
					"name": "_devaddr",
					"type": "address"
				},
				{
					"internalType": "uint256",
					"name": "_halvingAfterBlock",
					"type": "uint256"
				},
				{
					"internalType": "uint256",
					"name": "_startBlock",
					"type": "uint256"
				}
			],
			"stateMutability": "nonpayable",
			"type": "constructor"
		},
		{
			"anonymous": false,
			"inputs": [
				{
					"indexed": true,
					"internalType": "address",
					"name": "user",
					"type": "address"
				},
				{
					"indexed": true,
					"internalType": "uint256",
					"name": "pid",
					"type": "uint256"
				},
				{
					"indexed": false,
					"internalType": "uint256",
					"name": "amount",
					"type": "uint256"
				}
			],
			"name": "Deposit",
			"type": "event"
		},
		{
			"anonymous": false,
			"inputs": [
				{
					"indexed": true,
					"internalType": "address",
					"name": "user",
					"type": "address"
				},
				{
					"indexed": true,
					"internalType": "uint256",
					"name": "pid",
					"type": "uint256"
				},
				{
					"indexed": false,
					"internalType": "uint256",
					"name": "amount",
					"type": "uint256"
				}
			],
			"name": "EmergencyWithdraw",
			"type": "event"
		},
		{
			"anonymous": false,
			"inputs": [
				{
					"indexed": true,
					"internalType": "address",
					"name": "previousOwner",
					"type": "address"
				},
				{
					"indexed": true,
					"internalType": "address",
					"name": "newOwner",
					"type": "address"
				}
			],
			"name": "OwnershipTransferred",
			"type": "event"
		},
		{
			"anonymous": false,
			"inputs": [
				{
					"indexed": true,
					"internalType": "address",
					"name": "user",
					"type": "address"
				},
				{
					"indexed": true,
					"internalType": "uint256",
					"name": "pid",
					"type": "uint256"
				},
				{
					"indexed": false,
					"internalType": "uint256",
					"name": "amount",
					"type": "uint256"
				},
				{
					"indexed": false,
					"internalType": "uint256",
					"name": "lockAmount",
					"type": "uint256"
				}
			],
			"name": "SendGovernanceTokenReward",
			"type": "event"
		},
		{
			"anonymous": false,
			"inputs": [
				{
					"indexed": true,
					"internalType": "address",
					"name": "user",
					"type": "address"
				},
				{
					"indexed": true,
					"internalType": "uint256",
					"name": "pid",
					"type": "uint256"
				},
				{
					"indexed": false,
					"internalType": "uint256",
					"name": "amount",
					"type": "uint256"
				}
			],
			"name": "Withdraw",
			"type": "event"
		},
		{
			"inputs": [],
			"name": "FINISH_BONUS_AT_BLOCK",
			"outputs": [
				{
					"internalType": "uint256",
					"name": "",
					"type": "uint256"
				}
			],
			"stateMutability": "view",
			"type": "function"
		},
		{
			"inputs": [
				{
					"internalType": "uint256",
					"name": "",
					"type": "uint256"
				}
			],
			"name": "HALVING_AT_BLOCK",
			"outputs": [
				{
					"internalType": "uint256",
					"name": "",
					"type": "uint256"
				}
			],
			"stateMutability": "view",
			"type": "function"
		},
		{
			"inputs": [],
			"name": "PERCENT_FOR_COM",
			"outputs": [
				{
					"internalType": "uint256",
					"name": "",
					"type": "uint256"
				}
			],
			"stateMutability": "view",
			"type": "function"
		},
		{
			"inputs": [],
			"name": "PERCENT_FOR_DEV",
			"outputs": [
				{
					"internalType": "uint256",
					"name": "",
					"type": "uint256"
				}
			],
			"stateMutability": "view",
			"type": "function"
		},
		{
			"inputs": [],
			"name": "PERCENT_FOR_FOUNDERS",
			"outputs": [
				{
					"internalType": "uint256",
					"name": "",
					"type": "uint256"
				}
			],
			"stateMutability": "view",
			"type": "function"
		},
		{
			"inputs": [],
			"name": "PERCENT_FOR_LP",
			"outputs": [
				{
					"internalType": "uint256",
					"name": "",
					"type": "uint256"
				}
			],
			"stateMutability": "view",
			"type": "function"
		},
		{
			"inputs": [
				{
					"internalType": "uint256",
					"name": "",
					"type": "uint256"
				}
			],
			"name": "PERCENT_LOCK_BONUS_REWARD",
			"outputs": [
				{
					"internalType": "uint256",
					"name": "",
					"type": "uint256"
				}
			],
			"stateMutability": "view",
			"type": "function"
		},
		{
			"inputs": [
				{
					"internalType": "uint256",
					"name": "",
					"type": "uint256"
				}
			],
			"name": "REWARD_MULTIPLIER",
			"outputs": [
				{
					"internalType": "uint256",
					"name": "",
					"type": "uint256"
				}
			],
			"stateMutability": "view",
			"type": "function"
		},
		{
			"inputs": [],
			"name": "REWARD_PER_BLOCK",
			"outputs": [
				{
					"internalType": "uint256",
					"name": "",
					"type": "uint256"
				}
			],
			"stateMutability": "view",
			"type": "function"
		},
		{
			"inputs": [],
			"name": "START_BLOCK",
			"outputs": [
				{
					"internalType": "uint256",
					"name": "",
					"type": "uint256"
				}
			],
			"stateMutability": "view",
			"type": "function"
		},
		{
			"inputs": [
				{
					"internalType": "uint256",
					"name": "_allocPoint",
					"type": "uint256"
				},
				{
					"internalType": "contract IERC20",
					"name": "_lpToken",
					"type": "address"
				},
				{
					"internalType": "bool",
					"name": "_withUpdate",
					"type": "bool"
				}
			],
			"name": "add",
			"outputs": [],
			"stateMutability": "nonpayable",
			"type": "function"
		},
		{
			"inputs": [
				{
					"internalType": "address",
					"name": "_toAdd",
					"type": "address"
				}
			],
			"name": "addAuthorized",
			"outputs": [],
			"stateMutability": "nonpayable",
			"type": "function"
		},
		{
			"inputs": [
				{
					"internalType": "address",
					"name": "",
					"type": "address"
				}
			],
			"name": "authorized",
			"outputs": [
				{
					"internalType": "bool",
					"name": "",
					"type": "bool"
				}
			],
			"stateMutability": "view",
			"type": "function"
		},
		{
			"inputs": [
				{
					"internalType": "uint256",
					"name": "",
					"type": "uint256"
				}
			],
			"name": "blockDeltaEndStage",
			"outputs": [
				{
					"internalType": "uint256",
					"name": "",
					"type": "uint256"
				}
			],
			"stateMutability": "view",
			"type": "function"
		},
		{
			"inputs": [
				{
					"internalType": "uint256",
					"name": "",
					"type": "uint256"
				}
			],
			"name": "blockDeltaStartStage",
			"outputs": [
				{
					"internalType": "uint256",
					"name": "",
					"type": "uint256"
				}
			],
			"stateMutability": "view",
			"type": "function"
		},
		{
			"inputs": [
				{
					"internalType": "uint256",
					"name": "_newFinish",
					"type": "uint256"
				}
			],
			"name": "bonusFinishUpdate",
			"outputs": [],
			"stateMutability": "nonpayable",
			"type": "function"
		},
		{
			"inputs": [
				{
					"internalType": "uint256",
					"name": "_pid",
					"type": "uint256"
				}
			],
			"name": "claimReward",
			"outputs": [],
			"stateMutability": "nonpayable",
			"type": "function"
		},
		{
			"inputs": [
				{
					"internalType": "uint256[]",
					"name": "_pids",
					"type": "uint256[]"
				}
			],
			"name": "claimRewards",
			"outputs": [],
			"stateMutability": "nonpayable",
			"type": "function"
		},
		{
			"inputs": [
				{
					"internalType": "address",
					"name": "_newCom",
					"type": "address"
				}
			],
			"name": "comUpdate",
			"outputs": [],
			"stateMutability": "nonpayable",
			"type": "function"
		},
		{
			"inputs": [],
			"name": "comfundaddr",
			"outputs": [
				{
					"internalType": "address",
					"name": "",
					"type": "address"
				}
			],
			"stateMutability": "view",
			"type": "function"
		},
		{
			"inputs": [
				{
					"internalType": "address",
					"name": "account",
					"type": "address"
				},
				{
					"internalType": "uint256",
					"name": "amount",
					"type": "uint256"
				}
			],
			"name": "deledateMint",
			"outputs": [],
			"stateMutability": "nonpayable",
			"type": "function"
		},
		{
			"inputs": [
				{
					"internalType": "address",
					"name": "account",
					"type": "address"
				},
				{
					"internalType": "uint256",
					"name": "amount",
					"type": "uint256"
				}
			],
			"name": "deledateReleaseReward",
			"outputs": [],
			"stateMutability": "nonpayable",
			"type": "function"
		},
		{
			"inputs": [
				{
					"internalType": "uint256",
					"name": "_pid",
					"type": "uint256"
				},
				{
					"internalType": "uint256",
					"name": "_amount",
					"type": "uint256"
				},
				{
					"internalType": "address",
					"name": "_ref",
					"type": "address"
				}
			],
			"name": "deposit",
			"outputs": [],
			"stateMutability": "nonpayable",
			"type": "function"
		},
		{
			"inputs": [
				{
					"internalType": "address",
					"name": "_devaddr",
					"type": "address"
				}
			],
			"name": "dev",
			"outputs": [],
			"stateMutability": "nonpayable",
			"type": "function"
		},
		{
			"inputs": [],
			"name": "devDepFee",
			"outputs": [
				{
					"internalType": "uint256",
					"name": "",
					"type": "uint256"
				}
			],
			"stateMutability": "view",
			"type": "function"
		},
		{
			"inputs": [
				{
					"internalType": "uint256",
					"name": "",
					"type": "uint256"
				}
			],
			"name": "devFeeStage",
			"outputs": [
				{
					"internalType": "uint256",
					"name": "",
					"type": "uint256"
				}
			],
			"stateMutability": "view",
			"type": "function"
		},
		{
			"inputs": [],
			"name": "devaddr",
			"outputs": [
				{
					"internalType": "address",
					"name": "",
					"type": "address"
				}
			],
			"stateMutability": "view",
			"type": "function"
		},
		{
			"inputs": [
				{
					"internalType": "uint256",
					"name": "_pid",
					"type": "uint256"
				}
			],
			"name": "emergencyWithdraw",
			"outputs": [],
			"stateMutability": "nonpayable",
			"type": "function"
		},
		{
			"inputs": [
				{
					"internalType": "address",
					"name": "_newFounder",
					"type": "address"
				}
			],
			"name": "founderUpdate",
			"outputs": [],
			"stateMutability": "nonpayable",
			"type": "function"
		},
		{
			"inputs": [],
			"name": "founderaddr",
			"outputs": [
				{
					"internalType": "address",
					"name": "",
					"type": "address"
				}
			],
			"stateMutability": "view",
			"type": "function"
		},
		{
			"inputs": [
				{
					"internalType": "address",
					"name": "_user",
					"type": "address"
				}
			],
			"name": "getGlobalAmount",
			"outputs": [
				{
					"internalType": "uint256",
					"name": "",
					"type": "uint256"
				}
			],
			"stateMutability": "view",
			"type": "function"
		},
		{
			"inputs": [
				{
					"internalType": "address",
					"name": "_user",
					"type": "address"
				}
			],
			"name": "getGlobalRefAmount",
			"outputs": [
				{
					"internalType": "uint256",
					"name": "",
					"type": "uint256"
				}
			],
			"stateMutability": "view",
			"type": "function"
		},
		{
			"inputs": [
				{
					"internalType": "uint256",
					"name": "_from",
					"type": "uint256"
				},
				{
					"internalType": "uint256",
					"name": "_to",
					"type": "uint256"
				}
			],
			"name": "getLockPercentage",
			"outputs": [
				{
					"internalType": "uint256",
					"name": "",
					"type": "uint256"
				}
			],
			"stateMutability": "view",
			"type": "function"
		},
		{
			"inputs": [
				{
					"internalType": "uint256",
					"name": "_from",
					"type": "uint256"
				},
				{
					"internalType": "uint256",
					"name": "_to",
					"type": "uint256"
				}
			],
			"name": "getMultiplier",
			"outputs": [
				{
					"internalType": "uint256",
					"name": "",
					"type": "uint256"
				}
			],
			"stateMutability": "view",
			"type": "function"
		},
		{
			"inputs": [
				{
					"internalType": "uint256",
					"name": "pid1",
					"type": "uint256"
				}
			],
			"name": "getNewRewardPerBlock",
			"outputs": [
				{
					"internalType": "uint256",
					"name": "",
					"type": "uint256"
				}
			],
			"stateMutability": "view",
			"type": "function"
		},
		{
			"inputs": [
				{
					"internalType": "uint256",
					"name": "_from",
					"type": "uint256"
				},
				{
					"internalType": "uint256",
					"name": "_to",
					"type": "uint256"
				},
				{
					"internalType": "uint256",
					"name": "_allocPoint",
					"type": "uint256"
				}
			],
			"name": "getPoolReward",
			"outputs": [
				{
					"internalType": "uint256",
					"name": "forDev",
					"type": "uint256"
				},
				{
					"internalType": "uint256",
					"name": "forFarmer",
					"type": "uint256"
				},
				{
					"internalType": "uint256",
					"name": "forLP",
					"type": "uint256"
				},
				{
					"internalType": "uint256",
					"name": "forCom",
					"type": "uint256"
				},
				{
					"internalType": "uint256",
					"name": "forFounders",
					"type": "uint256"
				}
			],
			"stateMutability": "view",
			"type": "function"
		},
		{
			"inputs": [
				{
					"internalType": "address",
					"name": "_user",
					"type": "address"
				},
				{
					"internalType": "address",
					"name": "_user2",
					"type": "address"
				}
			],
			"name": "getRefValueOf",
			"outputs": [
				{
					"internalType": "uint256",
					"name": "",
					"type": "uint256"
				}
			],
			"stateMutability": "view",
			"type": "function"
		},
		{
			"inputs": [
				{
					"internalType": "address",
					"name": "_user",
					"type": "address"
				}
			],
			"name": "getTotalRefs",
			"outputs": [
				{
					"internalType": "uint256",
					"name": "",
					"type": "uint256"
				}
			],
			"stateMutability": "view",
			"type": "function"
		},
		{
			"inputs": [],
			"name": "govToken",
			"outputs": [
				{
					"internalType": "contract LcToken",
					"name": "",
					"type": "address"
				}
			],
			"stateMutability": "view",
			"type": "function"
		},
		{
			"inputs": [
				{
					"internalType": "uint256[]",
					"name": "_newHalving",
					"type": "uint256[]"
				}
			],
			"name": "halvingUpdate",
			"outputs": [],
			"stateMutability": "nonpayable",
			"type": "function"
		},
		{
			"inputs": [],
			"name": "liquidityaddr",
			"outputs": [
				{
					"internalType": "address",
					"name": "",
					"type": "address"
				}
			],
			"stateMutability": "view",
			"type": "function"
		},
		{
			"inputs": [
				{
					"internalType": "uint256[]",
					"name": "_newlock",
					"type": "uint256[]"
				}
			],
			"name": "lockUpdate",
			"outputs": [],
			"stateMutability": "nonpayable",
			"type": "function"
		},
		{
			"inputs": [
				{
					"internalType": "uint256",
					"name": "_newcomlock",
					"type": "uint256"
				}
			],
			"name": "lockcomUpdate",
			"outputs": [],
			"stateMutability": "nonpayable",
			"type": "function"
		},
		{
			"inputs": [
				{
					"internalType": "uint256",
					"name": "_newdevlock",
					"type": "uint256"
				}
			],
			"name": "lockdevUpdate",
			"outputs": [],
			"stateMutability": "nonpayable",
			"type": "function"
		},
		{
			"inputs": [
				{
					"internalType": "uint256",
					"name": "_newfounderlock",
					"type": "uint256"
				}
			],
			"name": "lockfounderUpdate",
			"outputs": [],
			"stateMutability": "nonpayable",
			"type": "function"
		},
		{
			"inputs": [
				{
					"internalType": "uint256",
					"name": "_newlplock",
					"type": "uint256"
				}
			],
			"name": "locklpUpdate",
			"outputs": [],
			"stateMutability": "nonpayable",
			"type": "function"
		},
		{
			"inputs": [
				{
					"internalType": "address",
					"name": "_newLP",
					"type": "address"
				}
			],
			"name": "lpUpdate",
			"outputs": [],
			"stateMutability": "nonpayable",
			"type": "function"
		},
		{
			"inputs": [],
			"name": "massUpdatePools",
			"outputs": [],
			"stateMutability": "nonpayable",
			"type": "function"
		},
		{
			"inputs": [],
			"name": "owner",
			"outputs": [
				{
					"internalType": "address",
					"name": "",
					"type": "address"
				}
			],
			"stateMutability": "view",
			"type": "function"
		},
		{
			"inputs": [
				{
					"internalType": "uint256",
					"name": "_pid",
					"type": "uint256"
				},
				{
					"internalType": "address",
					"name": "_user",
					"type": "address"
				}
			],
			"name": "pendingReward",
			"outputs": [
				{
					"internalType": "uint256",
					"name": "",
					"type": "uint256"
				}
			],
			"stateMutability": "view",
			"type": "function"
		},
		{
			"inputs": [
				{
					"internalType": "contract IERC20",
					"name": "",
					"type": "address"
				}
			],
			"name": "poolExistence",
			"outputs": [
				{
					"internalType": "bool",
					"name": "",
					"type": "bool"
				}
			],
			"stateMutability": "view",
			"type": "function"
		},
		{
			"inputs": [
				{
					"internalType": "address",
					"name": "",
					"type": "address"
				}
			],
			"name": "poolId1",
			"outputs": [
				{
					"internalType": "uint256",
					"name": "",
					"type": "uint256"
				}
			],
			"stateMutability": "view",
			"type": "function"
		},
		{
			"inputs": [
				{
					"internalType": "uint256",
					"name": "",
					"type": "uint256"
				}
			],
			"name": "poolInfo",
			"outputs": [
				{
					"internalType": "contract IERC20",
					"name": "lpToken",
					"type": "address"
				},
				{
					"internalType": "uint256",
					"name": "allocPoint",
					"type": "uint256"
				},
				{
					"internalType": "uint256",
					"name": "lastRewardBlock",
					"type": "uint256"
				},
				{
					"internalType": "uint256",
					"name": "accGovTokenPerShare",
					"type": "uint256"
				}
			],
			"stateMutability": "view",
			"type": "function"
		},
		{
			"inputs": [],
			"name": "poolLength",
			"outputs": [
				{
					"internalType": "uint256",
					"name": "",
					"type": "uint256"
				}
			],
			"stateMutability": "view",
			"type": "function"
		},
		{
			"inputs": [
				{
					"internalType": "address",
					"name": "_newOwner",
					"type": "address"
				}
			],
			"name": "reclaimTokenOwnership",
			"outputs": [],
			"stateMutability": "nonpayable",
			"type": "function"
		},
		{
			"inputs": [
				{
					"internalType": "address",
					"name": "_toRemove",
					"type": "address"
				}
			],
			"name": "removeAuthorized",
			"outputs": [],
			"stateMutability": "nonpayable",
			"type": "function"
		},
		{
			"inputs": [],
			"name": "renounceOwnership",
			"outputs": [],
			"stateMutability": "nonpayable",
			"type": "function"
		},
		{
			"inputs": [
				{
					"internalType": "uint256",
					"name": "_pid",
					"type": "uint256"
				},
				{
					"internalType": "address",
					"name": "_user",
					"type": "address"
				},
				{
					"internalType": "uint256",
					"name": "_block",
					"type": "uint256"
				}
			],
			"name": "reviseDeposit",
			"outputs": [],
			"stateMutability": "nonpayable",
			"type": "function"
		},
		{
			"inputs": [
				{
					"internalType": "uint256",
					"name": "_pid",
					"type": "uint256"
				},
				{
					"internalType": "address",
					"name": "_user",
					"type": "address"
				},
				{
					"internalType": "uint256",
					"name": "_block",
					"type": "uint256"
				}
			],
			"name": "reviseWithdraw",
			"outputs": [],
			"stateMutability": "nonpayable",
			"type": "function"
		},
		{
			"inputs": [
				{
					"internalType": "uint256[]",
					"name": "_newMulReward",
					"type": "uint256[]"
				}
			],
			"name": "rewardMulUpdate",
			"outputs": [],
			"stateMutability": "nonpayable",
			"type": "function"
		},
		{
			"inputs": [
				{
					"internalType": "uint256",
					"name": "_newReward",
					"type": "uint256"
				}
			],
			"name": "rewardUpdate",
			"outputs": [],
			"stateMutability": "nonpayable",
			"type": "function"
		},
		{
			"inputs": [
				{
					"internalType": "uint256",
					"name": "_pid",
					"type": "uint256"
				},
				{
					"internalType": "uint256",
					"name": "_allocPoint",
					"type": "uint256"
				},
				{
					"internalType": "bool",
					"name": "_withUpdate",
					"type": "bool"
				}
			],
			"name": "set",
			"outputs": [],
			"stateMutability": "nonpayable",
			"type": "function"
		},
		{
			"inputs": [
				{
					"internalType": "uint256",
					"name": "_devDepFees",
					"type": "uint256"
				}
			],
			"name": "setDevDepFee",
			"outputs": [],
			"stateMutability": "nonpayable",
			"type": "function"
		},
		{
			"inputs": [
				{
					"internalType": "uint256[]",
					"name": "_devFees",
					"type": "uint256[]"
				}
			],
			"name": "setDevFeeStage",
			"outputs": [],
			"stateMutability": "nonpayable",
			"type": "function"
		},
		{
			"inputs": [
				{
					"internalType": "uint256[]",
					"name": "_blockEnds",
					"type": "uint256[]"
				}
			],
			"name": "setStageEnds",
			"outputs": [],
			"stateMutability": "nonpayable",
			"type": "function"
		},
		{
			"inputs": [
				{
					"internalType": "uint256[]",
					"name": "_blockStarts",
					"type": "uint256[]"
				}
			],
			"name": "setStageStarts",
			"outputs": [],
			"stateMutability": "nonpayable",
			"type": "function"
		},
		{
			"inputs": [
				{
					"internalType": "uint256",
					"name": "_usrDepFees",
					"type": "uint256"
				}
			],
			"name": "setUserDepFee",
			"outputs": [],
			"stateMutability": "nonpayable",
			"type": "function"
		},
		{
			"inputs": [
				{
					"internalType": "uint256[]",
					"name": "_userFees",
					"type": "uint256[]"
				}
			],
			"name": "setUserFeeStage",
			"outputs": [],
			"stateMutability": "nonpayable",
			"type": "function"
		},
		{
			"inputs": [
				{
					"internalType": "uint256",
					"name": "_newstarblock",
					"type": "uint256"
				}
			],
			"name": "starblockUpdate",
			"outputs": [],
			"stateMutability": "nonpayable",
			"type": "function"
		},
		{
			"inputs": [],
			"name": "totalAllocPoint",
			"outputs": [
				{
					"internalType": "uint256",
					"name": "",
					"type": "uint256"
				}
			],
			"stateMutability": "view",
			"type": "function"
		},
		{
			"inputs": [
				{
					"internalType": "address",
					"name": "newOwner",
					"type": "address"
				}
			],
			"name": "transferOwnership",
			"outputs": [],
			"stateMutability": "nonpayable",
			"type": "function"
		},
		{
			"inputs": [
				{
					"internalType": "uint256",
					"name": "_pid",
					"type": "uint256"
				}
			],
			"name": "updatePool",
			"outputs": [],
			"stateMutability": "nonpayable",
			"type": "function"
		},
		{
			"inputs": [],
			"name": "usdOracle",
			"outputs": [
				{
					"internalType": "address",
					"name": "",
					"type": "address"
				}
			],
			"stateMutability": "view",
			"type": "function"
		},
		{
			"inputs": [
				{
					"internalType": "uint256",
					"name": "_pid",
					"type": "uint256"
				}
			],
			"name": "userDelta",
			"outputs": [
				{
					"internalType": "uint256",
					"name": "",
					"type": "uint256"
				}
			],
			"stateMutability": "view",
			"type": "function"
		},
		{
			"inputs": [],
			"name": "userDepFee",
			"outputs": [
				{
					"internalType": "uint256",
					"name": "",
					"type": "uint256"
				}
			],
			"stateMutability": "view",
			"type": "function"
		},
		{
			"inputs": [
				{
					"internalType": "uint256",
					"name": "",
					"type": "uint256"
				}
			],
			"name": "userFeeStage",
			"outputs": [
				{
					"internalType": "uint256",
					"name": "",
					"type": "uint256"
				}
			],
			"stateMutability": "view",
			"type": "function"
		},
		{
			"inputs": [
				{
					"internalType": "address",
					"name": "",
					"type": "address"
				}
			],
			"name": "userGlobalInfo",
			"outputs": [
				{
					"internalType": "uint256",
					"name": "globalAmount",
					"type": "uint256"
				},
				{
					"internalType": "uint256",
					"name": "totalReferals",
					"type": "uint256"
				},
				{
					"internalType": "uint256",
					"name": "globalRefAmount",
					"type": "uint256"
				}
			],
			"stateMutability": "view",
			"type": "function"
		},
		{
			"inputs": [
				{
					"internalType": "uint256",
					"name": "",
					"type": "uint256"
				},
				{
					"internalType": "address",
					"name": "",
					"type": "address"
				}
			],
			"name": "userInfo",
			"outputs": [
				{
					"internalType": "uint256",
					"name": "amount",
					"type": "uint256"
				},
				{
					"internalType": "uint256",
					"name": "rewardDebt",
					"type": "uint256"
				},
				{
					"internalType": "uint256",
					"name": "rewardDebtAtBlock",
					"type": "uint256"
				},
				{
					"internalType": "uint256",
					"name": "lastWithdrawBlock",
					"type": "uint256"
				},
				{
					"internalType": "uint256",
					"name": "firstDepositBlock",
					"type": "uint256"
				},
				{
					"internalType": "uint256",
					"name": "blockdelta",
					"type": "uint256"
				},
				{
					"internalType": "uint256",
					"name": "lastDepositBlock",
					"type": "uint256"
				}
			],
			"stateMutability": "view",
			"type": "function"
		},
		{
			"inputs": [
				{
					"internalType": "uint256",
					"name": "_pid",
					"type": "uint256"
				},
				{
					"internalType": "uint256",
					"name": "_amount",
					"type": "uint256"
				},
				{
					"internalType": "address",
					"name": "_ref",
					"type": "address"
				}
			],
			"name": "withdraw",
			"outputs": [],
			"stateMutability": "nonpayable",
			"type": "function"
		}
	]
}