{
	"data": {
		"bytecode": {
			"linkReferences": {},
			"object": "608060405234801561001057600080fd5b50612109806100206000396000f3fe608060405234801561001057600080fd5b50600436106101a95760003560e01c80638129fc1c116100f9578063c148162611610097578063cb73580711610071578063cb735807146103dc578063d547741f14610403578063edf26d9b14610416578063f667e0aa1461042957600080fd5b8063c148162614610378578063c36fe3d6146103a3578063c39cbef1146103c957600080fd5b80639799b4e7116100d35780639799b4e7146103125780639a65ddec14610332578063a217fddf1461035d578063bd3eaa6f1461036557600080fd5b80638129fc1c146102e457806391d14854146102ec57806391fc437e146102ff57600080fd5b80633697611a116101665780634cd6959c116101405780634cd6959c14610283578063507cd30f146102a9578063797669c9146102bc5780637d6df699146102d157600080fd5b80633697611a14610255578063393bca2d1461025d5780633f5df2461461027057600080fd5b806301ffc9a7146101ae57806305cfa06f146101d657806321319c49146101e9578063248a9ca3146101fc5780632f2ff15d1461022d57806336568abe14610242575b600080fd5b6101c16101bc366004611b2e565b610449565b60405190151581526020015b60405180910390f35b6101c16101e4366004611aa4565b610480565b6101c16101f7366004611c41565b6104ae565b61021f61020a366004611ae9565b60009081526065602052604090206001015490565b6040519081526020016101cd565b61024061023b366004611b02565b61050f565b005b610240610250366004611b02565b61053a565b60995461021f565b6101c161026b366004611c5c565b6105b8565b6101c161027e366004611c1e565b610612565b610296610291366004611aa4565b61077c565b6040516101cd9796959493929190611e9b565b6101c16102b7366004611abf565b610933565b61021f6000805160206120b483398151915281565b6102966102df366004611b58565b610b18565b610240610bf0565b6101c16102fa366004611b02565b610eb5565b6101c161030d366004611b58565b610ee0565b61021f610320366004611ae9565b609c6020526000908152604090205481565b610345610340366004611b58565b610f0a565b6040516001600160a01b0390911681526020016101cd565b61021f600081565b6101c1610373366004611b94565b610f9e565b61021f610386366004611b58565b805160208183018101805160988252928201919093012091525481565b6103b66103b1366004611ae9565b61128c565b6040516101cd9796959493929190611e3d565b6101c16103d7366004611bd8565b61136c565b61021f7f074d40a305a8a90af8f1a910f983406ed04849c36b2bc8143f091437b95cbb1281565b610240610411366004611b02565b611598565b610345610424366004611ae9565b6115be565b61021f610437366004611aa4565b60976020526000908152604090205481565b60006001600160e01b03198216637965db0b60e01b148061047a57506301ffc9a760e01b6001600160e01b03198316145b92915050565b6001600160a01b03166000908152609760209081526040808320548352609b90915290206005015460ff1690565b60006104c86000805160206120b483398151915233610eb5565b6104ed5760405162461bcd60e51b81526004016104e490611dc8565b60405180910390fd5b50609a805460ff909216620100000262ff000019909216919091179055600190565b60008281526065602052604090206001015461052b81336115e8565b610535838361164c565b505050565b6001600160a01b03811633146105aa5760405162461bcd60e51b815260206004820152602f60248201527f416363657373436f6e74726f6c3a2063616e206f6e6c792072656e6f756e636560448201526e103937b632b9903337b91039b2b63360891b60648201526084016104e4565b6105b482826116d2565b5050565b60006105d26000805160206120b483398151915233610eb5565b6105ee5760405162461bcd60e51b81526004016104e490611dc8565b50609a805460ff8381166101000261ffff1990921690851617179055600192915050565b609a5460009060ff620100009091048116908316106106675760405162461bcd60e51b8152602060048201526011602482015270706963206f7574206f6620626f756e647360781b60448201526064016104e4565b6000838152609b60205260409020600581015460ff166106b65760405162461bcd60e51b815260206004820152600a6024820152691a5b9d985b1a59081a5960b21b60448201526064016104e4565b60018101546001600160a01b031633146106e25760405162461bcd60e51b81526004016104e490611dc8565b60038101805460ff808616600160401b90810268ff0000000000000000198416811794859055600186015460048701546040517f69e29765eee9ce41e5c9e024d867f612cb1a6690a5c5f905201d4c591c423f1e9761076a978d976001600160a01b039095169660028c01966001600160401b03908116921691909117949104169190611ef7565b60405180910390a15060019392505050565b600080606060008060008061079088610480565b6107cf5760405162461bcd60e51b815260206004820152601060248201526f1b9bc81c1c9bd99a5b1948199bdd5b9960821b60448201526064016104e4565b6001600160a01b038089166000908152609760209081526040808320548352609b8252808320815160e081018352815481526001820154909516928501929092526002820180549394939184019161082690612036565b80601f016020809104026020016040519081016040528092919081815260200182805461085290612036565b801561089f5780601f106108745761010080835404028352916020019161089f565b820191906000526020600020905b81548152906001019060200180831161088257829003601f168201915b505050918352505060038201546001600160401b038116602080840191909152600160401b90910460ff9081166040808501919091526004850154606080860191909152600590950154909116151560809384015284518583015186830151958701519487015160a0909701516000838152609c9095529290932054909f929e50939c50919a509298509650945092505050565b600061095f7f074d40a305a8a90af8f1a910f983406ed04849c36b2bc8143f091437b95cbb1233610eb5565b61097b5760405162461bcd60e51b81526004016104e490611dc8565b61098483610480565b6109c35760405162461bcd60e51b815260206004820152601060248201526f1b9bc81c1c9bd99a5b1948199bdd5b9960821b60448201526064016104e4565b6001600160a01b038084166000908152609760209081526040808320548352609b8252808320815160e0810183528154815260018201549095169285019290925260028201805493949391840191610a1a90612036565b80601f0160208091040260200160405190810160405280929190818152602001828054610a4690612036565b8015610a935780601f10610a6857610100808354040283529160200191610a93565b820191906000526020600020905b815481529060010190602001808311610a7657829003601f168201915b505050918352505060038201546001600160401b038116602080840191909152600160401b90910460ff9081166040808501919091526004850154606085015260059094015416151560809092019190915282516000908152609c90915290812080549293508592909190610b09908490611fb8565b90915550600195945050505050565b6000806060600080600080610b2c88610ee0565b610b695760405162461bcd60e51b815260206004820152600e60248201526d1b985b59481b9bdd08199bdd5b9960921b60448201526064016104e4565b6000609b600060988b604051610b7f9190611cb2565b90815260200160405180910390205481526020019081526020016000206040518060e0016040529081600082015481526020016001820160009054906101000a90046001600160a01b03166001600160a01b03166001600160a01b0316815260200160028201805461082690612036565b600054610100900460ff16610c0b5760005460ff1615610c0f565b303b155b610c725760405162461bcd60e51b815260206004820152602e60248201527f496e697469616c697a61626c653a20636f6e747261637420697320616c72656160448201526d191e481a5b9a5d1a585b1a5e995960921b60648201526084016104e4565b600054610100900460ff16158015610c94576000805461ffff19166101011790555b610c9c611739565b610ca76000336117a6565b609a805462ffffff1916620f100317905560998054600181019091557f72a152ddfb8e864297c917af52ea6c1c68aead0fee1a62673fcc7e0c94979d000180546001600160a01b0319169055600080805260976020527f683723e34a772b6e4f2c919bba7fa32ed8ea11a8325f54da7db716e9d9dd98c78190556040516339b2b63360e11b815260989060040190815260408051602092819003830181209390935560e083018152600080845282840181815282518084018452600481526339b2b63360e11b81860152928501928352426001600160401b031660608601526080850182905260a0850182905260c08501829052908052609b835283517f10afac9233b4ccc54d6404ffc1cf3b47515a2b8edbf675d15eddce05a027dcbd90815590517f10afac9233b4ccc54d6404ffc1cf3b47515a2b8edbf675d15eddce05a027dcbe80546001600160a01b0319166001600160a01b03909216919091179055905180518493610e3c927f10afac9233b4ccc54d6404ffc1cf3b47515a2b8edbf675d15eddce05a027dcbf92910190611952565b506060820151600382018054608085015160ff16600160401b0268ffffffffffffffffff199091166001600160401b039093169290921791909117905560a0820151600482015560c0909101516005909101805491151560ff19909216919091179055508015610eb2576000805461ff00191690555b50565b60009182526065602090815260408084206001600160a01b0393909316845291905290205460ff1690565b600080609883604051610ef39190611cb2565b908152602001604051809103902054119050919050565b6000610f1582610ee0565b610f525760405162461bcd60e51b815260206004820152600e60248201526d1b985b59481b9bdd08199bdd5b9960921b60448201526064016104e4565b6099609883604051610f649190611cb2565b90815260200160405180910390205481548110610f8357610f83612087565b6000918252602090912001546001600160a01b031692915050565b6000610fa933610480565b15610fef5760405162461bcd60e51b815260206004820152601660248201527570726f66696c6520616c72656164792065786973747360501b60448201526064016104e4565b610ff883610ee0565b1561103a5760405162461bcd60e51b81526020600482015260126024820152713730b6b29030b63932b0b23c903a30b5b2b760711b60448201526064016104e4565b609a54835160ff90911611156110835760405162461bcd60e51b815260206004820152600e60248201526d1b985b59481d1bdbc81cda1bdc9d60921b60448201526064016104e4565b609a54835161010090910460ff1610156110cf5760405162461bcd60e51b815260206004820152600d60248201526c6e616d6520746f6f206c6f6e6760981b60448201526064016104e4565b60998054600181019091557f72a152ddfb8e864297c917af52ea6c1c68aead0fee1a62673fcc7e0c94979d00810180546001600160a01b0319163390811790915560009081526097602052604090819020829055518190609890611134908790611cb2565b90815260408051602092819003830181209390935560e08301815283835233828401908152838201888152426001600160401b0316606086015260ff88166080860152600060a08601819052600160c08701819052878252609b865293902085518155915192820180546001600160a01b0319166001600160a01b03909416939093179092559051805184936111d1926002850192910190611952565b5060608281015160038301805460808087015160ff16600160401b0268ffffffffffffffffff199092166001600160401b039094169390931717905560a0840151600484015560c0909301516005909201805492151560ff19909316929092179091556020830151604080850151928501519385015190517f72a68484472f11fcd73602564e346c18c3d22b4869842397c7347330035c8a3894611279948894939092611def565b60405180910390a1506001949350505050565b609b6020526000908152604090208054600182015460028301805492936001600160a01b03909216926112be90612036565b80601f01602080910402602001604051908101604052809291908181526020018280546112ea90612036565b80156113375780601f1061130c57610100808354040283529160200191611337565b820191906000526020600020905b81548152906001019060200180831161131a57829003601f168201915b5050506003840154600485015460059095015493946001600160401b0382169460ff600160401b909304831694509092501687565b60006113866000805160206120b483398151915233610eb5565b6113a25760405162461bcd60e51b81526004016104e490611dc8565b6113ab82610ee0565b156113ed5760405162461bcd60e51b81526020600482015260126024820152713730b6b29030b63932b0b23c903a30b5b2b760711b60448201526064016104e4565b609a54825160ff90911611156114365760405162461bcd60e51b815260206004820152600e60248201526d1b985b59481d1bdbc81cda1bdc9d60921b60448201526064016104e4565b609a54825161010090910460ff1610156114825760405162461bcd60e51b815260206004820152600d60248201526c6e616d6520746f6f206c6f6e6760981b60448201526064016104e4565b6000838152609b60205260409020600581015460ff166114d15760405162461bcd60e51b815260206004820152600a6024820152691a5b9d985b1a59081a5960b21b60448201526064016104e4565b836098846040516114e29190611cb2565b9081526020016040518091039020819055506098816002016040516115079190611cce565b90815260200160405180910390206000905582816002019080519060200190611531929190611952565b506001810154600382015460048301546040517f69e29765eee9ce41e5c9e024d867f612cb1a6690a5c5f905201d4c591c423f1e9361076a9389936001600160a01b039092169260028801926001600160401b03831692600160401b900460ff1691611ef7565b6000828152606560205260409020600101546115b481336115e8565b61053583836116d2565b609981815481106115ce57600080fd5b6000918252602090912001546001600160a01b0316905081565b6115f28282610eb5565b6105b45761160a816001600160a01b031660146117b0565b6116158360206117b0565b604051602001611626929190611d40565b60408051601f198184030181529082905262461bcd60e51b82526104e491600401611db5565b6116568282610eb5565b6105b45760008281526065602090815260408083206001600160a01b03851684529091529020805460ff1916600117905561168e3390565b6001600160a01b0316816001600160a01b0316837f2f8788117e7eff1d82e926ec794901d17c78024a50270940304540a733656f0d60405160405180910390a45050565b6116dc8282610eb5565b156105b45760008281526065602090815260408083206001600160a01b0385168085529252808320805460ff1916905551339285917ff6391f5c32d9c69d2a47ea670b442974b53935d1edc7fd64eb21e047a839171b9190a45050565b600054610100900460ff166117a45760405162461bcd60e51b815260206004820152602b60248201527f496e697469616c697a61626c653a20636f6e7472616374206973206e6f74206960448201526a6e697469616c697a696e6760a81b60648201526084016104e4565b565b6105b4828261164c565b606060006117bf836002611fd0565b6117ca906002611fb8565b6001600160401b038111156117e1576117e161209d565b6040519080825280601f01601f19166020018201604052801561180b576020820181803683370190505b509050600360fc1b8160008151811061182657611826612087565b60200101906001600160f81b031916908160001a905350600f60fb1b8160018151811061185557611855612087565b60200101906001600160f81b031916908160001a9053506000611879846002611fd0565b611884906001611fb8565b90505b60018111156118fc576f181899199a1a9b1b9c1cb0b131b232b360811b85600f16601081106118b8576118b8612087565b1a60f81b8282815181106118ce576118ce612087565b60200101906001600160f81b031916908160001a90535060049490941c936118f58161201f565b9050611887565b50831561194b5760405162461bcd60e51b815260206004820181905260248201527f537472696e67733a20686578206c656e67746820696e73756666696369656e7460448201526064016104e4565b9392505050565b82805461195e90612036565b90600052602060002090601f01602090048101928261198057600085556119c6565b82601f1061199957805160ff19168380011785556119c6565b828001600101855582156119c6579182015b828111156119c65782518255916020019190600101906119ab565b506119d29291506119d6565b5090565b5b808211156119d257600081556001016119d7565b80356001600160a01b0381168114611a0257600080fd5b919050565b600082601f830112611a1857600080fd5b81356001600160401b0380821115611a3257611a3261209d565b604051601f8301601f19908116603f01168101908282118183101715611a5a57611a5a61209d565b81604052838152866020858801011115611a7357600080fd5b836020870160208301376000602085830101528094505050505092915050565b803560ff81168114611a0257600080fd5b600060208284031215611ab657600080fd5b61194b826119eb565b60008060408385031215611ad257600080fd5b611adb836119eb565b946020939093013593505050565b600060208284031215611afb57600080fd5b5035919050565b60008060408385031215611b1557600080fd5b82359150611b25602084016119eb565b90509250929050565b600060208284031215611b4057600080fd5b81356001600160e01b03198116811461194b57600080fd5b600060208284031215611b6a57600080fd5b81356001600160401b03811115611b8057600080fd5b611b8c84828501611a07565b949350505050565b60008060408385031215611ba757600080fd5b82356001600160401b03811115611bbd57600080fd5b611bc985828601611a07565b925050611b2560208401611a93565b60008060408385031215611beb57600080fd5b8235915060208301356001600160401b03811115611c0857600080fd5b611c1485828601611a07565b9150509250929050565b60008060408385031215611c3157600080fd5b82359150611b2560208401611a93565b600060208284031215611c5357600080fd5b61194b82611a93565b60008060408385031215611c6f57600080fd5b611c7883611a93565b9150611b2560208401611a93565b60008151808452611c9e816020860160208601611fef565b601f01601f19169290920160200192915050565b60008251611cc4818460208701611fef565b9190910192915050565b6000808354611cdc81612036565b60018281168015611cf45760018114611d0557611d34565b60ff19841687528287019450611d34565b8760005260208060002060005b85811015611d2b5781548a820152908401908201611d12565b50505082870194505b50929695505050505050565b7f416363657373436f6e74726f6c3a206163636f756e7420000000000000000000815260008351611d78816017850160208801611fef565b7001034b99036b4b9b9b4b733903937b6329607d1b6017918401918201528351611da9816028840160208801611fef565b01602801949350505050565b60208152600061194b6020830184611c86565b6020808252600d908201526c1858d8d95cdcc819195b9a5959609a1b604082015260600190565b8581526001600160a01b038516602082015260a060408201819052600090611e1990830186611c86565b90506001600160401b038416606083015260ff831660808301529695505050505050565b8781526001600160a01b038716602082015260e060408201819052600090611e6790830188611c86565b90506001600160401b038616606083015260ff851660808301528360a083015282151560c083015298975050505050505050565b8781526001600160a01b038716602082015260e060408201819052600090611ec590830188611c86565b90506001600160401b038616606083015260ff851660808301528360a08301528260c083015298975050505050505050565b8681526000602060018060a01b0388168184015260c0604084015260008754611f1f81612036565b8060c087015260e0600180841660008114611f415760018114611f5657611f84565b60ff1985168984015261010089019550611f84565b8c6000528660002060005b85811015611f7c5781548b8201860152908301908801611f61565b8a0184019650505b505050506001600160401b0388166060860152509150611fa19050565b60ff93909316608082015260a00152949350505050565b60008219821115611fcb57611fcb612071565b500190565b6000816000190483118215151615611fea57611fea612071565b500290565b60005b8381101561200a578181015183820152602001611ff2565b83811115612019576000848401525b50505050565b60008161202e5761202e612071565b506000190190565b600181811c9082168061204a57607f821691505b6020821081141561206b57634e487b7160e01b600052602260045260246000fd5b50919050565b634e487b7160e01b600052601160045260246000fd5b634e487b7160e01b600052603260045260246000fd5b634e487b7160e01b600052604160045260246000fdfe71f3d55856e4058ed06ee057d79ada615f65cdf5f9ee88181b914225088f834fa264697066735822122085c7432a382d8aa3e433660c010ecc8fbd282e8e03d48287c6a10520aa2f6c3164736f6c63430008060033",
			"opcodes": "PUSH1 0x80 PUSH1 0x40 MSTORE CALLVALUE DUP1 ISZERO PUSH2 0x10 JUMPI PUSH1 0x0 DUP1 REVERT JUMPDEST POP PUSH2 0x2109 DUP1 PUSH2 0x20 PUSH1 0x0 CODECOPY PUSH1 0x0 RETURN INVALID PUSH1 0x80 PUSH1 0x40 MSTORE CALLVALUE DUP1 ISZERO PUSH2 0x10 JUMPI PUSH1 0x0 DUP1 REVERT JUMPDEST POP PUSH1 0x4 CALLDATASIZE LT PUSH2 0x1A9 JUMPI PUSH1 0x0 CALLDATALOAD PUSH1 0xE0 SHR DUP1 PUSH4 0x8129FC1C GT PUSH2 0xF9 JUMPI DUP1 PUSH4 0xC1481626 GT PUSH2 0x97 JUMPI DUP1 PUSH4 0xCB735807 GT PUSH2 0x71 JUMPI DUP1 PUSH4 0xCB735807 EQ PUSH2 0x3DC JUMPI DUP1 PUSH4 0xD547741F EQ PUSH2 0x403 JUMPI DUP1 PUSH4 0xEDF26D9B EQ PUSH2 0x416 JUMPI DUP1 PUSH4 0xF667E0AA EQ PUSH2 0x429 JUMPI PUSH1 0x0 DUP1 REVERT JUMPDEST DUP1 PUSH4 0xC1481626 EQ PUSH2 0x378 JUMPI DUP1 PUSH4 0xC36FE3D6 EQ PUSH2 0x3A3 JUMPI DUP1 PUSH4 0xC39CBEF1 EQ PUSH2 0x3C9 JUMPI PUSH1 0x0 DUP1 REVERT JUMPDEST DUP1 PUSH4 0x9799B4E7 GT PUSH2 0xD3 JUMPI DUP1 PUSH4 0x9799B4E7 EQ PUSH2 0x312 JUMPI DUP1 PUSH4 0x9A65DDEC EQ PUSH2 0x332 JUMPI DUP1 PUSH4 0xA217FDDF EQ PUSH2 0x35D JUMPI DUP1 PUSH4 0xBD3EAA6F EQ PUSH2 0x365 JUMPI PUSH1 0x0 DUP1 REVERT JUMPDEST DUP1 PUSH4 0x8129FC1C EQ PUSH2 0x2E4 JUMPI DUP1 PUSH4 0x91D14854 EQ PUSH2 0x2EC JUMPI DUP1 PUSH4 0x91FC437E EQ PUSH2 0x2FF JUMPI PUSH1 0x0 DUP1 REVERT JUMPDEST DUP1 PUSH4 0x3697611A GT PUSH2 0x166 JUMPI DUP1 PUSH4 0x4CD6959C GT PUSH2 0x140 JUMPI DUP1 PUSH4 0x4CD6959C EQ PUSH2 0x283 JUMPI DUP1 PUSH4 0x507CD30F EQ PUSH2 0x2A9 JUMPI DUP1 PUSH4 0x797669C9 EQ PUSH2 0x2BC JUMPI DUP1 PUSH4 0x7D6DF699 EQ PUSH2 0x2D1 JUMPI PUSH1 0x0 DUP1 REVERT JUMPDEST DUP1 PUSH4 0x3697611A EQ PUSH2 0x255 JUMPI DUP1 PUSH4 0x393BCA2D EQ PUSH2 0x25D JUMPI DUP1 PUSH4 0x3F5DF246 EQ PUSH2 0x270 JUMPI PUSH1 0x0 DUP1 REVERT JUMPDEST DUP1 PUSH4 0x1FFC9A7 EQ PUSH2 0x1AE JUMPI DUP1 PUSH4 0x5CFA06F EQ PUSH2 0x1D6 JUMPI DUP1 PUSH4 0x21319C49 EQ PUSH2 0x1E9 JUMPI DUP1 PUSH4 0x248A9CA3 EQ PUSH2 0x1FC JUMPI DUP1 PUSH4 0x2F2FF15D EQ PUSH2 0x22D JUMPI DUP1 PUSH4 0x36568ABE EQ PUSH2 0x242 JUMPI JUMPDEST PUSH1 0x0 DUP1 REVERT JUMPDEST PUSH2 0x1C1 PUSH2 0x1BC CALLDATASIZE PUSH1 0x4 PUSH2 0x1B2E JUMP JUMPDEST PUSH2 0x449 JUMP JUMPDEST PUSH1 0x40 MLOAD SWAP1 ISZERO ISZERO DUP2 MSTORE PUSH1 0x20 ADD JUMPDEST PUSH1 0x40 MLOAD DUP1 SWAP2 SUB SWAP1 RETURN JUMPDEST PUSH2 0x1C1 PUSH2 0x1E4 CALLDATASIZE PUSH1 0x4 PUSH2 0x1AA4 JUMP JUMPDEST PUSH2 0x480 JUMP JUMPDEST PUSH2 0x1C1 PUSH2 0x1F7 CALLDATASIZE PUSH1 0x4 PUSH2 0x1C41 JUMP JUMPDEST PUSH2 0x4AE JUMP JUMPDEST PUSH2 0x21F PUSH2 0x20A CALLDATASIZE PUSH1 0x4 PUSH2 0x1AE9 JUMP JUMPDEST PUSH1 0x0 SWAP1 DUP2 MSTORE PUSH1 0x65 PUSH1 0x20 MSTORE PUSH1 0x40 SWAP1 KECCAK256 PUSH1 0x1 ADD SLOAD SWAP1 JUMP JUMPDEST PUSH1 0x40 MLOAD SWAP1 DUP2 MSTORE PUSH1 0x20 ADD PUSH2 0x1CD JUMP JUMPDEST PUSH2 0x240 PUSH2 0x23B CALLDATASIZE PUSH1 0x4 PUSH2 0x1B02 JUMP JUMPDEST PUSH2 0x50F JUMP JUMPDEST STOP JUMPDEST PUSH2 0x240 PUSH2 0x250 CALLDATASIZE PUSH1 0x4 PUSH2 0x1B02 JUMP JUMPDEST PUSH2 0x53A JUMP JUMPDEST PUSH1 0x99 SLOAD PUSH2 0x21F JUMP JUMPDEST PUSH2 0x1C1 PUSH2 0x26B CALLDATASIZE PUSH1 0x4 PUSH2 0x1C5C JUMP JUMPDEST PUSH2 0x5B8 JUMP JUMPDEST PUSH2 0x1C1 PUSH2 0x27E CALLDATASIZE PUSH1 0x4 PUSH2 0x1C1E JUMP JUMPDEST PUSH2 0x612 JUMP JUMPDEST PUSH2 0x296 PUSH2 0x291 CALLDATASIZE PUSH1 0x4 PUSH2 0x1AA4 JUMP JUMPDEST PUSH2 0x77C JUMP JUMPDEST PUSH1 0x40 MLOAD PUSH2 0x1CD SWAP8 SWAP7 SWAP6 SWAP5 SWAP4 SWAP3 SWAP2 SWAP1 PUSH2 0x1E9B JUMP JUMPDEST PUSH2 0x1C1 PUSH2 0x2B7 CALLDATASIZE PUSH1 0x4 PUSH2 0x1ABF JUMP JUMPDEST PUSH2 0x933 JUMP JUMPDEST PUSH2 0x21F PUSH1 0x0 DUP1 MLOAD PUSH1 0x20 PUSH2 0x20B4 DUP4 CODECOPY DUP2 MLOAD SWAP2 MSTORE DUP2 JUMP JUMPDEST PUSH2 0x296 PUSH2 0x2DF CALLDATASIZE PUSH1 0x4 PUSH2 0x1B58 JUMP JUMPDEST PUSH2 0xB18 JUMP JUMPDEST PUSH2 0x240 PUSH2 0xBF0 JUMP JUMPDEST PUSH2 0x1C1 PUSH2 0x2FA CALLDATASIZE PUSH1 0x4 PUSH2 0x1B02 JUMP JUMPDEST PUSH2 0xEB5 JUMP JUMPDEST PUSH2 0x1C1 PUSH2 0x30D CALLDATASIZE PUSH1 0x4 PUSH2 0x1B58 JUMP JUMPDEST PUSH2 0xEE0 JUMP JUMPDEST PUSH2 0x21F PUSH2 0x320 CALLDATASIZE PUSH1 0x4 PUSH2 0x1AE9 JUMP JUMPDEST PUSH1 0x9C PUSH1 0x20 MSTORE PUSH1 0x0 SWAP1 DUP2 MSTORE PUSH1 0x40 SWAP1 KECCAK256 SLOAD DUP2 JUMP JUMPDEST PUSH2 0x345 PUSH2 0x340 CALLDATASIZE PUSH1 0x4 PUSH2 0x1B58 JUMP JUMPDEST PUSH2 0xF0A JUMP JUMPDEST PUSH1 0x40 MLOAD PUSH1 0x1 PUSH1 0x1 PUSH1 0xA0 SHL SUB SWAP1 SWAP2 AND DUP2 MSTORE PUSH1 0x20 ADD PUSH2 0x1CD JUMP JUMPDEST PUSH2 0x21F PUSH1 0x0 DUP2 JUMP JUMPDEST PUSH2 0x1C1 PUSH2 0x373 CALLDATASIZE PUSH1 0x4 PUSH2 0x1B94 JUMP JUMPDEST PUSH2 0xF9E JUMP JUMPDEST PUSH2 0x21F PUSH2 0x386 CALLDATASIZE PUSH1 0x4 PUSH2 0x1B58 JUMP JUMPDEST DUP1 MLOAD PUSH1 0x20 DUP2 DUP4 ADD DUP2 ADD DUP1 MLOAD PUSH1 0x98 DUP3 MSTORE SWAP3 DUP3 ADD SWAP2 SWAP1 SWAP4 ADD KECCAK256 SWAP2 MSTORE SLOAD DUP2 JUMP JUMPDEST PUSH2 0x3B6 PUSH2 0x3B1 CALLDATASIZE PUSH1 0x4 PUSH2 0x1AE9 JUMP JUMPDEST PUSH2 0x128C JUMP JUMPDEST PUSH1 0x40 MLOAD PUSH2 0x1CD SWAP8 SWAP7 SWAP6 SWAP5 SWAP4 SWAP3 SWAP2 SWAP1 PUSH2 0x1E3D JUMP JUMPDEST PUSH2 0x1C1 PUSH2 0x3D7 CALLDATASIZE PUSH1 0x4 PUSH2 0x1BD8 JUMP JUMPDEST PUSH2 0x136C JUMP JUMPDEST PUSH2 0x21F PUSH32 0x74D40A305A8A90AF8F1A910F983406ED04849C36B2BC8143F091437B95CBB12 DUP2 JUMP JUMPDEST PUSH2 0x240 PUSH2 0x411 CALLDATASIZE PUSH1 0x4 PUSH2 0x1B02 JUMP JUMPDEST PUSH2 0x1598 JUMP JUMPDEST PUSH2 0x345 PUSH2 0x424 CALLDATASIZE PUSH1 0x4 PUSH2 0x1AE9 JUMP JUMPDEST PUSH2 0x15BE JUMP JUMPDEST PUSH2 0x21F PUSH2 0x437 CALLDATASIZE PUSH1 0x4 PUSH2 0x1AA4 JUMP JUMPDEST PUSH1 0x97 PUSH1 0x20 MSTORE PUSH1 0x0 SWAP1 DUP2 MSTORE PUSH1 0x40 SWAP1 KECCAK256 SLOAD DUP2 JUMP JUMPDEST PUSH1 0x0 PUSH1 0x1 PUSH1 0x1 PUSH1 0xE0 SHL SUB NOT DUP3 AND PUSH4 0x7965DB0B PUSH1 0xE0 SHL EQ DUP1 PUSH2 0x47A JUMPI POP PUSH4 0x1FFC9A7 PUSH1 0xE0 SHL PUSH1 0x1 PUSH1 0x1 PUSH1 0xE0 SHL SUB NOT DUP4 AND EQ JUMPDEST SWAP3 SWAP2 POP POP JUMP JUMPDEST PUSH1 0x1 PUSH1 0x1 PUSH1 0xA0 SHL SUB AND PUSH1 0x0 SWAP1 DUP2 MSTORE PUSH1 0x97 PUSH1 0x20 SWAP1 DUP2 MSTORE PUSH1 0x40 DUP1 DUP4 KECCAK256 SLOAD DUP4 MSTORE PUSH1 0x9B SWAP1 SWAP2 MSTORE SWAP1 KECCAK256 PUSH1 0x5 ADD SLOAD PUSH1 0xFF AND SWAP1 JUMP JUMPDEST PUSH1 0x0 PUSH2 0x4C8 PUSH1 0x0 DUP1 MLOAD PUSH1 0x20 PUSH2 0x20B4 DUP4 CODECOPY DUP2 MLOAD SWAP2 MSTORE CALLER PUSH2 0xEB5 JUMP JUMPDEST PUSH2 0x4ED JUMPI PUSH1 0x40 MLOAD PUSH3 0x461BCD PUSH1 0xE5 SHL DUP2 MSTORE PUSH1 0x4 ADD PUSH2 0x4E4 SWAP1 PUSH2 0x1DC8 JUMP JUMPDEST PUSH1 0x40 MLOAD DUP1 SWAP2 SUB SWAP1 REVERT JUMPDEST POP PUSH1 0x9A DUP1 SLOAD PUSH1 0xFF SWAP1 SWAP3 AND PUSH3 0x10000 MUL PUSH3 0xFF0000 NOT SWAP1 SWAP3 AND SWAP2 SWAP1 SWAP2 OR SWAP1 SSTORE PUSH1 0x1 SWAP1 JUMP JUMPDEST PUSH1 0x0 DUP3 DUP2 MSTORE PUSH1 0x65 PUSH1 0x20 MSTORE PUSH1 0x40 SWAP1 KECCAK256 PUSH1 0x1 ADD SLOAD PUSH2 0x52B DUP2 CALLER PUSH2 0x15E8 JUMP JUMPDEST PUSH2 0x535 DUP4 DUP4 PUSH2 0x164C JUMP JUMPDEST POP POP POP JUMP JUMPDEST PUSH1 0x1 PUSH1 0x1 PUSH1 0xA0 SHL SUB DUP2 AND CALLER EQ PUSH2 0x5AA JUMPI PUSH1 0x40 MLOAD PUSH3 0x461BCD PUSH1 0xE5 SHL DUP2 MSTORE PUSH1 0x20 PUSH1 0x4 DUP3 ADD MSTORE PUSH1 0x2F PUSH1 0x24 DUP3 ADD MSTORE PUSH32 0x416363657373436F6E74726F6C3A2063616E206F6E6C792072656E6F756E6365 PUSH1 0x44 DUP3 ADD MSTORE PUSH15 0x103937B632B9903337B91039B2B633 PUSH1 0x89 SHL PUSH1 0x64 DUP3 ADD MSTORE PUSH1 0x84 ADD PUSH2 0x4E4 JUMP JUMPDEST PUSH2 0x5B4 DUP3 DUP3 PUSH2 0x16D2 JUMP JUMPDEST POP POP JUMP JUMPDEST PUSH1 0x0 PUSH2 0x5D2 PUSH1 0x0 DUP1 MLOAD PUSH1 0x20 PUSH2 0x20B4 DUP4 CODECOPY DUP2 MLOAD SWAP2 MSTORE CALLER PUSH2 0xEB5 JUMP JUMPDEST PUSH2 0x5EE JUMPI PUSH1 0x40 MLOAD PUSH3 0x461BCD PUSH1 0xE5 SHL DUP2 MSTORE PUSH1 0x4 ADD PUSH2 0x4E4 SWAP1 PUSH2 0x1DC8 JUMP JUMPDEST POP PUSH1 0x9A DUP1 SLOAD PUSH1 0xFF DUP4 DUP2 AND PUSH2 0x100 MUL PUSH2 0xFFFF NOT SWAP1 SWAP3 AND SWAP1 DUP6 AND OR OR SWAP1 SSTORE PUSH1 0x1 SWAP3 SWAP2 POP POP JUMP JUMPDEST PUSH1 0x9A SLOAD PUSH1 0x0 SWAP1 PUSH1 0xFF PUSH3 0x10000 SWAP1 SWAP2 DIV DUP2 AND SWAP1 DUP4 AND LT PUSH2 0x667 JUMPI PUSH1 0x40 MLOAD PUSH3 0x461BCD PUSH1 0xE5 SHL DUP2 MSTORE PUSH1 0x20 PUSH1 0x4 DUP3 ADD MSTORE PUSH1 0x11 PUSH1 0x24 DUP3 ADD MSTORE PUSH17 0x706963206F7574206F6620626F756E6473 PUSH1 0x78 SHL PUSH1 0x44 DUP3 ADD MSTORE PUSH1 0x64 ADD PUSH2 0x4E4 JUMP JUMPDEST PUSH1 0x0 DUP4 DUP2 MSTORE PUSH1 0x9B PUSH1 0x20 MSTORE PUSH1 0x40 SWAP1 KECCAK256 PUSH1 0x5 DUP2 ADD SLOAD PUSH1 0xFF AND PUSH2 0x6B6 JUMPI PUSH1 0x40 MLOAD PUSH3 0x461BCD PUSH1 0xE5 SHL DUP2 MSTORE PUSH1 0x20 PUSH1 0x4 DUP3 ADD MSTORE PUSH1 0xA PUSH1 0x24 DUP3 ADD MSTORE PUSH10 0x1A5B9D985B1A59081A59 PUSH1 0xB2 SHL PUSH1 0x44 DUP3 ADD MSTORE PUSH1 0x64 ADD PUSH2 0x4E4 JUMP JUMPDEST PUSH1 0x1 DUP2 ADD SLOAD PUSH1 0x1 PUSH1 0x1 PUSH1 0xA0 SHL SUB AND CALLER EQ PUSH2 0x6E2 JUMPI PUSH1 0x40 MLOAD PUSH3 0x461BCD PUSH1 0xE5 SHL DUP2 MSTORE PUSH1 0x4 ADD PUSH2 0x4E4 SWAP1 PUSH2 0x1DC8 JUMP JUMPDEST PUSH1 0x3 DUP2 ADD DUP1 SLOAD PUSH1 0xFF DUP1 DUP7 AND PUSH1 0x1 PUSH1 0x40 SHL SWAP1 DUP2 MUL PUSH9 0xFF0000000000000000 NOT DUP5 AND DUP2 OR SWAP5 DUP6 SWAP1 SSTORE PUSH1 0x1 DUP7 ADD SLOAD PUSH1 0x4 DUP8 ADD SLOAD PUSH1 0x40 MLOAD PUSH32 0x69E29765EEE9CE41E5C9E024D867F612CB1A6690A5C5F905201D4C591C423F1E SWAP8 PUSH2 0x76A SWAP8 DUP14 SWAP8 PUSH1 0x1 PUSH1 0x1 PUSH1 0xA0 SHL SUB SWAP1 SWAP6 AND SWAP7 PUSH1 0x2 DUP13 ADD SWAP7 PUSH1 0x1 PUSH1 0x1 PUSH1 0x40 SHL SUB SWAP1 DUP2 AND SWAP3 AND SWAP2 SWAP1 SWAP2 OR SWAP5 SWAP2 DIV AND SWAP2 SWAP1 PUSH2 0x1EF7 JUMP JUMPDEST PUSH1 0x40 MLOAD DUP1 SWAP2 SUB SWAP1 LOG1 POP PUSH1 0x1 SWAP4 SWAP3 POP POP POP JUMP JUMPDEST PUSH1 0x0 DUP1 PUSH1 0x60 PUSH1 0x0 DUP1 PUSH1 0x0 DUP1 PUSH2 0x790 DUP9 PUSH2 0x480 JUMP JUMPDEST PUSH2 0x7CF JUMPI PUSH1 0x40 MLOAD PUSH3 0x461BCD PUSH1 0xE5 SHL DUP2 MSTORE PUSH1 0x20 PUSH1 0x4 DUP3 ADD MSTORE PUSH1 0x10 PUSH1 0x24 DUP3 ADD MSTORE PUSH16 0x1B9BC81C1C9BD99A5B1948199BDD5B99 PUSH1 0x82 SHL PUSH1 0x44 DUP3 ADD MSTORE PUSH1 0x64 ADD PUSH2 0x4E4 JUMP JUMPDEST PUSH1 0x1 PUSH1 0x1 PUSH1 0xA0 SHL SUB DUP1 DUP10 AND PUSH1 0x0 SWAP1 DUP2 MSTORE PUSH1 0x97 PUSH1 0x20 SWAP1 DUP2 MSTORE PUSH1 0x40 DUP1 DUP4 KECCAK256 SLOAD DUP4 MSTORE PUSH1 0x9B DUP3 MSTORE DUP1 DUP4 KECCAK256 DUP2 MLOAD PUSH1 0xE0 DUP2 ADD DUP4 MSTORE DUP2 SLOAD DUP2 MSTORE PUSH1 0x1 DUP3 ADD SLOAD SWAP1 SWAP6 AND SWAP3 DUP6 ADD SWAP3 SWAP1 SWAP3 MSTORE PUSH1 0x2 DUP3 ADD DUP1 SLOAD SWAP4 SWAP5 SWAP4 SWAP2 DUP5 ADD SWAP2 PUSH2 0x826 SWAP1 PUSH2 0x2036 JUMP JUMPDEST DUP1 PUSH1 0x1F ADD PUSH1 0x20 DUP1 SWAP2 DIV MUL PUSH1 0x20 ADD PUSH1 0x40 MLOAD SWAP1 DUP2 ADD PUSH1 0x40 MSTORE DUP1 SWAP3 SWAP2 SWAP1 DUP2 DUP2 MSTORE PUSH1 0x20 ADD DUP3 DUP1 SLOAD PUSH2 0x852 SWAP1 PUSH2 0x2036 JUMP JUMPDEST DUP1 ISZERO PUSH2 0x89F JUMPI DUP1 PUSH1 0x1F LT PUSH2 0x874 JUMPI PUSH2 0x100 DUP1 DUP4 SLOAD DIV MUL DUP4 MSTORE SWAP2 PUSH1 0x20 ADD SWAP2 PUSH2 0x89F JUMP JUMPDEST DUP3 ADD SWAP2 SWAP1 PUSH1 0x0 MSTORE PUSH1 0x20 PUSH1 0x0 KECCAK256 SWAP1 JUMPDEST DUP2 SLOAD DUP2 MSTORE SWAP1 PUSH1 0x1 ADD SWAP1 PUSH1 0x20 ADD DUP1 DUP4 GT PUSH2 0x882 JUMPI DUP3 SWAP1 SUB PUSH1 0x1F AND DUP3 ADD SWAP2 JUMPDEST POP POP POP SWAP2 DUP4 MSTORE POP POP PUSH1 0x3 DUP3 ADD SLOAD PUSH1 0x1 PUSH1 0x1 PUSH1 0x40 SHL SUB DUP2 AND PUSH1 0x20 DUP1 DUP5 ADD SWAP2 SWAP1 SWAP2 MSTORE PUSH1 0x1 PUSH1 0x40 SHL SWAP1 SWAP2 DIV PUSH1 0xFF SWAP1 DUP2 AND PUSH1 0x40 DUP1 DUP6 ADD SWAP2 SWAP1 SWAP2 MSTORE PUSH1 0x4 DUP6 ADD SLOAD PUSH1 0x60 DUP1 DUP7 ADD SWAP2 SWAP1 SWAP2 MSTORE PUSH1 0x5 SWAP1 SWAP6 ADD SLOAD SWAP1 SWAP2 AND ISZERO ISZERO PUSH1 0x80 SWAP4 DUP5 ADD MSTORE DUP5 MLOAD DUP6 DUP4 ADD MLOAD DUP7 DUP4 ADD MLOAD SWAP6 DUP8 ADD MLOAD SWAP5 DUP8 ADD MLOAD PUSH1 0xA0 SWAP1 SWAP8 ADD MLOAD PUSH1 0x0 DUP4 DUP2 MSTORE PUSH1 0x9C SWAP1 SWAP6 MSTORE SWAP3 SWAP1 SWAP4 KECCAK256 SLOAD SWAP1 SWAP16 SWAP3 SWAP15 POP SWAP4 SWAP13 POP SWAP2 SWAP11 POP SWAP3 SWAP9 POP SWAP7 POP SWAP5 POP SWAP3 POP POP POP JUMP JUMPDEST PUSH1 0x0 PUSH2 0x95F PUSH32 0x74D40A305A8A90AF8F1A910F983406ED04849C36B2BC8143F091437B95CBB12 CALLER PUSH2 0xEB5 JUMP JUMPDEST PUSH2 0x97B JUMPI PUSH1 0x40 MLOAD PUSH3 0x461BCD PUSH1 0xE5 SHL DUP2 MSTORE PUSH1 0x4 ADD PUSH2 0x4E4 SWAP1 PUSH2 0x1DC8 JUMP JUMPDEST PUSH2 0x984 DUP4 PUSH2 0x480 JUMP JUMPDEST PUSH2 0x9C3 JUMPI PUSH1 0x40 MLOAD PUSH3 0x461BCD PUSH1 0xE5 SHL DUP2 MSTORE PUSH1 0x20 PUSH1 0x4 DUP3 ADD MSTORE PUSH1 0x10 PUSH1 0x24 DUP3 ADD MSTORE PUSH16 0x1B9BC81C1C9BD99A5B1948199BDD5B99 PUSH1 0x82 SHL PUSH1 0x44 DUP3 ADD MSTORE PUSH1 0x64 ADD PUSH2 0x4E4 JUMP JUMPDEST PUSH1 0x1 PUSH1 0x1 PUSH1 0xA0 SHL SUB DUP1 DUP5 AND PUSH1 0x0 SWAP1 DUP2 MSTORE PUSH1 0x97 PUSH1 0x20 SWAP1 DUP2 MSTORE PUSH1 0x40 DUP1 DUP4 KECCAK256 SLOAD DUP4 MSTORE PUSH1 0x9B DUP3 MSTORE DUP1 DUP4 KECCAK256 DUP2 MLOAD PUSH1 0xE0 DUP2 ADD DUP4 MSTORE DUP2 SLOAD DUP2 MSTORE PUSH1 0x1 DUP3 ADD SLOAD SWAP1 SWAP6 AND SWAP3 DUP6 ADD SWAP3 SWAP1 SWAP3 MSTORE PUSH1 0x2 DUP3 ADD DUP1 SLOAD SWAP4 SWAP5 SWAP4 SWAP2 DUP5 ADD SWAP2 PUSH2 0xA1A SWAP1 PUSH2 0x2036 JUMP JUMPDEST DUP1 PUSH1 0x1F ADD PUSH1 0x20 DUP1 SWAP2 DIV MUL PUSH1 0x20 ADD PUSH1 0x40 MLOAD SWAP1 DUP2 ADD PUSH1 0x40 MSTORE DUP1 SWAP3 SWAP2 SWAP1 DUP2 DUP2 MSTORE PUSH1 0x20 ADD DUP3 DUP1 SLOAD PUSH2 0xA46 SWAP1 PUSH2 0x2036 JUMP JUMPDEST DUP1 ISZERO PUSH2 0xA93 JUMPI DUP1 PUSH1 0x1F LT PUSH2 0xA68 JUMPI PUSH2 0x100 DUP1 DUP4 SLOAD DIV MUL DUP4 MSTORE SWAP2 PUSH1 0x20 ADD SWAP2 PUSH2 0xA93 JUMP JUMPDEST DUP3 ADD SWAP2 SWAP1 PUSH1 0x0 MSTORE PUSH1 0x20 PUSH1 0x0 KECCAK256 SWAP1 JUMPDEST DUP2 SLOAD DUP2 MSTORE SWAP1 PUSH1 0x1 ADD SWAP1 PUSH1 0x20 ADD DUP1 DUP4 GT PUSH2 0xA76 JUMPI DUP3 SWAP1 SUB PUSH1 0x1F AND DUP3 ADD SWAP2 JUMPDEST POP POP POP SWAP2 DUP4 MSTORE POP POP PUSH1 0x3 DUP3 ADD SLOAD PUSH1 0x1 PUSH1 0x1 PUSH1 0x40 SHL SUB DUP2 AND PUSH1 0x20 DUP1 DUP5 ADD SWAP2 SWAP1 SWAP2 MSTORE PUSH1 0x1 PUSH1 0x40 SHL SWAP1 SWAP2 DIV PUSH1 0xFF SWAP1 DUP2 AND PUSH1 0x40 DUP1 DUP6 ADD SWAP2 SWAP1 SWAP2 MSTORE PUSH1 0x4 DUP6 ADD SLOAD PUSH1 0x60 DUP6 ADD MSTORE PUSH1 0x5 SWAP1 SWAP5 ADD SLOAD AND ISZERO ISZERO PUSH1 0x80 SWAP1 SWAP3 ADD SWAP2 SWAP1 SWAP2 MSTORE DUP3 MLOAD PUSH1 0x0 SWAP1 DUP2 MSTORE PUSH1 0x9C SWAP1 SWAP2 MSTORE SWAP1 DUP2 KECCAK256 DUP1 SLOAD SWAP3 SWAP4 POP DUP6 SWAP3 SWAP1 SWAP2 SWAP1 PUSH2 0xB09 SWAP1 DUP5 SWAP1 PUSH2 0x1FB8 JUMP JUMPDEST SWAP1 SWAP2 SSTORE POP PUSH1 0x1 SWAP6 SWAP5 POP POP POP POP POP JUMP JUMPDEST PUSH1 0x0 DUP1 PUSH1 0x60 PUSH1 0x0 DUP1 PUSH1 0x0 DUP1 PUSH2 0xB2C DUP9 PUSH2 0xEE0 JUMP JUMPDEST PUSH2 0xB69 JUMPI PUSH1 0x40 MLOAD PUSH3 0x461BCD PUSH1 0xE5 SHL DUP2 MSTORE PUSH1 0x20 PUSH1 0x4 DUP3 ADD MSTORE PUSH1 0xE PUSH1 0x24 DUP3 ADD MSTORE PUSH14 0x1B985B59481B9BDD08199BDD5B99 PUSH1 0x92 SHL PUSH1 0x44 DUP3 ADD MSTORE PUSH1 0x64 ADD PUSH2 0x4E4 JUMP JUMPDEST PUSH1 0x0 PUSH1 0x9B PUSH1 0x0 PUSH1 0x98 DUP12 PUSH1 0x40 MLOAD PUSH2 0xB7F SWAP2 SWAP1 PUSH2 0x1CB2 JUMP JUMPDEST SWAP1 DUP2 MSTORE PUSH1 0x20 ADD PUSH1 0x40 MLOAD DUP1 SWAP2 SUB SWAP1 KECCAK256 SLOAD DUP2 MSTORE PUSH1 0x20 ADD SWAP1 DUP2 MSTORE PUSH1 0x20 ADD PUSH1 0x0 KECCAK256 PUSH1 0x40 MLOAD DUP1 PUSH1 0xE0 ADD PUSH1 0x40 MSTORE SWAP1 DUP2 PUSH1 0x0 DUP3 ADD SLOAD DUP2 MSTORE PUSH1 0x20 ADD PUSH1 0x1 DUP3 ADD PUSH1 0x0 SWAP1 SLOAD SWAP1 PUSH2 0x100 EXP SWAP1 DIV PUSH1 0x1 PUSH1 0x1 PUSH1 0xA0 SHL SUB AND PUSH1 0x1 PUSH1 0x1 PUSH1 0xA0 SHL SUB AND PUSH1 0x1 PUSH1 0x1 PUSH1 0xA0 SHL SUB AND DUP2 MSTORE PUSH1 0x20 ADD PUSH1 0x2 DUP3 ADD DUP1 SLOAD PUSH2 0x826 SWAP1 PUSH2 0x2036 JUMP JUMPDEST PUSH1 0x0 SLOAD PUSH2 0x100 SWAP1 DIV PUSH1 0xFF AND PUSH2 0xC0B JUMPI PUSH1 0x0 SLOAD PUSH1 0xFF AND ISZERO PUSH2 0xC0F JUMP JUMPDEST ADDRESS EXTCODESIZE ISZERO JUMPDEST PUSH2 0xC72 JUMPI PUSH1 0x40 MLOAD PUSH3 0x461BCD PUSH1 0xE5 SHL DUP2 MSTORE PUSH1 0x20 PUSH1 0x4 DUP3 ADD MSTORE PUSH1 0x2E PUSH1 0x24 DUP3 ADD MSTORE PUSH32 0x496E697469616C697A61626C653A20636F6E747261637420697320616C726561 PUSH1 0x44 DUP3 ADD MSTORE PUSH14 0x191E481A5B9A5D1A585B1A5E9959 PUSH1 0x92 SHL PUSH1 0x64 DUP3 ADD MSTORE PUSH1 0x84 ADD PUSH2 0x4E4 JUMP JUMPDEST PUSH1 0x0 SLOAD PUSH2 0x100 SWAP1 DIV PUSH1 0xFF AND ISZERO DUP1 ISZERO PUSH2 0xC94 JUMPI PUSH1 0x0 DUP1 SLOAD PUSH2 0xFFFF NOT AND PUSH2 0x101 OR SWAP1 SSTORE JUMPDEST PUSH2 0xC9C PUSH2 0x1739 JUMP JUMPDEST PUSH2 0xCA7 PUSH1 0x0 CALLER PUSH2 0x17A6 JUMP JUMPDEST PUSH1 0x9A DUP1 SLOAD PUSH3 0xFFFFFF NOT AND PUSH3 0xF1003 OR SWAP1 SSTORE PUSH1 0x99 DUP1 SLOAD PUSH1 0x1 DUP2 ADD SWAP1 SWAP2 SSTORE PUSH32 0x72A152DDFB8E864297C917AF52EA6C1C68AEAD0FEE1A62673FCC7E0C94979D00 ADD DUP1 SLOAD PUSH1 0x1 PUSH1 0x1 PUSH1 0xA0 SHL SUB NOT AND SWAP1 SSTORE PUSH1 0x0 DUP1 DUP1 MSTORE PUSH1 0x97 PUSH1 0x20 MSTORE PUSH32 0x683723E34A772B6E4F2C919BBA7FA32ED8EA11A8325F54DA7DB716E9D9DD98C7 DUP2 SWAP1 SSTORE PUSH1 0x40 MLOAD PUSH4 0x39B2B633 PUSH1 0xE1 SHL DUP2 MSTORE PUSH1 0x98 SWAP1 PUSH1 0x4 ADD SWAP1 DUP2 MSTORE PUSH1 0x40 DUP1 MLOAD PUSH1 0x20 SWAP3 DUP2 SWAP1 SUB DUP4 ADD DUP2 KECCAK256 SWAP4 SWAP1 SWAP4 SSTORE PUSH1 0xE0 DUP4 ADD DUP2 MSTORE PUSH1 0x0 DUP1 DUP5 MSTORE DUP3 DUP5 ADD DUP2 DUP2 MSTORE DUP3 MLOAD DUP1 DUP5 ADD DUP5 MSTORE PUSH1 0x4 DUP2 MSTORE PUSH4 0x39B2B633 PUSH1 0xE1 SHL DUP2 DUP7 ADD MSTORE SWAP3 DUP6 ADD SWAP3 DUP4 MSTORE TIMESTAMP PUSH1 0x1 PUSH1 0x1 PUSH1 0x40 SHL SUB AND PUSH1 0x60 DUP7 ADD MSTORE PUSH1 0x80 DUP6 ADD DUP3 SWAP1 MSTORE PUSH1 0xA0 DUP6 ADD DUP3 SWAP1 MSTORE PUSH1 0xC0 DUP6 ADD DUP3 SWAP1 MSTORE SWAP1 DUP1 MSTORE PUSH1 0x9B DUP4 MSTORE DUP4 MLOAD PUSH32 0x10AFAC9233B4CCC54D6404FFC1CF3B47515A2B8EDBF675D15EDDCE05A027DCBD SWAP1 DUP2 SSTORE SWAP1 MLOAD PUSH32 0x10AFAC9233B4CCC54D6404FFC1CF3B47515A2B8EDBF675D15EDDCE05A027DCBE DUP1 SLOAD PUSH1 0x1 PUSH1 0x1 PUSH1 0xA0 SHL SUB NOT AND PUSH1 0x1 PUSH1 0x1 PUSH1 0xA0 SHL SUB SWAP1 SWAP3 AND SWAP2 SWAP1 SWAP2 OR SWAP1 SSTORE SWAP1 MLOAD DUP1 MLOAD DUP5 SWAP4 PUSH2 0xE3C SWAP3 PUSH32 0x10AFAC9233B4CCC54D6404FFC1CF3B47515A2B8EDBF675D15EDDCE05A027DCBF SWAP3 SWAP2 ADD SWAP1 PUSH2 0x1952 JUMP JUMPDEST POP PUSH1 0x60 DUP3 ADD MLOAD PUSH1 0x3 DUP3 ADD DUP1 SLOAD PUSH1 0x80 DUP6 ADD MLOAD PUSH1 0xFF AND PUSH1 0x1 PUSH1 0x40 SHL MUL PUSH9 0xFFFFFFFFFFFFFFFFFF NOT SWAP1 SWAP2 AND PUSH1 0x1 PUSH1 0x1 PUSH1 0x40 SHL SUB SWAP1 SWAP4 AND SWAP3 SWAP1 SWAP3 OR SWAP2 SWAP1 SWAP2 OR SWAP1 SSTORE PUSH1 0xA0 DUP3 ADD MLOAD PUSH1 0x4 DUP3 ADD SSTORE PUSH1 0xC0 SWAP1 SWAP2 ADD MLOAD PUSH1 0x5 SWAP1 SWAP2 ADD DUP1 SLOAD SWAP2 ISZERO ISZERO PUSH1 0xFF NOT SWAP1 SWAP3 AND SWAP2 SWAP1 SWAP2 OR SWAP1 SSTORE POP DUP1 ISZERO PUSH2 0xEB2 JUMPI PUSH1 0x0 DUP1 SLOAD PUSH2 0xFF00 NOT AND SWAP1 SSTORE JUMPDEST POP JUMP JUMPDEST PUSH1 0x0 SWAP2 DUP3 MSTORE PUSH1 0x65 PUSH1 0x20 SWAP1 DUP2 MSTORE PUSH1 0x40 DUP1 DUP5 KECCAK256 PUSH1 0x1 PUSH1 0x1 PUSH1 0xA0 SHL SUB SWAP4 SWAP1 SWAP4 AND DUP5 MSTORE SWAP2 SWAP1 MSTORE SWAP1 KECCAK256 SLOAD PUSH1 0xFF AND SWAP1 JUMP JUMPDEST PUSH1 0x0 DUP1 PUSH1 0x98 DUP4 PUSH1 0x40 MLOAD PUSH2 0xEF3 SWAP2 SWAP1 PUSH2 0x1CB2 JUMP JUMPDEST SWAP1 DUP2 MSTORE PUSH1 0x20 ADD PUSH1 0x40 MLOAD DUP1 SWAP2 SUB SWAP1 KECCAK256 SLOAD GT SWAP1 POP SWAP2 SWAP1 POP JUMP JUMPDEST PUSH1 0x0 PUSH2 0xF15 DUP3 PUSH2 0xEE0 JUMP JUMPDEST PUSH2 0xF52 JUMPI PUSH1 0x40 MLOAD PUSH3 0x461BCD PUSH1 0xE5 SHL DUP2 MSTORE PUSH1 0x20 PUSH1 0x4 DUP3 ADD MSTORE PUSH1 0xE PUSH1 0x24 DUP3 ADD MSTORE PUSH14 0x1B985B59481B9BDD08199BDD5B99 PUSH1 0x92 SHL PUSH1 0x44 DUP3 ADD MSTORE PUSH1 0x64 ADD PUSH2 0x4E4 JUMP JUMPDEST PUSH1 0x99 PUSH1 0x98 DUP4 PUSH1 0x40 MLOAD PUSH2 0xF64 SWAP2 SWAP1 PUSH2 0x1CB2 JUMP JUMPDEST SWAP1 DUP2 MSTORE PUSH1 0x20 ADD PUSH1 0x40 MLOAD DUP1 SWAP2 SUB SWAP1 KECCAK256 SLOAD DUP2 SLOAD DUP2 LT PUSH2 0xF83 JUMPI PUSH2 0xF83 PUSH2 0x2087 JUMP JUMPDEST PUSH1 0x0 SWAP2 DUP3 MSTORE PUSH1 0x20 SWAP1 SWAP2 KECCAK256 ADD SLOAD PUSH1 0x1 PUSH1 0x1 PUSH1 0xA0 SHL SUB AND SWAP3 SWAP2 POP POP JUMP JUMPDEST PUSH1 0x0 PUSH2 0xFA9 CALLER PUSH2 0x480 JUMP JUMPDEST ISZERO PUSH2 0xFEF JUMPI PUSH1 0x40 MLOAD PUSH3 0x461BCD PUSH1 0xE5 SHL DUP2 MSTORE PUSH1 0x20 PUSH1 0x4 DUP3 ADD MSTORE PUSH1 0x16 PUSH1 0x24 DUP3 ADD MSTORE PUSH22 0x70726F66696C6520616C726561647920657869737473 PUSH1 0x50 SHL PUSH1 0x44 DUP3 ADD MSTORE PUSH1 0x64 ADD PUSH2 0x4E4 JUMP JUMPDEST PUSH2 0xFF8 DUP4 PUSH2 0xEE0 JUMP JUMPDEST ISZERO PUSH2 0x103A JUMPI PUSH1 0x40 MLOAD PUSH3 0x461BCD PUSH1 0xE5 SHL DUP2 MSTORE PUSH1 0x20 PUSH1 0x4 DUP3 ADD MSTORE PUSH1 0x12 PUSH1 0x24 DUP3 ADD MSTORE PUSH18 0x3730B6B29030B63932B0B23C903A30B5B2B7 PUSH1 0x71 SHL PUSH1 0x44 DUP3 ADD MSTORE PUSH1 0x64 ADD PUSH2 0x4E4 JUMP JUMPDEST PUSH1 0x9A SLOAD DUP4 MLOAD PUSH1 0xFF SWAP1 SWAP2 AND GT ISZERO PUSH2 0x1083 JUMPI PUSH1 0x40 MLOAD PUSH3 0x461BCD PUSH1 0xE5 SHL DUP2 MSTORE PUSH1 0x20 PUSH1 0x4 DUP3 ADD MSTORE PUSH1 0xE PUSH1 0x24 DUP3 ADD MSTORE PUSH14 0x1B985B59481D1BDBC81CDA1BDC9D PUSH1 0x92 SHL PUSH1 0x44 DUP3 ADD MSTORE PUSH1 0x64 ADD PUSH2 0x4E4 JUMP JUMPDEST PUSH1 0x9A SLOAD DUP4 MLOAD PUSH2 0x100 SWAP1 SWAP2 DIV PUSH1 0xFF AND LT ISZERO PUSH2 0x10CF JUMPI PUSH1 0x40 MLOAD PUSH3 0x461BCD PUSH1 0xE5 SHL DUP2 MSTORE PUSH1 0x20 PUSH1 0x4 DUP3 ADD MSTORE PUSH1 0xD PUSH1 0x24 DUP3 ADD MSTORE PUSH13 0x6E616D6520746F6F206C6F6E67 PUSH1 0x98 SHL PUSH1 0x44 DUP3 ADD MSTORE PUSH1 0x64 ADD PUSH2 0x4E4 JUMP JUMPDEST PUSH1 0x99 DUP1 SLOAD PUSH1 0x1 DUP2 ADD SWAP1 SWAP2 SSTORE PUSH32 0x72A152DDFB8E864297C917AF52EA6C1C68AEAD0FEE1A62673FCC7E0C94979D00 DUP2 ADD DUP1 SLOAD PUSH1 0x1 PUSH1 0x1 PUSH1 0xA0 SHL SUB NOT AND CALLER SWAP1 DUP2 OR SWAP1 SWAP2 SSTORE PUSH1 0x0 SWAP1 DUP2 MSTORE PUSH1 0x97 PUSH1 0x20 MSTORE PUSH1 0x40 SWAP1 DUP2 SWAP1 KECCAK256 DUP3 SWAP1 SSTORE MLOAD DUP2 SWAP1 PUSH1 0x98 SWAP1 PUSH2 0x1134 SWAP1 DUP8 SWAP1 PUSH2 0x1CB2 JUMP JUMPDEST SWAP1 DUP2 MSTORE PUSH1 0x40 DUP1 MLOAD PUSH1 0x20 SWAP3 DUP2 SWAP1 SUB DUP4 ADD DUP2 KECCAK256 SWAP4 SWAP1 SWAP4 SSTORE PUSH1 0xE0 DUP4 ADD DUP2 MSTORE DUP4 DUP4 MSTORE CALLER DUP3 DUP5 ADD SWAP1 DUP2 MSTORE DUP4 DUP3 ADD DUP9 DUP2 MSTORE TIMESTAMP PUSH1 0x1 PUSH1 0x1 PUSH1 0x40 SHL SUB AND PUSH1 0x60 DUP7 ADD MSTORE PUSH1 0xFF DUP9 AND PUSH1 0x80 DUP7 ADD MSTORE PUSH1 0x0 PUSH1 0xA0 DUP7 ADD DUP2 SWAP1 MSTORE PUSH1 0x1 PUSH1 0xC0 DUP8 ADD DUP2 SWAP1 MSTORE DUP8 DUP3 MSTORE PUSH1 0x9B DUP7 MSTORE SWAP4 SWAP1 KECCAK256 DUP6 MLOAD DUP2 SSTORE SWAP2 MLOAD SWAP3 DUP3 ADD DUP1 SLOAD PUSH1 0x1 PUSH1 0x1 PUSH1 0xA0 SHL SUB NOT AND PUSH1 0x1 PUSH1 0x1 PUSH1 0xA0 SHL SUB SWAP1 SWAP5 AND SWAP4 SWAP1 SWAP4 OR SWAP1 SWAP3 SSTORE SWAP1 MLOAD DUP1 MLOAD DUP5 SWAP4 PUSH2 0x11D1 SWAP3 PUSH1 0x2 DUP6 ADD SWAP3 SWAP2 ADD SWAP1 PUSH2 0x1952 JUMP JUMPDEST POP PUSH1 0x60 DUP3 DUP2 ADD MLOAD PUSH1 0x3 DUP4 ADD DUP1 SLOAD PUSH1 0x80 DUP1 DUP8 ADD MLOAD PUSH1 0xFF AND PUSH1 0x1 PUSH1 0x40 SHL MUL PUSH9 0xFFFFFFFFFFFFFFFFFF NOT SWAP1 SWAP3 AND PUSH1 0x1 PUSH1 0x1 PUSH1 0x40 SHL SUB SWAP1 SWAP5 AND SWAP4 SWAP1 SWAP4 OR OR SWAP1 SSTORE PUSH1 0xA0 DUP5 ADD MLOAD PUSH1 0x4 DUP5 ADD SSTORE PUSH1 0xC0 SWAP1 SWAP4 ADD MLOAD PUSH1 0x5 SWAP1 SWAP3 ADD DUP1 SLOAD SWAP3 ISZERO ISZERO PUSH1 0xFF NOT SWAP1 SWAP4 AND SWAP3 SWAP1 SWAP3 OR SWAP1 SWAP2 SSTORE PUSH1 0x20 DUP4 ADD MLOAD PUSH1 0x40 DUP1 DUP6 ADD MLOAD SWAP3 DUP6 ADD MLOAD SWAP4 DUP6 ADD MLOAD SWAP1 MLOAD PUSH32 0x72A68484472F11FCD73602564E346C18C3D22B4869842397C7347330035C8A38 SWAP5 PUSH2 0x1279 SWAP5 DUP9 SWAP5 SWAP4 SWAP1 SWAP3 PUSH2 0x1DEF JUMP JUMPDEST PUSH1 0x40 MLOAD DUP1 SWAP2 SUB SWAP1 LOG1 POP PUSH1 0x1 SWAP5 SWAP4 POP POP POP POP JUMP JUMPDEST PUSH1 0x9B PUSH1 0x20 MSTORE PUSH1 0x0 SWAP1 DUP2 MSTORE PUSH1 0x40 SWAP1 KECCAK256 DUP1 SLOAD PUSH1 0x1 DUP3 ADD SLOAD PUSH1 0x2 DUP4 ADD DUP1 SLOAD SWAP3 SWAP4 PUSH1 0x1 PUSH1 0x1 PUSH1 0xA0 SHL SUB SWAP1 SWAP3 AND SWAP3 PUSH2 0x12BE SWAP1 PUSH2 0x2036 JUMP JUMPDEST DUP1 PUSH1 0x1F ADD PUSH1 0x20 DUP1 SWAP2 DIV MUL PUSH1 0x20 ADD PUSH1 0x40 MLOAD SWAP1 DUP2 ADD PUSH1 0x40 MSTORE DUP1 SWAP3 SWAP2 SWAP1 DUP2 DUP2 MSTORE PUSH1 0x20 ADD DUP3 DUP1 SLOAD PUSH2 0x12EA SWAP1 PUSH2 0x2036 JUMP JUMPDEST DUP1 ISZERO PUSH2 0x1337 JUMPI DUP1 PUSH1 0x1F LT PUSH2 0x130C JUMPI PUSH2 0x100 DUP1 DUP4 SLOAD DIV MUL DUP4 MSTORE SWAP2 PUSH1 0x20 ADD SWAP2 PUSH2 0x1337 JUMP JUMPDEST DUP3 ADD SWAP2 SWAP1 PUSH1 0x0 MSTORE PUSH1 0x20 PUSH1 0x0 KECCAK256 SWAP1 JUMPDEST DUP2 SLOAD DUP2 MSTORE SWAP1 PUSH1 0x1 ADD SWAP1 PUSH1 0x20 ADD DUP1 DUP4 GT PUSH2 0x131A JUMPI DUP3 SWAP1 SUB PUSH1 0x1F AND DUP3 ADD SWAP2 JUMPDEST POP POP POP PUSH1 0x3 DUP5 ADD SLOAD PUSH1 0x4 DUP6 ADD SLOAD PUSH1 0x5 SWAP1 SWAP6 ADD SLOAD SWAP4 SWAP5 PUSH1 0x1 PUSH1 0x1 PUSH1 0x40 SHL SUB DUP3 AND SWAP5 PUSH1 0xFF PUSH1 0x1 PUSH1 0x40 SHL SWAP1 SWAP4 DIV DUP4 AND SWAP5 POP SWAP1 SWAP3 POP AND DUP8 JUMP JUMPDEST PUSH1 0x0 PUSH2 0x1386 PUSH1 0x0 DUP1 MLOAD PUSH1 0x20 PUSH2 0x20B4 DUP4 CODECOPY DUP2 MLOAD SWAP2 MSTORE CALLER PUSH2 0xEB5 JUMP JUMPDEST PUSH2 0x13A2 JUMPI PUSH1 0x40 MLOAD PUSH3 0x461BCD PUSH1 0xE5 SHL DUP2 MSTORE PUSH1 0x4 ADD PUSH2 0x4E4 SWAP1 PUSH2 0x1DC8 JUMP JUMPDEST PUSH2 0x13AB DUP3 PUSH2 0xEE0 JUMP JUMPDEST ISZERO PUSH2 0x13ED JUMPI PUSH1 0x40 MLOAD PUSH3 0x461BCD PUSH1 0xE5 SHL DUP2 MSTORE PUSH1 0x20 PUSH1 0x4 DUP3 ADD MSTORE PUSH1 0x12 PUSH1 0x24 DUP3 ADD MSTORE PUSH18 0x3730B6B29030B63932B0B23C903A30B5B2B7 PUSH1 0x71 SHL PUSH1 0x44 DUP3 ADD MSTORE PUSH1 0x64 ADD PUSH2 0x4E4 JUMP JUMPDEST PUSH1 0x9A SLOAD DUP3 MLOAD PUSH1 0xFF SWAP1 SWAP2 AND GT ISZERO PUSH2 0x1436 JUMPI PUSH1 0x40 MLOAD PUSH3 0x461BCD PUSH1 0xE5 SHL DUP2 MSTORE PUSH1 0x20 PUSH1 0x4 DUP3 ADD MSTORE PUSH1 0xE PUSH1 0x24 DUP3 ADD MSTORE PUSH14 0x1B985B59481D1BDBC81CDA1BDC9D PUSH1 0x92 SHL PUSH1 0x44 DUP3 ADD MSTORE PUSH1 0x64 ADD PUSH2 0x4E4 JUMP JUMPDEST PUSH1 0x9A SLOAD DUP3 MLOAD PUSH2 0x100 SWAP1 SWAP2 DIV PUSH1 0xFF AND LT ISZERO PUSH2 0x1482 JUMPI PUSH1 0x40 MLOAD PUSH3 0x461BCD PUSH1 0xE5 SHL DUP2 MSTORE PUSH1 0x20 PUSH1 0x4 DUP3 ADD MSTORE PUSH1 0xD PUSH1 0x24 DUP3 ADD MSTORE PUSH13 0x6E616D6520746F6F206C6F6E67 PUSH1 0x98 SHL PUSH1 0x44 DUP3 ADD MSTORE PUSH1 0x64 ADD PUSH2 0x4E4 JUMP JUMPDEST PUSH1 0x0 DUP4 DUP2 MSTORE PUSH1 0x9B PUSH1 0x20 MSTORE PUSH1 0x40 SWAP1 KECCAK256 PUSH1 0x5 DUP2 ADD SLOAD PUSH1 0xFF AND PUSH2 0x14D1 JUMPI PUSH1 0x40 MLOAD PUSH3 0x461BCD PUSH1 0xE5 SHL DUP2 MSTORE PUSH1 0x20 PUSH1 0x4 DUP3 ADD MSTORE PUSH1 0xA PUSH1 0x24 DUP3 ADD MSTORE PUSH10 0x1A5B9D985B1A59081A59 PUSH1 0xB2 SHL PUSH1 0x44 DUP3 ADD MSTORE PUSH1 0x64 ADD PUSH2 0x4E4 JUMP JUMPDEST DUP4 PUSH1 0x98 DUP5 PUSH1 0x40 MLOAD PUSH2 0x14E2 SWAP2 SWAP1 PUSH2 0x1CB2 JUMP JUMPDEST SWAP1 DUP2 MSTORE PUSH1 0x20 ADD PUSH1 0x40 MLOAD DUP1 SWAP2 SUB SWAP1 KECCAK256 DUP2 SWAP1 SSTORE POP PUSH1 0x98 DUP2 PUSH1 0x2 ADD PUSH1 0x40 MLOAD PUSH2 0x1507 SWAP2 SWAP1 PUSH2 0x1CCE JUMP JUMPDEST SWAP1 DUP2 MSTORE PUSH1 0x20 ADD PUSH1 0x40 MLOAD DUP1 SWAP2 SUB SWAP1 KECCAK256 PUSH1 0x0 SWAP1 SSTORE DUP3 DUP2 PUSH1 0x2 ADD SWAP1 DUP1 MLOAD SWAP1 PUSH1 0x20 ADD SWAP1 PUSH2 0x1531 SWAP3 SWAP2 SWAP1 PUSH2 0x1952 JUMP JUMPDEST POP PUSH1 0x1 DUP2 ADD SLOAD PUSH1 0x3 DUP3 ADD SLOAD PUSH1 0x4 DUP4 ADD SLOAD PUSH1 0x40 MLOAD PUSH32 0x69E29765EEE9CE41E5C9E024D867F612CB1A6690A5C5F905201D4C591C423F1E SWAP4 PUSH2 0x76A SWAP4 DUP10 SWAP4 PUSH1 0x1 PUSH1 0x1 PUSH1 0xA0 SHL SUB SWAP1 SWAP3 AND SWAP3 PUSH1 0x2 DUP9 ADD SWAP3 PUSH1 0x1 PUSH1 0x1 PUSH1 0x40 SHL SUB DUP4 AND SWAP3 PUSH1 0x1 PUSH1 0x40 SHL SWAP1 DIV PUSH1 0xFF AND SWAP2 PUSH2 0x1EF7 JUMP JUMPDEST PUSH1 0x0 DUP3 DUP2 MSTORE PUSH1 0x65 PUSH1 0x20 MSTORE PUSH1 0x40 SWAP1 KECCAK256 PUSH1 0x1 ADD SLOAD PUSH2 0x15B4 DUP2 CALLER PUSH2 0x15E8 JUMP JUMPDEST PUSH2 0x535 DUP4 DUP4 PUSH2 0x16D2 JUMP JUMPDEST PUSH1 0x99 DUP2 DUP2 SLOAD DUP2 LT PUSH2 0x15CE JUMPI PUSH1 0x0 DUP1 REVERT JUMPDEST PUSH1 0x0 SWAP2 DUP3 MSTORE PUSH1 0x20 SWAP1 SWAP2 KECCAK256 ADD SLOAD PUSH1 0x1 PUSH1 0x1 PUSH1 0xA0 SHL SUB AND SWAP1 POP DUP2 JUMP JUMPDEST PUSH2 0x15F2 DUP3 DUP3 PUSH2 0xEB5 JUMP JUMPDEST PUSH2 0x5B4 JUMPI PUSH2 0x160A DUP2 PUSH1 0x1 PUSH1 0x1 PUSH1 0xA0 SHL SUB AND PUSH1 0x14 PUSH2 0x17B0 JUMP JUMPDEST PUSH2 0x1615 DUP4 PUSH1 0x20 PUSH2 0x17B0 JUMP JUMPDEST PUSH1 0x40 MLOAD PUSH1 0x20 ADD PUSH2 0x1626 SWAP3 SWAP2 SWAP1 PUSH2 0x1D40 JUMP JUMPDEST PUSH1 0x40 DUP1 MLOAD PUSH1 0x1F NOT DUP2 DUP5 SUB ADD DUP2 MSTORE SWAP1 DUP3 SWAP1 MSTORE PUSH3 0x461BCD PUSH1 0xE5 SHL DUP3 MSTORE PUSH2 0x4E4 SWAP2 PUSH1 0x4 ADD PUSH2 0x1DB5 JUMP JUMPDEST PUSH2 0x1656 DUP3 DUP3 PUSH2 0xEB5 JUMP JUMPDEST PUSH2 0x5B4 JUMPI PUSH1 0x0 DUP3 DUP2 MSTORE PUSH1 0x65 PUSH1 0x20 SWAP1 DUP2 MSTORE PUSH1 0x40 DUP1 DUP4 KECCAK256 PUSH1 0x1 PUSH1 0x1 PUSH1 0xA0 SHL SUB DUP6 AND DUP5 MSTORE SWAP1 SWAP2 MSTORE SWAP1 KECCAK256 DUP1 SLOAD PUSH1 0xFF NOT AND PUSH1 0x1 OR SWAP1 SSTORE PUSH2 0x168E CALLER SWAP1 JUMP JUMPDEST PUSH1 0x1 PUSH1 0x1 PUSH1 0xA0 SHL SUB AND DUP2 PUSH1 0x1 PUSH1 0x1 PUSH1 0xA0 SHL SUB AND DUP4 PUSH32 0x2F8788117E7EFF1D82E926EC794901D17C78024A50270940304540A733656F0D PUSH1 0x40 MLOAD PUSH1 0x40 MLOAD DUP1 SWAP2 SUB SWAP1 LOG4 POP POP JUMP JUMPDEST PUSH2 0x16DC DUP3 DUP3 PUSH2 0xEB5 JUMP JUMPDEST ISZERO PUSH2 0x5B4 JUMPI PUSH1 0x0 DUP3 DUP2 MSTORE PUSH1 0x65 PUSH1 0x20 SWAP1 DUP2 MSTORE PUSH1 0x40 DUP1 DUP4 KECCAK256 PUSH1 0x1 PUSH1 0x1 PUSH1 0xA0 SHL SUB DUP6 AND DUP1 DUP6 MSTORE SWAP3 MSTORE DUP1 DUP4 KECCAK256 DUP1 SLOAD PUSH1 0xFF NOT AND SWAP1 SSTORE MLOAD CALLER SWAP3 DUP6 SWAP2 PUSH32 0xF6391F5C32D9C69D2A47EA670B442974B53935D1EDC7FD64EB21E047A839171B SWAP2 SWAP1 LOG4 POP POP JUMP JUMPDEST PUSH1 0x0 SLOAD PUSH2 0x100 SWAP1 DIV PUSH1 0xFF AND PUSH2 0x17A4 JUMPI PUSH1 0x40 MLOAD PUSH3 0x461BCD PUSH1 0xE5 SHL DUP2 MSTORE PUSH1 0x20 PUSH1 0x4 DUP3 ADD MSTORE PUSH1 0x2B PUSH1 0x24 DUP3 ADD MSTORE PUSH32 0x496E697469616C697A61626C653A20636F6E7472616374206973206E6F742069 PUSH1 0x44 DUP3 ADD MSTORE PUSH11 0x6E697469616C697A696E67 PUSH1 0xA8 SHL PUSH1 0x64 DUP3 ADD MSTORE PUSH1 0x84 ADD PUSH2 0x4E4 JUMP JUMPDEST JUMP JUMPDEST PUSH2 0x5B4 DUP3 DUP3 PUSH2 0x164C JUMP JUMPDEST PUSH1 0x60 PUSH1 0x0 PUSH2 0x17BF DUP4 PUSH1 0x2 PUSH2 0x1FD0 JUMP JUMPDEST PUSH2 0x17CA SWAP1 PUSH1 0x2 PUSH2 0x1FB8 JUMP JUMPDEST PUSH1 0x1 PUSH1 0x1 PUSH1 0x40 SHL SUB DUP2 GT ISZERO PUSH2 0x17E1 JUMPI PUSH2 0x17E1 PUSH2 0x209D JUMP JUMPDEST PUSH1 0x40 MLOAD SWAP1 DUP1 DUP3 MSTORE DUP1 PUSH1 0x1F ADD PUSH1 0x1F NOT AND PUSH1 0x20 ADD DUP3 ADD PUSH1 0x40 MSTORE DUP1 ISZERO PUSH2 0x180B JUMPI PUSH1 0x20 DUP3 ADD DUP2 DUP1 CALLDATASIZE DUP4 CALLDATACOPY ADD SWAP1 POP JUMPDEST POP SWAP1 POP PUSH1 0x3 PUSH1 0xFC SHL DUP2 PUSH1 0x0 DUP2 MLOAD DUP2 LT PUSH2 0x1826 JUMPI PUSH2 0x1826 PUSH2 0x2087 JUMP JUMPDEST PUSH1 0x20 ADD ADD SWAP1 PUSH1 0x1 PUSH1 0x1 PUSH1 0xF8 SHL SUB NOT AND SWAP1 DUP2 PUSH1 0x0 BYTE SWAP1 MSTORE8 POP PUSH1 0xF PUSH1 0xFB SHL DUP2 PUSH1 0x1 DUP2 MLOAD DUP2 LT PUSH2 0x1855 JUMPI PUSH2 0x1855 PUSH2 0x2087 JUMP JUMPDEST PUSH1 0x20 ADD ADD SWAP1 PUSH1 0x1 PUSH1 0x1 PUSH1 0xF8 SHL SUB NOT AND SWAP1 DUP2 PUSH1 0x0 BYTE SWAP1 MSTORE8 POP PUSH1 0x0 PUSH2 0x1879 DUP5 PUSH1 0x2 PUSH2 0x1FD0 JUMP JUMPDEST PUSH2 0x1884 SWAP1 PUSH1 0x1 PUSH2 0x1FB8 JUMP JUMPDEST SWAP1 POP JUMPDEST PUSH1 0x1 DUP2 GT ISZERO PUSH2 0x18FC JUMPI PUSH16 0x181899199A1A9B1B9C1CB0B131B232B3 PUSH1 0x81 SHL DUP6 PUSH1 0xF AND PUSH1 0x10 DUP2 LT PUSH2 0x18B8 JUMPI PUSH2 0x18B8 PUSH2 0x2087 JUMP JUMPDEST BYTE PUSH1 0xF8 SHL DUP3 DUP3 DUP2 MLOAD DUP2 LT PUSH2 0x18CE JUMPI PUSH2 0x18CE PUSH2 0x2087 JUMP JUMPDEST PUSH1 0x20 ADD ADD SWAP1 PUSH1 0x1 PUSH1 0x1 PUSH1 0xF8 SHL SUB NOT AND SWAP1 DUP2 PUSH1 0x0 BYTE SWAP1 MSTORE8 POP PUSH1 0x4 SWAP5 SWAP1 SWAP5 SHR SWAP4 PUSH2 0x18F5 DUP2 PUSH2 0x201F JUMP JUMPDEST SWAP1 POP PUSH2 0x1887 JUMP JUMPDEST POP DUP4 ISZERO PUSH2 0x194B JUMPI PUSH1 0x40 MLOAD PUSH3 0x461BCD PUSH1 0xE5 SHL DUP2 MSTORE PUSH1 0x20 PUSH1 0x4 DUP3 ADD DUP2 SWAP1 MSTORE PUSH1 0x24 DUP3 ADD MSTORE PUSH32 0x537472696E67733A20686578206C656E67746820696E73756666696369656E74 PUSH1 0x44 DUP3 ADD MSTORE PUSH1 0x64 ADD PUSH2 0x4E4 JUMP JUMPDEST SWAP4 SWAP3 POP POP POP JUMP JUMPDEST DUP3 DUP1 SLOAD PUSH2 0x195E SWAP1 PUSH2 0x2036 JUMP JUMPDEST SWAP1 PUSH1 0x0 MSTORE PUSH1 0x20 PUSH1 0x0 KECCAK256 SWAP1 PUSH1 0x1F ADD PUSH1 0x20 SWAP1 DIV DUP2 ADD SWAP3 DUP3 PUSH2 0x1980 JUMPI PUSH1 0x0 DUP6 SSTORE PUSH2 0x19C6 JUMP JUMPDEST DUP3 PUSH1 0x1F LT PUSH2 0x1999 JUMPI DUP1 MLOAD PUSH1 0xFF NOT AND DUP4 DUP1 ADD OR DUP6 SSTORE PUSH2 0x19C6 JUMP JUMPDEST DUP3 DUP1 ADD PUSH1 0x1 ADD DUP6 SSTORE DUP3 ISZERO PUSH2 0x19C6 JUMPI SWAP2 DUP3 ADD JUMPDEST DUP3 DUP2 GT ISZERO PUSH2 0x19C6 JUMPI DUP3 MLOAD DUP3 SSTORE SWAP2 PUSH1 0x20 ADD SWAP2 SWAP1 PUSH1 0x1 ADD SWAP1 PUSH2 0x19AB JUMP JUMPDEST POP PUSH2 0x19D2 SWAP3 SWAP2 POP PUSH2 0x19D6 JUMP JUMPDEST POP SWAP1 JUMP JUMPDEST JUMPDEST DUP1 DUP3 GT ISZERO PUSH2 0x19D2 JUMPI PUSH1 0x0 DUP2 SSTORE PUSH1 0x1 ADD PUSH2 0x19D7 JUMP JUMPDEST DUP1 CALLDATALOAD PUSH1 0x1 PUSH1 0x1 PUSH1 0xA0 SHL SUB DUP2 AND DUP2 EQ PUSH2 0x1A02 JUMPI PUSH1 0x0 DUP1 REVERT JUMPDEST SWAP2 SWAP1 POP JUMP JUMPDEST PUSH1 0x0 DUP3 PUSH1 0x1F DUP4 ADD SLT PUSH2 0x1A18 JUMPI PUSH1 0x0 DUP1 REVERT JUMPDEST DUP2 CALLDATALOAD PUSH1 0x1 PUSH1 0x1 PUSH1 0x40 SHL SUB DUP1 DUP3 GT ISZERO PUSH2 0x1A32 JUMPI PUSH2 0x1A32 PUSH2 0x209D JUMP JUMPDEST PUSH1 0x40 MLOAD PUSH1 0x1F DUP4 ADD PUSH1 0x1F NOT SWAP1 DUP2 AND PUSH1 0x3F ADD AND DUP2 ADD SWAP1 DUP3 DUP3 GT DUP2 DUP4 LT OR ISZERO PUSH2 0x1A5A JUMPI PUSH2 0x1A5A PUSH2 0x209D JUMP JUMPDEST DUP2 PUSH1 0x40 MSTORE DUP4 DUP2 MSTORE DUP7 PUSH1 0x20 DUP6 DUP9 ADD ADD GT ISZERO PUSH2 0x1A73 JUMPI PUSH1 0x0 DUP1 REVERT JUMPDEST DUP4 PUSH1 0x20 DUP8 ADD PUSH1 0x20 DUP4 ADD CALLDATACOPY PUSH1 0x0 PUSH1 0x20 DUP6 DUP4 ADD ADD MSTORE DUP1 SWAP5 POP POP POP POP POP SWAP3 SWAP2 POP POP JUMP JUMPDEST DUP1 CALLDATALOAD PUSH1 0xFF DUP2 AND DUP2 EQ PUSH2 0x1A02 JUMPI PUSH1 0x0 DUP1 REVERT JUMPDEST PUSH1 0x0 PUSH1 0x20 DUP3 DUP5 SUB SLT ISZERO PUSH2 0x1AB6 JUMPI PUSH1 0x0 DUP1 REVERT JUMPDEST PUSH2 0x194B DUP3 PUSH2 0x19EB JUMP JUMPDEST PUSH1 0x0 DUP1 PUSH1 0x40 DUP4 DUP6 SUB SLT ISZERO PUSH2 0x1AD2 JUMPI PUSH1 0x0 DUP1 REVERT JUMPDEST PUSH2 0x1ADB DUP4 PUSH2 0x19EB JUMP JUMPDEST SWAP5 PUSH1 0x20 SWAP4 SWAP1 SWAP4 ADD CALLDATALOAD SWAP4 POP POP POP JUMP JUMPDEST PUSH1 0x0 PUSH1 0x20 DUP3 DUP5 SUB SLT ISZERO PUSH2 0x1AFB JUMPI PUSH1 0x0 DUP1 REVERT JUMPDEST POP CALLDATALOAD SWAP2 SWAP1 POP JUMP JUMPDEST PUSH1 0x0 DUP1 PUSH1 0x40 DUP4 DUP6 SUB SLT ISZERO PUSH2 0x1B15 JUMPI PUSH1 0x0 DUP1 REVERT JUMPDEST DUP3 CALLDATALOAD SWAP2 POP PUSH2 0x1B25 PUSH1 0x20 DUP5 ADD PUSH2 0x19EB JUMP JUMPDEST SWAP1 POP SWAP3 POP SWAP3 SWAP1 POP JUMP JUMPDEST PUSH1 0x0 PUSH1 0x20 DUP3 DUP5 SUB SLT ISZERO PUSH2 0x1B40 JUMPI PUSH1 0x0 DUP1 REVERT JUMPDEST DUP2 CALLDATALOAD PUSH1 0x1 PUSH1 0x1 PUSH1 0xE0 SHL SUB NOT DUP2 AND DUP2 EQ PUSH2 0x194B JUMPI PUSH1 0x0 DUP1 REVERT JUMPDEST PUSH1 0x0 PUSH1 0x20 DUP3 DUP5 SUB SLT ISZERO PUSH2 0x1B6A JUMPI PUSH1 0x0 DUP1 REVERT JUMPDEST DUP2 CALLDATALOAD PUSH1 0x1 PUSH1 0x1 PUSH1 0x40 SHL SUB DUP2 GT ISZERO PUSH2 0x1B80 JUMPI PUSH1 0x0 DUP1 REVERT JUMPDEST PUSH2 0x1B8C DUP5 DUP3 DUP6 ADD PUSH2 0x1A07 JUMP JUMPDEST SWAP5 SWAP4 POP POP POP POP JUMP JUMPDEST PUSH1 0x0 DUP1 PUSH1 0x40 DUP4 DUP6 SUB SLT ISZERO PUSH2 0x1BA7 JUMPI PUSH1 0x0 DUP1 REVERT JUMPDEST DUP3 CALLDATALOAD PUSH1 0x1 PUSH1 0x1 PUSH1 0x40 SHL SUB DUP2 GT ISZERO PUSH2 0x1BBD JUMPI PUSH1 0x0 DUP1 REVERT JUMPDEST PUSH2 0x1BC9 DUP6 DUP3 DUP7 ADD PUSH2 0x1A07 JUMP JUMPDEST SWAP3 POP POP PUSH2 0x1B25 PUSH1 0x20 DUP5 ADD PUSH2 0x1A93 JUMP JUMPDEST PUSH1 0x0 DUP1 PUSH1 0x40 DUP4 DUP6 SUB SLT ISZERO PUSH2 0x1BEB JUMPI PUSH1 0x0 DUP1 REVERT JUMPDEST DUP3 CALLDATALOAD SWAP2 POP PUSH1 0x20 DUP4 ADD CALLDATALOAD PUSH1 0x1 PUSH1 0x1 PUSH1 0x40 SHL SUB DUP2 GT ISZERO PUSH2 0x1C08 JUMPI PUSH1 0x0 DUP1 REVERT JUMPDEST PUSH2 0x1C14 DUP6 DUP3 DUP7 ADD PUSH2 0x1A07 JUMP JUMPDEST SWAP2 POP POP SWAP3 POP SWAP3 SWAP1 POP JUMP JUMPDEST PUSH1 0x0 DUP1 PUSH1 0x40 DUP4 DUP6 SUB SLT ISZERO PUSH2 0x1C31 JUMPI PUSH1 0x0 DUP1 REVERT JUMPDEST DUP3 CALLDATALOAD SWAP2 POP PUSH2 0x1B25 PUSH1 0x20 DUP5 ADD PUSH2 0x1A93 JUMP JUMPDEST PUSH1 0x0 PUSH1 0x20 DUP3 DUP5 SUB SLT ISZERO PUSH2 0x1C53 JUMPI PUSH1 0x0 DUP1 REVERT JUMPDEST PUSH2 0x194B DUP3 PUSH2 0x1A93 JUMP JUMPDEST PUSH1 0x0 DUP1 PUSH1 0x40 DUP4 DUP6 SUB SLT ISZERO PUSH2 0x1C6F JUMPI PUSH1 0x0 DUP1 REVERT JUMPDEST PUSH2 0x1C78 DUP4 PUSH2 0x1A93 JUMP JUMPDEST SWAP2 POP PUSH2 0x1B25 PUSH1 0x20 DUP5 ADD PUSH2 0x1A93 JUMP JUMPDEST PUSH1 0x0 DUP2 MLOAD DUP1 DUP5 MSTORE PUSH2 0x1C9E DUP2 PUSH1 0x20 DUP7 ADD PUSH1 0x20 DUP7 ADD PUSH2 0x1FEF JUMP JUMPDEST PUSH1 0x1F ADD PUSH1 0x1F NOT AND SWAP3 SWAP1 SWAP3 ADD PUSH1 0x20 ADD SWAP3 SWAP2 POP POP JUMP JUMPDEST PUSH1 0x0 DUP3 MLOAD PUSH2 0x1CC4 DUP2 DUP5 PUSH1 0x20 DUP8 ADD PUSH2 0x1FEF JUMP JUMPDEST SWAP2 SWAP1 SWAP2 ADD SWAP3 SWAP2 POP POP JUMP JUMPDEST PUSH1 0x0 DUP1 DUP4 SLOAD PUSH2 0x1CDC DUP2 PUSH2 0x2036 JUMP JUMPDEST PUSH1 0x1 DUP3 DUP2 AND DUP1 ISZERO PUSH2 0x1CF4 JUMPI PUSH1 0x1 DUP2 EQ PUSH2 0x1D05 JUMPI PUSH2 0x1D34 JUMP JUMPDEST PUSH1 0xFF NOT DUP5 AND DUP8 MSTORE DUP3 DUP8 ADD SWAP5 POP PUSH2 0x1D34 JUMP JUMPDEST DUP8 PUSH1 0x0 MSTORE PUSH1 0x20 DUP1 PUSH1 0x0 KECCAK256 PUSH1 0x0 JUMPDEST DUP6 DUP2 LT ISZERO PUSH2 0x1D2B JUMPI DUP2 SLOAD DUP11 DUP3 ADD MSTORE SWAP1 DUP5 ADD SWAP1 DUP3 ADD PUSH2 0x1D12 JUMP JUMPDEST POP POP POP DUP3 DUP8 ADD SWAP5 POP JUMPDEST POP SWAP3 SWAP7 SWAP6 POP POP POP POP POP POP JUMP JUMPDEST PUSH32 0x416363657373436F6E74726F6C3A206163636F756E7420000000000000000000 DUP2 MSTORE PUSH1 0x0 DUP4 MLOAD PUSH2 0x1D78 DUP2 PUSH1 0x17 DUP6 ADD PUSH1 0x20 DUP9 ADD PUSH2 0x1FEF JUMP JUMPDEST PUSH17 0x1034B99036B4B9B9B4B733903937B6329 PUSH1 0x7D SHL PUSH1 0x17 SWAP2 DUP5 ADD SWAP2 DUP3 ADD MSTORE DUP4 MLOAD PUSH2 0x1DA9 DUP2 PUSH1 0x28 DUP5 ADD PUSH1 0x20 DUP9 ADD PUSH2 0x1FEF JUMP JUMPDEST ADD PUSH1 0x28 ADD SWAP5 SWAP4 POP POP POP POP JUMP JUMPDEST PUSH1 0x20 DUP2 MSTORE PUSH1 0x0 PUSH2 0x194B PUSH1 0x20 DUP4 ADD DUP5 PUSH2 0x1C86 JUMP JUMPDEST PUSH1 0x20 DUP1 DUP3 MSTORE PUSH1 0xD SWAP1 DUP3 ADD MSTORE PUSH13 0x1858D8D95CDCC819195B9A5959 PUSH1 0x9A SHL PUSH1 0x40 DUP3 ADD MSTORE PUSH1 0x60 ADD SWAP1 JUMP JUMPDEST DUP6 DUP2 MSTORE PUSH1 0x1 PUSH1 0x1 PUSH1 0xA0 SHL SUB DUP6 AND PUSH1 0x20 DUP3 ADD MSTORE PUSH1 0xA0 PUSH1 0x40 DUP3 ADD DUP2 SWAP1 MSTORE PUSH1 0x0 SWAP1 PUSH2 0x1E19 SWAP1 DUP4 ADD DUP7 PUSH2 0x1C86 JUMP JUMPDEST SWAP1 POP PUSH1 0x1 PUSH1 0x1 PUSH1 0x40 SHL SUB DUP5 AND PUSH1 0x60 DUP4 ADD MSTORE PUSH1 0xFF DUP4 AND PUSH1 0x80 DUP4 ADD MSTORE SWAP7 SWAP6 POP POP POP POP POP POP JUMP JUMPDEST DUP8 DUP2 MSTORE PUSH1 0x1 PUSH1 0x1 PUSH1 0xA0 SHL SUB DUP8 AND PUSH1 0x20 DUP3 ADD MSTORE PUSH1 0xE0 PUSH1 0x40 DUP3 ADD DUP2 SWAP1 MSTORE PUSH1 0x0 SWAP1 PUSH2 0x1E67 SWAP1 DUP4 ADD DUP9 PUSH2 0x1C86 JUMP JUMPDEST SWAP1 POP PUSH1 0x1 PUSH1 0x1 PUSH1 0x40 SHL SUB DUP7 AND PUSH1 0x60 DUP4 ADD MSTORE PUSH1 0xFF DUP6 AND PUSH1 0x80 DUP4 ADD MSTORE DUP4 PUSH1 0xA0 DUP4 ADD MSTORE DUP3 ISZERO ISZERO PUSH1 0xC0 DUP4 ADD MSTORE SWAP9 SWAP8 POP POP POP POP POP POP POP POP JUMP JUMPDEST DUP8 DUP2 MSTORE PUSH1 0x1 PUSH1 0x1 PUSH1 0xA0 SHL SUB DUP8 AND PUSH1 0x20 DUP3 ADD MSTORE PUSH1 0xE0 PUSH1 0x40 DUP3 ADD DUP2 SWAP1 MSTORE PUSH1 0x0 SWAP1 PUSH2 0x1EC5 SWAP1 DUP4 ADD DUP9 PUSH2 0x1C86 JUMP JUMPDEST SWAP1 POP PUSH1 0x1 PUSH1 0x1 PUSH1 0x40 SHL SUB DUP7 AND PUSH1 0x60 DUP4 ADD MSTORE PUSH1 0xFF DUP6 AND PUSH1 0x80 DUP4 ADD MSTORE DUP4 PUSH1 0xA0 DUP4 ADD MSTORE DUP3 PUSH1 0xC0 DUP4 ADD MSTORE SWAP9 SWAP8 POP POP POP POP POP POP POP POP JUMP JUMPDEST DUP7 DUP2 MSTORE PUSH1 0x0 PUSH1 0x20 PUSH1 0x1 DUP1 PUSH1 0xA0 SHL SUB DUP9 AND DUP2 DUP5 ADD MSTORE PUSH1 0xC0 PUSH1 0x40 DUP5 ADD MSTORE PUSH1 0x0 DUP8 SLOAD PUSH2 0x1F1F DUP2 PUSH2 0x2036 JUMP JUMPDEST DUP1 PUSH1 0xC0 DUP8 ADD MSTORE PUSH1 0xE0 PUSH1 0x1 DUP1 DUP5 AND PUSH1 0x0 DUP2 EQ PUSH2 0x1F41 JUMPI PUSH1 0x1 DUP2 EQ PUSH2 0x1F56 JUMPI PUSH2 0x1F84 JUMP JUMPDEST PUSH1 0xFF NOT DUP6 AND DUP10 DUP5 ADD MSTORE PUSH2 0x100 DUP10 ADD SWAP6 POP PUSH2 0x1F84 JUMP JUMPDEST DUP13 PUSH1 0x0 MSTORE DUP7 PUSH1 0x0 KECCAK256 PUSH1 0x0 JUMPDEST DUP6 DUP2 LT ISZERO PUSH2 0x1F7C JUMPI DUP2 SLOAD DUP12 DUP3 ADD DUP7 ADD MSTORE SWAP1 DUP4 ADD SWAP1 DUP9 ADD PUSH2 0x1F61 JUMP JUMPDEST DUP11 ADD DUP5 ADD SWAP7 POP POP JUMPDEST POP POP POP POP PUSH1 0x1 PUSH1 0x1 PUSH1 0x40 SHL SUB DUP9 AND PUSH1 0x60 DUP7 ADD MSTORE POP SWAP2 POP PUSH2 0x1FA1 SWAP1 POP JUMP JUMPDEST PUSH1 0xFF SWAP4 SWAP1 SWAP4 AND PUSH1 0x80 DUP3 ADD MSTORE PUSH1 0xA0 ADD MSTORE SWAP5 SWAP4 POP POP POP POP JUMP JUMPDEST PUSH1 0x0 DUP3 NOT DUP3 GT ISZERO PUSH2 0x1FCB JUMPI PUSH2 0x1FCB PUSH2 0x2071 JUMP JUMPDEST POP ADD SWAP1 JUMP JUMPDEST PUSH1 0x0 DUP2 PUSH1 0x0 NOT DIV DUP4 GT DUP3 ISZERO ISZERO AND ISZERO PUSH2 0x1FEA JUMPI PUSH2 0x1FEA PUSH2 0x2071 JUMP JUMPDEST POP MUL SWAP1 JUMP JUMPDEST PUSH1 0x0 JUMPDEST DUP4 DUP2 LT ISZERO PUSH2 0x200A JUMPI DUP2 DUP2 ADD MLOAD DUP4 DUP3 ADD MSTORE PUSH1 0x20 ADD PUSH2 0x1FF2 JUMP JUMPDEST DUP4 DUP2 GT ISZERO PUSH2 0x2019 JUMPI PUSH1 0x0 DUP5 DUP5 ADD MSTORE JUMPDEST POP POP POP POP JUMP JUMPDEST PUSH1 0x0 DUP2 PUSH2 0x202E JUMPI PUSH2 0x202E PUSH2 0x2071 JUMP JUMPDEST POP PUSH1 0x0 NOT ADD SWAP1 JUMP JUMPDEST PUSH1 0x1 DUP2 DUP2 SHR SWAP1 DUP3 AND DUP1 PUSH2 0x204A JUMPI PUSH1 0x7F DUP3 AND SWAP2 POP JUMPDEST PUSH1 0x20 DUP3 LT DUP2 EQ ISZERO PUSH2 0x206B JUMPI PUSH4 0x4E487B71 PUSH1 0xE0 SHL PUSH1 0x0 MSTORE PUSH1 0x22 PUSH1 0x4 MSTORE PUSH1 0x24 PUSH1 0x0 REVERT JUMPDEST POP SWAP2 SWAP1 POP JUMP JUMPDEST PUSH4 0x4E487B71 PUSH1 0xE0 SHL PUSH1 0x0 MSTORE PUSH1 0x11 PUSH1 0x4 MSTORE PUSH1 0x24 PUSH1 0x0 REVERT JUMPDEST PUSH4 0x4E487B71 PUSH1 0xE0 SHL PUSH1 0x0 MSTORE PUSH1 0x32 PUSH1 0x4 MSTORE PUSH1 0x24 PUSH1 0x0 REVERT JUMPDEST PUSH4 0x4E487B71 PUSH1 0xE0 SHL PUSH1 0x0 MSTORE PUSH1 0x41 PUSH1 0x4 MSTORE PUSH1 0x24 PUSH1 0x0 REVERT INVALID PUSH18 0xF3D55856E4058ED06EE057D79ADA615F65CD CREATE2 0xF9 0xEE DUP9 XOR SHL SWAP2 TIMESTAMP 0x25 ADDMOD DUP16 DUP4 0x4F LOG2 PUSH5 0x6970667358 0x22 SLT KECCAK256 DUP6 0xC7 NUMBER 0x2A CODESIZE 0x2D DUP11 LOG3 0xE4 CALLER PUSH7 0xC010ECC8FBD28 0x2E DUP15 SUB 0xD4 DUP3 DUP8 0xC6 LOG1 SDIV KECCAK256 0xAA 0x2F PUSH13 0x3164736F6C6343000806003300 "
		},
		"gasEstimates": {
			"creation": {
				"codeDepositCost": "1691400",
				"executionCost": "1778",
				"totalCost": "1693178"
			},
			"external": {
				"DEFAULT_ADMIN_ROLE()": "284",
				"MODERATOR_ROLE()": "infinite",
				"POINTS_ROLE()": "239",
				"addPoints(address,uint256)": "infinite",
				"addressToIndex(address)": "2629",
				"addresses(uint256)": "4702",
				"changeName(uint256,string)": "infinite",
				"changePic(uint256,uint8)": "infinite",
				"createProfile(string,uint8)": "infinite",
				"getAddressByName(string)": "infinite",
				"getProfileByAddress(address)": "infinite",
				"getProfileByName(string)": "infinite",
				"getProfileCount()": "2338",
				"getRoleAdmin(bytes32)": "2534",
				"grantRole(bytes32,address)": "infinite",
				"hasRole(bytes32,address)": "2722",
				"initialize()": "infinite",
				"nameTaken(string)": "infinite",
				"nameToIndex(string)": "infinite",
				"points(uint256)": "2483",
				"profileExists(address)": "4774",
				"profiles(uint256)": "infinite",
				"renounceRole(bytes32,address)": "29135",
				"revokeRole(bytes32,address)": "infinite",
				"setNameLengths(uint8,uint8)": "infinite",
				"setPicMax(uint8)": "infinite",
				"supportsInterface(bytes4)": "450"
			}
		},
		"methodIdentifiers": {
			"DEFAULT_ADMIN_ROLE()": "a217fddf",
			"MODERATOR_ROLE()": "797669c9",
			"POINTS_ROLE()": "cb735807",
			"addPoints(address,uint256)": "507cd30f",
			"addressToIndex(address)": "f667e0aa",
			"addresses(uint256)": "edf26d9b",
			"changeName(uint256,string)": "c39cbef1",
			"changePic(uint256,uint8)": "3f5df246",
			"createProfile(string,uint8)": "bd3eaa6f",
			"getAddressByName(string)": "9a65ddec",
			"getProfileByAddress(address)": "4cd6959c",
			"getProfileByName(string)": "7d6df699",
			"getProfileCount()": "3697611a",
			"getRoleAdmin(bytes32)": "248a9ca3",
			"grantRole(bytes32,address)": "2f2ff15d",
			"hasRole(bytes32,address)": "91d14854",
			"initialize()": "8129fc1c",
			"nameTaken(string)": "91fc437e",
			"nameToIndex(string)": "c1481626",
			"points(uint256)": "9799b4e7",
			"profileExists(address)": "05cfa06f",
			"profiles(uint256)": "c36fe3d6",
			"renounceRole(bytes32,address)": "36568abe",
			"revokeRole(bytes32,address)": "d547741f",
			"setNameLengths(uint8,uint8)": "393bca2d",
			"setPicMax(uint8)": "21319c49",
			"supportsInterface(bytes4)": "01ffc9a7"
		}
	},
	"abi": [
		{
			"anonymous": false,
			"inputs": [
				{
					"indexed": false,
					"internalType": "uint256",
					"name": "profileId",
					"type": "uint256"
				},
				{
					"indexed": false,
					"internalType": "address",
					"name": "owner",
					"type": "address"
				},
				{
					"indexed": false,
					"internalType": "string",
					"name": "name",
					"type": "string"
				},
				{
					"indexed": false,
					"internalType": "uint64",
					"name": "created",
					"type": "uint64"
				},
				{
					"indexed": false,
					"internalType": "uint8",
					"name": "picId",
					"type": "uint8"
				}
			],
			"name": "ProfileCreated",
			"type": "event"
		},
		{
			"anonymous": false,
			"inputs": [
				{
					"indexed": false,
					"internalType": "uint256",
					"name": "profileId",
					"type": "uint256"
				},
				{
					"indexed": false,
					"internalType": "address",
					"name": "owner",
					"type": "address"
				},
				{
					"indexed": false,
					"internalType": "string",
					"name": "name",
					"type": "string"
				},
				{
					"indexed": false,
					"internalType": "uint64",
					"name": "created",
					"type": "uint64"
				},
				{
					"indexed": false,
					"internalType": "uint8",
					"name": "picId",
					"type": "uint8"
				},
				{
					"indexed": false,
					"internalType": "uint256",
					"name": "heroId",
					"type": "uint256"
				}
			],
			"name": "ProfileUpdated",
			"type": "event"
		},
		{
			"anonymous": false,
			"inputs": [
				{
					"indexed": true,
					"internalType": "bytes32",
					"name": "role",
					"type": "bytes32"
				},
				{
					"indexed": true,
					"internalType": "bytes32",
					"name": "previousAdminRole",
					"type": "bytes32"
				},
				{
					"indexed": true,
					"internalType": "bytes32",
					"name": "newAdminRole",
					"type": "bytes32"
				}
			],
			"name": "RoleAdminChanged",
			"type": "event"
		},
		{
			"anonymous": false,
			"inputs": [
				{
					"indexed": true,
					"internalType": "bytes32",
					"name": "role",
					"type": "bytes32"
				},
				{
					"indexed": true,
					"internalType": "address",
					"name": "account",
					"type": "address"
				},
				{
					"indexed": true,
					"internalType": "address",
					"name": "sender",
					"type": "address"
				}
			],
			"name": "RoleGranted",
			"type": "event"
		},
		{
			"anonymous": false,
			"inputs": [
				{
					"indexed": true,
					"internalType": "bytes32",
					"name": "role",
					"type": "bytes32"
				},
				{
					"indexed": true,
					"internalType": "address",
					"name": "account",
					"type": "address"
				},
				{
					"indexed": true,
					"internalType": "address",
					"name": "sender",
					"type": "address"
				}
			],
			"name": "RoleRevoked",
			"type": "event"
		},
		{
			"inputs": [],
			"name": "DEFAULT_ADMIN_ROLE",
			"outputs": [
				{
					"internalType": "bytes32",
					"name": "",
					"type": "bytes32"
				}
			],
			"stateMutability": "view",
			"type": "function"
		},
		{
			"inputs": [],
			"name": "MODERATOR_ROLE",
			"outputs": [
				{
					"internalType": "bytes32",
					"name": "",
					"type": "bytes32"
				}
			],
			"stateMutability": "view",
			"type": "function"
		},
		{
			"inputs": [],
			"name": "POINTS_ROLE",
			"outputs": [
				{
					"internalType": "bytes32",
					"name": "",
					"type": "bytes32"
				}
			],
			"stateMutability": "view",
			"type": "function"
		},
		{
			"inputs": [
				{
					"internalType": "address",
					"name": "_address",
					"type": "address"
				},
				{
					"internalType": "uint256",
					"name": "_points",
					"type": "uint256"
				}
			],
			"name": "addPoints",
			"outputs": [
				{
					"internalType": "bool",
					"name": "success",
					"type": "bool"
				}
			],
			"stateMutability": "nonpayable",
			"type": "function"
		},
		{
			"inputs": [
				{
					"internalType": "address",
					"name": "",
					"type": "address"
				}
			],
			"name": "addressToIndex",
			"outputs": [
				{
					"internalType": "uint256",
					"name": "",
					"type": "uint256"
				}
			],
			"stateMutability": "view",
			"type": "function"
		},
		{
			"inputs": [
				{
					"internalType": "uint256",
					"name": "",
					"type": "uint256"
				}
			],
			"name": "addresses",
			"outputs": [
				{
					"internalType": "address",
					"name": "",
					"type": "address"
				}
			],
			"stateMutability": "view",
			"type": "function"
		},
		{
			"inputs": [
				{
					"internalType": "uint256",
					"name": "profileId",
					"type": "uint256"
				},
				{
					"internalType": "string",
					"name": "_name",
					"type": "string"
				}
			],
			"name": "changeName",
			"outputs": [
				{
					"internalType": "bool",
					"name": "success",
					"type": "bool"
				}
			],
			"stateMutability": "nonpayable",
			"type": "function"
		},
		{
			"inputs": [
				{
					"internalType": "uint256",
					"name": "profileId",
					"type": "uint256"
				},
				{
					"internalType": "uint8",
					"name": "_picId",
					"type": "uint8"
				}
			],
			"name": "changePic",
			"outputs": [
				{
					"internalType": "bool",
					"name": "success",
					"type": "bool"
				}
			],
			"stateMutability": "nonpayable",
			"type": "function"
		},
		{
			"inputs": [
				{
					"internalType": "string",
					"name": "_name",
					"type": "string"
				},
				{
					"internalType": "uint8",
					"name": "_picId",
					"type": "uint8"
				}
			],
			"name": "createProfile",
			"outputs": [
				{
					"internalType": "bool",
					"name": "success",
					"type": "bool"
				}
			],
			"stateMutability": "nonpayable",
			"type": "function"
		},
		{
			"inputs": [
				{
					"internalType": "string",
					"name": "name",
					"type": "string"
				}
			],
			"name": "getAddressByName",
			"outputs": [
				{
					"internalType": "address",
					"name": "profileAddress",
					"type": "address"
				}
			],
			"stateMutability": "view",
			"type": "function"
		},
		{
			"inputs": [
				{
					"internalType": "address",
					"name": "profileAddress",
					"type": "address"
				}
			],
			"name": "getProfileByAddress",
			"outputs": [
				{
					"internalType": "uint256",
					"name": "_id",
					"type": "uint256"
				},
				{
					"internalType": "address",
					"name": "_owner",
					"type": "address"
				},
				{
					"internalType": "string",
					"name": "_name",
					"type": "string"
				},
				{
					"internalType": "uint64",
					"name": "_created",
					"type": "uint64"
				},
				{
					"internalType": "uint8",
					"name": "_picId",
					"type": "uint8"
				},
				{
					"internalType": "uint256",
					"name": "_heroId",
					"type": "uint256"
				},
				{
					"internalType": "uint256",
					"name": "_points",
					"type": "uint256"
				}
			],
			"stateMutability": "view",
			"type": "function"
		},
		{
			"inputs": [
				{
					"internalType": "string",
					"name": "name",
					"type": "string"
				}
			],
			"name": "getProfileByName",
			"outputs": [
				{
					"internalType": "uint256",
					"name": "_id",
					"type": "uint256"
				},
				{
					"internalType": "address",
					"name": "_owner",
					"type": "address"
				},
				{
					"internalType": "string",
					"name": "_name",
					"type": "string"
				},
				{
					"internalType": "uint64",
					"name": "_created",
					"type": "uint64"
				},
				{
					"internalType": "uint8",
					"name": "_picId",
					"type": "uint8"
				},
				{
					"internalType": "uint256",
					"name": "_heroId",
					"type": "uint256"
				},
				{
					"internalType": "uint256",
					"name": "_points",
					"type": "uint256"
				}
			],
			"stateMutability": "view",
			"type": "function"
		},
		{
			"inputs": [],
			"name": "getProfileCount",
			"outputs": [
				{
					"internalType": "uint256",
					"name": "count",
					"type": "uint256"
				}
			],
			"stateMutability": "view",
			"type": "function"
		},
		{
			"inputs": [
				{
					"internalType": "bytes32",
					"name": "role",
					"type": "bytes32"
				}
			],
			"name": "getRoleAdmin",
			"outputs": [
				{
					"internalType": "bytes32",
					"name": "",
					"type": "bytes32"
				}
			],
			"stateMutability": "view",
			"type": "function"
		},
		{
			"inputs": [
				{
					"internalType": "bytes32",
					"name": "role",
					"type": "bytes32"
				},
				{
					"internalType": "address",
					"name": "account",
					"type": "address"
				}
			],
			"name": "grantRole",
			"outputs": [],
			"stateMutability": "nonpayable",
			"type": "function"
		},
		{
			"inputs": [
				{
					"internalType": "bytes32",
					"name": "role",
					"type": "bytes32"
				},
				{
					"internalType": "address",
					"name": "account",
					"type": "address"
				}
			],
			"name": "hasRole",
			"outputs": [
				{
					"internalType": "bool",
					"name": "",
					"type": "bool"
				}
			],
			"stateMutability": "view",
			"type": "function"
		},
		{
			"inputs": [],
			"name": "initialize",
			"outputs": [],
			"stateMutability": "nonpayable",
			"type": "function"
		},
		{
			"inputs": [
				{
					"internalType": "string",
					"name": "name",
					"type": "string"
				}
			],
			"name": "nameTaken",
			"outputs": [
				{
					"internalType": "bool",
					"name": "taken",
					"type": "bool"
				}
			],
			"stateMutability": "view",
			"type": "function"
		},
		{
			"inputs": [
				{
					"internalType": "string",
					"name": "",
					"type": "string"
				}
			],
			"name": "nameToIndex",
			"outputs": [
				{
					"internalType": "uint256",
					"name": "",
					"type": "uint256"
				}
			],
			"stateMutability": "view",
			"type": "function"
		},
		{
			"inputs": [
				{
					"internalType": "uint256",
					"name": "",
					"type": "uint256"
				}
			],
			"name": "points",
			"outputs": [
				{
					"internalType": "uint256",
					"name": "",
					"type": "uint256"
				}
			],
			"stateMutability": "view",
			"type": "function"
		},
		{
			"inputs": [
				{
					"internalType": "address",
					"name": "profileAddress",
					"type": "address"
				}
			],
			"name": "profileExists",
			"outputs": [
				{
					"internalType": "bool",
					"name": "exists",
					"type": "bool"
				}
			],
			"stateMutability": "view",
			"type": "function"
		},
		{
			"inputs": [
				{
					"internalType": "uint256",
					"name": "",
					"type": "uint256"
				}
			],
			"name": "profiles",
			"outputs": [
				{
					"internalType": "uint256",
					"name": "id",
					"type": "uint256"
				},
				{
					"internalType": "address",
					"name": "owner",
					"type": "address"
				},
				{
					"internalType": "string",
					"name": "name",
					"type": "string"
				},
				{
					"internalType": "uint64",
					"name": "created",
					"type": "uint64"
				},
				{
					"internalType": "uint8",
					"name": "picId",
					"type": "uint8"
				},
				{
					"internalType": "uint256",
					"name": "heroId",
					"type": "uint256"
				},
				{
					"internalType": "bool",
					"name": "set",
					"type": "bool"
				}
			],
			"stateMutability": "view",
			"type": "function"
		},
		{
			"inputs": [
				{
					"internalType": "bytes32",
					"name": "role",
					"type": "bytes32"
				},
				{
					"internalType": "address",
					"name": "account",
					"type": "address"
				}
			],
			"name": "renounceRole",
			"outputs": [],
			"stateMutability": "nonpayable",
			"type": "function"
		},
		{
			"inputs": [
				{
					"internalType": "bytes32",
					"name": "role",
					"type": "bytes32"
				},
				{
					"internalType": "address",
					"name": "account",
					"type": "address"
				}
			],
			"name": "revokeRole",
			"outputs": [],
			"stateMutability": "nonpayable",
			"type": "function"
		},
		{
			"inputs": [
				{
					"internalType": "uint8",
					"name": "_min",
					"type": "uint8"
				},
				{
					"internalType": "uint8",
					"name": "_max",
					"type": "uint8"
				}
			],
			"name": "setNameLengths",
			"outputs": [
				{
					"internalType": "bool",
					"name": "success",
					"type": "bool"
				}
			],
			"stateMutability": "nonpayable",
			"type": "function"
		},
		{
			"inputs": [
				{
					"internalType": "uint8",
					"name": "_max",
					"type": "uint8"
				}
			],
			"name": "setPicMax",
			"outputs": [
				{
					"internalType": "bool",
					"name": "success",
					"type": "bool"
				}
			],
			"stateMutability": "nonpayable",
			"type": "function"
		},
		{
			"inputs": [
				{
					"internalType": "bytes4",
					"name": "interfaceId",
					"type": "bytes4"
				}
			],
			"name": "supportsInterface",
			"outputs": [
				{
					"internalType": "bool",
					"name": "",
					"type": "bool"
				}
			],
			"stateMutability": "view",
			"type": "function"
		}
	]
}